{
  "abi": [
    {
      "inputs": [],
      "name": "ALEADY_MINTED",
      "type": "error"
    },
    {
      "inputs": [],
      "name": "APPROVAL_TO_CURRENT_OWNER",
      "type": "error"
    },
    {
      "inputs": [],
      "name": "APPROVE_TO_CALLER",
      "type": "error"
    },
    {
      "inputs": [],
      "name": "BLOCK_NOT_YET_MINED",
      "type": "error"
    },
    {
      "inputs": [],
      "name": "CALLER_NOT_OWNER_OR_APPROVED",
      "type": "error"
    },
    {
      "inputs": [],
      "name": "DELEGATE_ADDRESS_ZERO",
      "type": "error"
    },
    {
      "inputs": [],
      "name": "GAME_ISNT_OVER_YET",
      "type": "error"
    },
    {
      "inputs": [],
      "name": "INCORRECT_OWNER",
      "type": "error"
    },
    {
      "inputs": [],
      "name": "INVALID_PAYMENT_EVENT",
      "type": "error"
    },
    {
      "inputs": [],
      "name": "INVALID_REDEMPTION_EVENT",
      "type": "error"
    },
    {
      "inputs": [],
      "name": "INVALID_REDEMPTION_METADATA",
      "type": "error"
    },
    {
      "inputs": [],
      "name": "INVALID_REDEMPTION_WEIGHTS",
      "type": "error"
    },
    {
      "inputs": [],
      "name": "INVALID_TIER_ID",
      "type": "error"
    },
    {
      "inputs": [],
      "name": "INVALID_TOKEN_ID",
      "type": "error"
    },
    {
      "inputs": [],
      "name": "MINT_TO_ZERO",
      "type": "error"
    },
    {
      "inputs": [],
      "name": "NOTHING_TO_CLAIM",
      "type": "error"
    },
    {
      "inputs": [],
      "name": "NOT_AVAILABLE",
      "type": "error"
    },
    {
      "inputs": [],
      "name": "OVERSPENDING",
      "type": "error"
    },
    {
      "inputs": [
        {
          "internalType": "uint256",
          "name": "prod1",
          "type": "uint256"
        },
        {
          "internalType": "uint256",
          "name": "denominator",
          "type": "uint256"
        }
      ],
      "name": "PRBMath__MulDivOverflow",
      "type": "error"
    },
    {
      "inputs": [],
      "name": "PRICING_RESOLVER_CHANGES_PAUSED",
      "type": "error"
    },
    {
      "inputs": [],
      "name": "RESERVED_TOKEN_MINTING_PAUSED",
      "type": "error"
    },
    {
      "inputs": [],
      "name": "TRANSFERS_PAUSED",
      "type": "error"
    },
    {
      "inputs": [],
      "name": "TRANSFER_TO_NON_IMPLEMENTER",
      "type": "error"
    },
    {
      "inputs": [],
      "name": "TRANSFER_TO_ZERO_ADDRESS",
      "type": "error"
    },
    {
      "inputs": [],
      "name": "UNAUTHORIZED",
      "type": "error"
    },
    {
      "inputs": [],
      "name": "UNEXPECTED_TOKEN_REDEEMED",
      "type": "error"
    },
    {
      "anonymous": false,
      "inputs": [
        {
          "indexed": true,
          "internalType": "uint256",
          "name": "changeAmount",
          "type": "uint256"
        },
        {
          "indexed": true,
          "internalType": "uint256",
          "name": "newTotalCredits",
          "type": "uint256"
        },
        {
          "indexed": true,
          "internalType": "address",
          "name": "account",
          "type": "address"
        },
        {
          "indexed": false,
          "internalType": "address",
          "name": "caller",
          "type": "address"
        }
      ],
      "name": "AddCredits",
      "type": "event"
    },
    {
      "anonymous": false,
      "inputs": [
        {
          "indexed": true,
          "internalType": "uint256",
          "name": "tierId",
          "type": "uint256"
        },
        {
          "components": [
            {
              "internalType": "uint80",
              "name": "contributionFloor",
              "type": "uint80"
            },
            {
              "internalType": "uint48",
              "name": "lockedUntil",
              "type": "uint48"
            },
            {
              "internalType": "uint40",
              "name": "initialQuantity",
              "type": "uint40"
            },
            {
              "internalType": "uint16",
              "name": "votingUnits",
              "type": "uint16"
            },
            {
              "internalType": "uint16",
              "name": "reservedRate",
              "type": "uint16"
            },
            {
              "internalType": "address",
              "name": "reservedTokenBeneficiary",
              "type": "address"
            },
            {
              "internalType": "uint8",
              "name": "royaltyRate",
              "type": "uint8"
            },
            {
              "internalType": "address",
              "name": "royaltyBeneficiary",
              "type": "address"
            },
            {
              "internalType": "bytes32",
              "name": "encodedIPFSUri",
              "type": "bytes32"
            },
            {
              "internalType": "uint8",
              "name": "category",
              "type": "uint8"
            },
            {
              "internalType": "bool",
              "name": "allowManualMint",
              "type": "bool"
            },
            {
              "internalType": "bool",
              "name": "shouldUseReservedTokenBeneficiaryAsDefault",
              "type": "bool"
            },
            {
              "internalType": "bool",
              "name": "shouldUseRoyaltyBeneficiaryAsDefault",
              "type": "bool"
            },
            {
              "internalType": "bool",
              "name": "transfersPausable",
              "type": "bool"
            }
          ],
          "indexed": false,
          "internalType": "struct JB721TierParams",
          "name": "data",
          "type": "tuple"
        },
        {
          "indexed": false,
          "internalType": "address",
          "name": "caller",
          "type": "address"
        }
      ],
      "name": "AddTier",
      "type": "event"
    },
    {
      "anonymous": false,
      "inputs": [
        {
          "indexed": true,
          "internalType": "address",
          "name": "owner",
          "type": "address"
        },
        {
          "indexed": true,
          "internalType": "address",
          "name": "approved",
          "type": "address"
        },
        {
          "indexed": true,
          "internalType": "uint256",
          "name": "tokenId",
          "type": "uint256"
        }
      ],
      "name": "Approval",
      "type": "event"
    },
    {
      "anonymous": false,
      "inputs": [
        {
          "indexed": true,
          "internalType": "address",
          "name": "owner",
          "type": "address"
        },
        {
          "indexed": true,
          "internalType": "address",
          "name": "operator",
          "type": "address"
        },
        {
          "indexed": false,
          "internalType": "bool",
          "name": "approved",
          "type": "bool"
        }
      ],
      "name": "ApprovalForAll",
      "type": "event"
    },
    {
      "anonymous": false,
      "inputs": [
        {
          "indexed": true,
          "internalType": "address",
          "name": "delegator",
          "type": "address"
        },
        {
          "indexed": true,
          "internalType": "address",
          "name": "fromDelegate",
          "type": "address"
        },
        {
          "indexed": true,
          "internalType": "address",
          "name": "toDelegate",
          "type": "address"
        }
      ],
      "name": "DelegateChanged",
      "type": "event"
    },
    {
      "anonymous": false,
      "inputs": [
        {
          "indexed": true,
          "internalType": "uint256",
          "name": "tokenId",
          "type": "uint256"
        },
        {
          "indexed": true,
          "internalType": "uint256",
          "name": "tierId",
          "type": "uint256"
        },
        {
          "indexed": true,
          "internalType": "address",
          "name": "beneficiary",
          "type": "address"
        },
        {
          "indexed": false,
          "internalType": "uint256",
          "name": "totalAmountContributed",
          "type": "uint256"
        },
        {
          "indexed": false,
          "internalType": "address",
          "name": "caller",
          "type": "address"
        }
      ],
      "name": "Mint",
      "type": "event"
    },
    {
      "anonymous": false,
      "inputs": [
        {
          "indexed": true,
          "internalType": "uint256",
          "name": "tokenId",
          "type": "uint256"
        },
        {
          "indexed": true,
          "internalType": "uint256",
          "name": "tierId",
          "type": "uint256"
        },
        {
          "indexed": true,
          "internalType": "address",
          "name": "beneficiary",
          "type": "address"
        },
        {
          "indexed": false,
          "internalType": "address",
          "name": "caller",
          "type": "address"
        }
      ],
      "name": "MintReservedToken",
      "type": "event"
    },
    {
      "anonymous": false,
      "inputs": [
        {
          "indexed": true,
          "internalType": "address",
          "name": "previousOwner",
          "type": "address"
        },
        {
          "indexed": true,
          "internalType": "address",
          "name": "newOwner",
          "type": "address"
        }
      ],
      "name": "OwnershipTransferred",
      "type": "event"
    },
    {
      "anonymous": false,
      "inputs": [
        {
          "indexed": true,
          "internalType": "uint256",
          "name": "tierId",
          "type": "uint256"
        },
        {
          "indexed": false,
          "internalType": "address",
          "name": "caller",
          "type": "address"
        }
      ],
      "name": "RemoveTier",
      "type": "event"
    },
    {
      "anonymous": false,
      "inputs": [
        {
          "indexed": true,
          "internalType": "string",
          "name": "baseUri",
          "type": "string"
        },
        {
          "indexed": false,
          "internalType": "address",
          "name": "caller",
          "type": "address"
        }
      ],
      "name": "SetBaseUri",
      "type": "event"
    },
    {
      "anonymous": false,
      "inputs": [
        {
          "indexed": true,
          "internalType": "string",
          "name": "contractUri",
          "type": "string"
        },
        {
          "indexed": false,
          "internalType": "address",
          "name": "caller",
          "type": "address"
        }
      ],
      "name": "SetContractUri",
      "type": "event"
    },
    {
      "anonymous": false,
      "inputs": [
        {
          "indexed": true,
          "internalType": "address",
          "name": "beneficiary",
          "type": "address"
        },
        {
          "indexed": false,
          "internalType": "address",
          "name": "caller",
          "type": "address"
        }
      ],
      "name": "SetDefaultReservedTokenBeneficiary",
      "type": "event"
    },
    {
      "anonymous": false,
      "inputs": [
        {
          "indexed": true,
          "internalType": "uint256",
          "name": "tierId",
          "type": "uint256"
        },
        {
          "indexed": false,
          "internalType": "bytes32",
          "name": "encodedIPFSUri",
          "type": "bytes32"
        },
        {
          "indexed": false,
          "internalType": "address",
          "name": "caller",
          "type": "address"
        }
      ],
      "name": "SetEncodedIPFSUri",
      "type": "event"
    },
    {
      "anonymous": false,
      "inputs": [
        {
          "indexed": true,
          "internalType": "contract IJBTokenUriResolver",
          "name": "newResolver",
          "type": "address"
        },
        {
          "indexed": false,
          "internalType": "address",
          "name": "caller",
          "type": "address"
        }
      ],
      "name": "SetTokenUriResolver",
      "type": "event"
    },
    {
      "anonymous": false,
      "inputs": [
        {
          "indexed": true,
          "internalType": "address",
          "name": "delegator",
          "type": "address"
        },
        {
          "indexed": true,
          "internalType": "address",
          "name": "fromDelegate",
          "type": "address"
        },
        {
          "indexed": true,
          "internalType": "address",
          "name": "toDelegate",
          "type": "address"
        },
        {
          "indexed": false,
          "internalType": "uint256",
          "name": "tierId",
          "type": "uint256"
        },
        {
          "indexed": false,
          "internalType": "address",
          "name": "caller",
          "type": "address"
        }
      ],
      "name": "TierDelegateChanged",
      "type": "event"
    },
    {
      "anonymous": false,
      "inputs": [
        {
          "indexed": true,
          "internalType": "address",
          "name": "delegate",
          "type": "address"
        },
        {
          "indexed": true,
          "internalType": "uint256",
          "name": "tierId",
          "type": "uint256"
        },
        {
          "indexed": false,
          "internalType": "uint256",
          "name": "previousBalance",
          "type": "uint256"
        },
        {
          "indexed": false,
          "internalType": "uint256",
          "name": "newBalance",
          "type": "uint256"
        },
        {
          "indexed": false,
          "internalType": "address",
          "name": "caller",
          "type": "address"
        }
      ],
      "name": "TierDelegateVotesChanged",
      "type": "event"
    },
    {
      "anonymous": false,
      "inputs": [
        {
          "indexed": true,
          "internalType": "address",
          "name": "from",
          "type": "address"
        },
        {
          "indexed": true,
          "internalType": "address",
          "name": "to",
          "type": "address"
        },
        {
          "indexed": true,
          "internalType": "uint256",
          "name": "tokenId",
          "type": "uint256"
        }
      ],
      "name": "Transfer",
      "type": "event"
    },
    {
      "anonymous": false,
      "inputs": [
        {
          "indexed": true,
          "internalType": "uint256",
          "name": "changeAmount",
          "type": "uint256"
        },
        {
          "indexed": true,
          "internalType": "uint256",
          "name": "newTotalCredits",
          "type": "uint256"
        },
        {
          "indexed": true,
          "internalType": "address",
          "name": "account",
          "type": "address"
        },
        {
          "indexed": false,
          "internalType": "address",
          "name": "caller",
          "type": "address"
        }
      ],
      "name": "UseCredits",
      "type": "event"
    },
    {
      "inputs": [],
      "name": "TOTAL_REDEMPTION_WEIGHT",
      "outputs": [
        {
          "internalType": "uint256",
          "name": "",
          "type": "uint256"
        }
      ],
      "stateMutability": "view",
      "type": "function"
    },
    {
      "inputs": [
        {
          "components": [
            {
              "internalType": "uint80",
              "name": "contributionFloor",
              "type": "uint80"
            },
            {
              "internalType": "uint48",
              "name": "lockedUntil",
              "type": "uint48"
            },
            {
              "internalType": "uint40",
              "name": "initialQuantity",
              "type": "uint40"
            },
            {
              "internalType": "uint16",
              "name": "votingUnits",
              "type": "uint16"
            },
            {
              "internalType": "uint16",
              "name": "reservedRate",
              "type": "uint16"
            },
            {
              "internalType": "address",
              "name": "reservedTokenBeneficiary",
              "type": "address"
            },
            {
              "internalType": "uint8",
              "name": "royaltyRate",
              "type": "uint8"
            },
            {
              "internalType": "address",
              "name": "royaltyBeneficiary",
              "type": "address"
            },
            {
              "internalType": "bytes32",
              "name": "encodedIPFSUri",
              "type": "bytes32"
            },
            {
              "internalType": "uint8",
              "name": "category",
              "type": "uint8"
            },
            {
              "internalType": "bool",
              "name": "allowManualMint",
              "type": "bool"
            },
            {
              "internalType": "bool",
              "name": "shouldUseReservedTokenBeneficiaryAsDefault",
              "type": "bool"
            },
            {
              "internalType": "bool",
              "name": "shouldUseRoyaltyBeneficiaryAsDefault",
              "type": "bool"
            },
            {
              "internalType": "bool",
              "name": "transfersPausable",
              "type": "bool"
            }
          ],
          "internalType": "struct JB721TierParams[]",
          "name": "_tiersToAdd",
          "type": "tuple[]"
        },
        {
          "internalType": "uint256[]",
          "name": "_tierIdsToRemove",
          "type": "uint256[]"
        }
      ],
      "name": "adjustTiers",
      "outputs": [],
      "stateMutability": "nonpayable",
      "type": "function"
    },
    {
      "inputs": [
        {
          "internalType": "address",
          "name": "to",
          "type": "address"
        },
        {
          "internalType": "uint256",
          "name": "tokenId",
          "type": "uint256"
        }
      ],
      "name": "approve",
      "outputs": [],
      "stateMutability": "nonpayable",
      "type": "function"
    },
    {
      "inputs": [
        {
          "internalType": "address",
          "name": "_owner",
          "type": "address"
        }
      ],
      "name": "balanceOf",
      "outputs": [
        {
          "internalType": "uint256",
          "name": "balance",
          "type": "uint256"
        }
      ],
      "stateMutability": "view",
      "type": "function"
    },
    {
      "inputs": [],
      "name": "codeOrigin",
      "outputs": [
        {
          "internalType": "address",
          "name": "",
          "type": "address"
        }
      ],
      "stateMutability": "view",
      "type": "function"
    },
    {
      "inputs": [],
      "name": "contractURI",
      "outputs": [
        {
          "internalType": "string",
          "name": "",
          "type": "string"
        }
      ],
      "stateMutability": "view",
      "type": "function"
    },
    {
      "inputs": [
        {
          "internalType": "address",
          "name": "",
          "type": "address"
        }
      ],
      "name": "creditsOf",
      "outputs": [
        {
          "internalType": "uint256",
          "name": "",
          "type": "uint256"
        }
      ],
      "stateMutability": "view",
      "type": "function"
    },
    {
      "inputs": [
        {
          "components": [
            {
              "internalType": "address",
              "name": "payer",
              "type": "address"
            },
            {
              "internalType": "uint256",
              "name": "projectId",
              "type": "uint256"
            },
            {
              "internalType": "uint256",
              "name": "currentFundingCycleConfiguration",
              "type": "uint256"
            },
            {
              "components": [
                {
                  "internalType": "address",
                  "name": "token",
                  "type": "address"
                },
                {
                  "internalType": "uint256",
                  "name": "value",
                  "type": "uint256"
                },
                {
                  "internalType": "uint256",
                  "name": "decimals",
                  "type": "uint256"
                },
                {
                  "internalType": "uint256",
                  "name": "currency",
                  "type": "uint256"
                }
              ],
              "internalType": "struct JBTokenAmount",
              "name": "amount",
              "type": "tuple"
            },
            {
              "components": [
                {
                  "internalType": "address",
                  "name": "token",
                  "type": "address"
                },
                {
                  "internalType": "uint256",
                  "name": "value",
                  "type": "uint256"
                },
                {
                  "internalType": "uint256",
                  "name": "decimals",
                  "type": "uint256"
                },
                {
                  "internalType": "uint256",
                  "name": "currency",
                  "type": "uint256"
                }
              ],
              "internalType": "struct JBTokenAmount",
              "name": "forwardedAmount",
              "type": "tuple"
            },
            {
              "internalType": "uint256",
              "name": "projectTokenCount",
              "type": "uint256"
            },
            {
              "internalType": "address",
              "name": "beneficiary",
              "type": "address"
            },
            {
              "internalType": "bool",
              "name": "preferClaimedTokens",
              "type": "bool"
            },
            {
              "internalType": "string",
              "name": "memo",
              "type": "string"
            },
            {
              "internalType": "bytes",
              "name": "metadata",
              "type": "bytes"
            }
          ],
          "internalType": "struct JBDidPayData",
          "name": "_data",
          "type": "tuple"
        }
      ],
      "name": "didPay",
      "outputs": [],
      "stateMutability": "payable",
      "type": "function"
    },
    {
      "inputs": [
        {
          "components": [
            {
              "internalType": "address",
              "name": "holder",
              "type": "address"
            },
            {
              "internalType": "uint256",
              "name": "projectId",
              "type": "uint256"
            },
            {
              "internalType": "uint256",
              "name": "currentFundingCycleConfiguration",
              "type": "uint256"
            },
            {
              "internalType": "uint256",
              "name": "projectTokenCount",
              "type": "uint256"
            },
            {
              "components": [
                {
                  "internalType": "address",
                  "name": "token",
                  "type": "address"
                },
                {
                  "internalType": "uint256",
                  "name": "value",
                  "type": "uint256"
                },
                {
                  "internalType": "uint256",
                  "name": "decimals",
                  "type": "uint256"
                },
                {
                  "internalType": "uint256",
                  "name": "currency",
                  "type": "uint256"
                }
              ],
              "internalType": "struct JBTokenAmount",
              "name": "reclaimedAmount",
              "type": "tuple"
            },
            {
              "components": [
                {
                  "internalType": "address",
                  "name": "token",
                  "type": "address"
                },
                {
                  "internalType": "uint256",
                  "name": "value",
                  "type": "uint256"
                },
                {
                  "internalType": "uint256",
                  "name": "decimals",
                  "type": "uint256"
                },
                {
                  "internalType": "uint256",
                  "name": "currency",
                  "type": "uint256"
                }
              ],
              "internalType": "struct JBTokenAmount",
              "name": "forwardedAmount",
              "type": "tuple"
            },
            {
              "internalType": "address payable",
              "name": "beneficiary",
              "type": "address"
            },
            {
              "internalType": "string",
              "name": "memo",
              "type": "string"
            },
            {
              "internalType": "bytes",
              "name": "metadata",
              "type": "bytes"
            }
          ],
          "internalType": "struct JBDidRedeemData",
          "name": "_data",
          "type": "tuple"
        }
      ],
      "name": "didRedeem",
      "outputs": [],
      "stateMutability": "payable",
      "type": "function"
    },
    {
      "inputs": [],
      "name": "directory",
      "outputs": [
        {
          "internalType": "contract IJBDirectory",
          "name": "",
          "type": "address"
        }
      ],
      "stateMutability": "view",
      "type": "function"
    },
    {
      "inputs": [
        {
          "internalType": "uint256",
          "name": "_tokenId",
          "type": "uint256"
        }
      ],
      "name": "firstOwnerOf",
      "outputs": [
        {
          "internalType": "address",
          "name": "",
          "type": "address"
        }
      ],
      "stateMutability": "view",
      "type": "function"
    },
    {
      "inputs": [],
      "name": "fundingCycleStore",
      "outputs": [
        {
          "internalType": "contract IJBFundingCycleStore",
          "name": "",
          "type": "address"
        }
      ],
      "stateMutability": "view",
      "type": "function"
    },
    {
      "inputs": [
        {
          "internalType": "uint256",
          "name": "tokenId",
          "type": "uint256"
        }
      ],
      "name": "getApproved",
      "outputs": [
        {
          "internalType": "address",
          "name": "",
          "type": "address"
        }
      ],
      "stateMutability": "view",
      "type": "function"
    },
    {
      "inputs": [
        {
          "internalType": "uint256",
          "name": "_tier",
          "type": "uint256"
        },
        {
          "internalType": "uint256",
          "name": "_blockNumber",
          "type": "uint256"
        }
      ],
      "name": "getPastTierTotalVotes",
      "outputs": [
        {
          "internalType": "uint256",
          "name": "",
          "type": "uint256"
        }
      ],
      "stateMutability": "view",
      "type": "function"
    },
    {
      "inputs": [
        {
          "internalType": "address",
          "name": "_account",
          "type": "address"
        },
        {
          "internalType": "uint256",
          "name": "_tier",
          "type": "uint256"
        },
        {
          "internalType": "uint256",
          "name": "_blockNumber",
          "type": "uint256"
        }
      ],
      "name": "getPastTierVotes",
      "outputs": [
        {
          "internalType": "uint256",
          "name": "",
          "type": "uint256"
        }
      ],
      "stateMutability": "view",
      "type": "function"
    },
    {
      "inputs": [
        {
          "internalType": "address",
          "name": "_account",
          "type": "address"
        },
        {
          "internalType": "uint256",
          "name": "_tier",
          "type": "uint256"
        }
      ],
      "name": "getTierDelegate",
      "outputs": [
        {
          "internalType": "address",
          "name": "",
          "type": "address"
        }
      ],
      "stateMutability": "view",
      "type": "function"
    },
    {
      "inputs": [
        {
          "internalType": "uint256",
          "name": "_tier",
          "type": "uint256"
        }
      ],
      "name": "getTierTotalVotes",
      "outputs": [
        {
          "internalType": "uint256",
          "name": "",
          "type": "uint256"
        }
      ],
      "stateMutability": "view",
      "type": "function"
    },
    {
      "inputs": [
        {
          "internalType": "address",
          "name": "_account",
          "type": "address"
        },
        {
          "internalType": "uint256",
          "name": "_tier",
          "type": "uint256"
        }
      ],
      "name": "getTierVotes",
      "outputs": [
        {
          "internalType": "uint256",
          "name": "",
          "type": "uint256"
        }
      ],
      "stateMutability": "view",
      "type": "function"
    },
    {
      "inputs": [
        {
          "internalType": "uint256",
          "name": "_projectId",
          "type": "uint256"
        },
        {
          "internalType": "contract IJBDirectory",
          "name": "_directory",
          "type": "address"
        },
        {
          "internalType": "string",
          "name": "_name",
          "type": "string"
        },
        {
          "internalType": "string",
          "name": "_symbol",
          "type": "string"
        },
        {
          "internalType": "contract IJBFundingCycleStore",
          "name": "_fundingCycleStore",
          "type": "address"
        },
        {
          "internalType": "string",
          "name": "_baseUri",
          "type": "string"
        },
        {
          "internalType": "contract IJBTokenUriResolver",
          "name": "_tokenUriResolver",
          "type": "address"
        },
        {
          "internalType": "string",
          "name": "_contractUri",
          "type": "string"
        },
        {
          "components": [
            {
              "components": [
                {
                  "internalType": "uint80",
                  "name": "contributionFloor",
                  "type": "uint80"
                },
                {
                  "internalType": "uint48",
                  "name": "lockedUntil",
                  "type": "uint48"
                },
                {
                  "internalType": "uint40",
                  "name": "initialQuantity",
                  "type": "uint40"
                },
                {
                  "internalType": "uint16",
                  "name": "votingUnits",
                  "type": "uint16"
                },
                {
                  "internalType": "uint16",
                  "name": "reservedRate",
                  "type": "uint16"
                },
                {
                  "internalType": "address",
                  "name": "reservedTokenBeneficiary",
                  "type": "address"
                },
                {
                  "internalType": "uint8",
                  "name": "royaltyRate",
                  "type": "uint8"
                },
                {
                  "internalType": "address",
                  "name": "royaltyBeneficiary",
                  "type": "address"
                },
                {
                  "internalType": "bytes32",
                  "name": "encodedIPFSUri",
                  "type": "bytes32"
                },
                {
                  "internalType": "uint8",
                  "name": "category",
                  "type": "uint8"
                },
                {
                  "internalType": "bool",
                  "name": "allowManualMint",
                  "type": "bool"
                },
                {
                  "internalType": "bool",
                  "name": "shouldUseReservedTokenBeneficiaryAsDefault",
                  "type": "bool"
                },
                {
                  "internalType": "bool",
                  "name": "shouldUseRoyaltyBeneficiaryAsDefault",
                  "type": "bool"
                },
                {
                  "internalType": "bool",
                  "name": "transfersPausable",
                  "type": "bool"
                }
              ],
              "internalType": "struct JB721TierParams[]",
              "name": "tiers",
              "type": "tuple[]"
            },
            {
              "internalType": "uint256",
              "name": "currency",
              "type": "uint256"
            },
            {
              "internalType": "uint256",
              "name": "decimals",
              "type": "uint256"
            },
            {
              "internalType": "contract IJBPrices",
              "name": "prices",
              "type": "address"
            }
          ],
          "internalType": "struct JB721PricingParams",
          "name": "_pricing",
          "type": "tuple"
        },
        {
          "internalType": "contract IJBTiered721DelegateStore",
          "name": "_store",
          "type": "address"
        },
        {
          "components": [
            {
              "internalType": "bool",
              "name": "lockReservedTokenChanges",
              "type": "bool"
            },
            {
              "internalType": "bool",
              "name": "lockVotingUnitChanges",
              "type": "bool"
            },
            {
              "internalType": "bool",
              "name": "lockManualMintingChanges",
              "type": "bool"
            },
            {
              "internalType": "bool",
              "name": "preventOverspending",
              "type": "bool"
            }
          ],
          "internalType": "struct JBTiered721Flags",
          "name": "_flags",
          "type": "tuple"
        },
        {
          "internalType": "string[]",
          "name": "_tierNames",
          "type": "string[]"
        }
      ],
      "name": "initialize",
      "outputs": [],
      "stateMutability": "nonpayable",
      "type": "function"
    },
    {
      "inputs": [
        {
          "internalType": "uint256",
          "name": "_projectId",
          "type": "uint256"
        },
        {
          "internalType": "contract IJBDirectory",
          "name": "_directory",
          "type": "address"
        },
        {
          "internalType": "string",
          "name": "_name",
          "type": "string"
        },
        {
          "internalType": "string",
          "name": "_symbol",
          "type": "string"
        },
        {
          "internalType": "contract IJBFundingCycleStore",
          "name": "_fundingCycleStore",
          "type": "address"
        },
        {
          "internalType": "string",
          "name": "_baseUri",
          "type": "string"
        },
        {
          "internalType": "contract IJBTokenUriResolver",
          "name": "_tokenUriResolver",
          "type": "address"
        },
        {
          "internalType": "string",
          "name": "_contractUri",
          "type": "string"
        },
        {
          "components": [
            {
              "components": [
                {
                  "internalType": "uint80",
                  "name": "contributionFloor",
                  "type": "uint80"
                },
                {
                  "internalType": "uint48",
                  "name": "lockedUntil",
                  "type": "uint48"
                },
                {
                  "internalType": "uint40",
                  "name": "initialQuantity",
                  "type": "uint40"
                },
                {
                  "internalType": "uint16",
                  "name": "votingUnits",
                  "type": "uint16"
                },
                {
                  "internalType": "uint16",
                  "name": "reservedRate",
                  "type": "uint16"
                },
                {
                  "internalType": "address",
                  "name": "reservedTokenBeneficiary",
                  "type": "address"
                },
                {
                  "internalType": "uint8",
                  "name": "royaltyRate",
                  "type": "uint8"
                },
                {
                  "internalType": "address",
                  "name": "royaltyBeneficiary",
                  "type": "address"
                },
                {
                  "internalType": "bytes32",
                  "name": "encodedIPFSUri",
                  "type": "bytes32"
                },
                {
                  "internalType": "uint8",
                  "name": "category",
                  "type": "uint8"
                },
                {
                  "internalType": "bool",
                  "name": "allowManualMint",
                  "type": "bool"
                },
                {
                  "internalType": "bool",
                  "name": "shouldUseReservedTokenBeneficiaryAsDefault",
                  "type": "bool"
                },
                {
                  "internalType": "bool",
                  "name": "shouldUseRoyaltyBeneficiaryAsDefault",
                  "type": "bool"
                },
                {
                  "internalType": "bool",
                  "name": "transfersPausable",
                  "type": "bool"
                }
              ],
              "internalType": "struct JB721TierParams[]",
              "name": "tiers",
              "type": "tuple[]"
            },
            {
              "internalType": "uint256",
              "name": "currency",
              "type": "uint256"
            },
            {
              "internalType": "uint256",
              "name": "decimals",
              "type": "uint256"
            },
            {
              "internalType": "contract IJBPrices",
              "name": "prices",
              "type": "address"
            }
          ],
          "internalType": "struct JB721PricingParams",
          "name": "_pricing",
          "type": "tuple"
        },
        {
          "internalType": "contract IJBTiered721DelegateStore",
          "name": "_store",
          "type": "address"
        },
        {
          "components": [
            {
              "internalType": "bool",
              "name": "lockReservedTokenChanges",
              "type": "bool"
            },
            {
              "internalType": "bool",
              "name": "lockVotingUnitChanges",
              "type": "bool"
            },
            {
              "internalType": "bool",
              "name": "lockManualMintingChanges",
              "type": "bool"
            },
            {
              "internalType": "bool",
              "name": "preventOverspending",
              "type": "bool"
            }
          ],
          "internalType": "struct JBTiered721Flags",
          "name": "_flags",
          "type": "tuple"
        }
      ],
      "name": "initialize",
      "outputs": [],
      "stateMutability": "nonpayable",
      "type": "function"
    },
    {
      "inputs": [
        {
          "internalType": "address",
          "name": "owner",
          "type": "address"
        },
        {
          "internalType": "address",
          "name": "operator",
          "type": "address"
        }
      ],
      "name": "isApprovedForAll",
      "outputs": [
        {
          "internalType": "bool",
          "name": "",
          "type": "bool"
        }
      ],
      "stateMutability": "view",
      "type": "function"
    },
    {
      "inputs": [
        {
          "components": [
            {
              "internalType": "uint16[]",
              "name": "tierIds",
              "type": "uint16[]"
            },
            {
              "internalType": "address",
              "name": "beneficiary",
              "type": "address"
            }
          ],
          "internalType": "struct JBTiered721MintForTiersData[]",
          "name": "_mintForTiersData",
          "type": "tuple[]"
        }
      ],
      "name": "mintFor",
      "outputs": [],
      "stateMutability": "nonpayable",
      "type": "function"
    },
    {
      "inputs": [
        {
          "internalType": "uint16[]",
          "name": "_tierIds",
          "type": "uint16[]"
        },
        {
          "internalType": "address",
          "name": "_beneficiary",
          "type": "address"
        }
      ],
      "name": "mintFor",
      "outputs": [
        {
          "internalType": "uint256[]",
          "name": "tokenIds",
          "type": "uint256[]"
        }
      ],
      "stateMutability": "nonpayable",
      "type": "function"
    },
    {
      "inputs": [
        {
          "components": [
            {
              "internalType": "uint256",
              "name": "tierId",
              "type": "uint256"
            },
            {
              "internalType": "uint256",
              "name": "count",
              "type": "uint256"
            }
          ],
          "internalType": "struct JBTiered721MintReservesForTiersData[]",
          "name": "_mintReservesForTiersData",
          "type": "tuple[]"
        }
      ],
      "name": "mintReservesFor",
      "outputs": [],
      "stateMutability": "nonpayable",
      "type": "function"
    },
    {
      "inputs": [
        {
          "internalType": "uint256",
          "name": "_tierId",
          "type": "uint256"
        },
        {
          "internalType": "uint256",
          "name": "_count",
          "type": "uint256"
        }
      ],
      "name": "mintReservesFor",
      "outputs": [],
      "stateMutability": "nonpayable",
      "type": "function"
    },
    {
      "inputs": [],
      "name": "name",
      "outputs": [
        {
          "internalType": "string",
          "name": "",
          "type": "string"
        }
      ],
      "stateMutability": "view",
      "type": "function"
    },
    {
      "inputs": [],
      "name": "owner",
      "outputs": [
        {
          "internalType": "address",
          "name": "",
          "type": "address"
        }
      ],
      "stateMutability": "view",
      "type": "function"
    },
    {
      "inputs": [
        {
          "internalType": "uint256",
          "name": "tokenId",
          "type": "uint256"
        }
      ],
      "name": "ownerOf",
      "outputs": [
        {
          "internalType": "address",
          "name": "",
          "type": "address"
        }
      ],
      "stateMutability": "view",
      "type": "function"
    },
    {
      "inputs": [
        {
          "components": [
            {
              "internalType": "contract IJBPaymentTerminal",
              "name": "terminal",
              "type": "address"
            },
            {
              "internalType": "address",
              "name": "payer",
              "type": "address"
            },
            {
              "components": [
                {
                  "internalType": "address",
                  "name": "token",
                  "type": "address"
                },
                {
                  "internalType": "uint256",
                  "name": "value",
                  "type": "uint256"
                },
                {
                  "internalType": "uint256",
                  "name": "decimals",
                  "type": "uint256"
                },
                {
                  "internalType": "uint256",
                  "name": "currency",
                  "type": "uint256"
                }
              ],
              "internalType": "struct JBTokenAmount",
              "name": "amount",
              "type": "tuple"
            },
            {
              "internalType": "uint256",
              "name": "projectId",
              "type": "uint256"
            },
            {
              "internalType": "uint256",
              "name": "currentFundingCycleConfiguration",
              "type": "uint256"
            },
            {
              "internalType": "address",
              "name": "beneficiary",
              "type": "address"
            },
            {
              "internalType": "uint256",
              "name": "weight",
              "type": "uint256"
            },
            {
              "internalType": "uint256",
              "name": "reservedRate",
              "type": "uint256"
            },
            {
              "internalType": "string",
              "name": "memo",
              "type": "string"
            },
            {
              "internalType": "bytes",
              "name": "metadata",
              "type": "bytes"
            }
          ],
          "internalType": "struct JBPayParamsData",
          "name": "_data",
          "type": "tuple"
        }
      ],
      "name": "payParams",
      "outputs": [
        {
          "internalType": "uint256",
          "name": "weight",
          "type": "uint256"
        },
        {
          "internalType": "string",
          "name": "memo",
          "type": "string"
        },
        {
          "components": [
            {
              "internalType": "contract IJBPayDelegate",
              "name": "delegate",
              "type": "address"
            },
            {
              "internalType": "uint256",
              "name": "amount",
              "type": "uint256"
            }
          ],
          "internalType": "struct JBPayDelegateAllocation[]",
          "name": "delegateAllocations",
          "type": "tuple[]"
        }
      ],
      "stateMutability": "view",
      "type": "function"
    },
    {
      "inputs": [],
      "name": "prices",
      "outputs": [
        {
          "internalType": "contract IJBPrices",
          "name": "",
          "type": "address"
        }
      ],
      "stateMutability": "view",
      "type": "function"
    },
    {
      "inputs": [],
      "name": "pricingCurrency",
      "outputs": [
        {
          "internalType": "uint256",
          "name": "",
          "type": "uint256"
        }
      ],
      "stateMutability": "view",
      "type": "function"
    },
    {
      "inputs": [],
      "name": "pricingDecimals",
      "outputs": [
        {
          "internalType": "uint256",
          "name": "",
          "type": "uint256"
        }
      ],
      "stateMutability": "view",
      "type": "function"
    },
    {
      "inputs": [],
      "name": "projectId",
      "outputs": [
        {
          "internalType": "uint256",
          "name": "",
          "type": "uint256"
        }
      ],
      "stateMutability": "view",
      "type": "function"
    },
    {
      "inputs": [
        {
          "components": [
            {
              "internalType": "contract IJBPaymentTerminal",
              "name": "terminal",
              "type": "address"
            },
            {
              "internalType": "address",
              "name": "holder",
              "type": "address"
            },
            {
              "internalType": "uint256",
              "name": "projectId",
              "type": "uint256"
            },
            {
              "internalType": "uint256",
              "name": "currentFundingCycleConfiguration",
              "type": "uint256"
            },
            {
              "internalType": "uint256",
              "name": "tokenCount",
              "type": "uint256"
            },
            {
              "internalType": "uint256",
              "name": "totalSupply",
              "type": "uint256"
            },
            {
              "internalType": "uint256",
              "name": "overflow",
              "type": "uint256"
            },
            {
              "components": [
                {
                  "internalType": "address",
                  "name": "token",
                  "type": "address"
                },
                {
                  "internalType": "uint256",
                  "name": "value",
                  "type": "uint256"
                },
                {
                  "internalType": "uint256",
                  "name": "decimals",
                  "type": "uint256"
                },
                {
                  "internalType": "uint256",
                  "name": "currency",
                  "type": "uint256"
                }
              ],
              "internalType": "struct JBTokenAmount",
              "name": "reclaimAmount",
              "type": "tuple"
            },
            {
              "internalType": "bool",
              "name": "useTotalOverflow",
              "type": "bool"
            },
            {
              "internalType": "uint256",
              "name": "redemptionRate",
              "type": "uint256"
            },
            {
              "internalType": "string",
              "name": "memo",
              "type": "string"
            },
            {
              "internalType": "bytes",
              "name": "metadata",
              "type": "bytes"
            }
          ],
          "internalType": "struct JBRedeemParamsData",
          "name": "_data",
          "type": "tuple"
        }
      ],
      "name": "redeemParams",
      "outputs": [
        {
          "internalType": "uint256",
          "name": "reclaimAmount",
          "type": "uint256"
        },
        {
          "internalType": "string",
          "name": "memo",
          "type": "string"
        },
        {
          "components": [
            {
              "internalType": "contract IJBRedemptionDelegate",
              "name": "delegate",
              "type": "address"
            },
            {
              "internalType": "uint256",
              "name": "amount",
              "type": "uint256"
            }
          ],
          "internalType": "struct JBRedemptionDelegateAllocation[]",
          "name": "delegateAllocations",
          "type": "tuple[]"
        }
      ],
      "stateMutability": "view",
      "type": "function"
    },
    {
      "inputs": [
        {
          "internalType": "uint256",
          "name": "_tokenId",
          "type": "uint256"
        }
      ],
      "name": "redemptionWeightOf",
      "outputs": [
        {
          "internalType": "uint256",
          "name": "",
          "type": "uint256"
        }
      ],
      "stateMutability": "view",
      "type": "function"
    },
    {
      "inputs": [
        {
          "internalType": "uint256[]",
          "name": "_tokenIds",
          "type": "uint256[]"
        },
        {
          "components": [
            {
              "internalType": "contract IJBPaymentTerminal",
              "name": "terminal",
              "type": "address"
            },
            {
              "internalType": "address",
              "name": "holder",
              "type": "address"
            },
            {
              "internalType": "uint256",
              "name": "projectId",
              "type": "uint256"
            },
            {
              "internalType": "uint256",
              "name": "currentFundingCycleConfiguration",
              "type": "uint256"
            },
            {
              "internalType": "uint256",
              "name": "tokenCount",
              "type": "uint256"
            },
            {
              "internalType": "uint256",
              "name": "totalSupply",
              "type": "uint256"
            },
            {
              "internalType": "uint256",
              "name": "overflow",
              "type": "uint256"
            },
            {
              "components": [
                {
                  "internalType": "address",
                  "name": "token",
                  "type": "address"
                },
                {
                  "internalType": "uint256",
                  "name": "value",
                  "type": "uint256"
                },
                {
                  "internalType": "uint256",
                  "name": "decimals",
                  "type": "uint256"
                },
                {
                  "internalType": "uint256",
                  "name": "currency",
                  "type": "uint256"
                }
              ],
              "internalType": "struct JBTokenAmount",
              "name": "reclaimAmount",
              "type": "tuple"
            },
            {
              "internalType": "bool",
              "name": "useTotalOverflow",
              "type": "bool"
            },
            {
              "internalType": "uint256",
              "name": "redemptionRate",
              "type": "uint256"
            },
            {
              "internalType": "string",
              "name": "memo",
              "type": "string"
            },
            {
              "internalType": "bytes",
              "name": "metadata",
              "type": "bytes"
            }
          ],
          "internalType": "struct JBRedeemParamsData",
          "name": "",
          "type": "tuple"
        }
      ],
      "name": "redemptionWeightOf",
      "outputs": [
        {
          "internalType": "uint256",
          "name": "cumulativeWeight",
          "type": "uint256"
        }
      ],
      "stateMutability": "view",
      "type": "function"
    },
    {
      "inputs": [],
      "name": "renounceOwnership",
      "outputs": [],
      "stateMutability": "nonpayable",
      "type": "function"
    },
    {
      "inputs": [
        {
          "internalType": "uint256",
          "name": "_tokenId",
          "type": "uint256"
        },
        {
          "internalType": "uint256",
          "name": "_salePrice",
          "type": "uint256"
        }
      ],
      "name": "royaltyInfo",
      "outputs": [
        {
          "internalType": "address",
          "name": "",
          "type": "address"
        },
        {
          "internalType": "uint256",
          "name": "",
          "type": "uint256"
        }
      ],
      "stateMutability": "view",
      "type": "function"
    },
    {
      "inputs": [
        {
          "internalType": "address",
          "name": "from",
          "type": "address"
        },
        {
          "internalType": "address",
          "name": "to",
          "type": "address"
        },
        {
          "internalType": "uint256",
          "name": "tokenId",
          "type": "uint256"
        }
      ],
      "name": "safeTransferFrom",
      "outputs": [],
      "stateMutability": "nonpayable",
      "type": "function"
    },
    {
      "inputs": [
        {
          "internalType": "address",
          "name": "from",
          "type": "address"
        },
        {
          "internalType": "address",
          "name": "to",
          "type": "address"
        },
        {
          "internalType": "uint256",
          "name": "tokenId",
          "type": "uint256"
        },
        {
          "internalType": "bytes",
          "name": "data",
          "type": "bytes"
        }
      ],
      "name": "safeTransferFrom",
      "outputs": [],
      "stateMutability": "nonpayable",
      "type": "function"
    },
    {
      "inputs": [
        {
          "internalType": "address",
          "name": "operator",
          "type": "address"
        },
        {
          "internalType": "bool",
          "name": "approved",
          "type": "bool"
        }
      ],
      "name": "setApprovalForAll",
      "outputs": [],
      "stateMutability": "nonpayable",
      "type": "function"
    },
    {
      "inputs": [
        {
          "internalType": "string",
          "name": "_baseUri",
          "type": "string"
        }
      ],
      "name": "setBaseUri",
      "outputs": [],
      "stateMutability": "nonpayable",
      "type": "function"
    },
    {
      "inputs": [
        {
          "internalType": "string",
          "name": "_contractUri",
          "type": "string"
        }
      ],
      "name": "setContractUri",
      "outputs": [],
      "stateMutability": "nonpayable",
      "type": "function"
    },
    {
      "inputs": [
        {
          "internalType": "address",
          "name": "_beneficiary",
          "type": "address"
        }
      ],
      "name": "setDefaultReservedTokenBeneficiary",
      "outputs": [],
      "stateMutability": "nonpayable",
      "type": "function"
    },
    {
      "inputs": [
        {
          "internalType": "uint256",
          "name": "_tierId",
          "type": "uint256"
        },
        {
          "internalType": "bytes32",
          "name": "_encodedIPFSUri",
          "type": "bytes32"
        }
      ],
      "name": "setEncodedIPFSUriOf",
      "outputs": [],
      "stateMutability": "nonpayable",
      "type": "function"
    },
    {
      "inputs": [
        {
          "internalType": "address",
          "name": "_delegatee",
          "type": "address"
        },
        {
          "internalType": "uint256",
          "name": "_tierId",
          "type": "uint256"
        }
      ],
      "name": "setTierDelegate",
      "outputs": [],
      "stateMutability": "nonpayable",
      "type": "function"
    },
    {
      "inputs": [
        {
          "components": [
            {
              "internalType": "address",
              "name": "delegatee",
              "type": "address"
            },
            {
              "internalType": "uint256",
              "name": "tierId",
              "type": "uint256"
            }
          ],
          "internalType": "struct JBTiered721SetTierDelegatesData[]",
          "name": "_setTierDelegatesData",
          "type": "tuple[]"
        }
      ],
      "name": "setTierDelegates",
      "outputs": [],
      "stateMutability": "nonpayable",
      "type": "function"
    },
    {
      "inputs": [
        {
          "components": [
            {
              "internalType": "uint256",
              "name": "id",
              "type": "uint256"
            },
            {
              "internalType": "uint256",
              "name": "redemptionWeight",
              "type": "uint256"
            }
          ],
          "internalType": "struct DefifaTierRedemptionWeight[]",
          "name": "_tierWeights",
          "type": "tuple[]"
        }
      ],
      "name": "setTierRedemptionWeights",
      "outputs": [],
      "stateMutability": "nonpayable",
      "type": "function"
    },
    {
      "inputs": [
        {
          "internalType": "contract IJBTokenUriResolver",
          "name": "_tokenUriResolver",
          "type": "address"
        }
      ],
      "name": "setTokenUriResolver",
      "outputs": [],
      "stateMutability": "nonpayable",
      "type": "function"
    },
    {
      "inputs": [],
      "name": "store",
      "outputs": [
        {
          "internalType": "contract IJBTiered721DelegateStore",
          "name": "",
          "type": "address"
        }
      ],
      "stateMutability": "view",
      "type": "function"
    },
    {
      "inputs": [
        {
          "internalType": "bytes4",
          "name": "_interfaceId",
          "type": "bytes4"
        }
      ],
      "name": "supportsInterface",
      "outputs": [
        {
          "internalType": "bool",
          "name": "",
          "type": "bool"
        }
      ],
      "stateMutability": "view",
      "type": "function"
    },
    {
      "inputs": [],
      "name": "symbol",
      "outputs": [
        {
          "internalType": "string",
          "name": "",
          "type": "string"
        }
      ],
      "stateMutability": "view",
      "type": "function"
    },
    {
      "inputs": [
        {
          "internalType": "uint256",
          "name": "_tierId",
          "type": "uint256"
        }
      ],
      "name": "tierNameOf",
      "outputs": [
        {
          "internalType": "string",
          "name": "",
          "type": "string"
        }
      ],
      "stateMutability": "view",
      "type": "function"
    },
    {
      "inputs": [],
      "name": "tierRedemptionWeights",
      "outputs": [
        {
          "internalType": "uint256[128]",
          "name": "",
          "type": "uint256[128]"
        }
      ],
      "stateMutability": "view",
      "type": "function"
    },
    {
      "inputs": [
        {
          "internalType": "uint256",
          "name": "_tokenId",
          "type": "uint256"
        }
      ],
      "name": "tokenURI",
      "outputs": [
        {
          "internalType": "string",
          "name": "",
          "type": "string"
        }
      ],
      "stateMutability": "view",
      "type": "function"
    },
    {
      "inputs": [
        {
          "components": [
            {
              "internalType": "contract IJBPaymentTerminal",
              "name": "terminal",
              "type": "address"
            },
            {
              "internalType": "address",
              "name": "holder",
              "type": "address"
            },
            {
              "internalType": "uint256",
              "name": "projectId",
              "type": "uint256"
            },
            {
              "internalType": "uint256",
              "name": "currentFundingCycleConfiguration",
              "type": "uint256"
            },
            {
              "internalType": "uint256",
              "name": "tokenCount",
              "type": "uint256"
            },
            {
              "internalType": "uint256",
              "name": "totalSupply",
              "type": "uint256"
            },
            {
              "internalType": "uint256",
              "name": "overflow",
              "type": "uint256"
            },
            {
              "components": [
                {
                  "internalType": "address",
                  "name": "token",
                  "type": "address"
                },
                {
                  "internalType": "uint256",
                  "name": "value",
                  "type": "uint256"
                },
                {
                  "internalType": "uint256",
                  "name": "decimals",
                  "type": "uint256"
                },
                {
                  "internalType": "uint256",
                  "name": "currency",
                  "type": "uint256"
                }
              ],
              "internalType": "struct JBTokenAmount",
              "name": "reclaimAmount",
              "type": "tuple"
            },
            {
              "internalType": "bool",
              "name": "useTotalOverflow",
              "type": "bool"
            },
            {
              "internalType": "uint256",
              "name": "redemptionRate",
              "type": "uint256"
            },
            {
              "internalType": "string",
              "name": "memo",
              "type": "string"
            },
            {
              "internalType": "bytes",
              "name": "metadata",
              "type": "bytes"
            }
          ],
          "internalType": "struct JBRedeemParamsData",
          "name": "",
          "type": "tuple"
        }
      ],
      "name": "totalRedemptionWeight",
      "outputs": [
        {
          "internalType": "uint256",
          "name": "",
          "type": "uint256"
        }
      ],
      "stateMutability": "view",
      "type": "function"
    },
    {
      "inputs": [
        {
          "internalType": "address",
          "name": "from",
          "type": "address"
        },
        {
          "internalType": "address",
          "name": "to",
          "type": "address"
        },
        {
          "internalType": "uint256",
          "name": "tokenId",
          "type": "uint256"
        }
      ],
      "name": "transferFrom",
      "outputs": [],
      "stateMutability": "nonpayable",
      "type": "function"
    },
    {
      "inputs": [
        {
          "internalType": "address",
          "name": "newOwner",
          "type": "address"
        }
      ],
      "name": "transferOwnership",
      "outputs": [],
      "stateMutability": "nonpayable",
      "type": "function"
    }
  ],
  "bytecode": {
    "object": "0x608080604052346100665760078054336001600160a01b03198083168217909355906001600160a01b03167f8be0079c531659141344cd1fd0a4f28419497f9722a3daafe3b4186f6b6457e0600080a330906008541617600855615db990816200006c8239f35b600080fdfe608080604052600436101561001357600080fd5b600090813560e01c90816301ffc9a71461282c5750806306fdde031461275d578063081812fc1461273e578063095ea7b3146126715780631baabc3e1461259d5780631d153ca41461257457806323b872dd1461253a5780632407497e14612496578063245a45b51461245d57806325eb91ee146122175780632a55205a1461214d5780632a596e53146120c95780632b13c58f1461198d5780632f4415001461170557806336c1a93b146116565780633fafa1271461163857806342842e0e146116105780634ecba625146115f25780634f228e11146115d3578063525350ba1461152657806354c6d1f514611507578063557e7155146114de5780636352211e146114ad578063640abacd1461148e57806364640c1e146114705780636ac6d9411461141f57806370a0823114611381578063715018a6146113235780637ba62bf9146112cb57806382732b6d146112855780638da5cb5b1461125c5780639494bf721461123e57806394c5c5ca1461121557806395d89b411461114a578063975057e7146111215780639df454681461109c578063a0bcfc7f14610fea578063a22cb46514610f46578063a51cfd1814610ec7578063aa4fb15b14610eaf578063aae8322614610b6b578063ab951e3914610b44578063b88d4fde14610ae4578063c41c2f2414610abb578063c74b13d91461099e578063c87b56dd1461096a578063ca323efe14610927578063ccb4807b14610875578063d1704baf1461079b578063d31cc52c14610776578063d3419bf31461074d578063d40e7146146106fe578063d46cf171146105d6578063da9ee8b7146104cf578063df487e261461041c578063e8a3d48514610386578063e985e9c5146103325763f2fde38b1461029f57600080fd5b3461032f57602036600319011261032f576102b861298a565b6102c061586f565b6001600160a01b038116156102db576102d8906158c7565b80f35b60405162461bcd60e51b815260206004820152602660248201527f4f776e61626c653a206e6577206f776e657220697320746865207a65726f206160448201526564647265737360d01b6064820152608490fd5b80fd5b503461032f57604036600319011261032f5761034c61298a565b60406103566129a0565b9260018060a01b0380931681526004602052209116600052602052602060ff604060002054166040519015158152f35b503461032f578060031936011261032f57600954604051630155619b60e71b8152306004820152908290829060249082906001600160a01b03165afa90811561041157826103ea93926103ee575b5050604051918291602083526020830190612965565b0390f35b61040a92503d8091833e6104028183612b3e565b810190613922565b38806103d4565b6040513d84823e3d90fd5b503461032f57602036600319011261032f5761043661298a565b61043e61586f565b6009546001600160a01b0390811691839190833b156104cb5782916024839260405194859384926317161f7d60e01b845216978860048401525af18015610411576104b3575b50507fab0014d4c7a642a02a31b303a318908c22b0fb2001f107278fc6076b4c671b656020604051338152a280f35b6104bc90612a8d565b6104c7578138610484565b5080fd5b8280fd5b506003196020368201126104c757600435906001600160401b0382116104cb576102009082360301126104c757600554341590811591610543575b8115610534575b50610522576102d890600401615024565b6040516331c57b1b60e21b8152600490fd5b90506024820135141538610511565b600654604051636e49181f60e01b815260048101839052336024820152919250602090829060449082906001600160a01b03165afa9081156105cb57849161058e575b50159061050a565b90506020813d82116105c3575b816105a860209383612b3e565b810103126105bf576105b99061314a565b38610586565b8380fd5b3d915061059b565b6040513d86823e3d90fd5b503461032f57600319602036820181136104cb57600435916001600160401b0383116105bf576101a09083360301126104cb579161062561061e610164840184600401613005565b3691612cb8565b906040519361063385612ab6565b600192838652825b8281106106d4575061068a9060405161065381612ab6565b308152848482015261066488613037565b5261066e87613037565b5061012460405196013586526060838701526060860190612965565b9084820360408601528080875193848152019601925b8281106106ad5785870386f35b835180516001600160a01b03168852820151828801526040909601959281019284016106a0565b82906040979597516106e581612ab6565b600081526000838201528282880101520195939561063b565b503461032f57606036600319011261032f57602090610745906001600160a01b0361072761298a565b16815260108352604081206024358252835260406044359120615967565b604051908152f35b503461032f578060031936011261032f57600b546040516001600160a01b039091168152602090f35b503461032f57610745602091604061078d36612a45565b929081526011855220615967565b503461032f576101c036600319011261032f576107b66129a0565b6001600160401b03906044358281116105bf576107d7903690600401612cef565b606435838111610871576107ef903690600401612cef565b6107f7612d0d565b60a43585811161086d5761080f903690600401612cef565b6108176129ff565b9060e43587811161086957610830903690600401612cef565b92610104359788116108695761084d6102d8983690600401612d7c565b94610856612f52565b9661086036612f69565b98600435613c07565b8880fd5b8680fd5b8480fd5b503461032f5761088436612c47565b9061088d61586f565b60095483906001600160a01b0316803b156104c75781604051809263d67b78fd60e01b82528183816108c38a8a600484016143c3565b03925af1801561041157610913575b50508160405192839283378101600081520390207fd36dc0c1a06103fdcaf15f3f6fb797d1a97997514c78de073640c8b5005454b86020604051338152a280f35b61091c90612a8d565b6104cb5782386108d2565b503461032f57604036600319011261032f57602090610745906040906001600160a01b0361095361298a565b168152601084528181206024358252845220615928565b503461032f57602036600319011261032f576103ea61098a600435613980565b604051918291602083526020830190612965565b503461032f576020806003193601126104c7576004356001600160401b0381116104cb57366023820112156104cb578060040135906109dc82612b5f565b916109ea6040519384612b3e565b80835260248484019160061b83010191368311610ab757602401905b828210610a8057505050805190600083604051610a2281612ab6565b8281520152835b828110610a34578480f35b610a3e818361305a565b5180519091906001600160a01b0390811615610a6e57825192860151600193610a68921633613690565b01610a29565b6040516314f4c13d60e21b8152600490fd5b604082360312610ab757846040918251610a9981612ab6565b610aa2856129b6565b81528285013583820152815201910190610a06565b8580fd5b503461032f578060031936011261032f576006546040516001600160a01b039091168152602090f35b503461032f57608036600319011261032f57610afe61298a565b610b066129a0565b606435916001600160401b0383116105bf57366023840112156105bf57610b3a6102d8933690602481600401359101612cb8565b9160443591614798565b503461032f57604036600319011261032f576102d8610b6161298a565b6024359033613690565b503461032f576101e036600319011261032f57610b866129a0565b906044356001600160401b0381116104c757610ba6903690600401612cef565b906064356001600160401b0381116104c757610bc6903690600401612cef565b610bce612d0d565b60a4356001600160401b0381116105bf57610bed903690600401612cef565b610bf56129ff565b60e4356001600160401b038111610ab757610c14903690600401612cef565b90610104356001600160401b03811161086d57610c35903690600401612d7c565b92610c3e612f52565b94610c4836612f69565b966001600160401b036101c43511610869573660236101c43501121561086957610c786101c43560040135612b5f565b99610c866040519b8c612b3e565b6101c435600401358b5260208b019b3660246101c4356004013560051b6101c435010111610eab5760246101c435019c5b8d60246101c4356004013560051b6101c435010111610e745750610d1e9a9b9c50610d16602860405180946702222a324a3209d160c51b6020830152610d068151809260208686019101612942565b8101036008810185520183612b3e565b600435613c07565b815191815b838110610d2e578280f35b610d38818361305a565b516001808301809311610e6057828552609460205260408520918051906001600160401b038211610e4c57610d6d8454612fcb565b90601f91828111610e14575b506020918311600114610db4579282939183928994610da9575b50501b916000199060031b1c1916179055610d23565b015192503880610d93565b84885260208820919083601f1981168a5b87828210610dfb57505010610de2575b505050811b019055610d23565b015160001960f88460031b161c19169055388080610dd5565b8486015187559095019460209485019487935001610dc5565b610e3d90868a5260208a208480870160051c82019260208810610e43575b0160051c0190613665565b38610d79565b92508192610e32565b634e487b7160e01b87526041600452602487fd5b634e487b7160e01b85526011600452602485fd5b6001600160401b038e3511610ea757602080918f610e9c9060243691356101c4350101612cef565b8152019d019c610cb7565b8b80fd5b8a80fd5b503461032f576102d8610ec136612a45565b906143eb565b503461032f57610ede610ed936612a5b565b61324e565b90604051928352610efb6020916060838601526060850190612965565b9083820360408501528080845193848152019301945b828110610f1e5784840385f35b855180516001600160a01b031685528201518483015294810194604090930192600101610f11565b503461032f57604036600319011261032f57610f6061298a565b60243590811515809203610fe5576001600160a01b031690338214610fd35733835260046020526040832082600052602052604060002060ff1981541660ff83161790556040519081527f17307eab39ab6107e8899845ad3d59bd9653f200f220920489ca2b5937696c3160203392a380f35b6040516306f8139d60e11b8152600490fd5b600080fd5b503461032f57610ff936612c47565b9061100261586f565b60095483906001600160a01b0316803b156104c7578160405180926331315e5960e11b82528183816110388a8a600484016143c3565b03925af1801561041157611088575b50508160405192839283378101600081520390207f7bc9110d5de090dd59e07912d2b93a5a27ac70a60c8d8e324db4f9ee8b8b5c136020604051338152a280f35b61109190612a8d565b6104cb578238611047565b503461032f578060031936011261032f57604051906110ba82612b07565b611000809236903760405190601281835b6080821061110b57505050906110e081612b07565b6040519190825b608083106110f457505050f35b6001908251815260208091019201920191906110e7565b60016020819285548152019301910190916110cb565b503461032f578060031936011261032f576009546040516001600160a01b039091168152602090f35b503461032f578060031936011261032f576040516000600180549061116e82612fcb565b808552918181169081156111ee5750600114611195575b6103ea8461098a81860382612b3e565b600081815292507fb10e2d527612073b26eecdfd717e6a320cf44b4afac2b0732d9fcbe2b7fa0cf65b8284106111d657505050810160200161098a82611185565b805460208587018101919091529093019281016111be565b60ff191660208087019190915292151560051b8501909201925061098a9150839050611185565b503461032f57602036600319011261032f57610745604060209260043581526011845220615928565b503461032f5761124d36612a5b565b506020604051633b9aca008152f35b503461032f578060031936011261032f576007546040516001600160a01b039091168152602090f35b503461032f57604036600319011261032f576020906001600160a01b0390604090826112af61298a565b168152600f845281812060243582528452205416604051908152f35b503461032f576003199060403683011261032f576001600160401b03916004358381116104cb57611300903690600401612be9565b926024359081116104cb57906101e0913603011261032f576020610745836134cc565b503461032f578060031936011261032f5761133c61586f565b600780546001600160a01b031981169091556000906001600160a01b03167f8be0079c531659141344cd1fd0a4f28419497f9722a3daafe3b4186f6b6457e08280a380f35b503461032f576020908160031936011261032f5761139d61298a565b600954604051633de222bb60e21b81523060048201526001600160a01b03928316602482015291849183916044918391165afa91821561141357916113e6575b50604051908152f35b90508181813d831161140c575b6113fd8183612b3e565b81010312610fe55751386113dd565b503d6113f3565b604051903d90823e3d90fd5b503461032f57604036600319011261032f57600435906001600160401b03821161032f576103ea6114646114563660048601612a15565b61145e6129a0565b916145bc565b60405191829182612bae565b503461032f578060031936011261032f576020600c54604051908152f35b503461032f578060031936011261032f576020604051633b9aca008152f35b503461032f57602036600319011261032f5760206114cc60043561472d565b6040516001600160a01b039091168152f35b503461032f578060031936011261032f57600a546040516001600160a01b039091168152602090f35b503461032f57602036600319011261032f5760206114cc600435613884565b503461032f57604036600319011261032f5760043560243561154661586f565b60095483906001600160a01b0316803b156104c7578180916044604051809481936324de8d6360e11b83528960048401528860248401525af18015610411576115bf575b505060407f677da4fed654db8e604791fa2582f342e2001aa217e27f6985eb3e0f67e5a7fc918151908152336020820152a280f35b6115c890612a8d565b6104cb57823861158a565b503461032f57602036600319011261032f576020610745600435613552565b503461032f578060031936011261032f576020600d54604051908152f35b503461032f576102d8611622366129ca565b906040519261163084612aec565b858452614798565b503461032f578060031936011261032f576020600554604051908152f35b503461032f576020806003193601126104c7576001600160401b036004358181116105bf57611689903690600401612a15565b91909261169461586f565b845b8381106116a1578580f35b60059080821b860135603e19873603018112156117015786018035601e1982360301811215610869578101928335938685116116fd5785859101911b360381136108695760019361145e866116f6940161367c565b5001611696565b8980fd5b8780fd5b503461032f576020908160031936011261032f57600435916001600160401b0383116104c757366023840112156104c75782600401359061174582612b5f565b936117536040519586612b3e565b8285528185016024809460061b83010191368311610ab7578401905b83838310611975575050505061178361586f565b60018060a01b039384600a54166005546040519182916321d1336160e11b8352600483015281866101209485935afa91821561196a579060049291879261193d575b5050511061192b5760125b6092811061191f575081839495600954166040519485809263f1bea54f60e01b82523060048301525afa9283156119145785936118e5575b50919290849280519286955b84871061183c5787633b9aca00871161182a5780f35b604051636ff44e9760e01b8152600490fd5b90919293948161184c888661305a565b5151116118d3578461185e888661305a565b51015161186b888661305a565b515160001981018181116118c057608011156118ad57601101556001906118a090866118978a8861305a565b5101519061322b565b9601959493929190611814565b634e487b7160e01b8a526032600452848afd5b634e487b7160e01b8b526011600452858bfd5b60405163148e14dd60e21b8152600490fd5b9092508181813d831161190d575b6118fd8183612b3e565b81010312610fe557519138611808565b503d6118f3565b6040513d87823e3d90fd5b600081556001016117d0565b6040516303e08a3560e61b8152600490fd5b61195c9250803d10611963575b6119548183612b3e565b8101906130a6565b38806117c5565b503d61194a565b6040513d88823e3d90fd5b6040916119823685612b76565b81520191019061176f565b5061199736612a5b565b3415801590612043575b8015612033575b612021576101c0810160246119bd8284613005565b9050108015611ff2575b611fe0576119d86119e09183613005565b81019061306e565b8051600a546005546040516321d1336160e11b8152600481019190915291945086935061012090829060249082906001600160a01b03165afa8015611fd5576004918491611fb4575b5051869594911492505b808610611ab957506009548491906001600160a01b0316803b156104cb576040516386bc2be360e01b81529183918391829084908290611a769060048301612bae565b03925af1801561041157611aa5575b5050611a8f575080f35b60a0611a9f91013560925461322b565b60925580f35b611aae90612a8d565b6104cb578284611a85565b611ac3868361305a565b51808652600260205260408620549096906001600160a01b0390811690611ae98761367c565b1603611fa257611af88761472d565b966001600160a01b038816611df6575b611b1181614eb6565b80875260026020526040872080546001600160a01b031916905580876001600160a01b038a167fddf252ad1be2c89b69c2b068fc378daa952ba7f163c4a11628f55a4df523b3ef8280a460095460405163b67cb04760e01b815230600482015260248101839052600099918a906001600160a01b03166101c083604481845afa928315610411578293611dc3575b50825190803b156104cb576064839260405194859384926330b157e560e21b8452600484015260018060a01b03891660248401528160448401525af18015611db8579188999a9b92918c999492611da5575b5060a08101908151611ca4575b50505050611c16575b50600101955093929193611a33565b6009546040516342f9914b60e01b81526004810192909252602090829060249082906001600160a01b03165afa908115611914578591611c6c575b50845260936020526040842080546001908101909155611c07565b919450506020813d602011611c9c575b81611c8960209383612b3e565b81010312610fe557518693906001611c51565b3d9150611c7c565b8380611d379552600f9182602052604082208151835260205260018060a01b0360408320541615611d5c575b519251936001600160a01b03811615611d40575b8382526011602052611cf98560408420615a35565b50506001600160a01b039081168252602083815260408084208685528252808420548480529482528084208685529091529091205481169116613782565b38808080611bfe565b8382526011602052611d558560408420615bb7565b5050611ce4565b8180526020838152604080842083518552909152822080546001600160a01b0319166001600160a01b038416179055818080600080516020615d648339815191528180a4611cd0565b611db190939193612a8d565b9138611bf1565b6040513d8d823e3d90fd5b611de89193506101c03d6101c011611def575b611de08183612b3e565b810190613157565b9138611b9f565b503d611dd6565b60095460405163b67cb04760e01b8152306004820152602481018390526001600160a01b03909116906101c081604481855afa8015611ede576101a091600091611f81575b500151611f24575b6040516308ed6c0160e41b815230600482015260248101839052602081604481855afa908115611ede57600091611eea575b506001600160a01b031615611e8b575b50611b08565b803b15610fe557604051638cec7d3960e01b8152600481018390526001600160a01b038a166024820152906000908290604490829084905af18015611ede5715611e8557611ed890612a8d565b38611e85565b6040513d6000823e3d90fd5b906020823d602011611f1c575b81611f0460209383612b3e565b8101031261032f5750611f1690613136565b38611e75565b3d9150611ef7565b60018060a01b03600a54166101206005546024604051809481936321d1336160e11b835260048301525afa8015611ede57611f60575b50611e43565b611f7a906101203d61012011611963576119548183612b3e565b5038611f5a565b611f9c91506101c03d6101c011611def57611de08183612b3e565b38611e3b565b60405163075fd2b160e01b8152600490fd5b611fcf91506101203d61012011611963576119548183612b3e565b38611a29565b6040513d85823e3d90fd5b604051632a84050f60e01b8152600490fd5b50611ffd8183613005565b6024116105bf57602001356001600160e01b03191663b3bcbb7960e01b14156119c7565b604051633efca5c360e11b8152600490fd5b50600554602082013514156119a8565b50600654600554604051636e49181f60e01b8152600481019190915233602482015290602090829060449082906001600160a01b03165afa908115611fd5578391612090575b50156119a1565b90506020813d82116120c1575b816120aa60209383612b3e565b810103126104cb576120bb9061314a565b38612089565b3d915061209d565b503461032f576020806003193601126104c7576001600160401b03906004358281116105bf57366023820112156105bf5780600401359283116105bf576024600691368286851b83010111610ab757855b858110612125578680f35b60019061214761213b368684891b870101612b76565b878151910151906143eb565b0161211a565b503461032f5760409061215f36612a45565b60095484516329c5eaf560e11b815230600482015260248101939093526044830191909152909290839060649082906001600160a01b03165afa91821561220a578180936121c6575b5050604080516001600160a01b039290921682526020820192909252f35b915091506040823d604011612202575b816121e360409383612b3e565b8101031261032f575060206121f782613136565b9101519038806121a8565b3d91506121d6565b50604051903d90823e3d90fd5b503461032f57604036600319011261032f576001600160401b036004358181116104cb57366023820112156104cb578060040135918083116105bf576024906101c090368383870286010111610ab7578235908111610ab75761227e903690600401612a15565b61228661586f565b80612393575b505083612297578480f35b60095460405163229dad5f60e11b81526020600482015283810186905290869082906001600160a01b031660448201878701845b878b821061236f575050508383809203925af190811561196a57869161234d575b50855b8581106122fc5750508480f35b806123096001928461305a565b517f8aa4a03deb8db10032373886aa0376c918ccf36bcdb59ca4da2a807ac7ff1a046101e0604051612341818a8a88028d01016142a1565b3388820152a2016122ef565b61236991503d8088833e6123618183612b3e565b810190613be2565b386122ec565b9194509294508082612383600194876142a1565b01930191019189939185936122cb565b6009546001600160a01b031690813b15611701576040516320512ba160e01b8152602060048201819052868201839052928991906001600160fb1b0384116104cb5781839181836044828960051b808d8484013781010301925af1801561041157612449575b5050875b81811061240b57505061228c565b806124196001928487614291565b357f832d89d991be5351d793c20faf4b7dd44f8aa9ce39e3cb160c6317de6fbba72985604051338152a2016123fd565b61245290612a8d565b6117015787386123f9565b503461032f57602036600319011261032f576020906040906001600160a01b0361248561298a565b168152600e83522054604051908152f35b503461032f57602036600319011261032f576124b061298a565b906124b961586f565b6009546001600160a01b0390811692833b156104cb57829160248392604051948593849263036129cb60e61b845216978860048401525af180156104115761252b575b50907fe7784d93cfbfa4408e19577e6cc0436f4dbb51214b70e100905dfce9def88c166020604051338152a280f35b61253490612a8d565b386124fc565b503461032f57612549366129ca565b9061255482336147d7565b15612562576102d892614a7a565b60405163e5fa0e3560e01b8152600490fd5b503461032f578060031936011261032f576008546040516001600160a01b039091168152602090f35b503461032f576020806003193601126104c75760043582526094815260408220604051838194908354906125d082612fcb565b9485855260019287848216918260001461264d575050600114612611575b5050506125fd92500383612b3e565b6103ea604051928284938452830190612965565b869350819291528282205b8583106126355750506125fd93508201013880806125ee565b8054838901850152879450869390920191810161261c565b9350945050506125fd94915060ff191682840152151560051b8201013880806125ee565b503461032f57604036600319011261032f5761268b61298a565b602435906001600160a01b0380806126a28561472d565b1692169180831461272c5780331415908161270a575b506125625782845260036020526040842080546001600160a01b031916831790556126e28361472d565b167f8c5be1e5ebec7d5bd14f71427d1e84f3dd0314c0f7b2291e5b200ac8c7c3b9258480a480f35b9050845260046020526040842033855260205260ff60408520541615386126b8565b60405163133f8be960e01b8152600490fd5b503461032f57602036600319011261032f5760206114cc600435614760565b503461032f578060031936011261032f576040519080805461277e81612fcb565b8085529160019180831690811561280257506001146127a8575b6103ea8561098a81870382612b3e565b80809450527f290decd9548b62a8d60345a988386fc84ba6bc95484008f6362f93160ef3e5635b8284106127ea57505050810160200161098a826103ea612798565b805460208587018101919091529093019281016127cf565b8695506103ea9693506020925061098a94915060ff191682840152151560051b8201019293612798565b9050346104c75760203660031901126104c75760043563ffffffff60e01b81168091036104cb57602092506306decc2d60e21b8114908115612870575b5015158152f35b63b3bcbb7960e01b81149150811561291c575b811561290b575b81156128fa575b81156128e9575b81156128a6575b5038612869565b6380ac58cd60e01b8114915081156128d8575b81156128c7575b503861289f565b6301ffc9a760e01b149050386128c0565b635b5e139f60e01b811491506128b9565b63152a902d60e11b81149150612898565b632b13c58f60e01b81149150612891565b63da9ee8b760e01b8114915061288a565b6371700c6960e01b81149150612883565b35906001600160e01b031982168203610fe557565b60005b8381106129555750506000910152565b8181015183820152602001612945565b9060209161297e81518092818552858086019101612942565b601f01601f1916010190565b600435906001600160a01b0382168203610fe557565b602435906001600160a01b0382168203610fe557565b35906001600160a01b0382168203610fe557565b6060906003190112610fe5576001600160a01b03906004358281168103610fe557916024359081168103610fe5579060443590565b60c435906001600160a01b0382168203610fe557565b9181601f84011215610fe5578235916001600160401b038311610fe5576020808501948460051b010111610fe557565b6040906003190112610fe5576004359060243590565b60031990602081830112610fe557600435916001600160401b038311610fe557826101e092030112610fe55760040190565b6001600160401b038111612aa057604052565b634e487b7160e01b600052604160045260246000fd5b604081019081106001600160401b03821117612aa057604052565b608081019081106001600160401b03821117612aa057604052565b602081019081106001600160401b03821117612aa057604052565b61100081019081106001600160401b03821117612aa057604052565b606081019081106001600160401b03821117612aa057604052565b90601f801991011681019081106001600160401b03821117612aa057604052565b6001600160401b038111612aa05760051b60200190565b9190826040910312610fe557604051604081018181106001600160401b03821117612aa0576040526020808294803584520135910152565b6020908160408183019282815285518094520193019160005b828110612bd5575050505090565b835185529381019392810192600101612bc7565b81601f82011215610fe557803591612c0083612b5f565b92612c0e6040519485612b3e565b808452602092838086019260051b820101928311610fe5578301905b828210612c38575050505090565b81358152908301908301612c2a565b906020600319830112610fe5576004356001600160401b0392838211610fe55780602383011215610fe5578160040135938411610fe55760248483010111610fe5576024019190565b35908115158203610fe557565b6001600160401b038111612aa057601f01601f191660200190565b929192612cc482612c9d565b91612cd26040519384612b3e565b829481845281830111610fe5578281602093846000960137010152565b9080601f83011215610fe557816020612d0a93359101612cb8565b90565b608435906001600160a01b0382168203610fe557565b359069ffffffffffffffffffff82168203610fe557565b359065ffffffffffff82168203610fe557565b359064ffffffffff82168203610fe557565b359061ffff82168203610fe557565b359060ff82168203610fe557565b9190916080908181850312610fe5576040805192612d9984612ad1565b83958335906001600160401b0391828111610fe557850181601f82011215610fe557803591612dc783612b5f565b93612dd487519586612b3e565b83855260209586860192876101c080970286010194818611610fe5578801935b858510612e3057505050938852505050508281013590840152808201359083015260600135906001600160a01b0382168203610fe55760600152565b8685830312610fe5578951908782019082821086831117612f3d5788928b928d52612e5a88612d23565b8152612e67838901612d3a565b83820152612e768d8901612d4d565b8d8201526060612e87818a01612d5f565b90820152612e96868901612d5f565b8682015260a0612ea7818a016129b6565b9082015260c0612eb8818a01612d6e565b9082015260e0612ec9818a016129b6565b908201526101008089013590820152610120612ee6818a01612d6e565b90820152610140612ef8818a01612c90565b90820152610160612f0a818a01612c90565b90820152610180612f1c818a01612c90565b908201526101a0612f2e818a01612c90565b90820152815201940193612df4565b60246000634e487b7160e01b81526041600452fd5b61012435906001600160a01b0382168203610fe557565b608090610143190112610fe55760405190612f8382612ad1565b81610144358015158103610fe5578152610164358015158103610fe5576020820152610184358015158103610fe55760408201526101a435908115158203610fe55760600152565b90600182811c92168015612ffb575b6020831014612fe557565b634e487b7160e01b600052602260045260246000fd5b91607f1691612fda565b903590601e1981360301821215610fe557018035906001600160401b038211610fe557602001918136038313610fe557565b8051156130445760200190565b634e487b7160e01b600052603260045260246000fd5b80518210156130445760209160051b010190565b91606083830312610fe5578235926130886020820161292d565b9260408201356001600160401b038111610fe557612d0a9201612be9565b80916101209283910312610fe5576040519182018281106001600160401b03821117612aa057604052805182526020810151602083015260408101516040830152606081015160608301526080810151608083015260a081015160a083015260c081015160c083015260e081015160018060a01b0381168103610fe55760e0830152610100809101519082015290565b51906001600160a01b0382168203610fe557565b51908115158203610fe557565b80916101c09283910312610fe5576040519182018281106001600160401b03821117612aa057604052805182526020810151602083015260408101516040830152606081015160608301526080810151608083015260a081015160a083015260c081015160c08301526131cc60e08201613136565b60e083015261010080820151908301526101206131ea818301613136565b908301526101408082015190830152610160808201519083015261018061321281830161314a565b908301526132246101a080920161314a565b9082015290565b9190820180921161323857565b634e487b7160e01b600052601160045260246000fd5b60009060009060808101356134ba576101c08082019160246132708483613005565b905010801561348b575b611fe05760409586519261328d84612ab6565b600196878552865b6020808210156132c1578a51602092916132ae82612ab6565b8a82528a81830152828901015201613295565b5050939297969195909483976133046119d88251936132df85612ab6565b30855260209486868201526132f389613037565b526132fd88613037565b508c613005565b9891505060018060a01b03938b85600a5416845180916321d1336160e11b8252866004940135848301528160246101209485935afa91821561348157908992918592613464575b505051146133955750505050505050505061061e6133856133919261337f61337960925460c08a013561322b565b916134cc565b90615c34565b946101a0810190613005565b9190565b9091929394979b988096979b505195829860095416905b878a106133cf575050505050505050505061061e816101a0613391930190613005565b9091929394959697989c613411868f6133e8908561305a565b51895163b67cb04760e01b81523088820190815260208101929092529283918291604090910190565b0381875afa90811561345a578b92918a91889161343d575b500151019d019897969594939291906133ac565b6134549150893d8b11611def57611de08183612b3e565b38613429565b88513d88823e3d90fd5b61347a9250803d10611963576119548183612b3e565b388061334b565b86513d86823e3d90fd5b506134968382613005565b60241161087157602001356001600160e01b03191663b3bcbb7960e01b141561327a565b6040516309f82f1b60e31b8152600490fd5b9060009180516000915b8183106134fa5750505081156134e857565b604051637691472960e01b8152600490fd5b90919361351c600191613516613510888661305a565b51613552565b9061322b565b940191906134d6565b9190820391821161323857565b811561353c570490565b634e487b7160e01b600052601260045260246000fd5b6009546040516342f9914b60e01b815260048101929092526001600160a01b0316602082602481845afa918215611ede57600092613632575b50604051633a39e4d160e11b8152306004820152602481018390526101c0918290829060449082905afa918215611ede57600092613615575b5050600019820182811161323857608011156130445761360f826135fa6011612d0a950154936060608082015191015190613525565b9060005260936020526040600020549061322b565b90613532565b61362b9250803d10611def57611de08183612b3e565b38806135c4565b90916020823d821161365d575b8161364c60209383612b3e565b8101031261032f575051903861358b565b3d915061363f565b818110613670575050565b60008155600101613665565b356001600160a01b0381168103610fe55790565b929160018060a01b0380941691600094838652602093600f8552604094858820858952815280600080516020615d6483398151915260648a85878b8320541697818352600f86528b83208b845286528b8320818b1690816001600160601b0360a01b825416179055898d51998a97868997a460095416906305c9a1d560e31b835230600484015260248301528960448301525afa95861561377957508795613742575b5050613740949550613782565b565b9080929550813d8311613772575b61375a8183612b3e565b81010312610ab7576137409495505192859438613733565b503d613750565b513d89823e3d90fd5b91926001600160a01b0391821692909116808314801561387c575b61387657808491613813575b5050816137b557505050565b6137f97fed0c1e94c302bdbbd8bbd6a4fb7c3ed335c2292407cd816eadd075d019d0ce04918360005260106020526040600020856000526020526040600020615bb7565b6040805192835260208301919091523390820152606090a3565b8060005260106020526040600020826000526020527fed0c1e94c302bdbbd8bbd6a4fb7c3ed335c2292407cd816eadd075d019d0ce04613857846040600020615a35565b6040805192835260208301919091523390820152606090a382386137a9565b50505050565b50811561379d565b6009546040516308ed6c0160e41b8152306004820152602481018390526001600160a01b0392916020908290604490829087165afa908115611ede576000916138e9575b508281166138e3575060005260026020526040600020541690565b91505090565b906020823d821161391a575b8161390260209383612b3e565b8101031261032f575061391490613136565b386138c8565b3d91506138f5565b602081830312610fe5578051906001600160401b038211610fe5570181601f82011215610fe557805161395481612c9d565b926139626040519485612b3e565b81845260208284010111610fe557612d0a9160208085019101612942565b60095460408051630fab094760e01b815230600482015290926020926001600160a01b03908116928481602481875afa908115613b7957600091613b43575b501680613af45750835163f682eeaf60e01b815230600482015290600082602481865afa918215613ae957908491600093613acc575b508551630c8df17160e41b81523060048201526024810191909152919282908180604481015b03915afa908115613ac157600091613a92575b5090613a5b612d0a9392855190609160f51b85830152602282015260228152613a5681612b23565b615612565b93519381613a728693518092868087019101612942565b8201613a8682518093868085019101612942565b01038084520182612b3e565b908382813d8311613aba575b613aa88183612b3e565b8101031261032f575051613a5b613a2e565b503d613a9e565b84513d6000823e3d90fd5b613ae390613a1b943d8091833e6104028183612b3e565b926139f5565b85513d6000823e3d90fd5b9250600091506024845180948193636d02a25560e11b835260048301525afa918215613b395750600091613b26575090565b612d0a913d8091833e6104028183612b3e565b513d6000823e3d90fd5b8581813d8311613b72575b613b588183612b3e565b810103126104c7575190828216820361032f5750386139bf565b503d613b4e565b86513d6000823e3d90fd5b81601f82011215610fe557805191613b9b83612b5f565b92613ba96040519485612b3e565b808452602092838086019260051b820101928311610fe5578301905b828210613bd3575050505090565b81518152908301908301613bc5565b90602082820312610fe55781516001600160401b038111610fe557612d0a9201613b84565b99959294979390969891996008549a60009b60018060a01b03163014610ea7576009546001600160a01b0316610ea7578051906001600160401b03821161427d578c8291613c558254612fcb565b601f8111614230575b50602091601f84116001146141ab57926141a0575b50508160011b916000199060031b1c1916178b555b85516001600160401b03811161418c57808c600198613ca78a54612fcb565b601f8111614134575b50602091601f84116001146140b757926140ac575b5050600019600383901b1c191690871b1786555b6005556001600160601b0360a01b9660018060a01b031687600654161760065560018060a01b031686600a541617600a5560018060a01b031696878660095416176009556020830151600c5560409687840151600d5560609660018060a01b03888601511690600b541617600b558051614051575b508051613fec575b506001600160a01b031680613f98575b50518051613e3d575b5050805115801590613e30575b8015613e24575b8015613e18575b613d9d575b5050505050613740336158c7565b833b1561087157906084859283855196879485936365c13f1960e11b855280511515600486015260208101511515602486015288810151151560448601520151151560648401525af1908115613e0f5750613dfb575b808080613d8f565b613e058291612a8d565b61032f5780613df3565b513d84823e3d90fd5b50818101511515613d8a565b50828101511515613d83565b5060208101511515613d7c565b908690855192839163229dad5f60e11b83526024830190602060048501528251809252602060448501930191855b818110613eb357505050508190038183895af18015613ea957613e8f575b80613d6f565b613ea2903d8088833e6123618183612b3e565b5038613e89565b84513d88823e3d90fd5b929550928194506101c0602091875169ffffffffffffffffffff815116825265ffffffffffff84820151168483015264ffffffffff8d820151168d83015261ffff808d830151168d84015260809081830151169083015260a060018060a01b0381830151169083015260ff60c08181840151169084015260e060018060a01b038184015116908401526101008083015190840152610120908183015116908301526101408082015115159083015261016080820151151590830152610180808201511515908301526101a0809101511515908201520195019101928a94928694613e6b565b863b156117015785519063036129cb60e61b825260048201528781602481838b5af18015613fe257908891613fce575b50613d66565b613fd790612a8d565b61086d578638613fc8565b86513d8a823e3d90fd5b873b1561086957886140199188518093819263d67b78fd60e01b8352602060048401526024830190612965565b0381838c5af1801561404757908991614033575b50613d56565b61403c90612a8d565b61170157873861402d565b87513d8b823e3d90fd5b883b156116fd578961407e918951809381926331315e5960e11b8352602060048401526024830190612965565b0381838d5af180156140a25715613d4e5761409b90999199612a8d565b9738613d4e565b88513d8c823e3d90fd5b015190503880613cc5565b91908a9450601f1984168584527fb10e2d527612073b26eecdfd717e6a320cf44b4afac2b0732d9fcbe2b7fa0cf6935b81811061411c57508411614103575b505050811b018655613cd9565b015160001960f88460031b161c191690553880806140f6565b8284015185558c9690940193602093840193016140e7565b61417c908b84527fb10e2d527612073b26eecdfd717e6a320cf44b4afac2b0732d9fcbe2b7fa0cf6601f860160051c81019160208710614182575b601f0160051c0190613665565b38613cb0565b909150819061416f565b634e487b7160e01b8c52604160045260248cfd5b015190503880613c73565b80805293507f290decd9548b62a8d60345a988386fc84ba6bc95484008f6362f93160ef3e56391905b601f1984168510614215576001945083601f198116106141fc575b505050811b018b55613c88565b015160001960f88460031b161c191690553880806141ef565b818101518355602094850194600190930192909101906141d4565b614277908380527f290decd9548b62a8d60345a988386fc84ba6bc95484008f6362f93160ef3e563601f860160051c8101916020871061418257601f0160051c0190613665565b38613c5e565b634e487b7160e01b8d52604160045260248dfd5b91908110156130445760051b0190565b69ffffffffffffffffffff6142b582612d23565b16825265ffffffffffff6142cb60208301612d3a565b16602083015264ffffffffff6142e360408301612d4d565b16604083015261ffff806142f960608401612d5f565b16606084015261430b60808301612d5f565b1660808301526001600160a01b038061432660a084016129b6565b1660a084015260ff61433a60c08401612d6e565b1660c084015261434c60e083016129b6565b1660e0830152610100808201359083015261012060ff61436d828401612d6e565b1690830152610140614380818301612c90565b151590830152610160614394818301612c90565b1515908301526101806143a8818301612c90565b1515908301526143bc6101a0809201612c90565b1515910152565b90918060409360208452816020850152848401376000828201840152601f01601f1916010190565b600a54600554604080516321d1336160e11b815260048101929092526101209594939290916001600160a01b039187908290602490829086165afa9081156145b1576101009697600092614594575b5050600180968192015160f51c16146145835790816000809493600954166044845180978193635d53f40760e11b83528860048401528a60248401525af19384156145785760009461455d575b5060095482516304db994760e21b815230600482015260248101859052946020929183908790604490829086165afa958615613ac157600096614526575b5060005b8781106144db57505050505050505050565b806144e78a928461305a565b516144f2818a614845565b878751913383527f031e1988c95a91ec4d655ff63a8f87a80bc9daf28d95ae10ee08c0022cfb5c8b88888d1694a4016144c9565b90958382813d8311614556575b61453d8183612b3e565b8101031261032f575061454f90613136565b94386144c5565b503d614533565b61457191943d8091833e6123618183612b3e565b9238614487565b82513d6000823e3d90fd5b8151631d2c125760e31b8152600490fd5b6145aa9250803d10611963576119548183612b3e565b388061443a565b83513d6000823e3d90fd5b906145c561586f565b6009546040805163eaa19ab360e01b81526000196004820152606060248201526064810184905294608486019490926001600160a01b0390879082168360005b8881106146d55750509060009181838160019b8c604483015203925af19687156145b1576000976146b1575b5060005b858110614646575050505050505090565b614650818961305a565b519061465c8287614845565b614667818886614291565b359161ffff8316809303610fe5578892865191600083523360208401527f598baf7bf150ca2f42be9e9f8f55e81d45f5715c3ff22bf46d697fabec7f31d688878b1694a401614635565b6146cd91973d8091833e6146c58183612b3e565b8101906146fd565b509538614631565b9192509760019061ffff6146e88b612d5f565b16815260208091019901910190899291614605565b9190604083820312610fe55782516001600160401b038111610fe557602091614727918501613b84565b92015190565b6000908152600260205260409020546001600160a01b0316801561474e5790565b60405163b49aa3b560e01b8152600490fd5b6000818152600260205260409020546001600160a01b03161561474e576000908152600360205260409020546001600160a01b031690565b9291906147a582336147d7565b1561256257836147b983836147be97614a7a565b614f0a565b156147c557565b6040516336f57c1b60e11b8152600490fd5b906001600160a01b0380806147eb8461472d565b1693169183831493841561481e575b508315614808575b50505090565b61481491929350614760565b1614388080614802565b909350600052600460205260406000208260005260205260ff6040600020541692386147fa565b6001600160a01b03919082168015614a68576000828152600260205260409020546001600160a01b0316614a56576148fc9060009383855260209360028552604090818720966001600160601b0360a01b9785898254161790558185827fddf252ad1be2c89b69c2b068fc378daa952ba7f163c4a11628f55a4df523b3ef8180a4600954835163b67cb04760e01b815230600482015260248101939093526101c09691928392918616918890829081906044820190565b0381855afa978815614a4c578398614a2d575b50508651813b156104cb57829160648392875194859384926330b157e560e21b845260048401528160248401528b60448401525af18015614a2357614a11575b505060a08501948551614967575b5050505050505050565b6149ce97858352600f8852838320825184528852848484205416156149db575b50519451958582526011815261499f87848420615bb7565b5050818052600f81528282208683528152838383205416948252600f8152828220908683525220541690613782565b388080808080808061495d565b858352600f88528383208251845288528584842091825416179055848281600080516020615d648339815191528280a438614987565b614a1c919250612a8d565b388061494f565b84513d84823e3d90fd5b614a44929850803d10611def57611de08183612b3e565b95388061490f565b85513d85823e3d90fd5b604051632eb5f0c360e21b8152600490fd5b604051633904578f60e11b8152600490fd5b929190614a868261472d565b6001600160a01b038581169290918216839003614ea4578116908115614e92578215928315614cae575b84959650614ac1614b459495614eb6565b600095808752602060028152604092838920986001600160601b0360a01b99878b8254161790558387837fddf252ad1be2c89b69c2b068fc378daa952ba7f163c4a11628f55a4df523b3ef8480a4600954855163b67cb04760e01b815230600482015260248101959095526101c09891948592918816918a90829081906044820190565b0381855afa998a15614ca457839a614c85575b50508851813b156104cb57829160648392895194859384926330b157e560e21b845260048401528860248401528d60448401525af18015614c7b57614c67575b505060a08701968751614bb2575b50505050505050505050565b614c0899878552600f845285852082518652845286868620541615614c31575b5051965197614c17575b8252600f81528282208683528152838383205416948252600f8152828220908683525220541690613782565b38808080808080808080614ba6565b86835260118252614c2a88858520615bb7565b5050614bdc565b878552600f84528585208251865284528786862091825416179055868481600080516020615d648339815191528280a438614bd2565b614c7391929450612a8d565b913880614b98565b86513d84823e3d90fd5b614c9c929a50803d10611def57611de08183612b3e565b973880614b58565b87513d85823e3d90fd5b6009546040805163b67cb04760e01b8152306004820152602481018890529098918416906101c0908181604481865afa908115614e6a576101a092600092614e75575b50500151614df0575b88516308ed6c0160e41b815230600482015260248101889052602081604481855afa8015614de5578591600091614daa575b501615614d3b575b5050614ab0565b803b15610fe5578851638cec7d3960e01b8152600481018890526001600160a01b039290921660248301526000908290604490829084905af18015614d9f57614b459596979850614d90575b87969594614d34565b614d9990612a8d565b38614d87565b88513d6000823e3d90fd5b91506020823d8211614ddd575b81614dc460209383612b3e565b8101031261032f5750614dd78591613136565b38614d2c565b3d9150614db7565b8a513d6000823e3d90fd5b83600a54166005548a519182916321d1336160e11b835260048301528160246101209485935afa918215614e6a57600192839261010092600092614e4d575b5050015160f41c1603614cfa5788516318cdaf9760e01b8152600490fd5b614e639250803d10611963576119548183612b3e565b3880614e2f565b8b513d6000823e3d90fd5b614e8b9250803d10611def57611de08183612b3e565b3880614cf1565b604051632c95542760e01b8152600490fd5b60405163a195bc5360e01b8152600490fd5b600081815260036020526040812080546001600160a01b03191690556001600160a01b03614ee38361472d565b167f8c5be1e5ebec7d5bd14f71427d1e84f3dd0314c0f7b2291e5b200ac8c7c3b9258280a4565b9293600093909291803b1561501957948491614f649660405180948193630a85bd0160e11b9788845233600485015260018060a01b0380921660248501526044840152608060648401528260209b8c976084830190612965565b0393165af1849181614fd9575b50614fc8575050503d600014614fc0573d614f8b81612c9d565b90614f996040519283612b3e565b81528091833d92013e5b80519182614fbd576040516336f57c1b60e11b8152600490fd5b01fd5b506060614fa3565b6001600160e01b0319161492509050565b9091508581813d8311615012575b614ff18183612b3e565b8101031261087157516001600160e01b031981168103610871579038614f71565b503d614fe7565b505050915050600190565b600060c082013590600c5480831460001461550b5750505060808101355b61018082016001600160a01b03806150598361367c565b16600052602091600e8352604093846000205495868260009361507b8461367c565b87806150868961367c565b169116146000146155025750015b6000916101e081019060446150a98383613005565b905011806154d5575b6151f8575b509091905081156151815715615170570194600e939291615118918088111561512357876150e48361367c565b7f2fb2733fb01b76e3290fa8b695d18e026ddd19c0a265ab90e95152e57da3033687878b51933385521694840392a461367c565b166000525260002055565b878111615131575b5061367c565b8761513b8361367c565b7fe0e7c81cf67a96dd0e39bcf11521b1f4c0098cc1dbe8c30750a11d9ebfc3ed4d8783888c519433865216950392a43861512b565b8551631b57826960e21b8152600490fd5b50509485819493929403615198575b505050505050565b600e936151a8876151e493613525565b876151b28361367c565b917fe0e7c81cf67a96dd0e39bcf11521b1f4c0098cc1dbe8c30750a11d9ebfc3ed4d87878b51953387521694a461367c565b166000525260002055388080808080615190565b9061520291613005565b8193910160a0848203126104c75761521b89850161292d565b5061522860608501612c90565b90608090818601356001600160401b0396878211610ab757019381601f8601121561032f57908b93929185359561526a61526188612b5f565b96519687612b3e565b8686528c8601918d839860051b83010193841161032f57508c809101915b8383106154bd57505050508195826153de575b50506153d5575b8051156150b7576152b28661367c565b87600954168a51809463eaa19ab360e01b8252606482018760048401526060602484015285518091526084830191908d6000905b8282106153b957505050509181600081819582604483015203925af1938415614de5576000938495615398575b50835193828a1693908c60005b87811061533657505050505050505038806150b7565b86600192615344838661305a565b5161534f818a614845565b7f598baf7bf150ca2f42be9e9f8f55e81d45f5715c3ff22bf46d697fabec7f31d661ffff61537d868a61305a565b5193518a8152336020820152931692604090a4018d90615320565b9094506153af91933d8091833e6146c58183612b3e565b9290929338615313565b835161ffff16855289955093840193909201916001018e6152e6565b600093506152a2565b9091506024828a600954168d5192838092634228826f60e11b82523060048301525afa9182156154b257600092615421575b50506060915001511515388061529b565b90918383813d83116154ab575b6154388183612b3e565b8101031261032f578c51938401918211848310176154975750606080939261548c928e526154658161314a565b84526154728d820161314a565b8d8501528d61548281830161314a565b908501520161314a565b828201523880615410565b634e487b7160e01b81526041600452602490fd5b503d61542e565b8c513d6000823e3d90fd5b81906154c884612d5f565b8152019101908c90615288565b506154e08282613005565b604411610871578901356001600160e01b03191663b3bcbb7960e01b146150b2565b93505091615094565b600b546001600160a01b03169081156155c857600d5493604d85116155b4579060646020926040519485938492635268657960e11b84526004840152602483015260a089013560448301525afa91821561141357809261557e575b505061557991600a0a6080840135615cc0565b615042565b9091506020823d82116155ac575b8161559960209383612b3e565b8101031261032f57505161557938615566565b3d915061558c565b634e487b7160e01b84526011600452602484fd5b5050505050565b906155d982612b5f565b6155e66040519182612b3e565b82815280926155f7601f1991612b5f565b0190602036910137565b908151811015613044570160200190565b8051156158565760409081516105e081018181106001600160401b03821117612aa0578352602e8152602090818101916105c0368437815115613044576000809352600193805184915b8183106157b55750505060ff809416615674816155cf565b92845b82811061579457505050815161568c816155cf565b92845b82811061576c575050508151936156a585612c9d565b956156b281519788612b3e565b858752601f196156c187612c9d565b013684890137845b8681106156da575050505050505090565b60019082516156e881612b23565b603a81527f31323334353637383941424344454647484a4b4c4d4e50515253545556575859868201527f5a6162636465666768696a6b6d6e6f707172737475767778797a000000000000848201526001600160f81b031990615757908661574f858b61305a565b511690615601565b5116871a615765828b615601565b53016156c9565b6001908761578160001983865103018561305a565b511661578d828861305a565b520161568f565b80876157a26001938561305a565b51166157ae828861305a565b5201615677565b9397919690946157c58886615601565b5160f81c9381945b60ff90818a1687101561581557906157fa60019261ff006157ef8f8b9061305a565b5160081b169061322b565b603a918282061661580b898f61305a565b52049501946157cd565b919550508099959298919693995b6158325750600101919061565c565b9660ff6001603a9282848c061661584b8483168b61305a565b520116970480615823565b5060405161586381612aec565b60008152600036813790565b6007546001600160a01b0316330361588357565b606460405162461bcd60e51b815260206004820152602060248201527f4f776e61626c653a2063616c6c6572206973206e6f7420746865206f776e65726044820152fd5b600780546001600160a01b039283166001600160a01b0319821681179092559091167f8be0079c531659141344cd1fd0a4f28419497f9722a3daafe3b4186f6b6457e0600080a3565b80548210156130445760005260206000200190600090565b80546000929181615946575050905060005b6001600160e01b031690565b60001982019182116155b45761595d929350615910565b505460201c61593a565b9190438110156159f1578254906000905b828210615995575050600092811560001461594657506000925050565b90916001906159aa818518831c82861661322b565b918363ffffffff6159bb858a615910565b50541611156159ce575050915b90615978565b9093508101809111156159c857634e487b7160e01b600052601160045260246000fd5b606460405162461bcd60e51b815260206004820152602060248201527f436865636b706f696e74733a20626c6f636b206e6f7420796574206d696e65646044820152fd5b9190615a4990615a4484615928565b613525565b918054615a5582615928565b9181151580615b91575b15615a9f57615a6d85615bcb565b9060001983019283116132385761339192615a8791615910565b509063ffffffff82549181199060201b169116179055565b9063ffffffff90814311615b3d57615ab686615bcb565b9060405193615ac485612ab6565b43841685526001600160e01b03928316602086019081529168010000000000000000811015612aa057615afc91600182018155615910565b939093615b27579351905163ffffffff9190941616921660201b63ffffffff19169190911790559190565b634e487b7160e01b600052600060045260246000fd5b60405162461bcd60e51b815260206004820152602660248201527f53616665436173743a2076616c756520646f65736e27742066697420696e203360448201526532206269747360d01b6064820152608490fd5b50600019820182811161323857615bad63ffffffff9183615910565b5054164314615a5f565b9190615a4990615bc684615928565b61322b565b6001600160e01b0390818111615bdf571690565b60405162461bcd60e51b815260206004820152602760248201527f53616665436173743a2076616c756520646f65736e27742066697420696e20326044820152663234206269747360c81b6064820152608490fd5b919060001981840981840291828083109203918083039214615cb357633b9aca009081831015615c95577f88f2cfb83100cb4e69e7c79c58b316e597157d372fb9787e8e47ce423a2e9c6d94950990828211900360f71b910360091c170290565b6044838360405191631dcf306360e21b835260048301526024820152fd5b5050633b9aca0090049150565b90916000198383099280830292838086109503948086039514615d565782851015615d3857908291096001821901821680920460028082600302188083028203028083028203028083028203028083028203028083028203028092029003029360018380600003040190848311900302920304170290565b6044858460405191631dcf306360e21b835260048301526024820152fd5b505090612d0a925061353256fe3134e8a2e6d97e929a7e54011ea5485d7d196dd5f0ba4d4ef95803e8e3fc257fa2646970667358221220dc555758946a69aef9008a82bc5140ef26aee7ca5e36bdb8c7b60412e1ee807764736f6c63430008110033",
    "linkReferences": {}
  },
  "methodIdentifiers": {
    "TOTAL_REDEMPTION_WEIGHT()": "640abacd",
    "adjustTiers((uint80,uint48,uint40,uint16,uint16,address,uint8,address,bytes32,uint8,bool,bool,bool,bool)[],uint256[])": "25eb91ee",
    "approve(address,uint256)": "095ea7b3",
    "balanceOf(address)": "70a08231",
    "codeOrigin()": "1d153ca4",
    "contractURI()": "e8a3d485",
    "creditsOf(address)": "245a45b5",
    "didPay((address,uint256,uint256,(address,uint256,uint256,uint256),(address,uint256,uint256,uint256),uint256,address,bool,string,bytes))": "da9ee8b7",
    "didRedeem((address,uint256,uint256,uint256,(address,uint256,uint256,uint256),(address,uint256,uint256,uint256),address,string,bytes))": "2b13c58f",
    "directory()": "c41c2f24",
    "firstOwnerOf(uint256)": "54c6d1f5",
    "fundingCycleStore()": "557e7155",
    "getApproved(uint256)": "081812fc",
    "getPastTierTotalVotes(uint256,uint256)": "d31cc52c",
    "getPastTierVotes(address,uint256,uint256)": "d40e7146",
    "getTierDelegate(address,uint256)": "82732b6d",
    "getTierTotalVotes(uint256)": "94c5c5ca",
    "getTierVotes(address,uint256)": "ca323efe",
    "initialize(uint256,address,string,string,address,string,address,string,((uint80,uint48,uint40,uint16,uint16,address,uint8,address,bytes32,uint8,bool,bool,bool,bool)[],uint256,uint256,address),address,(bool,bool,bool,bool))": "d1704baf",
    "initialize(uint256,address,string,string,address,string,address,string,((uint80,uint48,uint40,uint16,uint16,address,uint8,address,bytes32,uint8,bool,bool,bool,bool)[],uint256,uint256,address),address,(bool,bool,bool,bool),string[])": "aae83226",
    "isApprovedForAll(address,address)": "e985e9c5",
    "mintFor((uint16[],address)[])": "36c1a93b",
    "mintFor(uint16[],address)": "6ac6d941",
    "mintReservesFor((uint256,uint256)[])": "2a596e53",
    "mintReservesFor(uint256,uint256)": "aa4fb15b",
    "name()": "06fdde03",
    "owner()": "8da5cb5b",
    "ownerOf(uint256)": "6352211e",
    "payParams((address,address,(address,uint256,uint256,uint256),uint256,uint256,address,uint256,uint256,string,bytes))": "d46cf171",
    "prices()": "d3419bf3",
    "pricingCurrency()": "64640c1e",
    "pricingDecimals()": "4ecba625",
    "projectId()": "3fafa127",
    "redeemParams((address,address,uint256,uint256,uint256,uint256,uint256,(address,uint256,uint256,uint256),bool,uint256,string,bytes))": "a51cfd18",
    "redemptionWeightOf(uint256)": "4f228e11",
    "redemptionWeightOf(uint256[],(address,address,uint256,uint256,uint256,uint256,uint256,(address,uint256,uint256,uint256),bool,uint256,string,bytes))": "7ba62bf9",
    "renounceOwnership()": "715018a6",
    "royaltyInfo(uint256,uint256)": "2a55205a",
    "safeTransferFrom(address,address,uint256)": "42842e0e",
    "safeTransferFrom(address,address,uint256,bytes)": "b88d4fde",
    "setApprovalForAll(address,bool)": "a22cb465",
    "setBaseUri(string)": "a0bcfc7f",
    "setContractUri(string)": "ccb4807b",
    "setDefaultReservedTokenBeneficiary(address)": "df487e26",
    "setEncodedIPFSUriOf(uint256,bytes32)": "525350ba",
    "setTierDelegate(address,uint256)": "ab951e39",
    "setTierDelegates((address,uint256)[])": "c74b13d9",
    "setTierRedemptionWeights((uint256,uint256)[])": "2f441500",
    "setTokenUriResolver(address)": "2407497e",
    "store()": "975057e7",
    "supportsInterface(bytes4)": "01ffc9a7",
    "symbol()": "95d89b41",
    "tierNameOf(uint256)": "1baabc3e",
    "tierRedemptionWeights()": "9df45468",
    "tokenURI(uint256)": "c87b56dd",
    "totalRedemptionWeight((address,address,uint256,uint256,uint256,uint256,uint256,(address,uint256,uint256,uint256),bool,uint256,string,bytes))": "9494bf72",
    "transferFrom(address,address,uint256)": "23b872dd",
    "transferOwnership(address)": "f2fde38b"
  },
  "id": 0
}