{
  "abi": [
    {
      "inputs": [],
      "name": "ALEADY_MINTED",
      "type": "error"
    },
    {
      "inputs": [],
      "name": "APPROVAL_TO_CURRENT_OWNER",
      "type": "error"
    },
    {
      "inputs": [],
      "name": "APPROVE_TO_CALLER",
      "type": "error"
    },
    {
      "inputs": [],
      "name": "BLOCK_NOT_YET_MINED",
      "type": "error"
    },
    {
      "inputs": [],
      "name": "CALLER_NOT_OWNER_OR_APPROVED",
      "type": "error"
    },
    {
      "inputs": [],
      "name": "DELEGATE_ADDRESS_ZERO",
      "type": "error"
    },
    {
      "inputs": [],
      "name": "GAME_ISNT_OVER_YET",
      "type": "error"
    },
    {
      "inputs": [],
      "name": "INCORRECT_OWNER",
      "type": "error"
    },
    {
      "inputs": [],
      "name": "INVALID_PAYMENT_EVENT",
      "type": "error"
    },
    {
      "inputs": [],
      "name": "INVALID_REDEMPTION_EVENT",
      "type": "error"
    },
    {
      "inputs": [],
      "name": "INVALID_REDEMPTION_METADATA",
      "type": "error"
    },
    {
      "inputs": [],
      "name": "INVALID_REDEMPTION_WEIGHTS",
      "type": "error"
    },
    {
      "inputs": [],
      "name": "INVALID_TIER_ID",
      "type": "error"
    },
    {
      "inputs": [],
      "name": "INVALID_TOKEN_ID",
      "type": "error"
    },
    {
      "inputs": [],
      "name": "MINT_TO_ZERO",
      "type": "error"
    },
    {
      "inputs": [],
      "name": "NOTHING_TO_CLAIM",
      "type": "error"
    },
    {
      "inputs": [],
      "name": "NOT_AVAILABLE",
      "type": "error"
    },
    {
      "inputs": [],
      "name": "OVERSPENDING",
      "type": "error"
    },
    {
      "inputs": [
        {
          "internalType": "uint256",
          "name": "prod1",
          "type": "uint256"
        },
        {
          "internalType": "uint256",
          "name": "denominator",
          "type": "uint256"
        }
      ],
      "name": "PRBMath__MulDivOverflow",
      "type": "error"
    },
    {
      "inputs": [],
      "name": "PRICING_RESOLVER_CHANGES_PAUSED",
      "type": "error"
    },
    {
      "inputs": [],
      "name": "RESERVED_TOKEN_MINTING_PAUSED",
      "type": "error"
    },
    {
      "inputs": [],
      "name": "TRANSFERS_PAUSED",
      "type": "error"
    },
    {
      "inputs": [],
      "name": "TRANSFER_TO_NON_IMPLEMENTER",
      "type": "error"
    },
    {
      "inputs": [],
      "name": "TRANSFER_TO_ZERO_ADDRESS",
      "type": "error"
    },
    {
      "inputs": [],
      "name": "UNAUTHORIZED",
      "type": "error"
    },
    {
      "inputs": [],
      "name": "UNEXPECTED_TOKEN_REDEEMED",
      "type": "error"
    },
    {
      "anonymous": false,
      "inputs": [
        {
          "indexed": true,
          "internalType": "uint256",
          "name": "changeAmount",
          "type": "uint256"
        },
        {
          "indexed": true,
          "internalType": "uint256",
          "name": "newTotalCredits",
          "type": "uint256"
        },
        {
          "indexed": true,
          "internalType": "address",
          "name": "account",
          "type": "address"
        },
        {
          "indexed": false,
          "internalType": "address",
          "name": "caller",
          "type": "address"
        }
      ],
      "name": "AddCredits",
      "type": "event"
    },
    {
      "anonymous": false,
      "inputs": [
        {
          "indexed": true,
          "internalType": "uint256",
          "name": "tierId",
          "type": "uint256"
        },
        {
          "components": [
            {
              "internalType": "uint80",
              "name": "contributionFloor",
              "type": "uint80"
            },
            {
              "internalType": "uint48",
              "name": "lockedUntil",
              "type": "uint48"
            },
            {
              "internalType": "uint40",
              "name": "initialQuantity",
              "type": "uint40"
            },
            {
              "internalType": "uint16",
              "name": "votingUnits",
              "type": "uint16"
            },
            {
              "internalType": "uint16",
              "name": "reservedRate",
              "type": "uint16"
            },
            {
              "internalType": "address",
              "name": "reservedTokenBeneficiary",
              "type": "address"
            },
            {
              "internalType": "uint8",
              "name": "royaltyRate",
              "type": "uint8"
            },
            {
              "internalType": "address",
              "name": "royaltyBeneficiary",
              "type": "address"
            },
            {
              "internalType": "bytes32",
              "name": "encodedIPFSUri",
              "type": "bytes32"
            },
            {
              "internalType": "uint8",
              "name": "category",
              "type": "uint8"
            },
            {
              "internalType": "bool",
              "name": "allowManualMint",
              "type": "bool"
            },
            {
              "internalType": "bool",
              "name": "shouldUseReservedTokenBeneficiaryAsDefault",
              "type": "bool"
            },
            {
              "internalType": "bool",
              "name": "shouldUseRoyaltyBeneficiaryAsDefault",
              "type": "bool"
            },
            {
              "internalType": "bool",
              "name": "transfersPausable",
              "type": "bool"
            }
          ],
          "indexed": false,
          "internalType": "struct JB721TierParams",
          "name": "data",
          "type": "tuple"
        },
        {
          "indexed": false,
          "internalType": "address",
          "name": "caller",
          "type": "address"
        }
      ],
      "name": "AddTier",
      "type": "event"
    },
    {
      "anonymous": false,
      "inputs": [
        {
          "indexed": true,
          "internalType": "address",
          "name": "owner",
          "type": "address"
        },
        {
          "indexed": true,
          "internalType": "address",
          "name": "approved",
          "type": "address"
        },
        {
          "indexed": true,
          "internalType": "uint256",
          "name": "tokenId",
          "type": "uint256"
        }
      ],
      "name": "Approval",
      "type": "event"
    },
    {
      "anonymous": false,
      "inputs": [
        {
          "indexed": true,
          "internalType": "address",
          "name": "owner",
          "type": "address"
        },
        {
          "indexed": true,
          "internalType": "address",
          "name": "operator",
          "type": "address"
        },
        {
          "indexed": false,
          "internalType": "bool",
          "name": "approved",
          "type": "bool"
        }
      ],
      "name": "ApprovalForAll",
      "type": "event"
    },
    {
      "anonymous": false,
      "inputs": [
        {
          "indexed": true,
          "internalType": "address",
          "name": "delegator",
          "type": "address"
        },
        {
          "indexed": true,
          "internalType": "address",
          "name": "fromDelegate",
          "type": "address"
        },
        {
          "indexed": true,
          "internalType": "address",
          "name": "toDelegate",
          "type": "address"
        }
      ],
      "name": "DelegateChanged",
      "type": "event"
    },
    {
      "anonymous": false,
      "inputs": [
        {
          "indexed": true,
          "internalType": "uint256",
          "name": "tokenId",
          "type": "uint256"
        },
        {
          "indexed": true,
          "internalType": "uint256",
          "name": "tierId",
          "type": "uint256"
        },
        {
          "indexed": true,
          "internalType": "address",
          "name": "beneficiary",
          "type": "address"
        },
        {
          "indexed": false,
          "internalType": "uint256",
          "name": "totalAmountContributed",
          "type": "uint256"
        },
        {
          "indexed": false,
          "internalType": "address",
          "name": "caller",
          "type": "address"
        }
      ],
      "name": "Mint",
      "type": "event"
    },
    {
      "anonymous": false,
      "inputs": [
        {
          "indexed": true,
          "internalType": "uint256",
          "name": "tokenId",
          "type": "uint256"
        },
        {
          "indexed": true,
          "internalType": "uint256",
          "name": "tierId",
          "type": "uint256"
        },
        {
          "indexed": true,
          "internalType": "address",
          "name": "beneficiary",
          "type": "address"
        },
        {
          "indexed": false,
          "internalType": "address",
          "name": "caller",
          "type": "address"
        }
      ],
      "name": "MintReservedToken",
      "type": "event"
    },
    {
      "anonymous": false,
      "inputs": [
        {
          "indexed": true,
          "internalType": "address",
          "name": "previousOwner",
          "type": "address"
        },
        {
          "indexed": true,
          "internalType": "address",
          "name": "newOwner",
          "type": "address"
        }
      ],
      "name": "OwnershipTransferred",
      "type": "event"
    },
    {
      "anonymous": false,
      "inputs": [
        {
          "indexed": true,
          "internalType": "uint256",
          "name": "tierId",
          "type": "uint256"
        },
        {
          "indexed": false,
          "internalType": "address",
          "name": "caller",
          "type": "address"
        }
      ],
      "name": "RemoveTier",
      "type": "event"
    },
    {
      "anonymous": false,
      "inputs": [
        {
          "indexed": true,
          "internalType": "string",
          "name": "baseUri",
          "type": "string"
        },
        {
          "indexed": false,
          "internalType": "address",
          "name": "caller",
          "type": "address"
        }
      ],
      "name": "SetBaseUri",
      "type": "event"
    },
    {
      "anonymous": false,
      "inputs": [
        {
          "indexed": true,
          "internalType": "string",
          "name": "contractUri",
          "type": "string"
        },
        {
          "indexed": false,
          "internalType": "address",
          "name": "caller",
          "type": "address"
        }
      ],
      "name": "SetContractUri",
      "type": "event"
    },
    {
      "anonymous": false,
      "inputs": [
        {
          "indexed": true,
          "internalType": "address",
          "name": "beneficiary",
          "type": "address"
        },
        {
          "indexed": false,
          "internalType": "address",
          "name": "caller",
          "type": "address"
        }
      ],
      "name": "SetDefaultReservedTokenBeneficiary",
      "type": "event"
    },
    {
      "anonymous": false,
      "inputs": [
        {
          "indexed": true,
          "internalType": "uint256",
          "name": "tierId",
          "type": "uint256"
        },
        {
          "indexed": false,
          "internalType": "bytes32",
          "name": "encodedIPFSUri",
          "type": "bytes32"
        },
        {
          "indexed": false,
          "internalType": "address",
          "name": "caller",
          "type": "address"
        }
      ],
      "name": "SetEncodedIPFSUri",
      "type": "event"
    },
    {
      "anonymous": false,
      "inputs": [
        {
          "indexed": true,
          "internalType": "contract IJBTokenUriResolver",
          "name": "newResolver",
          "type": "address"
        },
        {
          "indexed": false,
          "internalType": "address",
          "name": "caller",
          "type": "address"
        }
      ],
      "name": "SetTokenUriResolver",
      "type": "event"
    },
    {
      "anonymous": false,
      "inputs": [
        {
          "indexed": true,
          "internalType": "address",
          "name": "delegator",
          "type": "address"
        },
        {
          "indexed": true,
          "internalType": "address",
          "name": "fromDelegate",
          "type": "address"
        },
        {
          "indexed": true,
          "internalType": "address",
          "name": "toDelegate",
          "type": "address"
        },
        {
          "indexed": false,
          "internalType": "uint256",
          "name": "tierId",
          "type": "uint256"
        },
        {
          "indexed": false,
          "internalType": "address",
          "name": "caller",
          "type": "address"
        }
      ],
      "name": "TierDelegateChanged",
      "type": "event"
    },
    {
      "anonymous": false,
      "inputs": [
        {
          "indexed": true,
          "internalType": "address",
          "name": "delegate",
          "type": "address"
        },
        {
          "indexed": true,
          "internalType": "uint256",
          "name": "tierId",
          "type": "uint256"
        },
        {
          "indexed": false,
          "internalType": "uint256",
          "name": "previousBalance",
          "type": "uint256"
        },
        {
          "indexed": false,
          "internalType": "uint256",
          "name": "newBalance",
          "type": "uint256"
        },
        {
          "indexed": false,
          "internalType": "address",
          "name": "caller",
          "type": "address"
        }
      ],
      "name": "TierDelegateVotesChanged",
      "type": "event"
    },
    {
      "anonymous": false,
      "inputs": [
        {
          "indexed": true,
          "internalType": "address",
          "name": "from",
          "type": "address"
        },
        {
          "indexed": true,
          "internalType": "address",
          "name": "to",
          "type": "address"
        },
        {
          "indexed": true,
          "internalType": "uint256",
          "name": "tokenId",
          "type": "uint256"
        }
      ],
      "name": "Transfer",
      "type": "event"
    },
    {
      "anonymous": false,
      "inputs": [
        {
          "indexed": true,
          "internalType": "uint256",
          "name": "changeAmount",
          "type": "uint256"
        },
        {
          "indexed": true,
          "internalType": "uint256",
          "name": "newTotalCredits",
          "type": "uint256"
        },
        {
          "indexed": true,
          "internalType": "address",
          "name": "account",
          "type": "address"
        },
        {
          "indexed": false,
          "internalType": "address",
          "name": "caller",
          "type": "address"
        }
      ],
      "name": "UseCredits",
      "type": "event"
    },
    {
      "inputs": [],
      "name": "TOTAL_REDEMPTION_WEIGHT",
      "outputs": [
        {
          "internalType": "uint256",
          "name": "",
          "type": "uint256"
        }
      ],
      "stateMutability": "view",
      "type": "function"
    },
    {
      "inputs": [
        {
          "components": [
            {
              "internalType": "uint80",
              "name": "contributionFloor",
              "type": "uint80"
            },
            {
              "internalType": "uint48",
              "name": "lockedUntil",
              "type": "uint48"
            },
            {
              "internalType": "uint40",
              "name": "initialQuantity",
              "type": "uint40"
            },
            {
              "internalType": "uint16",
              "name": "votingUnits",
              "type": "uint16"
            },
            {
              "internalType": "uint16",
              "name": "reservedRate",
              "type": "uint16"
            },
            {
              "internalType": "address",
              "name": "reservedTokenBeneficiary",
              "type": "address"
            },
            {
              "internalType": "uint8",
              "name": "royaltyRate",
              "type": "uint8"
            },
            {
              "internalType": "address",
              "name": "royaltyBeneficiary",
              "type": "address"
            },
            {
              "internalType": "bytes32",
              "name": "encodedIPFSUri",
              "type": "bytes32"
            },
            {
              "internalType": "uint8",
              "name": "category",
              "type": "uint8"
            },
            {
              "internalType": "bool",
              "name": "allowManualMint",
              "type": "bool"
            },
            {
              "internalType": "bool",
              "name": "shouldUseReservedTokenBeneficiaryAsDefault",
              "type": "bool"
            },
            {
              "internalType": "bool",
              "name": "shouldUseRoyaltyBeneficiaryAsDefault",
              "type": "bool"
            },
            {
              "internalType": "bool",
              "name": "transfersPausable",
              "type": "bool"
            }
          ],
          "internalType": "struct JB721TierParams[]",
          "name": "_tiersToAdd",
          "type": "tuple[]"
        },
        {
          "internalType": "uint256[]",
          "name": "_tierIdsToRemove",
          "type": "uint256[]"
        }
      ],
      "name": "adjustTiers",
      "outputs": [],
      "stateMutability": "nonpayable",
      "type": "function"
    },
    {
      "inputs": [
        {
          "internalType": "address",
          "name": "to",
          "type": "address"
        },
        {
          "internalType": "uint256",
          "name": "tokenId",
          "type": "uint256"
        }
      ],
      "name": "approve",
      "outputs": [],
      "stateMutability": "nonpayable",
      "type": "function"
    },
    {
      "inputs": [
        {
          "internalType": "address",
          "name": "_owner",
          "type": "address"
        }
      ],
      "name": "balanceOf",
      "outputs": [
        {
          "internalType": "uint256",
          "name": "balance",
          "type": "uint256"
        }
      ],
      "stateMutability": "view",
      "type": "function"
    },
    {
      "inputs": [],
      "name": "codeOrigin",
      "outputs": [
        {
          "internalType": "address",
          "name": "",
          "type": "address"
        }
      ],
      "stateMutability": "view",
      "type": "function"
    },
    {
      "inputs": [],
      "name": "contractURI",
      "outputs": [
        {
          "internalType": "string",
          "name": "",
          "type": "string"
        }
      ],
      "stateMutability": "view",
      "type": "function"
    },
    {
      "inputs": [
        {
          "internalType": "address",
          "name": "",
          "type": "address"
        }
      ],
      "name": "creditsOf",
      "outputs": [
        {
          "internalType": "uint256",
          "name": "",
          "type": "uint256"
        }
      ],
      "stateMutability": "view",
      "type": "function"
    },
    {
      "inputs": [
        {
          "components": [
            {
              "internalType": "address",
              "name": "payer",
              "type": "address"
            },
            {
              "internalType": "uint256",
              "name": "projectId",
              "type": "uint256"
            },
            {
              "internalType": "uint256",
              "name": "currentFundingCycleConfiguration",
              "type": "uint256"
            },
            {
              "components": [
                {
                  "internalType": "address",
                  "name": "token",
                  "type": "address"
                },
                {
                  "internalType": "uint256",
                  "name": "value",
                  "type": "uint256"
                },
                {
                  "internalType": "uint256",
                  "name": "decimals",
                  "type": "uint256"
                },
                {
                  "internalType": "uint256",
                  "name": "currency",
                  "type": "uint256"
                }
              ],
              "internalType": "struct JBTokenAmount",
              "name": "amount",
              "type": "tuple"
            },
            {
              "components": [
                {
                  "internalType": "address",
                  "name": "token",
                  "type": "address"
                },
                {
                  "internalType": "uint256",
                  "name": "value",
                  "type": "uint256"
                },
                {
                  "internalType": "uint256",
                  "name": "decimals",
                  "type": "uint256"
                },
                {
                  "internalType": "uint256",
                  "name": "currency",
                  "type": "uint256"
                }
              ],
              "internalType": "struct JBTokenAmount",
              "name": "forwardedAmount",
              "type": "tuple"
            },
            {
              "internalType": "uint256",
              "name": "projectTokenCount",
              "type": "uint256"
            },
            {
              "internalType": "address",
              "name": "beneficiary",
              "type": "address"
            },
            {
              "internalType": "bool",
              "name": "preferClaimedTokens",
              "type": "bool"
            },
            {
              "internalType": "string",
              "name": "memo",
              "type": "string"
            },
            {
              "internalType": "bytes",
              "name": "metadata",
              "type": "bytes"
            }
          ],
          "internalType": "struct JBDidPayData",
          "name": "_data",
          "type": "tuple"
        }
      ],
      "name": "didPay",
      "outputs": [],
      "stateMutability": "payable",
      "type": "function"
    },
    {
      "inputs": [
        {
          "components": [
            {
              "internalType": "address",
              "name": "holder",
              "type": "address"
            },
            {
              "internalType": "uint256",
              "name": "projectId",
              "type": "uint256"
            },
            {
              "internalType": "uint256",
              "name": "currentFundingCycleConfiguration",
              "type": "uint256"
            },
            {
              "internalType": "uint256",
              "name": "projectTokenCount",
              "type": "uint256"
            },
            {
              "components": [
                {
                  "internalType": "address",
                  "name": "token",
                  "type": "address"
                },
                {
                  "internalType": "uint256",
                  "name": "value",
                  "type": "uint256"
                },
                {
                  "internalType": "uint256",
                  "name": "decimals",
                  "type": "uint256"
                },
                {
                  "internalType": "uint256",
                  "name": "currency",
                  "type": "uint256"
                }
              ],
              "internalType": "struct JBTokenAmount",
              "name": "reclaimedAmount",
              "type": "tuple"
            },
            {
              "components": [
                {
                  "internalType": "address",
                  "name": "token",
                  "type": "address"
                },
                {
                  "internalType": "uint256",
                  "name": "value",
                  "type": "uint256"
                },
                {
                  "internalType": "uint256",
                  "name": "decimals",
                  "type": "uint256"
                },
                {
                  "internalType": "uint256",
                  "name": "currency",
                  "type": "uint256"
                }
              ],
              "internalType": "struct JBTokenAmount",
              "name": "forwardedAmount",
              "type": "tuple"
            },
            {
              "internalType": "address payable",
              "name": "beneficiary",
              "type": "address"
            },
            {
              "internalType": "string",
              "name": "memo",
              "type": "string"
            },
            {
              "internalType": "bytes",
              "name": "metadata",
              "type": "bytes"
            }
          ],
          "internalType": "struct JBDidRedeemData",
          "name": "_data",
          "type": "tuple"
        }
      ],
      "name": "didRedeem",
      "outputs": [],
      "stateMutability": "payable",
      "type": "function"
    },
    {
      "inputs": [],
      "name": "directory",
      "outputs": [
        {
          "internalType": "contract IJBDirectory",
          "name": "",
          "type": "address"
        }
      ],
      "stateMutability": "view",
      "type": "function"
    },
    {
      "inputs": [
        {
          "internalType": "uint256",
          "name": "_tokenId",
          "type": "uint256"
        }
      ],
      "name": "firstOwnerOf",
      "outputs": [
        {
          "internalType": "address",
          "name": "",
          "type": "address"
        }
      ],
      "stateMutability": "view",
      "type": "function"
    },
    {
      "inputs": [],
      "name": "fundingCycleStore",
      "outputs": [
        {
          "internalType": "contract IJBFundingCycleStore",
          "name": "",
          "type": "address"
        }
      ],
      "stateMutability": "view",
      "type": "function"
    },
    {
      "inputs": [
        {
          "internalType": "uint256",
          "name": "tokenId",
          "type": "uint256"
        }
      ],
      "name": "getApproved",
      "outputs": [
        {
          "internalType": "address",
          "name": "",
          "type": "address"
        }
      ],
      "stateMutability": "view",
      "type": "function"
    },
    {
      "inputs": [
        {
          "internalType": "uint256",
          "name": "_tier",
          "type": "uint256"
        },
        {
          "internalType": "uint256",
          "name": "_blockNumber",
          "type": "uint256"
        }
      ],
      "name": "getPastTierTotalVotes",
      "outputs": [
        {
          "internalType": "uint256",
          "name": "",
          "type": "uint256"
        }
      ],
      "stateMutability": "view",
      "type": "function"
    },
    {
      "inputs": [
        {
          "internalType": "address",
          "name": "_account",
          "type": "address"
        },
        {
          "internalType": "uint256",
          "name": "_tier",
          "type": "uint256"
        },
        {
          "internalType": "uint256",
          "name": "_blockNumber",
          "type": "uint256"
        }
      ],
      "name": "getPastTierVotes",
      "outputs": [
        {
          "internalType": "uint256",
          "name": "",
          "type": "uint256"
        }
      ],
      "stateMutability": "view",
      "type": "function"
    },
    {
      "inputs": [
        {
          "internalType": "address",
          "name": "_account",
          "type": "address"
        },
        {
          "internalType": "uint256",
          "name": "_tier",
          "type": "uint256"
        }
      ],
      "name": "getTierDelegate",
      "outputs": [
        {
          "internalType": "address",
          "name": "",
          "type": "address"
        }
      ],
      "stateMutability": "view",
      "type": "function"
    },
    {
      "inputs": [
        {
          "internalType": "uint256",
          "name": "_tier",
          "type": "uint256"
        }
      ],
      "name": "getTierTotalVotes",
      "outputs": [
        {
          "internalType": "uint256",
          "name": "",
          "type": "uint256"
        }
      ],
      "stateMutability": "view",
      "type": "function"
    },
    {
      "inputs": [
        {
          "internalType": "address",
          "name": "_account",
          "type": "address"
        },
        {
          "internalType": "uint256",
          "name": "_tier",
          "type": "uint256"
        }
      ],
      "name": "getTierVotes",
      "outputs": [
        {
          "internalType": "uint256",
          "name": "",
          "type": "uint256"
        }
      ],
      "stateMutability": "view",
      "type": "function"
    },
    {
      "inputs": [
        {
          "internalType": "uint256",
          "name": "_projectId",
          "type": "uint256"
        },
        {
          "internalType": "contract IJBDirectory",
          "name": "_directory",
          "type": "address"
        },
        {
          "internalType": "string",
          "name": "_name",
          "type": "string"
        },
        {
          "internalType": "string",
          "name": "_symbol",
          "type": "string"
        },
        {
          "internalType": "contract IJBFundingCycleStore",
          "name": "_fundingCycleStore",
          "type": "address"
        },
        {
          "internalType": "string",
          "name": "_baseUri",
          "type": "string"
        },
        {
          "internalType": "contract IJBTokenUriResolver",
          "name": "_tokenUriResolver",
          "type": "address"
        },
        {
          "internalType": "string",
          "name": "_contractUri",
          "type": "string"
        },
        {
          "components": [
            {
              "components": [
                {
                  "internalType": "uint80",
                  "name": "contributionFloor",
                  "type": "uint80"
                },
                {
                  "internalType": "uint48",
                  "name": "lockedUntil",
                  "type": "uint48"
                },
                {
                  "internalType": "uint40",
                  "name": "initialQuantity",
                  "type": "uint40"
                },
                {
                  "internalType": "uint16",
                  "name": "votingUnits",
                  "type": "uint16"
                },
                {
                  "internalType": "uint16",
                  "name": "reservedRate",
                  "type": "uint16"
                },
                {
                  "internalType": "address",
                  "name": "reservedTokenBeneficiary",
                  "type": "address"
                },
                {
                  "internalType": "uint8",
                  "name": "royaltyRate",
                  "type": "uint8"
                },
                {
                  "internalType": "address",
                  "name": "royaltyBeneficiary",
                  "type": "address"
                },
                {
                  "internalType": "bytes32",
                  "name": "encodedIPFSUri",
                  "type": "bytes32"
                },
                {
                  "internalType": "uint8",
                  "name": "category",
                  "type": "uint8"
                },
                {
                  "internalType": "bool",
                  "name": "allowManualMint",
                  "type": "bool"
                },
                {
                  "internalType": "bool",
                  "name": "shouldUseReservedTokenBeneficiaryAsDefault",
                  "type": "bool"
                },
                {
                  "internalType": "bool",
                  "name": "shouldUseRoyaltyBeneficiaryAsDefault",
                  "type": "bool"
                },
                {
                  "internalType": "bool",
                  "name": "transfersPausable",
                  "type": "bool"
                }
              ],
              "internalType": "struct JB721TierParams[]",
              "name": "tiers",
              "type": "tuple[]"
            },
            {
              "internalType": "uint256",
              "name": "currency",
              "type": "uint256"
            },
            {
              "internalType": "uint256",
              "name": "decimals",
              "type": "uint256"
            },
            {
              "internalType": "contract IJBPrices",
              "name": "prices",
              "type": "address"
            }
          ],
          "internalType": "struct JB721PricingParams",
          "name": "_pricing",
          "type": "tuple"
        },
        {
          "internalType": "contract IJBTiered721DelegateStore",
          "name": "_store",
          "type": "address"
        },
        {
          "components": [
            {
              "internalType": "bool",
              "name": "lockReservedTokenChanges",
              "type": "bool"
            },
            {
              "internalType": "bool",
              "name": "lockVotingUnitChanges",
              "type": "bool"
            },
            {
              "internalType": "bool",
              "name": "lockManualMintingChanges",
              "type": "bool"
            },
            {
              "internalType": "bool",
              "name": "preventOverspending",
              "type": "bool"
            }
          ],
          "internalType": "struct JBTiered721Flags",
          "name": "_flags",
          "type": "tuple"
        }
      ],
      "name": "initialize",
      "outputs": [],
      "stateMutability": "nonpayable",
      "type": "function"
    },
    {
      "inputs": [
        {
          "internalType": "address",
          "name": "owner",
          "type": "address"
        },
        {
          "internalType": "address",
          "name": "operator",
          "type": "address"
        }
      ],
      "name": "isApprovedForAll",
      "outputs": [
        {
          "internalType": "bool",
          "name": "",
          "type": "bool"
        }
      ],
      "stateMutability": "view",
      "type": "function"
    },
    {
      "inputs": [
        {
          "components": [
            {
              "internalType": "uint16[]",
              "name": "tierIds",
              "type": "uint16[]"
            },
            {
              "internalType": "address",
              "name": "beneficiary",
              "type": "address"
            }
          ],
          "internalType": "struct JBTiered721MintForTiersData[]",
          "name": "_mintForTiersData",
          "type": "tuple[]"
        }
      ],
      "name": "mintFor",
      "outputs": [],
      "stateMutability": "nonpayable",
      "type": "function"
    },
    {
      "inputs": [
        {
          "internalType": "uint16[]",
          "name": "_tierIds",
          "type": "uint16[]"
        },
        {
          "internalType": "address",
          "name": "_beneficiary",
          "type": "address"
        }
      ],
      "name": "mintFor",
      "outputs": [
        {
          "internalType": "uint256[]",
          "name": "tokenIds",
          "type": "uint256[]"
        }
      ],
      "stateMutability": "nonpayable",
      "type": "function"
    },
    {
      "inputs": [
        {
          "components": [
            {
              "internalType": "uint256",
              "name": "tierId",
              "type": "uint256"
            },
            {
              "internalType": "uint256",
              "name": "count",
              "type": "uint256"
            }
          ],
          "internalType": "struct JBTiered721MintReservesForTiersData[]",
          "name": "_mintReservesForTiersData",
          "type": "tuple[]"
        }
      ],
      "name": "mintReservesFor",
      "outputs": [],
      "stateMutability": "nonpayable",
      "type": "function"
    },
    {
      "inputs": [
        {
          "internalType": "uint256",
          "name": "_tierId",
          "type": "uint256"
        },
        {
          "internalType": "uint256",
          "name": "_count",
          "type": "uint256"
        }
      ],
      "name": "mintReservesFor",
      "outputs": [],
      "stateMutability": "nonpayable",
      "type": "function"
    },
    {
      "inputs": [],
      "name": "name",
      "outputs": [
        {
          "internalType": "string",
          "name": "",
          "type": "string"
        }
      ],
      "stateMutability": "view",
      "type": "function"
    },
    {
      "inputs": [],
      "name": "owner",
      "outputs": [
        {
          "internalType": "address",
          "name": "",
          "type": "address"
        }
      ],
      "stateMutability": "view",
      "type": "function"
    },
    {
      "inputs": [
        {
          "internalType": "uint256",
          "name": "tokenId",
          "type": "uint256"
        }
      ],
      "name": "ownerOf",
      "outputs": [
        {
          "internalType": "address",
          "name": "",
          "type": "address"
        }
      ],
      "stateMutability": "view",
      "type": "function"
    },
    {
      "inputs": [
        {
          "components": [
            {
              "internalType": "contract IJBPaymentTerminal",
              "name": "terminal",
              "type": "address"
            },
            {
              "internalType": "address",
              "name": "payer",
              "type": "address"
            },
            {
              "components": [
                {
                  "internalType": "address",
                  "name": "token",
                  "type": "address"
                },
                {
                  "internalType": "uint256",
                  "name": "value",
                  "type": "uint256"
                },
                {
                  "internalType": "uint256",
                  "name": "decimals",
                  "type": "uint256"
                },
                {
                  "internalType": "uint256",
                  "name": "currency",
                  "type": "uint256"
                }
              ],
              "internalType": "struct JBTokenAmount",
              "name": "amount",
              "type": "tuple"
            },
            {
              "internalType": "uint256",
              "name": "projectId",
              "type": "uint256"
            },
            {
              "internalType": "uint256",
              "name": "currentFundingCycleConfiguration",
              "type": "uint256"
            },
            {
              "internalType": "address",
              "name": "beneficiary",
              "type": "address"
            },
            {
              "internalType": "uint256",
              "name": "weight",
              "type": "uint256"
            },
            {
              "internalType": "uint256",
              "name": "reservedRate",
              "type": "uint256"
            },
            {
              "internalType": "string",
              "name": "memo",
              "type": "string"
            },
            {
              "internalType": "bytes",
              "name": "metadata",
              "type": "bytes"
            }
          ],
          "internalType": "struct JBPayParamsData",
          "name": "_data",
          "type": "tuple"
        }
      ],
      "name": "payParams",
      "outputs": [
        {
          "internalType": "uint256",
          "name": "weight",
          "type": "uint256"
        },
        {
          "internalType": "string",
          "name": "memo",
          "type": "string"
        },
        {
          "components": [
            {
              "internalType": "contract IJBPayDelegate",
              "name": "delegate",
              "type": "address"
            },
            {
              "internalType": "uint256",
              "name": "amount",
              "type": "uint256"
            }
          ],
          "internalType": "struct JBPayDelegateAllocation[]",
          "name": "delegateAllocations",
          "type": "tuple[]"
        }
      ],
      "stateMutability": "view",
      "type": "function"
    },
    {
      "inputs": [],
      "name": "prices",
      "outputs": [
        {
          "internalType": "contract IJBPrices",
          "name": "",
          "type": "address"
        }
      ],
      "stateMutability": "view",
      "type": "function"
    },
    {
      "inputs": [],
      "name": "pricingCurrency",
      "outputs": [
        {
          "internalType": "uint256",
          "name": "",
          "type": "uint256"
        }
      ],
      "stateMutability": "view",
      "type": "function"
    },
    {
      "inputs": [],
      "name": "pricingDecimals",
      "outputs": [
        {
          "internalType": "uint256",
          "name": "",
          "type": "uint256"
        }
      ],
      "stateMutability": "view",
      "type": "function"
    },
    {
      "inputs": [],
      "name": "projectId",
      "outputs": [
        {
          "internalType": "uint256",
          "name": "",
          "type": "uint256"
        }
      ],
      "stateMutability": "view",
      "type": "function"
    },
    {
      "inputs": [
        {
          "components": [
            {
              "internalType": "contract IJBPaymentTerminal",
              "name": "terminal",
              "type": "address"
            },
            {
              "internalType": "address",
              "name": "holder",
              "type": "address"
            },
            {
              "internalType": "uint256",
              "name": "projectId",
              "type": "uint256"
            },
            {
              "internalType": "uint256",
              "name": "currentFundingCycleConfiguration",
              "type": "uint256"
            },
            {
              "internalType": "uint256",
              "name": "tokenCount",
              "type": "uint256"
            },
            {
              "internalType": "uint256",
              "name": "totalSupply",
              "type": "uint256"
            },
            {
              "internalType": "uint256",
              "name": "overflow",
              "type": "uint256"
            },
            {
              "components": [
                {
                  "internalType": "address",
                  "name": "token",
                  "type": "address"
                },
                {
                  "internalType": "uint256",
                  "name": "value",
                  "type": "uint256"
                },
                {
                  "internalType": "uint256",
                  "name": "decimals",
                  "type": "uint256"
                },
                {
                  "internalType": "uint256",
                  "name": "currency",
                  "type": "uint256"
                }
              ],
              "internalType": "struct JBTokenAmount",
              "name": "reclaimAmount",
              "type": "tuple"
            },
            {
              "internalType": "bool",
              "name": "useTotalOverflow",
              "type": "bool"
            },
            {
              "internalType": "uint256",
              "name": "redemptionRate",
              "type": "uint256"
            },
            {
              "internalType": "string",
              "name": "memo",
              "type": "string"
            },
            {
              "internalType": "bytes",
              "name": "metadata",
              "type": "bytes"
            }
          ],
          "internalType": "struct JBRedeemParamsData",
          "name": "_data",
          "type": "tuple"
        }
      ],
      "name": "redeemParams",
      "outputs": [
        {
          "internalType": "uint256",
          "name": "reclaimAmount",
          "type": "uint256"
        },
        {
          "internalType": "string",
          "name": "memo",
          "type": "string"
        },
        {
          "components": [
            {
              "internalType": "contract IJBRedemptionDelegate",
              "name": "delegate",
              "type": "address"
            },
            {
              "internalType": "uint256",
              "name": "amount",
              "type": "uint256"
            }
          ],
          "internalType": "struct JBRedemptionDelegateAllocation[]",
          "name": "delegateAllocations",
          "type": "tuple[]"
        }
      ],
      "stateMutability": "view",
      "type": "function"
    },
    {
      "inputs": [
        {
          "internalType": "uint256",
          "name": "_tokenId",
          "type": "uint256"
        }
      ],
      "name": "redemptionWeightOf",
      "outputs": [
        {
          "internalType": "uint256",
          "name": "",
          "type": "uint256"
        }
      ],
      "stateMutability": "view",
      "type": "function"
    },
    {
      "inputs": [
        {
          "internalType": "uint256[]",
          "name": "_tokenIds",
          "type": "uint256[]"
        },
        {
          "components": [
            {
              "internalType": "contract IJBPaymentTerminal",
              "name": "terminal",
              "type": "address"
            },
            {
              "internalType": "address",
              "name": "holder",
              "type": "address"
            },
            {
              "internalType": "uint256",
              "name": "projectId",
              "type": "uint256"
            },
            {
              "internalType": "uint256",
              "name": "currentFundingCycleConfiguration",
              "type": "uint256"
            },
            {
              "internalType": "uint256",
              "name": "tokenCount",
              "type": "uint256"
            },
            {
              "internalType": "uint256",
              "name": "totalSupply",
              "type": "uint256"
            },
            {
              "internalType": "uint256",
              "name": "overflow",
              "type": "uint256"
            },
            {
              "components": [
                {
                  "internalType": "address",
                  "name": "token",
                  "type": "address"
                },
                {
                  "internalType": "uint256",
                  "name": "value",
                  "type": "uint256"
                },
                {
                  "internalType": "uint256",
                  "name": "decimals",
                  "type": "uint256"
                },
                {
                  "internalType": "uint256",
                  "name": "currency",
                  "type": "uint256"
                }
              ],
              "internalType": "struct JBTokenAmount",
              "name": "reclaimAmount",
              "type": "tuple"
            },
            {
              "internalType": "bool",
              "name": "useTotalOverflow",
              "type": "bool"
            },
            {
              "internalType": "uint256",
              "name": "redemptionRate",
              "type": "uint256"
            },
            {
              "internalType": "string",
              "name": "memo",
              "type": "string"
            },
            {
              "internalType": "bytes",
              "name": "metadata",
              "type": "bytes"
            }
          ],
          "internalType": "struct JBRedeemParamsData",
          "name": "",
          "type": "tuple"
        }
      ],
      "name": "redemptionWeightOf",
      "outputs": [
        {
          "internalType": "uint256",
          "name": "cumulativeWeight",
          "type": "uint256"
        }
      ],
      "stateMutability": "view",
      "type": "function"
    },
    {
      "inputs": [],
      "name": "renounceOwnership",
      "outputs": [],
      "stateMutability": "nonpayable",
      "type": "function"
    },
    {
      "inputs": [
        {
          "internalType": "uint256",
          "name": "_tokenId",
          "type": "uint256"
        },
        {
          "internalType": "uint256",
          "name": "_salePrice",
          "type": "uint256"
        }
      ],
      "name": "royaltyInfo",
      "outputs": [
        {
          "internalType": "address",
          "name": "",
          "type": "address"
        },
        {
          "internalType": "uint256",
          "name": "",
          "type": "uint256"
        }
      ],
      "stateMutability": "view",
      "type": "function"
    },
    {
      "inputs": [
        {
          "internalType": "address",
          "name": "from",
          "type": "address"
        },
        {
          "internalType": "address",
          "name": "to",
          "type": "address"
        },
        {
          "internalType": "uint256",
          "name": "tokenId",
          "type": "uint256"
        }
      ],
      "name": "safeTransferFrom",
      "outputs": [],
      "stateMutability": "nonpayable",
      "type": "function"
    },
    {
      "inputs": [
        {
          "internalType": "address",
          "name": "from",
          "type": "address"
        },
        {
          "internalType": "address",
          "name": "to",
          "type": "address"
        },
        {
          "internalType": "uint256",
          "name": "tokenId",
          "type": "uint256"
        },
        {
          "internalType": "bytes",
          "name": "data",
          "type": "bytes"
        }
      ],
      "name": "safeTransferFrom",
      "outputs": [],
      "stateMutability": "nonpayable",
      "type": "function"
    },
    {
      "inputs": [
        {
          "internalType": "address",
          "name": "operator",
          "type": "address"
        },
        {
          "internalType": "bool",
          "name": "approved",
          "type": "bool"
        }
      ],
      "name": "setApprovalForAll",
      "outputs": [],
      "stateMutability": "nonpayable",
      "type": "function"
    },
    {
      "inputs": [
        {
          "internalType": "string",
          "name": "_baseUri",
          "type": "string"
        }
      ],
      "name": "setBaseUri",
      "outputs": [],
      "stateMutability": "nonpayable",
      "type": "function"
    },
    {
      "inputs": [
        {
          "internalType": "string",
          "name": "_contractUri",
          "type": "string"
        }
      ],
      "name": "setContractUri",
      "outputs": [],
      "stateMutability": "nonpayable",
      "type": "function"
    },
    {
      "inputs": [
        {
          "internalType": "address",
          "name": "_beneficiary",
          "type": "address"
        }
      ],
      "name": "setDefaultReservedTokenBeneficiary",
      "outputs": [],
      "stateMutability": "nonpayable",
      "type": "function"
    },
    {
      "inputs": [
        {
          "internalType": "uint256",
          "name": "_tierId",
          "type": "uint256"
        },
        {
          "internalType": "bytes32",
          "name": "_encodedIPFSUri",
          "type": "bytes32"
        }
      ],
      "name": "setEncodedIPFSUriOf",
      "outputs": [],
      "stateMutability": "nonpayable",
      "type": "function"
    },
    {
      "inputs": [
        {
          "internalType": "address",
          "name": "_delegatee",
          "type": "address"
        },
        {
          "internalType": "uint256",
          "name": "_tierId",
          "type": "uint256"
        }
      ],
      "name": "setTierDelegate",
      "outputs": [],
      "stateMutability": "nonpayable",
      "type": "function"
    },
    {
      "inputs": [
        {
          "components": [
            {
              "internalType": "address",
              "name": "delegatee",
              "type": "address"
            },
            {
              "internalType": "uint256",
              "name": "tierId",
              "type": "uint256"
            }
          ],
          "internalType": "struct JBTiered721SetTierDelegatesData[]",
          "name": "_setTierDelegatesData",
          "type": "tuple[]"
        }
      ],
      "name": "setTierDelegates",
      "outputs": [],
      "stateMutability": "nonpayable",
      "type": "function"
    },
    {
      "inputs": [
        {
          "components": [
            {
              "internalType": "uint256",
              "name": "id",
              "type": "uint256"
            },
            {
              "internalType": "uint256",
              "name": "redemptionWeight",
              "type": "uint256"
            }
          ],
          "internalType": "struct DefifaTierRedemptionWeight[]",
          "name": "_tierWeights",
          "type": "tuple[]"
        }
      ],
      "name": "setTierRedemptionWeights",
      "outputs": [],
      "stateMutability": "nonpayable",
      "type": "function"
    },
    {
      "inputs": [
        {
          "internalType": "contract IJBTokenUriResolver",
          "name": "_tokenUriResolver",
          "type": "address"
        }
      ],
      "name": "setTokenUriResolver",
      "outputs": [],
      "stateMutability": "nonpayable",
      "type": "function"
    },
    {
      "inputs": [],
      "name": "store",
      "outputs": [
        {
          "internalType": "contract IJBTiered721DelegateStore",
          "name": "",
          "type": "address"
        }
      ],
      "stateMutability": "view",
      "type": "function"
    },
    {
      "inputs": [
        {
          "internalType": "bytes4",
          "name": "_interfaceId",
          "type": "bytes4"
        }
      ],
      "name": "supportsInterface",
      "outputs": [
        {
          "internalType": "bool",
          "name": "",
          "type": "bool"
        }
      ],
      "stateMutability": "view",
      "type": "function"
    },
    {
      "inputs": [],
      "name": "symbol",
      "outputs": [
        {
          "internalType": "string",
          "name": "",
          "type": "string"
        }
      ],
      "stateMutability": "view",
      "type": "function"
    },
    {
      "inputs": [],
      "name": "tierRedemptionWeights",
      "outputs": [
        {
          "internalType": "uint256[128]",
          "name": "",
          "type": "uint256[128]"
        }
      ],
      "stateMutability": "view",
      "type": "function"
    },
    {
      "inputs": [
        {
          "internalType": "uint256",
          "name": "_tokenId",
          "type": "uint256"
        }
      ],
      "name": "tokenURI",
      "outputs": [
        {
          "internalType": "string",
          "name": "",
          "type": "string"
        }
      ],
      "stateMutability": "view",
      "type": "function"
    },
    {
      "inputs": [
        {
          "components": [
            {
              "internalType": "contract IJBPaymentTerminal",
              "name": "terminal",
              "type": "address"
            },
            {
              "internalType": "address",
              "name": "holder",
              "type": "address"
            },
            {
              "internalType": "uint256",
              "name": "projectId",
              "type": "uint256"
            },
            {
              "internalType": "uint256",
              "name": "currentFundingCycleConfiguration",
              "type": "uint256"
            },
            {
              "internalType": "uint256",
              "name": "tokenCount",
              "type": "uint256"
            },
            {
              "internalType": "uint256",
              "name": "totalSupply",
              "type": "uint256"
            },
            {
              "internalType": "uint256",
              "name": "overflow",
              "type": "uint256"
            },
            {
              "components": [
                {
                  "internalType": "address",
                  "name": "token",
                  "type": "address"
                },
                {
                  "internalType": "uint256",
                  "name": "value",
                  "type": "uint256"
                },
                {
                  "internalType": "uint256",
                  "name": "decimals",
                  "type": "uint256"
                },
                {
                  "internalType": "uint256",
                  "name": "currency",
                  "type": "uint256"
                }
              ],
              "internalType": "struct JBTokenAmount",
              "name": "reclaimAmount",
              "type": "tuple"
            },
            {
              "internalType": "bool",
              "name": "useTotalOverflow",
              "type": "bool"
            },
            {
              "internalType": "uint256",
              "name": "redemptionRate",
              "type": "uint256"
            },
            {
              "internalType": "string",
              "name": "memo",
              "type": "string"
            },
            {
              "internalType": "bytes",
              "name": "metadata",
              "type": "bytes"
            }
          ],
          "internalType": "struct JBRedeemParamsData",
          "name": "",
          "type": "tuple"
        }
      ],
      "name": "totalRedemptionWeight",
      "outputs": [
        {
          "internalType": "uint256",
          "name": "",
          "type": "uint256"
        }
      ],
      "stateMutability": "view",
      "type": "function"
    },
    {
      "inputs": [
        {
          "internalType": "address",
          "name": "from",
          "type": "address"
        },
        {
          "internalType": "address",
          "name": "to",
          "type": "address"
        },
        {
          "internalType": "uint256",
          "name": "tokenId",
          "type": "uint256"
        }
      ],
      "name": "transferFrom",
      "outputs": [],
      "stateMutability": "nonpayable",
      "type": "function"
    },
    {
      "inputs": [
        {
          "internalType": "address",
          "name": "newOwner",
          "type": "address"
        }
      ],
      "name": "transferOwnership",
      "outputs": [],
      "stateMutability": "nonpayable",
      "type": "function"
    }
  ],
  "bytecode": {
    "object": "0x608080604052346100665760078054336001600160a01b03198083168217909355906001600160a01b03167f8be0079c531659141344cd1fd0a4f28419497f9722a3daafe3b4186f6b6457e0600080a3309060085416176008556159a590816200006c8239f35b600080fdfe608080604052600436101561001357600080fd5b600090813560e01c90816301ffc9a714612d605750806306fdde0314612c91578063081812fc14612c72578063095ea7b314612ba55780631d153ca414612b7c57806323b872dd14612b425780632407497e14612a9e578063245a45b514612a6557806325eb91ee146128275780632a55205a1461275d5780632a596e53146126d95780632b13c58f14611f815780632f44150014611d0f57806336c1a93b14611c685780633fafa12714611c4a57806342842e0e14611c225780634ecba62514611c045780634f228e1114611be5578063525350ba14611b3857806354c6d1f514611b19578063557e715514611af05780636352211e14611abf578063640abacd14611aa057806364640c1e14611a825780636ac6d94114611a3157806370a0823114611993578063715018a6146119355780637ba62bf9146118dd57806382732b6d146118975780638da5cb5b1461186e5780639494bf721461185057806394c5c5ca1461182757806395d89b411461175c578063975057e7146117335780639df45468146116ae578063a0bcfc7f146115fc578063a22cb4651461155d578063a51cfd18146114de578063aa4fb15b146114c6578063ab951e391461149f578063b88d4fde1461143f578063c41c2f2414611416578063c74b13d9146112fd578063c87b56dd146112c9578063ca323efe14611286578063ccb4807b146111d4578063d1704baf14610785578063d31cc52c14610760578063d3419bf314610737578063d40e7146146106e8578063d46cf171146105c0578063da9ee8b7146104b9578063df487e2614610406578063e8a3d48514610370578063e985e9c51461031c5763f2fde38b1461028957600080fd5b34610319576020366003190112610319576102a2612ebe565b6102aa61545b565b6001600160a01b038116156102c5576102c2906154b3565b80f35b60405162461bcd60e51b815260206004820152602660248201527f4f776e61626c653a206e6577206f776e657220697320746865207a65726f206160448201526564647265737360d01b6064820152608490fd5b80fd5b503461031957604036600319011261031957610336612ebe565b6040610340612ed4565b9260018060a01b0380931681526004602052209116600052602052602060ff604060002054166040519015158152f35b5034610319578060031936011261031957600954604051630155619b60e71b8152306004820152908290829060249082906001600160a01b03165afa9081156103fb57826103d493926103d8575b5050604051918291602083526020830190612e99565b0390f35b6103f492503d8091833e6103ec8183613078565b810190613b95565b38806103be565b6040513d84823e3d90fd5b503461031957602036600319011261031957610420612ebe565b61042861545b565b6009546001600160a01b0390811691839190833b156104b55782916024839260405194859384926317161f7d60e01b845216978860048401525af180156103fb5761049d575b50507fab0014d4c7a642a02a31b303a318908c22b0fb2001f107278fc6076b4c671b656020604051338152a280f35b6104a690612fab565b6104b157813861046e565b5080fd5b8280fd5b506003196020368201126104b157600435906001600160401b0382116104b5576102009082360301126104b15760055434159081159161052d575b811561051e575b5061050c576102c290600401614c47565b6040516331c57b1b60e21b8152600490fd5b905060248201351415386104fb565b600654604051636e49181f60e01b815260048101839052336024820152919250602090829060449082906001600160a01b03165afa9081156105b5578491610578575b5015906104f4565b90506020813d82116105ad575b8161059260209383613078565b810103126105a9576105a3906133e5565b38610570565b8380fd5b3d9150610585565b6040513d86823e3d90fd5b503461031957600319602036820181136104b557600435916001600160401b0383116105a9576101a09083360301126104b5579161060f6106086101648401846004016132a0565b36916131f2565b906040519361061d85612fd4565b600192838652825b8281106106be57506106749060405161063d81612fd4565b308152848482015261064e886132d2565b52610658876132d2565b5061012460405196013586526060838701526060860190612e99565b9084820360408601528080875193848152019601925b8281106106975785870386f35b835180516001600160a01b031688528201518288015260409096019592810192840161068a565b82906040979597516106cf81612fd4565b6000815260008382015282828801015201959395610625565b50346103195760603660031901126103195760209061072f906001600160a01b03610711612ebe565b16815260108352604081206024358252835260406044359120615553565b604051908152f35b5034610319578060031936011261031957600b546040516001600160a01b039091168152602090f35b50346103195761072f602091604061077736612f63565b929081526011855220615553565b503461031957600319906101c036830112610319576024356001600160a01b03811681036104b1576044356001600160401b0381116104b5576107cc903690600401613229565b926064356001600160401b0381116105a9576107ec903690600401613229565b91608435916001600160a01b0383168303610e2f5760a4356001600160401b038111610eac57610820903690600401613229565b60c435926001600160a01b03841684036110a65760e4356001600160401b0381116110af57610853903690600401613229565b926001600160401b0361010435116110af5760809061010435360301126111d0576040519461088186612fef565b61010435600401356001600160401b0381116110ab573660238261010435010112156110ab5760048161010435010135906108bb82613099565b916108c96040519384613078565b80835260208301913660246101c084028361010435010101116111cc57602481610104350101925b60246101c08402836101043501010184106110b35750505090875250610104356024810135602088015260448101356040880152606401356001600160a01b03811690036110af576101043560640135606087015261012435966001600160a01b03881688036110ab576080366101431901126110ab57604051996109758b612fef565b6101443580151581036110a6578b5261016435151561016435036110a6576101643560208c015261018435151561018435036110a6576101843560408c01526101a43515156101a435036110a6576101a43560608c01526008546001600160a01b031630146110a2576009546001600160a01b03166110a2578051906001600160401b03821161108e578190610a0b8c54614349565b601f8111611041575b50602090601f8311600114610fbb578c92610fb0575b50508160011b916000199060031b1c19161789555b8051906001600160401b038211610f9c578190610a5d600154614349565b601f8111610f43575b50602090601f8311600114610ebb578b92610eb0575b50508160011b916000199060031b1c1916176001555b600435600555600680546001600160a01b03199081166001600160a01b0394851617909155600a80548216928416929092179091556009805482168884161790556020860151600c556040860151600d556060860151600b805490921692169190911790558051610e33575b508051610db6575b506001600160a01b038116610d51575b5051928351610bf8575b829350805115801590610beb575b8015610bde575b8015610bd1575b610b4b575b826102c2336154b3565b6001600160a01b0382163b15610bcd576060608484928360405195869485936365c13f1960e11b855280511515600486015260208101511515602486015260408101511515604486015201511515606484015260018060a01b03165af180156103fb57610bb9575b80610b41565b610bc290612fab565b610319578038610bb3565b5050fd5b5060608101511515610b3c565b5060408101511515610b35565b5060208101511515610b2e565b60405163229dad5f60e11b815260248101602060048301528551809152602060448301960190855b818110610c7057505050838180829703818360018060a01b0388165af180156105b557610c4e575b50610b20565b610c69903d8086833e610c618183613078565b810190613e55565b5038610c48565b90919660206101c06001928a5169ffffffffffffffffffff815116825265ffffffffffff84820151168483015264ffffffffff604082015116604083015261ffff806060830151166060840152608082015116608083015260a0858060a01b0381830151169083015260ff60c081818401511690840152858060a01b0360e08301511660e08401526101008083015190840152610120908183015116908301526101408082015115159083015261016080820151151590830152610180808201511515908301526101a0809101511515908201520198019101919091610c20565b6001600160a01b0383163b156105a95760405163036129cb60e61b81526001600160a01b03918216600482015290849082906024908290849088165af180156105b557908491610da2575b50610b16565b610dab90612fab565b6104b5578238610d9c565b6001600160a01b0384163b15610e2f5784610ded916040518093819263d67b78fd60e01b8352602060048401526024830190612e99565b0381836001600160a01b0389165af18015610e2457908591610e10575b50610b06565b610e1990612fab565b6105a9578338610e0a565b6040513d87823e3d90fd5b8480fd5b6001600160a01b0385163b15610eac5785610e6a91604051809381926331315e5960e11b8352602060048401526024830190612e99565b0381836001600160a01b038a165af18015610ea157908691610e8d575b50610afe565b610e9690612fab565b610e2f578438610e87565b6040513d88823e3d90fd5b8580fd5b015190503880610a7c565b925060018b527fb10e2d527612073b26eecdfd717e6a320cf44b4afac2b0732d9fcbe2b7fa0cf6908b935b601f1984168510610f28576001945083601f19811610610f0f575b505050811b01600155610a92565b015160001960f88460031b161c19169055388080610f01565b81810151835560209485019460019093019290910190610ee6565b610f8c9060018d527fb10e2d527612073b26eecdfd717e6a320cf44b4afac2b0732d9fcbe2b7fa0cf6601f850160051c81019160208610610f92575b601f0160051c01906138d8565b38610a66565b9091508190610f7f565b634e487b7160e01b8a52604160045260248afd5b015190503880610a2a565b92508b80527f290decd9548b62a8d60345a988386fc84ba6bc95484008f6362f93160ef3e563908c935b601f1984168510611026576001945083601f1981161061100d575b505050811b018955610a3f565b015160001960f88460031b161c19169055388080611000565b81810151835560209485019460019093019290910190610fe5565b611088908d80527f290decd9548b62a8d60345a988386fc84ba6bc95484008f6362f93160ef3e563601f850160051c81019160208610610f9257601f0160051c01906138d8565b38610a14565b634e487b7160e01b8b52604160045260248bfd5b8980fd5b600080fd5b8880fd5b8780fd5b6101c0843603126111c857906101c08060206024946040516110d48161300a565b6110dd89613247565b81526110ea838a0161325e565b838201526110fa60408a01613271565b6040820152606061110c818b01613283565b9082015261111c60808a01613283565b608082015260a061112e818b01612eea565b9082015260c061113f818b01613292565b9082015261114f60e08a01612eea565b60e0820152610100808a01359082015261012061116d818b01613292565b9082015261014061117f818b016131ca565b90820152610160611191818b016131ca565b908201526101806111a3818b016131ca565b908201526101a06111b5818b016131ca565b90820152815201950194919250506108f1565b8c80fd5b8b80fd5b8680fd5b5034610319576111e336613181565b906111ec61545b565b60095483906001600160a01b0316803b156104b15781604051809263d67b78fd60e01b82528183816112228a8a60048401613fac565b03925af180156103fb57611272575b50508160405192839283378101600081520390207fd36dc0c1a06103fdcaf15f3f6fb797d1a97997514c78de073640c8b5005454b86020604051338152a280f35b61127b90612fab565b6104b5578238611231565b50346103195760403660031901126103195760209061072f906040906001600160a01b036112b2612ebe565b168152601084528181206024358252845220615514565b5034610319576020366003190112610319576103d46112e9600435613bf3565b604051918291602083526020830190612e99565b5034610319576020806003193601126104b1576004356001600160401b0381116104b557366023820112156104b55780600401359061133b82613099565b916113496040519384613078565b80835260248484019160061b83010191368311610eac57602401905b8282106113df5750505080519060008360405161138181612fd4565b8281520152835b828110611393578480f35b61139d81836132f5565b5180519091906001600160a01b03908116156113cd578251928601516001936113c7921633613903565b01611388565b6040516314f4c13d60e21b8152600490fd5b604082360312610eac578460409182516113f881612fd4565b61140185612eea565b81528285013583820152815201910190611365565b50346103195780600319360112610319576006546040516001600160a01b039091168152602090f35b503461031957608036600319011261031957611459612ebe565b611461612ed4565b606435916001600160401b0383116105a957366023840112156105a9576114956102c29336906024816004013591016131f2565b91604435916143bb565b5034610319576040366003190112610319576102c26114bc612ebe565b6024359033613903565b5034610319576102c26114d836612f63565b90613fd4565b5034610319576114f56114f036612f79565b6134d9565b906040519283526115126020916060838601526060850190612e99565b9083820360408501528080845193848152019301945b8281106115355784840385f35b855180516001600160a01b031685528201518483015294810194604090930192600101611528565b503461031957604036600319011261031957611577612ebe565b602435908115158092036110a6576001600160a01b0316903382146115ea5733835260046020526040832082600052602052604060002060ff1981541660ff83161790556040519081527f17307eab39ab6107e8899845ad3d59bd9653f200f220920489ca2b5937696c3160203392a380f35b6040516306f8139d60e11b8152600490fd5b50346103195761160b36613181565b9061161461545b565b60095483906001600160a01b0316803b156104b1578160405180926331315e5960e11b825281838161164a8a8a60048401613fac565b03925af180156103fb5761169a575b50508160405192839283378101600081520390207f7bc9110d5de090dd59e07912d2b93a5a27ac70a60c8d8e324db4f9ee8b8b5c136020604051338152a280f35b6116a390612fab565b6104b5578238611659565b5034610319578060031936011261031957604051906116cc82613041565b611000809236903760405190601281835b6080821061171d57505050906116f281613041565b6040519190825b6080831061170657505050f35b6001908251815260208091019201920191906116f9565b60016020819285548152019301910190916116dd565b50346103195780600319360112610319576009546040516001600160a01b039091168152602090f35b50346103195780600319360112610319576040516000600180549061178082614349565b8085529181811690811561180057506001146117a7575b6103d4846112e981860382613078565b600081815292507fb10e2d527612073b26eecdfd717e6a320cf44b4afac2b0732d9fcbe2b7fa0cf65b8284106117e85750505081016020016112e982611797565b805460208587018101919091529093019281016117d0565b60ff191660208087019190915292151560051b850190920192506112e99150839050611797565b50346103195760203660031901126103195761072f604060209260043581526011845220615514565b50346103195761185f36612f79565b506020604051633b9aca008152f35b50346103195780600319360112610319576007546040516001600160a01b039091168152602090f35b5034610319576040366003190112610319576020906001600160a01b0390604090826118c1612ebe565b168152600f845281812060243582528452205416604051908152f35b50346103195760031990604036830112610319576001600160401b03916004358381116104b557611912903690600401613123565b926024359081116104b557906101e0913603011261031957602061072f83613757565b503461031957806003193601126103195761194e61545b565b600780546001600160a01b031981169091556000906001600160a01b03167f8be0079c531659141344cd1fd0a4f28419497f9722a3daafe3b4186f6b6457e08280a380f35b50346103195760209081600319360112610319576119af612ebe565b600954604051633de222bb60e21b81523060048201526001600160a01b03928316602482015291849183916044918391165afa918215611a2557916119f8575b50604051908152f35b90508181813d8311611a1e575b611a0f8183613078565b810103126110a65751386119ef565b503d611a05565b604051903d90823e3d90fd5b503461031957604036600319011261031957600435906001600160401b038211610319576103d4611a76611a683660048601612f33565b611a70612ed4565b916141a5565b604051918291826130e8565b50346103195780600319360112610319576020600c54604051908152f35b50346103195780600319360112610319576020604051633b9aca008152f35b5034610319576020366003190112610319576020611ade600435614316565b6040516001600160a01b039091168152f35b5034610319578060031936011261031957600a546040516001600160a01b039091168152602090f35b5034610319576020366003190112610319576020611ade600435613af7565b503461031957604036600319011261031957600435602435611b5861545b565b60095483906001600160a01b0316803b156104b1578180916044604051809481936324de8d6360e11b83528960048401528860248401525af180156103fb57611bd1575b505060407f677da4fed654db8e604791fa2582f342e2001aa217e27f6985eb3e0f67e5a7fc918151908152336020820152a280f35b611bda90612fab565b6104b5578238611b9c565b503461031957602036600319011261031957602061072f6004356137c5565b50346103195780600319360112610319576020600d54604051908152f35b5034610319576102c2611c3436612efe565b9060405192611c4284613026565b8584526143bb565b50346103195780600319360112610319576020600554604051908152f35b5034610319576020806003193601126104b1576001600160401b036004358181116105a957611c9b903690600401612f33565b919092611ca661545b565b845b838110611cb3578580f35b60059080821b860135603e19873603018112156110af5786018035601e19823603018112156110ab578101928335938685116110a25785859101911b360381136110ab57600193611a7086611d0894016138ef565b5001611ca8565b5034610319576020908160031936011261031957600435916001600160401b0383116104b157366023840112156104b157826004013590611d4f82613099565b93611d5d6040519586613078565b8285528185016024809460061b83010191368311610eac578401905b83838310611f695750505050611d8d61545b565b60018060a01b039384600a54166005546040519182916321d1336160e11b8352600483015281866101209485935afa918215610ea15790600492918792611f3c575b50505110611f2a5760125b60928110611f1e575081839495600954166040519485809263f1bea54f60e01b82523060048301525afa928315610e24578593611eef575b50919290849280519286955b848710611e465787633b9aca008711611e345780f35b604051636ff44e9760e01b8152600490fd5b909192939481611e5688866132f5565b515111611edd5784611e6888866132f5565b510151611e7588866132f5565b51516000198101818111611eca5760801115611eb75760110155600190611eaa9086611ea18a886132f5565b510151906134b6565b9601959493929190611e1e565b634e487b7160e01b8a526032600452848afd5b634e487b7160e01b8b526011600452858bfd5b60405163148e14dd60e21b8152600490fd5b9092508181813d8311611f17575b611f078183613078565b810103126110a657519138611e12565b503d611efd565b60008155600101611dda565b6040516303e08a3560e61b8152600490fd5b611f5b9250803d10611f62575b611f538183613078565b810190613341565b3880611dcf565b503d611f49565b604091611f7636856130b0565b815201910190611d79565b50611f8b36612f79565b3415801590612653575b8015612643575b6126315760a08101351561261f576101c081016024611fbb82846132a0565b90501080156125f0575b6125de57611fd6611fde91836132a0565b810190613309565b8051600a546005546040516321d1336160e11b8152600481019190915291945086935061012090829060249082906001600160a01b03165afa80156125d35760049184916125b2575b5051869594911492505b8086106120b757506009548491906001600160a01b0316803b156104b5576040516386bc2be360e01b8152918391839182908490829061207490600483016130e8565b03925af180156103fb576120a3575b505061208d575080f35b60a061209d9101356092546134b6565b60925580f35b6120ac90612fab565b6104b5578284612083565b6120c186836132f5565b51808652600260205260408620549096906001600160a01b03908116906120e7876138ef565b16036125a0576120f687614316565b966001600160a01b0388166123f4575b61210f81614ad9565b80875260026020526040872080546001600160a01b031916905580876001600160a01b038a167fddf252ad1be2c89b69c2b068fc378daa952ba7f163c4a11628f55a4df523b3ef8280a460095460405163b67cb04760e01b815230600482015260248101839052600099918a906001600160a01b03166101c083604481845afa9283156103fb5782936123c1575b50825190803b156104b5576064839260405194859384926330b157e560e21b8452600484015260018060a01b03891660248401528160448401525af180156123b6579188999a9b92918c9994926123a3575b5060a081019081516122a2575b50505050612214575b50600101955093929193612031565b6009546040516342f9914b60e01b81526004810192909252602090829060249082906001600160a01b03165afa908115610e2457859161226a575b50845260936020526040842080546001908101909155612205565b919450506020813d60201161229a575b8161228760209383613078565b810103126110a65751869390600161224f565b3d915061227a565b83806123359552600f9182602052604082208151835260205260018060a01b036040832054161561235a575b519251936001600160a01b0381161561233e575b83825260116020526122f78560408420615621565b50506001600160a01b0390811682526020838152604080842086855282528084205484805294825280842086855290915290912054811691166139f5565b388080806121fc565b838252601160205261235385604084206157a3565b50506122e2565b8180526020838152604080842083518552909152822080546001600160a01b0319166001600160a01b0384161790558180806000805160206159508339815191528180a46122ce565b6123af90939193612fab565b91386121ef565b6040513d8d823e3d90fd5b6123e69193506101c03d6101c0116123ed575b6123de8183613078565b8101906133f2565b913861219d565b503d6123d4565b60095460405163b67cb04760e01b8152306004820152602481018390526001600160a01b03909116906101c081604481855afa80156124dc576101a09160009161257f575b500151612522575b6040516308ed6c0160e41b815230600482015260248101839052602081604481855afa9081156124dc576000916124e8575b506001600160a01b031615612489575b50612106565b803b156110a657604051638cec7d3960e01b8152600481018390526001600160a01b038a166024820152906000908290604490829084905af180156124dc5715612483576124d690612fab565b38612483565b6040513d6000823e3d90fd5b906020823d60201161251a575b8161250260209383613078565b810103126103195750612514906133d1565b38612473565b3d91506124f5565b60018060a01b03600a54166101206005546024604051809481936321d1336160e11b835260048301525afa80156124dc5761255e575b50612441565b612578906101203d61012011611f6257611f538183613078565b5038612558565b61259a91506101c03d6101c0116123ed576123de8183613078565b38612439565b60405163075fd2b160e01b8152600490fd5b6125cd91506101203d61012011611f6257611f538183613078565b38612027565b6040513d85823e3d90fd5b604051632a84050f60e01b8152600490fd5b506125fb81836132a0565b6024116105a957602001356001600160e01b03191663b3bcbb7960e01b1415611fc5565b604051637691472960e01b8152600490fd5b604051633efca5c360e11b8152600490fd5b5060055460208201351415611f9c565b50600654600554604051636e49181f60e01b8152600481019190915233602482015290602090829060449082906001600160a01b03165afa9081156125d35783916126a0575b5015611f95565b90506020813d82116126d1575b816126ba60209383613078565b810103126104b5576126cb906133e5565b38612699565b3d91506126ad565b5034610319576020806003193601126104b1576001600160401b03906004358281116105a957366023820112156105a95780600401359283116105a9576024600691368286851b83010111610eac57855b858110612735578680f35b60019061275761274b368684891b8701016130b0565b87815191015190613fd4565b0161272a565b50346103195760409061276f36612f63565b60095484516329c5eaf560e11b815230600482015260248101939093526044830191909152909290839060649082906001600160a01b03165afa91821561281a578180936127d6575b5050604080516001600160a01b039290921682526020820192909252f35b915091506040823d604011612812575b816127f360409383613078565b8101031261031957506020612807826133d1565b9101519038806127b8565b3d91506127e6565b50604051903d90823e3d90fd5b5034610319576040366003190112610319576001600160401b036004358181116104b557366023820112156104b5578060040135918083116105a9576024906101c090368383870286010111610eac578235908111610eac5761288e903690600401612f33565b61289661545b565b8061299b575b5050836128a7578480f35b60095460405163229dad5f60e11b81526020600482015283810186905290869082906001600160a01b031660448201878701845b878b8210612977575050508383809203925af1908115610ea157869161295d575b50855b85811061290c5750508480f35b80612919600192846132f5565b517f8aa4a03deb8db10032373886aa0376c918ccf36bcdb59ca4da2a807ac7ff1a046101e0604051612951818a8a88028d0101613e8a565b3388820152a2016128ff565b61297191503d8088833e610c618183613078565b386128fc565b919450929450808261298b60019487613e8a565b01930191019189939185936128db565b6009546001600160a01b031690813b156110af576040516320512ba160e01b8152602060048201819052868201839052928991906001600160fb1b0384116104b55781839181836044828960051b808d8484013781010301925af180156103fb57612a51575b5050875b818110612a1357505061289c565b80612a216001928487613e7a565b357f832d89d991be5351d793c20faf4b7dd44f8aa9ce39e3cb160c6317de6fbba72985604051338152a201612a05565b612a5a90612fab565b6110af578738612a01565b5034610319576020366003190112610319576020906040906001600160a01b03612a8d612ebe565b168152600e83522054604051908152f35b503461031957602036600319011261031957612ab8612ebe565b90612ac161545b565b6009546001600160a01b0390811692833b156104b557829160248392604051948593849263036129cb60e61b845216978860048401525af180156103fb57612b33575b50907fe7784d93cfbfa4408e19577e6cc0436f4dbb51214b70e100905dfce9def88c166020604051338152a280f35b612b3c90612fab565b38612b04565b503461031957612b5136612efe565b90612b5c82336143fa565b15612b6a576102c29261469d565b60405163e5fa0e3560e01b8152600490fd5b50346103195780600319360112610319576008546040516001600160a01b039091168152602090f35b503461031957604036600319011261031957612bbf612ebe565b602435906001600160a01b038080612bd685614316565b16921691808314612c6057803314159081612c3e575b50612b6a5782845260036020526040842080546001600160a01b03191683179055612c1683614316565b167f8c5be1e5ebec7d5bd14f71427d1e84f3dd0314c0f7b2291e5b200ac8c7c3b9258480a480f35b9050845260046020526040842033855260205260ff6040852054161538612bec565b60405163133f8be960e01b8152600490fd5b5034610319576020366003190112610319576020611ade600435614383565b503461031957806003193601126103195760405190808054612cb281614349565b80855291600191808316908115612d365750600114612cdc575b6103d4856112e981870382613078565b80809450527f290decd9548b62a8d60345a988386fc84ba6bc95484008f6362f93160ef3e5635b828410612d1e5750505081016020016112e9826103d4612ccc565b80546020858701810191909152909301928101612d03565b8695506103d4969350602092506112e994915060ff191682840152151560051b8201019293612ccc565b9050346104b15760203660031901126104b15760043563ffffffff60e01b81168091036104b557602092506306decc2d60e21b8114908115612da4575b5015158152f35b63b3bcbb7960e01b811491508115612e50575b8115612e3f575b8115612e2e575b8115612e1d575b8115612dda575b5038612d9d565b6380ac58cd60e01b811491508115612e0c575b8115612dfb575b5038612dd3565b6301ffc9a760e01b14905038612df4565b635b5e139f60e01b81149150612ded565b63152a902d60e11b81149150612dcc565b632b13c58f60e01b81149150612dc5565b63da9ee8b760e01b81149150612dbe565b6371700c6960e01b81149150612db7565b35906001600160e01b0319821682036110a657565b60005b838110612e895750506000910152565b8181015183820152602001612e79565b90602091612eb281518092818552858086019101612e76565b601f01601f1916010190565b600435906001600160a01b03821682036110a657565b602435906001600160a01b03821682036110a657565b35906001600160a01b03821682036110a657565b60609060031901126110a6576001600160a01b039060043582811681036110a6579160243590811681036110a6579060443590565b9181601f840112156110a6578235916001600160401b0383116110a6576020808501948460051b0101116110a657565b60409060031901126110a6576004359060243590565b600319906020818301126110a657600435916001600160401b0383116110a657826101e0920301126110a65760040190565b6001600160401b038111612fbe57604052565b634e487b7160e01b600052604160045260246000fd5b604081019081106001600160401b03821117612fbe57604052565b608081019081106001600160401b03821117612fbe57604052565b6101c081019081106001600160401b03821117612fbe57604052565b602081019081106001600160401b03821117612fbe57604052565b61100081019081106001600160401b03821117612fbe57604052565b606081019081106001600160401b03821117612fbe57604052565b90601f801991011681019081106001600160401b03821117612fbe57604052565b6001600160401b038111612fbe5760051b60200190565b91908260409103126110a657604051604081018181106001600160401b03821117612fbe576040526020808294803584520135910152565b6020908160408183019282815285518094520193019160005b82811061310f575050505090565b835185529381019392810192600101613101565b81601f820112156110a65780359161313a83613099565b926131486040519485613078565b808452602092838086019260051b8201019283116110a6578301905b828210613172575050505090565b81358152908301908301613164565b9060206003198301126110a6576004356001600160401b03928382116110a657806023830112156110a65781600401359384116110a657602484830101116110a6576024019190565b359081151582036110a657565b6001600160401b038111612fbe57601f01601f191660200190565b9291926131fe826131d7565b9161320c6040519384613078565b8294818452818301116110a6578281602093846000960137010152565b9080601f830112156110a657816020613244933591016131f2565b90565b359069ffffffffffffffffffff821682036110a657565b359065ffffffffffff821682036110a657565b359064ffffffffff821682036110a657565b359061ffff821682036110a657565b359060ff821682036110a657565b903590601e19813603018212156110a657018035906001600160401b0382116110a6576020019181360383136110a657565b8051156132df5760200190565b634e487b7160e01b600052603260045260246000fd5b80518210156132df5760209160051b010190565b916060838303126110a65782359261332360208201612e61565b9260408201356001600160401b0381116110a6576132449201613123565b809161012092839103126110a6576040519182018281106001600160401b03821117612fbe57604052805182526020810151602083015260408101516040830152606081015160608301526080810151608083015260a081015160a083015260c081015160c083015260e081015160018060a01b03811681036110a65760e0830152610100809101519082015290565b51906001600160a01b03821682036110a657565b519081151582036110a657565b90816101c09103126110a6576040519061340b8261300a565b805182526020810151602083015260408101516040830152606081015160608301526080810151608083015260a081015160a083015260c081015160c083015261345760e082016133d1565b60e083015261010080820151908301526101206134758183016133d1565b908301526101408082015190830152610160808201519083015261018061349d8183016133e5565b908301526134af6101a08092016133e5565b9082015290565b919082018092116134c357565b634e487b7160e01b600052601160045260246000fd5b6000906000906080810135613745576101c08082019160246134fb84836132a0565b9050108015613716575b6125de5760409586519261351884612fd4565b600196878552865b60208082101561354c578a516020929161353982612fd4565b8a82528a81830152828901015201613520565b50509392979691959094839761358f611fd682519361356a85612fd4565b308552602094868682015261357e896132d2565b52613588886132d2565b508c6132a0565b9891505060018060a01b03938b85600a5416845180916321d1336160e11b8252866004940135848301528160246101209485935afa91821561370c579089929185926136ef575b505051146136205750505050505050505061060861361061361c9261360a61360460925460c08a01356134b6565b91613757565b90615820565b946101a08101906132a0565b9190565b9091929394979b988096979b505195829860095416905b878a1061365a5750505050505050505050610608816101a061361c9301906132a0565b9091929394959697989c61369c868f61367390856132f5565b51895163b67cb04760e01b81523088820190815260208101929092529283918291604090910190565b0381875afa9081156136e5578b92918a9188916136c8575b500151019d01989796959493929190613637565b6136df9150893d8b116123ed576123de8183613078565b386136b4565b88513d88823e3d90fd5b6137059250803d10611f6257611f538183613078565b38806135d6565b86513d86823e3d90fd5b5061372183826132a0565b602411610e2f57602001356001600160e01b03191663b3bcbb7960e01b1415613505565b6040516309f82f1b60e31b8152600490fd5b9060009180516000915b81831061376d57505050565b90919361378f60019161378961378388866132f5565b516137c5565b906134b6565b94019190613761565b919082039182116134c357565b81156137af570490565b634e487b7160e01b600052601260045260246000fd5b6009546040516342f9914b60e01b815260048101929092526001600160a01b0316602082602481845afa9182156124dc576000926138a5575b50604051633a39e4d160e11b8152306004820152602481018390526101c0918290829060449082905afa9182156124dc57600092613888575b505060001982018281116134c357608011156132df576138828261386d6011613244950154936060608082015191015190613798565b906000526093602052604060002054906134b6565b906137a5565b61389e9250803d106123ed576123de8183613078565b3880613837565b90916020823d82116138d0575b816138bf60209383613078565b8101031261031957505190386137fe565b3d91506138b2565b8181106138e3575050565b600081556001016138d8565b356001600160a01b03811681036110a65790565b929160018060a01b0380941691600094838652602093600f855260409485882085895281528060008051602061595083398151915260648a85878b8320541697818352600f86528b83208b845286528b8320818b1690816001600160601b0360a01b825416179055898d51998a97868997a460095416906305c9a1d560e31b835230600484015260248301528960448301525afa9586156139ec575087956139b5575b50506139b39495506139f5565b565b9080929550813d83116139e5575b6139cd8183613078565b81010312610eac576139b394955051928594386139a6565b503d6139c3565b513d89823e3d90fd5b91926001600160a01b03918216929091168083148015613aef575b613ae957808491613a86575b505081613a2857505050565b613a6c7fed0c1e94c302bdbbd8bbd6a4fb7c3ed335c2292407cd816eadd075d019d0ce049183600052601060205260406000208560005260205260406000206157a3565b6040805192835260208301919091523390820152606090a3565b8060005260106020526040600020826000526020527fed0c1e94c302bdbbd8bbd6a4fb7c3ed335c2292407cd816eadd075d019d0ce04613aca846040600020615621565b6040805192835260208301919091523390820152606090a38238613a1c565b50505050565b508115613a10565b6009546040516308ed6c0160e41b8152306004820152602481018390526001600160a01b0392916020908290604490829087165afa9081156124dc57600091613b5c575b50828116613b56575060005260026020526040600020541690565b91505090565b906020823d8211613b8d575b81613b7560209383613078565b810103126103195750613b87906133d1565b38613b3b565b3d9150613b68565b6020818303126110a6578051906001600160401b0382116110a6570181601f820112156110a6578051613bc7816131d7565b92613bd56040519485613078565b818452602082840101116110a6576132449160208085019101612e76565b60095460408051630fab094760e01b815230600482015290926020926001600160a01b03908116928481602481875afa908115613dec57600091613db6575b501680613d675750835163f682eeaf60e01b815230600482015290600082602481865afa918215613d5c57908491600093613d3f575b508551630c8df17160e41b81523060048201526024810191909152919282908180604481015b03915afa908115613d3457600091613d05575b5090613cce6132449392855190609160f51b85830152602282015260228152613cc98161305d565b6151fe565b93519381613ce58693518092868087019101612e76565b8201613cf982518093868085019101612e76565b01038084520182613078565b908382813d8311613d2d575b613d1b8183613078565b81010312610319575051613cce613ca1565b503d613d11565b84513d6000823e3d90fd5b613d5690613c8e943d8091833e6103ec8183613078565b92613c68565b85513d6000823e3d90fd5b9250600091506024845180948193636d02a25560e11b835260048301525afa918215613dac5750600091613d99575090565b613244913d8091833e6103ec8183613078565b513d6000823e3d90fd5b8581813d8311613de5575b613dcb8183613078565b810103126104b15751908282168203610319575038613c32565b503d613dc1565b86513d6000823e3d90fd5b81601f820112156110a657805191613e0e83613099565b92613e1c6040519485613078565b808452602092838086019260051b8201019283116110a6578301905b828210613e46575050505090565b81518152908301908301613e38565b906020828203126110a65781516001600160401b0381116110a6576132449201613df7565b91908110156132df5760051b0190565b69ffffffffffffffffffff613e9e82613247565b16825265ffffffffffff613eb46020830161325e565b16602083015264ffffffffff613ecc60408301613271565b16604083015261ffff80613ee260608401613283565b166060840152613ef460808301613283565b1660808301526001600160a01b0380613f0f60a08401612eea565b1660a084015260ff613f2360c08401613292565b1660c0840152613f3560e08301612eea565b1660e0830152610100808201359083015261012060ff613f56828401613292565b1690830152610140613f698183016131ca565b151590830152610160613f7d8183016131ca565b151590830152610180613f918183016131ca565b151590830152613fa56101a08092016131ca565b1515910152565b90918060409360208452816020850152848401376000828201840152601f01601f1916010190565b600a54600554604080516321d1336160e11b815260048101929092526101209594939290916001600160a01b039187908290602490829086165afa90811561419a57610100969760009261417d575b5050600180968192015160f51c161461416c5790816000809493600954166044845180978193635d53f40760e11b83528860048401528a60248401525af193841561416157600094614146575b5060095482516304db994760e21b815230600482015260248101859052946020929183908790604490829086165afa958615613d345760009661410f575b5060005b8781106140c457505050505050505050565b806140d08a92846132f5565b516140db818a614468565b878751913383527f031e1988c95a91ec4d655ff63a8f87a80bc9daf28d95ae10ee08c0022cfb5c8b88888d1694a4016140b2565b90958382813d831161413f575b6141268183613078565b810103126103195750614138906133d1565b94386140ae565b503d61411c565b61415a91943d8091833e610c618183613078565b9238614070565b82513d6000823e3d90fd5b8151631d2c125760e31b8152600490fd5b6141939250803d10611f6257611f538183613078565b3880614023565b83513d6000823e3d90fd5b906141ae61545b565b6009546040805163eaa19ab360e01b81526000196004820152606060248201526064810184905294608486019490926001600160a01b0390879082168360005b8881106142be5750509060009181838160019b8c604483015203925af196871561419a5760009761429a575b5060005b85811061422f575050505050505090565b61423981896132f5565b51906142458287614468565b614250818886613e7a565b359161ffff83168093036110a6578892865191600083523360208401527f598baf7bf150ca2f42be9e9f8f55e81d45f5715c3ff22bf46d697fabec7f31d688878b1694a40161421e565b6142b691973d8091833e6142ae8183613078565b8101906142e6565b50953861421a565b9192509760019061ffff6142d18b613283565b168152602080910199019101908992916141ee565b91906040838203126110a65782516001600160401b0381116110a657602091614310918501613df7565b92015190565b6000908152600260205260409020546001600160a01b031680156143375790565b60405163b49aa3b560e01b8152600490fd5b90600182811c92168015614379575b602083101461436357565b634e487b7160e01b600052602260045260246000fd5b91607f1691614358565b6000818152600260205260409020546001600160a01b031615614337576000908152600360205260409020546001600160a01b031690565b9291906143c882336143fa565b15612b6a57836143dc83836143e19761469d565b614b2d565b156143e857565b6040516336f57c1b60e11b8152600490fd5b906001600160a01b03808061440e84614316565b16931691838314938415614441575b50831561442b575b50505090565b61443791929350614383565b1614388080614425565b909350600052600460205260406000208260005260205260ff60406000205416923861441d565b6001600160a01b0391908216801561468b576000828152600260205260409020546001600160a01b03166146795761451f9060009383855260209360028552604090818720966001600160601b0360a01b9785898254161790558185827fddf252ad1be2c89b69c2b068fc378daa952ba7f163c4a11628f55a4df523b3ef8180a4600954835163b67cb04760e01b815230600482015260248101939093526101c09691928392918616918890829081906044820190565b0381855afa97881561466f578398614650575b50508651813b156104b557829160648392875194859384926330b157e560e21b845260048401528160248401528b60448401525af1801561464657614634575b505060a0850194855161458a575b5050505050505050565b6145f197858352600f8852838320825184528852848484205416156145fe575b5051945195858252601181526145c2878484206157a3565b5050818052600f81528282208683528152838383205416948252600f81528282209086835252205416906139f5565b3880808080808080614580565b858352600f885283832082518452885285848420918254161790558482816000805160206159508339815191528280a4386145aa565b61463f919250612fab565b3880614572565b84513d84823e3d90fd5b614667929850803d106123ed576123de8183613078565b953880614532565b85513d85823e3d90fd5b604051632eb5f0c360e21b8152600490fd5b604051633904578f60e11b8152600490fd5b9291906146a982614316565b6001600160a01b038581169290918216839003614ac7578116908115614ab55782159283156148d1575b849596506146e46147689495614ad9565b600095808752602060028152604092838920986001600160601b0360a01b99878b8254161790558387837fddf252ad1be2c89b69c2b068fc378daa952ba7f163c4a11628f55a4df523b3ef8480a4600954855163b67cb04760e01b815230600482015260248101959095526101c09891948592918816918a90829081906044820190565b0381855afa998a156148c757839a6148a8575b50508851813b156104b557829160648392895194859384926330b157e560e21b845260048401528860248401528d60448401525af1801561489e5761488a575b505060a087019687516147d5575b50505050505050505050565b61482b99878552600f845285852082518652845286868620541615614854575b505196519761483a575b8252600f81528282208683528152838383205416948252600f81528282209086835252205416906139f5565b388080808080808080806147c9565b8683526011825261484d888585206157a3565b50506147ff565b878552600f845285852082518652845287868620918254161790558684816000805160206159508339815191528280a4386147f5565b61489691929450612fab565b9138806147bb565b86513d84823e3d90fd5b6148bf929a50803d106123ed576123de8183613078565b97388061477b565b87513d85823e3d90fd5b6009546040805163b67cb04760e01b8152306004820152602481018890529098918416906101c0908181604481865afa908115614a8d576101a092600092614a98575b50500151614a13575b88516308ed6c0160e41b815230600482015260248101889052602081604481855afa8015614a085785916000916149cd575b50161561495e575b50506146d3565b803b156110a6578851638cec7d3960e01b8152600481018890526001600160a01b039290921660248301526000908290604490829084905af180156149c25761476895969798506149b3575b87969594614957565b6149bc90612fab565b386149aa565b88513d6000823e3d90fd5b91506020823d8211614a00575b816149e760209383613078565b8101031261031957506149fa85916133d1565b3861494f565b3d91506149da565b8a513d6000823e3d90fd5b83600a54166005548a519182916321d1336160e11b835260048301528160246101209485935afa918215614a8d57600192839261010092600092614a70575b5050015160f41c160361491d5788516318cdaf9760e01b8152600490fd5b614a869250803d10611f6257611f538183613078565b3880614a52565b8b513d6000823e3d90fd5b614aae9250803d106123ed576123de8183613078565b3880614914565b604051632c95542760e01b8152600490fd5b60405163a195bc5360e01b8152600490fd5b600081815260036020526040812080546001600160a01b03191690556001600160a01b03614b0683614316565b167f8c5be1e5ebec7d5bd14f71427d1e84f3dd0314c0f7b2291e5b200ac8c7c3b9258280a4565b9293600093909291803b15614c3c57948491614b879660405180948193630a85bd0160e11b9788845233600485015260018060a01b0380921660248501526044840152608060648401528260209b8c976084830190612e99565b0393165af1849181614bfc575b50614beb575050503d600014614be3573d614bae816131d7565b90614bbc6040519283613078565b81528091833d92013e5b80519182614be0576040516336f57c1b60e11b8152600490fd5b01fd5b506060614bc6565b6001600160e01b0319161492509050565b9091508581813d8311614c35575b614c148183613078565b81010312610e2f57516001600160e01b031981168103610e2f579038614b94565b503d614c0a565b505050915050600190565b600060c082013590600c548083146000146150f75750505060808101355b61018082016001600160a01b0380614c7c836138ef565b16600052602091600e83526040938460002054958682600093614c9e846138ef565b8780614ca9896138ef565b169116146000146150ee5750015b6000916101e08101906044614ccc83836132a0565b905011806150c1575b614e1b575b50909190508115614da45715614d93570194600e939291614d3b9180881115614d465787614d07836138ef565b7f2fb2733fb01b76e3290fa8b695d18e026ddd19c0a265ab90e95152e57da3033687878b51933385521694840392a46138ef565b166000525260002055565b878111614d54575b506138ef565b87614d5e836138ef565b7fe0e7c81cf67a96dd0e39bcf11521b1f4c0098cc1dbe8c30750a11d9ebfc3ed4d8783888c519433865216950392a438614d4e565b8551631b57826960e21b8152600490fd5b50509485819493929403614dbb575b505050505050565b600e93614dcb87614e0793613798565b87614dd5836138ef565b917fe0e7c81cf67a96dd0e39bcf11521b1f4c0098cc1dbe8c30750a11d9ebfc3ed4d87878b51953387521694a46138ef565b166000525260002055388080808080614db3565b90614e25916132a0565b8193910160a0848203126104b157614e3e898501612e61565b50614e4b606085016131ca565b936080810135906001600160401b0382116105a957019080601f830112156104b557813592614e7984613099565b92614e868c519485613078565b8484528a8401918b839660051b83010193841161031957508a809101915b8383106150a957505050508380614ff7575b614fee575b805115614cda57614ecb866138ef565b87600954168a51809463eaa19ab360e01b8252606482018760048401526060602484015285518091526084830191908d6000905b828210614fd257505050509181600081819582604483015203925af1938415614a08576000938495614fb1575b50835193828a1693908c60005b878110614f4f5750505050505050503880614cda565b86600192614f5d83866132f5565b51614f68818a614468565b7f598baf7bf150ca2f42be9e9f8f55e81d45f5715c3ff22bf46d697fabec7f31d661ffff614f96868a6132f5565b5193518a8152336020820152931692604090a4018d90614f39565b909450614fc891933d8091833e6142ae8183613078565b9290929338614f2c565b835161ffff16855289955093840193909201916001018e614eff565b60009350614ebb565b506024608088600954168b5192838092634228826f60e11b82523060048301525afa8015614a0857600090615034575b6060915001511515614eb6565b6080823d82116150a1575b8161504c60809383613078565b810103126103195750606090615098828c519261506884612fef565b615071816133e5565b845261507e8d82016133e5565b8d8501528d61508e8183016133e5565b90850152016133e5565b82820152615027565b3d915061503f565b81906150b484613283565b8152019101908a90614ea4565b506150cc82826132a0565b604411610e2f578901356001600160e01b03191663b3bcbb7960e01b14614cd5565b93505091614cb7565b600b546001600160a01b03169081156151b457600d5493604d85116151a0579060646020926040519485938492635268657960e11b84526004840152602483015260a089013560448301525afa918215611a2557809261516a575b505061516591600a0a60808401356158ac565b614c65565b9091506020823d8211615198575b8161518560209383613078565b8101031261031957505161516538615152565b3d9150615178565b634e487b7160e01b84526011600452602484fd5b5050505050565b906151c582613099565b6151d26040519182613078565b82815280926151e3601f1991613099565b0190602036910137565b9081518110156132df570160200190565b8051156154425760409081516105e081018181106001600160401b03821117612fbe578352602e8152602090818101916105c03684378151156132df576000809352600193805184915b8183106153a15750505060ff809416615260816151bb565b92845b828110615380575050508151615278816151bb565b92845b82811061535857505050815193615291856131d7565b9561529e81519788613078565b858752601f196152ad876131d7565b013684890137845b8681106152c6575050505050505090565b60019082516152d48161305d565b603a81527f31323334353637383941424344454647484a4b4c4d4e50515253545556575859868201527f5a6162636465666768696a6b6d6e6f707172737475767778797a000000000000848201526001600160f81b031990615343908661533b858b6132f5565b5116906151ed565b5116871a615351828b6151ed565b53016152b5565b6001908761536d6000198386510301856132f5565b511661537982886132f5565b520161527b565b808761538e600193856132f5565b511661539a82886132f5565b5201615263565b9397919690946153b188866151ed565b5160f81c9381945b60ff90818a1687101561540157906153e660019261ff006153db8f8b906132f5565b5160081b16906134b6565b603a91828206166153f7898f6132f5565b52049501946153b9565b919550508099959298919693995b61541e57506001019190615248565b9660ff6001603a9282848c06166154378483168b6132f5565b52011697048061540f565b5060405161544f81613026565b60008152600036813790565b6007546001600160a01b0316330361546f57565b606460405162461bcd60e51b815260206004820152602060248201527f4f776e61626c653a2063616c6c6572206973206e6f7420746865206f776e65726044820152fd5b600780546001600160a01b039283166001600160a01b0319821681179092559091167f8be0079c531659141344cd1fd0a4f28419497f9722a3daafe3b4186f6b6457e0600080a3565b80548210156132df5760005260206000200190600090565b80546000929181615532575050905060005b6001600160e01b031690565b60001982019182116151a0576155499293506154fc565b505460201c615526565b9190438110156155dd578254906000905b828210615581575050600092811560001461553257506000925050565b9091600190615596818518831c8286166134b6565b918363ffffffff6155a7858a6154fc565b50541611156155ba575050915b90615564565b9093508101809111156155b457634e487b7160e01b600052601160045260246000fd5b606460405162461bcd60e51b815260206004820152602060248201527f436865636b706f696e74733a20626c6f636b206e6f7420796574206d696e65646044820152fd5b91906156359061563084615514565b613798565b91805461564182615514565b918115158061577d575b1561568b57615659856157b7565b9060001983019283116134c35761361c92615673916154fc565b509063ffffffff82549181199060201b169116179055565b9063ffffffff90814311615729576156a2866157b7565b90604051936156b085612fd4565b43841685526001600160e01b03928316602086019081529168010000000000000000811015612fbe576156e8916001820181556154fc565b939093615713579351905163ffffffff9190941616921660201b63ffffffff19169190911790559190565b634e487b7160e01b600052600060045260246000fd5b60405162461bcd60e51b815260206004820152602660248201527f53616665436173743a2076616c756520646f65736e27742066697420696e203360448201526532206269747360d01b6064820152608490fd5b5060001982018281116134c35761579963ffffffff91836154fc565b505416431461564b565b9190615635906157b284615514565b6134b6565b6001600160e01b03908181116157cb571690565b60405162461bcd60e51b815260206004820152602760248201527f53616665436173743a2076616c756520646f65736e27742066697420696e20326044820152663234206269747360c81b6064820152608490fd5b91906000198184098184029182808310920391808303921461589f57633b9aca009081831015615881577f88f2cfb83100cb4e69e7c79c58b316e597157d372fb9787e8e47ce423a2e9c6d94950990828211900360f71b910360091c170290565b6044838360405191631dcf306360e21b835260048301526024820152fd5b5050633b9aca0090049150565b90916000198383099280830292838086109503948086039514615942578285101561592457908291096001821901821680920460028082600302188083028203028083028203028083028203028083028203028083028203028092029003029360018380600003040190848311900302920304170290565b6044858460405191631dcf306360e21b835260048301526024820152fd5b50509061324492506137a556fe3134e8a2e6d97e929a7e54011ea5485d7d196dd5f0ba4d4ef95803e8e3fc257fa2646970667358221220f05259fe107babcd21159653d534eea132c0ca2af3fcf80a8091c7a7ea3b5bf264736f6c63430008110033",
    "linkReferences": {}
  },
  "methodIdentifiers": {
    "TOTAL_REDEMPTION_WEIGHT()": "640abacd",
    "adjustTiers((uint80,uint48,uint40,uint16,uint16,address,uint8,address,bytes32,uint8,bool,bool,bool,bool)[],uint256[])": "25eb91ee",
    "approve(address,uint256)": "095ea7b3",
    "balanceOf(address)": "70a08231",
    "codeOrigin()": "1d153ca4",
    "contractURI()": "e8a3d485",
    "creditsOf(address)": "245a45b5",
    "didPay((address,uint256,uint256,(address,uint256,uint256,uint256),(address,uint256,uint256,uint256),uint256,address,bool,string,bytes))": "da9ee8b7",
    "didRedeem((address,uint256,uint256,uint256,(address,uint256,uint256,uint256),(address,uint256,uint256,uint256),address,string,bytes))": "2b13c58f",
    "directory()": "c41c2f24",
    "firstOwnerOf(uint256)": "54c6d1f5",
    "fundingCycleStore()": "557e7155",
    "getApproved(uint256)": "081812fc",
    "getPastTierTotalVotes(uint256,uint256)": "d31cc52c",
    "getPastTierVotes(address,uint256,uint256)": "d40e7146",
    "getTierDelegate(address,uint256)": "82732b6d",
    "getTierTotalVotes(uint256)": "94c5c5ca",
    "getTierVotes(address,uint256)": "ca323efe",
    "initialize(uint256,address,string,string,address,string,address,string,((uint80,uint48,uint40,uint16,uint16,address,uint8,address,bytes32,uint8,bool,bool,bool,bool)[],uint256,uint256,address),address,(bool,bool,bool,bool))": "d1704baf",
    "isApprovedForAll(address,address)": "e985e9c5",
    "mintFor((uint16[],address)[])": "36c1a93b",
    "mintFor(uint16[],address)": "6ac6d941",
    "mintReservesFor((uint256,uint256)[])": "2a596e53",
    "mintReservesFor(uint256,uint256)": "aa4fb15b",
    "name()": "06fdde03",
    "owner()": "8da5cb5b",
    "ownerOf(uint256)": "6352211e",
    "payParams((address,address,(address,uint256,uint256,uint256),uint256,uint256,address,uint256,uint256,string,bytes))": "d46cf171",
    "prices()": "d3419bf3",
    "pricingCurrency()": "64640c1e",
    "pricingDecimals()": "4ecba625",
    "projectId()": "3fafa127",
    "redeemParams((address,address,uint256,uint256,uint256,uint256,uint256,(address,uint256,uint256,uint256),bool,uint256,string,bytes))": "a51cfd18",
    "redemptionWeightOf(uint256)": "4f228e11",
    "redemptionWeightOf(uint256[],(address,address,uint256,uint256,uint256,uint256,uint256,(address,uint256,uint256,uint256),bool,uint256,string,bytes))": "7ba62bf9",
    "renounceOwnership()": "715018a6",
    "royaltyInfo(uint256,uint256)": "2a55205a",
    "safeTransferFrom(address,address,uint256)": "42842e0e",
    "safeTransferFrom(address,address,uint256,bytes)": "b88d4fde",
    "setApprovalForAll(address,bool)": "a22cb465",
    "setBaseUri(string)": "a0bcfc7f",
    "setContractUri(string)": "ccb4807b",
    "setDefaultReservedTokenBeneficiary(address)": "df487e26",
    "setEncodedIPFSUriOf(uint256,bytes32)": "525350ba",
    "setTierDelegate(address,uint256)": "ab951e39",
    "setTierDelegates((address,uint256)[])": "c74b13d9",
    "setTierRedemptionWeights((uint256,uint256)[])": "2f441500",
    "setTokenUriResolver(address)": "2407497e",
    "store()": "975057e7",
    "supportsInterface(bytes4)": "01ffc9a7",
    "symbol()": "95d89b41",
    "tierRedemptionWeights()": "9df45468",
    "tokenURI(uint256)": "c87b56dd",
    "totalRedemptionWeight((address,address,uint256,uint256,uint256,uint256,uint256,(address,uint256,uint256,uint256),bool,uint256,string,bytes))": "9494bf72",
    "transferFrom(address,address,uint256)": "23b872dd",
    "transferOwnership(address)": "f2fde38b"
  },
  "id": 0
}