{
  "abi": [
    {
      "inputs": [],
      "name": "ALEADY_MINTED",
      "type": "error"
    },
    {
      "inputs": [],
      "name": "APPROVAL_TO_CURRENT_OWNER",
      "type": "error"
    },
    {
      "inputs": [],
      "name": "APPROVE_TO_CALLER",
      "type": "error"
    },
    {
      "inputs": [],
      "name": "BLOCK_NOT_YET_MINED",
      "type": "error"
    },
    {
      "inputs": [],
      "name": "CALLER_NOT_OWNER_OR_APPROVED",
      "type": "error"
    },
    {
      "inputs": [],
      "name": "DELEGATE_ADDRESS_ZERO",
      "type": "error"
    },
    {
      "inputs": [],
      "name": "GAME_ISNT_OVER_YET",
      "type": "error"
    },
    {
      "inputs": [],
      "name": "INCORRECT_OWNER",
      "type": "error"
    },
    {
      "inputs": [],
      "name": "INVALID_PAYMENT_EVENT",
      "type": "error"
    },
    {
      "inputs": [],
      "name": "INVALID_REDEMPTION_EVENT",
      "type": "error"
    },
    {
      "inputs": [],
      "name": "INVALID_REDEMPTION_METADATA",
      "type": "error"
    },
    {
      "inputs": [],
      "name": "INVALID_REDEMPTION_WEIGHTS",
      "type": "error"
    },
    {
      "inputs": [],
      "name": "INVALID_TIER_ID",
      "type": "error"
    },
    {
      "inputs": [],
      "name": "INVALID_TOKEN_ID",
      "type": "error"
    },
    {
      "inputs": [],
      "name": "MINT_TO_ZERO",
      "type": "error"
    },
    {
      "inputs": [],
      "name": "NOTHING_TO_CLAIM",
      "type": "error"
    },
    {
      "inputs": [],
      "name": "NOT_AVAILABLE",
      "type": "error"
    },
    {
      "inputs": [],
      "name": "OVERSPENDING",
      "type": "error"
    },
    {
      "inputs": [
        {
          "internalType": "uint256",
          "name": "prod1",
          "type": "uint256"
        },
        {
          "internalType": "uint256",
          "name": "denominator",
          "type": "uint256"
        }
      ],
      "name": "PRBMath__MulDivOverflow",
      "type": "error"
    },
    {
      "inputs": [],
      "name": "PRICING_RESOLVER_CHANGES_PAUSED",
      "type": "error"
    },
    {
      "inputs": [],
      "name": "RESERVED_TOKEN_MINTING_PAUSED",
      "type": "error"
    },
    {
      "inputs": [],
      "name": "TRANSFERS_PAUSED",
      "type": "error"
    },
    {
      "inputs": [],
      "name": "TRANSFER_TO_NON_IMPLEMENTER",
      "type": "error"
    },
    {
      "inputs": [],
      "name": "TRANSFER_TO_ZERO_ADDRESS",
      "type": "error"
    },
    {
      "inputs": [],
      "name": "UNAUTHORIZED",
      "type": "error"
    },
    {
      "inputs": [],
      "name": "UNEXPECTED_TOKEN_REDEEMED",
      "type": "error"
    },
    {
      "anonymous": false,
      "inputs": [
        {
          "indexed": true,
          "internalType": "uint256",
          "name": "changeAmount",
          "type": "uint256"
        },
        {
          "indexed": true,
          "internalType": "uint256",
          "name": "newTotalCredits",
          "type": "uint256"
        },
        {
          "indexed": true,
          "internalType": "address",
          "name": "account",
          "type": "address"
        },
        {
          "indexed": false,
          "internalType": "address",
          "name": "caller",
          "type": "address"
        }
      ],
      "name": "AddCredits",
      "type": "event"
    },
    {
      "anonymous": false,
      "inputs": [
        {
          "indexed": true,
          "internalType": "uint256",
          "name": "tierId",
          "type": "uint256"
        },
        {
          "components": [
            {
              "internalType": "uint80",
              "name": "contributionFloor",
              "type": "uint80"
            },
            {
              "internalType": "uint48",
              "name": "lockedUntil",
              "type": "uint48"
            },
            {
              "internalType": "uint40",
              "name": "initialQuantity",
              "type": "uint40"
            },
            {
              "internalType": "uint16",
              "name": "votingUnits",
              "type": "uint16"
            },
            {
              "internalType": "uint16",
              "name": "reservedRate",
              "type": "uint16"
            },
            {
              "internalType": "address",
              "name": "reservedTokenBeneficiary",
              "type": "address"
            },
            {
              "internalType": "uint8",
              "name": "royaltyRate",
              "type": "uint8"
            },
            {
              "internalType": "address",
              "name": "royaltyBeneficiary",
              "type": "address"
            },
            {
              "internalType": "bytes32",
              "name": "encodedIPFSUri",
              "type": "bytes32"
            },
            {
              "internalType": "uint8",
              "name": "category",
              "type": "uint8"
            },
            {
              "internalType": "bool",
              "name": "allowManualMint",
              "type": "bool"
            },
            {
              "internalType": "bool",
              "name": "shouldUseReservedTokenBeneficiaryAsDefault",
              "type": "bool"
            },
            {
              "internalType": "bool",
              "name": "shouldUseRoyaltyBeneficiaryAsDefault",
              "type": "bool"
            },
            {
              "internalType": "bool",
              "name": "transfersPausable",
              "type": "bool"
            }
          ],
          "indexed": false,
          "internalType": "struct JB721TierParams",
          "name": "data",
          "type": "tuple"
        },
        {
          "indexed": false,
          "internalType": "address",
          "name": "caller",
          "type": "address"
        }
      ],
      "name": "AddTier",
      "type": "event"
    },
    {
      "anonymous": false,
      "inputs": [
        {
          "indexed": true,
          "internalType": "address",
          "name": "owner",
          "type": "address"
        },
        {
          "indexed": true,
          "internalType": "address",
          "name": "approved",
          "type": "address"
        },
        {
          "indexed": true,
          "internalType": "uint256",
          "name": "tokenId",
          "type": "uint256"
        }
      ],
      "name": "Approval",
      "type": "event"
    },
    {
      "anonymous": false,
      "inputs": [
        {
          "indexed": true,
          "internalType": "address",
          "name": "owner",
          "type": "address"
        },
        {
          "indexed": true,
          "internalType": "address",
          "name": "operator",
          "type": "address"
        },
        {
          "indexed": false,
          "internalType": "bool",
          "name": "approved",
          "type": "bool"
        }
      ],
      "name": "ApprovalForAll",
      "type": "event"
    },
    {
      "anonymous": false,
      "inputs": [
        {
          "indexed": true,
          "internalType": "address",
          "name": "delegator",
          "type": "address"
        },
        {
          "indexed": true,
          "internalType": "address",
          "name": "fromDelegate",
          "type": "address"
        },
        {
          "indexed": true,
          "internalType": "address",
          "name": "toDelegate",
          "type": "address"
        }
      ],
      "name": "DelegateChanged",
      "type": "event"
    },
    {
      "anonymous": false,
      "inputs": [
        {
          "indexed": true,
          "internalType": "uint256",
          "name": "tokenId",
          "type": "uint256"
        },
        {
          "indexed": true,
          "internalType": "uint256",
          "name": "tierId",
          "type": "uint256"
        },
        {
          "indexed": true,
          "internalType": "address",
          "name": "beneficiary",
          "type": "address"
        },
        {
          "indexed": false,
          "internalType": "uint256",
          "name": "totalAmountContributed",
          "type": "uint256"
        },
        {
          "indexed": false,
          "internalType": "address",
          "name": "caller",
          "type": "address"
        }
      ],
      "name": "Mint",
      "type": "event"
    },
    {
      "anonymous": false,
      "inputs": [
        {
          "indexed": true,
          "internalType": "uint256",
          "name": "tokenId",
          "type": "uint256"
        },
        {
          "indexed": true,
          "internalType": "uint256",
          "name": "tierId",
          "type": "uint256"
        },
        {
          "indexed": true,
          "internalType": "address",
          "name": "beneficiary",
          "type": "address"
        },
        {
          "indexed": false,
          "internalType": "address",
          "name": "caller",
          "type": "address"
        }
      ],
      "name": "MintReservedToken",
      "type": "event"
    },
    {
      "anonymous": false,
      "inputs": [
        {
          "indexed": true,
          "internalType": "address",
          "name": "previousOwner",
          "type": "address"
        },
        {
          "indexed": true,
          "internalType": "address",
          "name": "newOwner",
          "type": "address"
        }
      ],
      "name": "OwnershipTransferred",
      "type": "event"
    },
    {
      "anonymous": false,
      "inputs": [
        {
          "indexed": true,
          "internalType": "uint256",
          "name": "tierId",
          "type": "uint256"
        },
        {
          "indexed": false,
          "internalType": "address",
          "name": "caller",
          "type": "address"
        }
      ],
      "name": "RemoveTier",
      "type": "event"
    },
    {
      "anonymous": false,
      "inputs": [
        {
          "indexed": true,
          "internalType": "string",
          "name": "baseUri",
          "type": "string"
        },
        {
          "indexed": false,
          "internalType": "address",
          "name": "caller",
          "type": "address"
        }
      ],
      "name": "SetBaseUri",
      "type": "event"
    },
    {
      "anonymous": false,
      "inputs": [
        {
          "indexed": true,
          "internalType": "string",
          "name": "contractUri",
          "type": "string"
        },
        {
          "indexed": false,
          "internalType": "address",
          "name": "caller",
          "type": "address"
        }
      ],
      "name": "SetContractUri",
      "type": "event"
    },
    {
      "anonymous": false,
      "inputs": [
        {
          "indexed": true,
          "internalType": "address",
          "name": "beneficiary",
          "type": "address"
        },
        {
          "indexed": false,
          "internalType": "address",
          "name": "caller",
          "type": "address"
        }
      ],
      "name": "SetDefaultReservedTokenBeneficiary",
      "type": "event"
    },
    {
      "anonymous": false,
      "inputs": [
        {
          "indexed": true,
          "internalType": "uint256",
          "name": "tierId",
          "type": "uint256"
        },
        {
          "indexed": false,
          "internalType": "bytes32",
          "name": "encodedIPFSUri",
          "type": "bytes32"
        },
        {
          "indexed": false,
          "internalType": "address",
          "name": "caller",
          "type": "address"
        }
      ],
      "name": "SetEncodedIPFSUri",
      "type": "event"
    },
    {
      "anonymous": false,
      "inputs": [
        {
          "indexed": true,
          "internalType": "contract IJBTokenUriResolver",
          "name": "newResolver",
          "type": "address"
        },
        {
          "indexed": false,
          "internalType": "address",
          "name": "caller",
          "type": "address"
        }
      ],
      "name": "SetTokenUriResolver",
      "type": "event"
    },
    {
      "anonymous": false,
      "inputs": [
        {
          "indexed": true,
          "internalType": "address",
          "name": "delegator",
          "type": "address"
        },
        {
          "indexed": true,
          "internalType": "address",
          "name": "fromDelegate",
          "type": "address"
        },
        {
          "indexed": true,
          "internalType": "address",
          "name": "toDelegate",
          "type": "address"
        },
        {
          "indexed": false,
          "internalType": "uint256",
          "name": "tierId",
          "type": "uint256"
        },
        {
          "indexed": false,
          "internalType": "address",
          "name": "caller",
          "type": "address"
        }
      ],
      "name": "TierDelegateChanged",
      "type": "event"
    },
    {
      "anonymous": false,
      "inputs": [
        {
          "indexed": true,
          "internalType": "address",
          "name": "delegate",
          "type": "address"
        },
        {
          "indexed": true,
          "internalType": "uint256",
          "name": "tierId",
          "type": "uint256"
        },
        {
          "indexed": false,
          "internalType": "uint256",
          "name": "previousBalance",
          "type": "uint256"
        },
        {
          "indexed": false,
          "internalType": "uint256",
          "name": "newBalance",
          "type": "uint256"
        },
        {
          "indexed": false,
          "internalType": "address",
          "name": "caller",
          "type": "address"
        }
      ],
      "name": "TierDelegateVotesChanged",
      "type": "event"
    },
    {
      "anonymous": false,
      "inputs": [
        {
          "indexed": true,
          "internalType": "address",
          "name": "from",
          "type": "address"
        },
        {
          "indexed": true,
          "internalType": "address",
          "name": "to",
          "type": "address"
        },
        {
          "indexed": true,
          "internalType": "uint256",
          "name": "tokenId",
          "type": "uint256"
        }
      ],
      "name": "Transfer",
      "type": "event"
    },
    {
      "anonymous": false,
      "inputs": [
        {
          "indexed": true,
          "internalType": "uint256",
          "name": "changeAmount",
          "type": "uint256"
        },
        {
          "indexed": true,
          "internalType": "uint256",
          "name": "newTotalCredits",
          "type": "uint256"
        },
        {
          "indexed": true,
          "internalType": "address",
          "name": "account",
          "type": "address"
        },
        {
          "indexed": false,
          "internalType": "address",
          "name": "caller",
          "type": "address"
        }
      ],
      "name": "UseCredits",
      "type": "event"
    },
    {
      "inputs": [],
      "name": "TOTAL_REDEMPTION_WEIGHT",
      "outputs": [
        {
          "internalType": "uint256",
          "name": "",
          "type": "uint256"
        }
      ],
      "stateMutability": "view",
      "type": "function"
    },
    {
      "inputs": [
        {
          "components": [
            {
              "internalType": "uint80",
              "name": "contributionFloor",
              "type": "uint80"
            },
            {
              "internalType": "uint48",
              "name": "lockedUntil",
              "type": "uint48"
            },
            {
              "internalType": "uint40",
              "name": "initialQuantity",
              "type": "uint40"
            },
            {
              "internalType": "uint16",
              "name": "votingUnits",
              "type": "uint16"
            },
            {
              "internalType": "uint16",
              "name": "reservedRate",
              "type": "uint16"
            },
            {
              "internalType": "address",
              "name": "reservedTokenBeneficiary",
              "type": "address"
            },
            {
              "internalType": "uint8",
              "name": "royaltyRate",
              "type": "uint8"
            },
            {
              "internalType": "address",
              "name": "royaltyBeneficiary",
              "type": "address"
            },
            {
              "internalType": "bytes32",
              "name": "encodedIPFSUri",
              "type": "bytes32"
            },
            {
              "internalType": "uint8",
              "name": "category",
              "type": "uint8"
            },
            {
              "internalType": "bool",
              "name": "allowManualMint",
              "type": "bool"
            },
            {
              "internalType": "bool",
              "name": "shouldUseReservedTokenBeneficiaryAsDefault",
              "type": "bool"
            },
            {
              "internalType": "bool",
              "name": "shouldUseRoyaltyBeneficiaryAsDefault",
              "type": "bool"
            },
            {
              "internalType": "bool",
              "name": "transfersPausable",
              "type": "bool"
            }
          ],
          "internalType": "struct JB721TierParams[]",
          "name": "_tiersToAdd",
          "type": "tuple[]"
        },
        {
          "internalType": "uint256[]",
          "name": "_tierIdsToRemove",
          "type": "uint256[]"
        }
      ],
      "name": "adjustTiers",
      "outputs": [],
      "stateMutability": "nonpayable",
      "type": "function"
    },
    {
      "inputs": [
        {
          "internalType": "address",
          "name": "to",
          "type": "address"
        },
        {
          "internalType": "uint256",
          "name": "tokenId",
          "type": "uint256"
        }
      ],
      "name": "approve",
      "outputs": [],
      "stateMutability": "nonpayable",
      "type": "function"
    },
    {
      "inputs": [
        {
          "internalType": "address",
          "name": "_owner",
          "type": "address"
        }
      ],
      "name": "balanceOf",
      "outputs": [
        {
          "internalType": "uint256",
          "name": "balance",
          "type": "uint256"
        }
      ],
      "stateMutability": "view",
      "type": "function"
    },
    {
      "inputs": [],
      "name": "codeOrigin",
      "outputs": [
        {
          "internalType": "address",
          "name": "",
          "type": "address"
        }
      ],
      "stateMutability": "view",
      "type": "function"
    },
    {
      "inputs": [],
      "name": "contractURI",
      "outputs": [
        {
          "internalType": "string",
          "name": "",
          "type": "string"
        }
      ],
      "stateMutability": "view",
      "type": "function"
    },
    {
      "inputs": [
        {
          "internalType": "address",
          "name": "",
          "type": "address"
        }
      ],
      "name": "creditsOf",
      "outputs": [
        {
          "internalType": "uint256",
          "name": "",
          "type": "uint256"
        }
      ],
      "stateMutability": "view",
      "type": "function"
    },
    {
      "inputs": [
        {
          "components": [
            {
              "internalType": "address",
              "name": "payer",
              "type": "address"
            },
            {
              "internalType": "uint256",
              "name": "projectId",
              "type": "uint256"
            },
            {
              "internalType": "uint256",
              "name": "currentFundingCycleConfiguration",
              "type": "uint256"
            },
            {
              "components": [
                {
                  "internalType": "address",
                  "name": "token",
                  "type": "address"
                },
                {
                  "internalType": "uint256",
                  "name": "value",
                  "type": "uint256"
                },
                {
                  "internalType": "uint256",
                  "name": "decimals",
                  "type": "uint256"
                },
                {
                  "internalType": "uint256",
                  "name": "currency",
                  "type": "uint256"
                }
              ],
              "internalType": "struct JBTokenAmount",
              "name": "amount",
              "type": "tuple"
            },
            {
              "components": [
                {
                  "internalType": "address",
                  "name": "token",
                  "type": "address"
                },
                {
                  "internalType": "uint256",
                  "name": "value",
                  "type": "uint256"
                },
                {
                  "internalType": "uint256",
                  "name": "decimals",
                  "type": "uint256"
                },
                {
                  "internalType": "uint256",
                  "name": "currency",
                  "type": "uint256"
                }
              ],
              "internalType": "struct JBTokenAmount",
              "name": "forwardedAmount",
              "type": "tuple"
            },
            {
              "internalType": "uint256",
              "name": "projectTokenCount",
              "type": "uint256"
            },
            {
              "internalType": "address",
              "name": "beneficiary",
              "type": "address"
            },
            {
              "internalType": "bool",
              "name": "preferClaimedTokens",
              "type": "bool"
            },
            {
              "internalType": "string",
              "name": "memo",
              "type": "string"
            },
            {
              "internalType": "bytes",
              "name": "metadata",
              "type": "bytes"
            }
          ],
          "internalType": "struct JBDidPayData",
          "name": "_data",
          "type": "tuple"
        }
      ],
      "name": "didPay",
      "outputs": [],
      "stateMutability": "payable",
      "type": "function"
    },
    {
      "inputs": [
        {
          "components": [
            {
              "internalType": "address",
              "name": "holder",
              "type": "address"
            },
            {
              "internalType": "uint256",
              "name": "projectId",
              "type": "uint256"
            },
            {
              "internalType": "uint256",
              "name": "currentFundingCycleConfiguration",
              "type": "uint256"
            },
            {
              "internalType": "uint256",
              "name": "projectTokenCount",
              "type": "uint256"
            },
            {
              "components": [
                {
                  "internalType": "address",
                  "name": "token",
                  "type": "address"
                },
                {
                  "internalType": "uint256",
                  "name": "value",
                  "type": "uint256"
                },
                {
                  "internalType": "uint256",
                  "name": "decimals",
                  "type": "uint256"
                },
                {
                  "internalType": "uint256",
                  "name": "currency",
                  "type": "uint256"
                }
              ],
              "internalType": "struct JBTokenAmount",
              "name": "reclaimedAmount",
              "type": "tuple"
            },
            {
              "components": [
                {
                  "internalType": "address",
                  "name": "token",
                  "type": "address"
                },
                {
                  "internalType": "uint256",
                  "name": "value",
                  "type": "uint256"
                },
                {
                  "internalType": "uint256",
                  "name": "decimals",
                  "type": "uint256"
                },
                {
                  "internalType": "uint256",
                  "name": "currency",
                  "type": "uint256"
                }
              ],
              "internalType": "struct JBTokenAmount",
              "name": "forwardedAmount",
              "type": "tuple"
            },
            {
              "internalType": "address payable",
              "name": "beneficiary",
              "type": "address"
            },
            {
              "internalType": "string",
              "name": "memo",
              "type": "string"
            },
            {
              "internalType": "bytes",
              "name": "metadata",
              "type": "bytes"
            }
          ],
          "internalType": "struct JBDidRedeemData",
          "name": "_data",
          "type": "tuple"
        }
      ],
      "name": "didRedeem",
      "outputs": [],
      "stateMutability": "payable",
      "type": "function"
    },
    {
      "inputs": [],
      "name": "directory",
      "outputs": [
        {
          "internalType": "contract IJBDirectory",
          "name": "",
          "type": "address"
        }
      ],
      "stateMutability": "view",
      "type": "function"
    },
    {
      "inputs": [
        {
          "internalType": "uint256",
          "name": "_tokenId",
          "type": "uint256"
        }
      ],
      "name": "firstOwnerOf",
      "outputs": [
        {
          "internalType": "address",
          "name": "",
          "type": "address"
        }
      ],
      "stateMutability": "view",
      "type": "function"
    },
    {
      "inputs": [],
      "name": "fundingCycleStore",
      "outputs": [
        {
          "internalType": "contract IJBFundingCycleStore",
          "name": "",
          "type": "address"
        }
      ],
      "stateMutability": "view",
      "type": "function"
    },
    {
      "inputs": [
        {
          "internalType": "uint256",
          "name": "tokenId",
          "type": "uint256"
        }
      ],
      "name": "getApproved",
      "outputs": [
        {
          "internalType": "address",
          "name": "",
          "type": "address"
        }
      ],
      "stateMutability": "view",
      "type": "function"
    },
    {
      "inputs": [
        {
          "internalType": "uint256",
          "name": "_tier",
          "type": "uint256"
        },
        {
          "internalType": "uint256",
          "name": "_blockNumber",
          "type": "uint256"
        }
      ],
      "name": "getPastTierTotalVotes",
      "outputs": [
        {
          "internalType": "uint256",
          "name": "",
          "type": "uint256"
        }
      ],
      "stateMutability": "view",
      "type": "function"
    },
    {
      "inputs": [
        {
          "internalType": "address",
          "name": "_account",
          "type": "address"
        },
        {
          "internalType": "uint256",
          "name": "_tier",
          "type": "uint256"
        },
        {
          "internalType": "uint256",
          "name": "_blockNumber",
          "type": "uint256"
        }
      ],
      "name": "getPastTierVotes",
      "outputs": [
        {
          "internalType": "uint256",
          "name": "",
          "type": "uint256"
        }
      ],
      "stateMutability": "view",
      "type": "function"
    },
    {
      "inputs": [
        {
          "internalType": "address",
          "name": "_account",
          "type": "address"
        },
        {
          "internalType": "uint256",
          "name": "_tier",
          "type": "uint256"
        }
      ],
      "name": "getTierDelegate",
      "outputs": [
        {
          "internalType": "address",
          "name": "",
          "type": "address"
        }
      ],
      "stateMutability": "view",
      "type": "function"
    },
    {
      "inputs": [
        {
          "internalType": "uint256",
          "name": "_tier",
          "type": "uint256"
        }
      ],
      "name": "getTierTotalVotes",
      "outputs": [
        {
          "internalType": "uint256",
          "name": "",
          "type": "uint256"
        }
      ],
      "stateMutability": "view",
      "type": "function"
    },
    {
      "inputs": [
        {
          "internalType": "address",
          "name": "_account",
          "type": "address"
        },
        {
          "internalType": "uint256",
          "name": "_tier",
          "type": "uint256"
        }
      ],
      "name": "getTierVotes",
      "outputs": [
        {
          "internalType": "uint256",
          "name": "",
          "type": "uint256"
        }
      ],
      "stateMutability": "view",
      "type": "function"
    },
    {
      "inputs": [
        {
          "internalType": "uint256",
          "name": "_projectId",
          "type": "uint256"
        },
        {
          "internalType": "contract IJBDirectory",
          "name": "_directory",
          "type": "address"
        },
        {
          "internalType": "string",
          "name": "_name",
          "type": "string"
        },
        {
          "internalType": "string",
          "name": "_symbol",
          "type": "string"
        },
        {
          "internalType": "contract IJBFundingCycleStore",
          "name": "_fundingCycleStore",
          "type": "address"
        },
        {
          "internalType": "string",
          "name": "_baseUri",
          "type": "string"
        },
        {
          "internalType": "contract IJBTokenUriResolver",
          "name": "_tokenUriResolver",
          "type": "address"
        },
        {
          "internalType": "string",
          "name": "_contractUri",
          "type": "string"
        },
        {
          "components": [
            {
              "components": [
                {
                  "internalType": "uint80",
                  "name": "contributionFloor",
                  "type": "uint80"
                },
                {
                  "internalType": "uint48",
                  "name": "lockedUntil",
                  "type": "uint48"
                },
                {
                  "internalType": "uint40",
                  "name": "initialQuantity",
                  "type": "uint40"
                },
                {
                  "internalType": "uint16",
                  "name": "votingUnits",
                  "type": "uint16"
                },
                {
                  "internalType": "uint16",
                  "name": "reservedRate",
                  "type": "uint16"
                },
                {
                  "internalType": "address",
                  "name": "reservedTokenBeneficiary",
                  "type": "address"
                },
                {
                  "internalType": "uint8",
                  "name": "royaltyRate",
                  "type": "uint8"
                },
                {
                  "internalType": "address",
                  "name": "royaltyBeneficiary",
                  "type": "address"
                },
                {
                  "internalType": "bytes32",
                  "name": "encodedIPFSUri",
                  "type": "bytes32"
                },
                {
                  "internalType": "uint8",
                  "name": "category",
                  "type": "uint8"
                },
                {
                  "internalType": "bool",
                  "name": "allowManualMint",
                  "type": "bool"
                },
                {
                  "internalType": "bool",
                  "name": "shouldUseReservedTokenBeneficiaryAsDefault",
                  "type": "bool"
                },
                {
                  "internalType": "bool",
                  "name": "shouldUseRoyaltyBeneficiaryAsDefault",
                  "type": "bool"
                },
                {
                  "internalType": "bool",
                  "name": "transfersPausable",
                  "type": "bool"
                }
              ],
              "internalType": "struct JB721TierParams[]",
              "name": "tiers",
              "type": "tuple[]"
            },
            {
              "internalType": "uint256",
              "name": "currency",
              "type": "uint256"
            },
            {
              "internalType": "uint256",
              "name": "decimals",
              "type": "uint256"
            },
            {
              "internalType": "contract IJBPrices",
              "name": "prices",
              "type": "address"
            }
          ],
          "internalType": "struct JB721PricingParams",
          "name": "_pricing",
          "type": "tuple"
        },
        {
          "internalType": "contract IJBTiered721DelegateStore",
          "name": "_store",
          "type": "address"
        },
        {
          "components": [
            {
              "internalType": "bool",
              "name": "lockReservedTokenChanges",
              "type": "bool"
            },
            {
              "internalType": "bool",
              "name": "lockVotingUnitChanges",
              "type": "bool"
            },
            {
              "internalType": "bool",
              "name": "lockManualMintingChanges",
              "type": "bool"
            },
            {
              "internalType": "bool",
              "name": "preventOverspending",
              "type": "bool"
            }
          ],
          "internalType": "struct JBTiered721Flags",
          "name": "_flags",
          "type": "tuple"
        }
      ],
      "name": "initialize",
      "outputs": [],
      "stateMutability": "nonpayable",
      "type": "function"
    },
    {
      "inputs": [
        {
          "internalType": "address",
          "name": "owner",
          "type": "address"
        },
        {
          "internalType": "address",
          "name": "operator",
          "type": "address"
        }
      ],
      "name": "isApprovedForAll",
      "outputs": [
        {
          "internalType": "bool",
          "name": "",
          "type": "bool"
        }
      ],
      "stateMutability": "view",
      "type": "function"
    },
    {
      "inputs": [
        {
          "components": [
            {
              "internalType": "uint16[]",
              "name": "tierIds",
              "type": "uint16[]"
            },
            {
              "internalType": "address",
              "name": "beneficiary",
              "type": "address"
            }
          ],
          "internalType": "struct JBTiered721MintForTiersData[]",
          "name": "_mintForTiersData",
          "type": "tuple[]"
        }
      ],
      "name": "mintFor",
      "outputs": [],
      "stateMutability": "nonpayable",
      "type": "function"
    },
    {
      "inputs": [
        {
          "internalType": "uint16[]",
          "name": "_tierIds",
          "type": "uint16[]"
        },
        {
          "internalType": "address",
          "name": "_beneficiary",
          "type": "address"
        }
      ],
      "name": "mintFor",
      "outputs": [
        {
          "internalType": "uint256[]",
          "name": "tokenIds",
          "type": "uint256[]"
        }
      ],
      "stateMutability": "nonpayable",
      "type": "function"
    },
    {
      "inputs": [
        {
          "components": [
            {
              "internalType": "uint256",
              "name": "tierId",
              "type": "uint256"
            },
            {
              "internalType": "uint256",
              "name": "count",
              "type": "uint256"
            }
          ],
          "internalType": "struct JBTiered721MintReservesForTiersData[]",
          "name": "_mintReservesForTiersData",
          "type": "tuple[]"
        }
      ],
      "name": "mintReservesFor",
      "outputs": [],
      "stateMutability": "nonpayable",
      "type": "function"
    },
    {
      "inputs": [
        {
          "internalType": "uint256",
          "name": "_tierId",
          "type": "uint256"
        },
        {
          "internalType": "uint256",
          "name": "_count",
          "type": "uint256"
        }
      ],
      "name": "mintReservesFor",
      "outputs": [],
      "stateMutability": "nonpayable",
      "type": "function"
    },
    {
      "inputs": [],
      "name": "name",
      "outputs": [
        {
          "internalType": "string",
          "name": "",
          "type": "string"
        }
      ],
      "stateMutability": "view",
      "type": "function"
    },
    {
      "inputs": [],
      "name": "owner",
      "outputs": [
        {
          "internalType": "address",
          "name": "",
          "type": "address"
        }
      ],
      "stateMutability": "view",
      "type": "function"
    },
    {
      "inputs": [
        {
          "internalType": "uint256",
          "name": "tokenId",
          "type": "uint256"
        }
      ],
      "name": "ownerOf",
      "outputs": [
        {
          "internalType": "address",
          "name": "",
          "type": "address"
        }
      ],
      "stateMutability": "view",
      "type": "function"
    },
    {
      "inputs": [
        {
          "components": [
            {
              "internalType": "contract IJBPaymentTerminal",
              "name": "terminal",
              "type": "address"
            },
            {
              "internalType": "address",
              "name": "payer",
              "type": "address"
            },
            {
              "components": [
                {
                  "internalType": "address",
                  "name": "token",
                  "type": "address"
                },
                {
                  "internalType": "uint256",
                  "name": "value",
                  "type": "uint256"
                },
                {
                  "internalType": "uint256",
                  "name": "decimals",
                  "type": "uint256"
                },
                {
                  "internalType": "uint256",
                  "name": "currency",
                  "type": "uint256"
                }
              ],
              "internalType": "struct JBTokenAmount",
              "name": "amount",
              "type": "tuple"
            },
            {
              "internalType": "uint256",
              "name": "projectId",
              "type": "uint256"
            },
            {
              "internalType": "uint256",
              "name": "currentFundingCycleConfiguration",
              "type": "uint256"
            },
            {
              "internalType": "address",
              "name": "beneficiary",
              "type": "address"
            },
            {
              "internalType": "uint256",
              "name": "weight",
              "type": "uint256"
            },
            {
              "internalType": "uint256",
              "name": "reservedRate",
              "type": "uint256"
            },
            {
              "internalType": "string",
              "name": "memo",
              "type": "string"
            },
            {
              "internalType": "bytes",
              "name": "metadata",
              "type": "bytes"
            }
          ],
          "internalType": "struct JBPayParamsData",
          "name": "_data",
          "type": "tuple"
        }
      ],
      "name": "payParams",
      "outputs": [
        {
          "internalType": "uint256",
          "name": "weight",
          "type": "uint256"
        },
        {
          "internalType": "string",
          "name": "memo",
          "type": "string"
        },
        {
          "components": [
            {
              "internalType": "contract IJBPayDelegate",
              "name": "delegate",
              "type": "address"
            },
            {
              "internalType": "uint256",
              "name": "amount",
              "type": "uint256"
            }
          ],
          "internalType": "struct JBPayDelegateAllocation[]",
          "name": "delegateAllocations",
          "type": "tuple[]"
        }
      ],
      "stateMutability": "view",
      "type": "function"
    },
    {
      "inputs": [],
      "name": "prices",
      "outputs": [
        {
          "internalType": "contract IJBPrices",
          "name": "",
          "type": "address"
        }
      ],
      "stateMutability": "view",
      "type": "function"
    },
    {
      "inputs": [],
      "name": "pricingCurrency",
      "outputs": [
        {
          "internalType": "uint256",
          "name": "",
          "type": "uint256"
        }
      ],
      "stateMutability": "view",
      "type": "function"
    },
    {
      "inputs": [],
      "name": "pricingDecimals",
      "outputs": [
        {
          "internalType": "uint256",
          "name": "",
          "type": "uint256"
        }
      ],
      "stateMutability": "view",
      "type": "function"
    },
    {
      "inputs": [],
      "name": "projectId",
      "outputs": [
        {
          "internalType": "uint256",
          "name": "",
          "type": "uint256"
        }
      ],
      "stateMutability": "view",
      "type": "function"
    },
    {
      "inputs": [
        {
          "components": [
            {
              "internalType": "contract IJBPaymentTerminal",
              "name": "terminal",
              "type": "address"
            },
            {
              "internalType": "address",
              "name": "holder",
              "type": "address"
            },
            {
              "internalType": "uint256",
              "name": "projectId",
              "type": "uint256"
            },
            {
              "internalType": "uint256",
              "name": "currentFundingCycleConfiguration",
              "type": "uint256"
            },
            {
              "internalType": "uint256",
              "name": "tokenCount",
              "type": "uint256"
            },
            {
              "internalType": "uint256",
              "name": "totalSupply",
              "type": "uint256"
            },
            {
              "internalType": "uint256",
              "name": "overflow",
              "type": "uint256"
            },
            {
              "components": [
                {
                  "internalType": "address",
                  "name": "token",
                  "type": "address"
                },
                {
                  "internalType": "uint256",
                  "name": "value",
                  "type": "uint256"
                },
                {
                  "internalType": "uint256",
                  "name": "decimals",
                  "type": "uint256"
                },
                {
                  "internalType": "uint256",
                  "name": "currency",
                  "type": "uint256"
                }
              ],
              "internalType": "struct JBTokenAmount",
              "name": "reclaimAmount",
              "type": "tuple"
            },
            {
              "internalType": "bool",
              "name": "useTotalOverflow",
              "type": "bool"
            },
            {
              "internalType": "uint256",
              "name": "redemptionRate",
              "type": "uint256"
            },
            {
              "internalType": "string",
              "name": "memo",
              "type": "string"
            },
            {
              "internalType": "bytes",
              "name": "metadata",
              "type": "bytes"
            }
          ],
          "internalType": "struct JBRedeemParamsData",
          "name": "_data",
          "type": "tuple"
        }
      ],
      "name": "redeemParams",
      "outputs": [
        {
          "internalType": "uint256",
          "name": "reclaimAmount",
          "type": "uint256"
        },
        {
          "internalType": "string",
          "name": "memo",
          "type": "string"
        },
        {
          "components": [
            {
              "internalType": "contract IJBRedemptionDelegate",
              "name": "delegate",
              "type": "address"
            },
            {
              "internalType": "uint256",
              "name": "amount",
              "type": "uint256"
            }
          ],
          "internalType": "struct JBRedemptionDelegateAllocation[]",
          "name": "delegateAllocations",
          "type": "tuple[]"
        }
      ],
      "stateMutability": "view",
      "type": "function"
    },
    {
      "inputs": [
        {
          "internalType": "uint256[]",
          "name": "_tokenIds",
          "type": "uint256[]"
        },
        {
          "components": [
            {
              "internalType": "contract IJBPaymentTerminal",
              "name": "terminal",
              "type": "address"
            },
            {
              "internalType": "address",
              "name": "holder",
              "type": "address"
            },
            {
              "internalType": "uint256",
              "name": "projectId",
              "type": "uint256"
            },
            {
              "internalType": "uint256",
              "name": "currentFundingCycleConfiguration",
              "type": "uint256"
            },
            {
              "internalType": "uint256",
              "name": "tokenCount",
              "type": "uint256"
            },
            {
              "internalType": "uint256",
              "name": "totalSupply",
              "type": "uint256"
            },
            {
              "internalType": "uint256",
              "name": "overflow",
              "type": "uint256"
            },
            {
              "components": [
                {
                  "internalType": "address",
                  "name": "token",
                  "type": "address"
                },
                {
                  "internalType": "uint256",
                  "name": "value",
                  "type": "uint256"
                },
                {
                  "internalType": "uint256",
                  "name": "decimals",
                  "type": "uint256"
                },
                {
                  "internalType": "uint256",
                  "name": "currency",
                  "type": "uint256"
                }
              ],
              "internalType": "struct JBTokenAmount",
              "name": "reclaimAmount",
              "type": "tuple"
            },
            {
              "internalType": "bool",
              "name": "useTotalOverflow",
              "type": "bool"
            },
            {
              "internalType": "uint256",
              "name": "redemptionRate",
              "type": "uint256"
            },
            {
              "internalType": "string",
              "name": "memo",
              "type": "string"
            },
            {
              "internalType": "bytes",
              "name": "metadata",
              "type": "bytes"
            }
          ],
          "internalType": "struct JBRedeemParamsData",
          "name": "",
          "type": "tuple"
        }
      ],
      "name": "redemptionWeightOf",
      "outputs": [
        {
          "internalType": "uint256",
          "name": "cumulativeWeight",
          "type": "uint256"
        }
      ],
      "stateMutability": "view",
      "type": "function"
    },
    {
      "inputs": [],
      "name": "renounceOwnership",
      "outputs": [],
      "stateMutability": "nonpayable",
      "type": "function"
    },
    {
      "inputs": [
        {
          "internalType": "uint256",
          "name": "_tokenId",
          "type": "uint256"
        },
        {
          "internalType": "uint256",
          "name": "_salePrice",
          "type": "uint256"
        }
      ],
      "name": "royaltyInfo",
      "outputs": [
        {
          "internalType": "address",
          "name": "",
          "type": "address"
        },
        {
          "internalType": "uint256",
          "name": "",
          "type": "uint256"
        }
      ],
      "stateMutability": "view",
      "type": "function"
    },
    {
      "inputs": [
        {
          "internalType": "address",
          "name": "from",
          "type": "address"
        },
        {
          "internalType": "address",
          "name": "to",
          "type": "address"
        },
        {
          "internalType": "uint256",
          "name": "tokenId",
          "type": "uint256"
        }
      ],
      "name": "safeTransferFrom",
      "outputs": [],
      "stateMutability": "nonpayable",
      "type": "function"
    },
    {
      "inputs": [
        {
          "internalType": "address",
          "name": "from",
          "type": "address"
        },
        {
          "internalType": "address",
          "name": "to",
          "type": "address"
        },
        {
          "internalType": "uint256",
          "name": "tokenId",
          "type": "uint256"
        },
        {
          "internalType": "bytes",
          "name": "data",
          "type": "bytes"
        }
      ],
      "name": "safeTransferFrom",
      "outputs": [],
      "stateMutability": "nonpayable",
      "type": "function"
    },
    {
      "inputs": [
        {
          "internalType": "address",
          "name": "operator",
          "type": "address"
        },
        {
          "internalType": "bool",
          "name": "approved",
          "type": "bool"
        }
      ],
      "name": "setApprovalForAll",
      "outputs": [],
      "stateMutability": "nonpayable",
      "type": "function"
    },
    {
      "inputs": [
        {
          "internalType": "string",
          "name": "_baseUri",
          "type": "string"
        }
      ],
      "name": "setBaseUri",
      "outputs": [],
      "stateMutability": "nonpayable",
      "type": "function"
    },
    {
      "inputs": [
        {
          "internalType": "string",
          "name": "_contractUri",
          "type": "string"
        }
      ],
      "name": "setContractUri",
      "outputs": [],
      "stateMutability": "nonpayable",
      "type": "function"
    },
    {
      "inputs": [
        {
          "internalType": "address",
          "name": "_beneficiary",
          "type": "address"
        }
      ],
      "name": "setDefaultReservedTokenBeneficiary",
      "outputs": [],
      "stateMutability": "nonpayable",
      "type": "function"
    },
    {
      "inputs": [
        {
          "internalType": "uint256",
          "name": "_tierId",
          "type": "uint256"
        },
        {
          "internalType": "bytes32",
          "name": "_encodedIPFSUri",
          "type": "bytes32"
        }
      ],
      "name": "setEncodedIPFSUriOf",
      "outputs": [],
      "stateMutability": "nonpayable",
      "type": "function"
    },
    {
      "inputs": [
        {
          "internalType": "address",
          "name": "_delegatee",
          "type": "address"
        },
        {
          "internalType": "uint256",
          "name": "_tierId",
          "type": "uint256"
        }
      ],
      "name": "setTierDelegate",
      "outputs": [],
      "stateMutability": "nonpayable",
      "type": "function"
    },
    {
      "inputs": [
        {
          "components": [
            {
              "internalType": "address",
              "name": "delegatee",
              "type": "address"
            },
            {
              "internalType": "uint256",
              "name": "tierId",
              "type": "uint256"
            }
          ],
          "internalType": "struct JBTiered721SetTierDelegatesData[]",
          "name": "_setTierDelegatesData",
          "type": "tuple[]"
        }
      ],
      "name": "setTierDelegates",
      "outputs": [],
      "stateMutability": "nonpayable",
      "type": "function"
    },
    {
      "inputs": [
        {
          "components": [
            {
              "internalType": "uint256",
              "name": "id",
              "type": "uint256"
            },
            {
              "internalType": "uint256",
              "name": "redemptionWeight",
              "type": "uint256"
            }
          ],
          "internalType": "struct DefifaTierRedemptionWeight[]",
          "name": "_tierWeights",
          "type": "tuple[]"
        }
      ],
      "name": "setTierRedemptionWeights",
      "outputs": [],
      "stateMutability": "nonpayable",
      "type": "function"
    },
    {
      "inputs": [
        {
          "internalType": "contract IJBTokenUriResolver",
          "name": "_tokenUriResolver",
          "type": "address"
        }
      ],
      "name": "setTokenUriResolver",
      "outputs": [],
      "stateMutability": "nonpayable",
      "type": "function"
    },
    {
      "inputs": [],
      "name": "store",
      "outputs": [
        {
          "internalType": "contract IJBTiered721DelegateStore",
          "name": "",
          "type": "address"
        }
      ],
      "stateMutability": "view",
      "type": "function"
    },
    {
      "inputs": [
        {
          "internalType": "bytes4",
          "name": "_interfaceId",
          "type": "bytes4"
        }
      ],
      "name": "supportsInterface",
      "outputs": [
        {
          "internalType": "bool",
          "name": "",
          "type": "bool"
        }
      ],
      "stateMutability": "view",
      "type": "function"
    },
    {
      "inputs": [],
      "name": "symbol",
      "outputs": [
        {
          "internalType": "string",
          "name": "",
          "type": "string"
        }
      ],
      "stateMutability": "view",
      "type": "function"
    },
    {
      "inputs": [],
      "name": "tierRedemptionWeights",
      "outputs": [
        {
          "internalType": "uint256[128]",
          "name": "",
          "type": "uint256[128]"
        }
      ],
      "stateMutability": "view",
      "type": "function"
    },
    {
      "inputs": [
        {
          "internalType": "uint256",
          "name": "_tokenId",
          "type": "uint256"
        }
      ],
      "name": "tokenURI",
      "outputs": [
        {
          "internalType": "string",
          "name": "",
          "type": "string"
        }
      ],
      "stateMutability": "view",
      "type": "function"
    },
    {
      "inputs": [
        {
          "components": [
            {
              "internalType": "contract IJBPaymentTerminal",
              "name": "terminal",
              "type": "address"
            },
            {
              "internalType": "address",
              "name": "holder",
              "type": "address"
            },
            {
              "internalType": "uint256",
              "name": "projectId",
              "type": "uint256"
            },
            {
              "internalType": "uint256",
              "name": "currentFundingCycleConfiguration",
              "type": "uint256"
            },
            {
              "internalType": "uint256",
              "name": "tokenCount",
              "type": "uint256"
            },
            {
              "internalType": "uint256",
              "name": "totalSupply",
              "type": "uint256"
            },
            {
              "internalType": "uint256",
              "name": "overflow",
              "type": "uint256"
            },
            {
              "components": [
                {
                  "internalType": "address",
                  "name": "token",
                  "type": "address"
                },
                {
                  "internalType": "uint256",
                  "name": "value",
                  "type": "uint256"
                },
                {
                  "internalType": "uint256",
                  "name": "decimals",
                  "type": "uint256"
                },
                {
                  "internalType": "uint256",
                  "name": "currency",
                  "type": "uint256"
                }
              ],
              "internalType": "struct JBTokenAmount",
              "name": "reclaimAmount",
              "type": "tuple"
            },
            {
              "internalType": "bool",
              "name": "useTotalOverflow",
              "type": "bool"
            },
            {
              "internalType": "uint256",
              "name": "redemptionRate",
              "type": "uint256"
            },
            {
              "internalType": "string",
              "name": "memo",
              "type": "string"
            },
            {
              "internalType": "bytes",
              "name": "metadata",
              "type": "bytes"
            }
          ],
          "internalType": "struct JBRedeemParamsData",
          "name": "",
          "type": "tuple"
        }
      ],
      "name": "totalRedemptionWeight",
      "outputs": [
        {
          "internalType": "uint256",
          "name": "",
          "type": "uint256"
        }
      ],
      "stateMutability": "view",
      "type": "function"
    },
    {
      "inputs": [
        {
          "internalType": "address",
          "name": "from",
          "type": "address"
        },
        {
          "internalType": "address",
          "name": "to",
          "type": "address"
        },
        {
          "internalType": "uint256",
          "name": "tokenId",
          "type": "uint256"
        }
      ],
      "name": "transferFrom",
      "outputs": [],
      "stateMutability": "nonpayable",
      "type": "function"
    },
    {
      "inputs": [
        {
          "internalType": "address",
          "name": "newOwner",
          "type": "address"
        }
      ],
      "name": "transferOwnership",
      "outputs": [],
      "stateMutability": "nonpayable",
      "type": "function"
    }
  ],
  "bytecode": {
    "object": "0x608080604052346100665760078054336001600160a01b03198083168217909355906001600160a01b03167f8be0079c531659141344cd1fd0a4f28419497f9722a3daafe3b4186f6b6457e0600080a33090600854161760085561598b90816200006c8239f35b600080fdfe608080604052600436101561001357600080fd5b600090813560e01c90816301ffc9a714612cf35750806306fdde0314612c4f578063081812fc14612c30578063095ea7b314612b635780631d153ca414612b3a57806323b872dd14612b005780632407497e14612a5c578063245a45b514612a2357806325eb91ee146127e55780632a55205a1461271b5780632a596e53146126975780632b13c58f14611f5b5780632f44150014611ce957806336c1a93b14611c425780633fafa12714611c2457806342842e0e14611bfc5780634ecba62514611bde578063525350ba14611b3157806354c6d1f514611b12578063557e715514611ae95780636352211e14611ab8578063640abacd14611a9957806364640c1e14611a7b5780636ac6d94114611a2a57806370a082311461198c578063715018a61461192e5780637ba62bf9146118d657806382732b6d146118905780638da5cb5b146118675780639494bf721461184957806394c5c5ca1461182057806395d89b4114611751578063975057e7146117285780639df45468146116a3578063a0bcfc7f146115f1578063a22cb46514611552578063a51cfd18146114d3578063aa4fb15b146114bb578063ab951e3914611494578063b88d4fde14611434578063c41c2f241461140b578063c74b13d9146112f2578063c87b56dd146112be578063ca323efe1461127b578063ccb4807b146111c9578063d1704baf1461077a578063d31cc52c14610755578063d3419bf31461072c578063d40e7146146106dd578063d46cf171146105b5578063da9ee8b7146104ae578063df487e26146103fb578063e8a3d48514610365578063e985e9c5146103115763f2fde38b1461027e57600080fd5b3461030e57602036600319011261030e57610297612e51565b61029f615441565b6001600160a01b038116156102ba576102b790615499565b80f35b60405162461bcd60e51b815260206004820152602660248201527f4f776e61626c653a206e6577206f776e657220697320746865207a65726f206160448201526564647265737360d01b6064820152608490fd5b80fd5b503461030e57604036600319011261030e5761032b612e51565b6040610335612e67565b9260018060a01b0380931681526004602052209116600052602052602060ff604060002054166040519015158152f35b503461030e578060031936011261030e57600954604051630155619b60e71b8152306004820152908290829060249082906001600160a01b03165afa9081156103f057826103c993926103cd575b5050604051918291602083526020830190612e2c565b0390f35b6103e992503d8091833e6103e1818361300b565b810190613b7b565b38806103b3565b6040513d84823e3d90fd5b503461030e57602036600319011261030e57610415612e51565b61041d615441565b6009546001600160a01b0390811691839190833b156104aa5782916024839260405194859384926317161f7d60e01b845216978860048401525af180156103f057610492575b50507fab0014d4c7a642a02a31b303a318908c22b0fb2001f107278fc6076b4c671b656020604051338152a280f35b61049b90612f3e565b6104a6578138610463565b5080fd5b8280fd5b506003196020368201126104a657600435906001600160401b0382116104aa576102009082360301126104a657600554341590811591610522575b8115610513575b50610501576102b790600401614c2d565b6040516331c57b1b60e21b8152600490fd5b905060248201351415386104f0565b600654604051636e49181f60e01b815260048101839052336024820152919250602090829060449082906001600160a01b03165afa9081156105aa57849161056d575b5015906104e9565b90506020813d82116105a2575b816105876020938361300b565b8101031261059e5761059890613378565b38610565565b8380fd5b3d915061057a565b6040513d86823e3d90fd5b503461030e57600319602036820181136104aa57600435916001600160401b03831161059e576101a09083360301126104aa57916106046105fd610164840184600401613233565b3691613185565b906040519361061285612f67565b600192838652825b8281106106b357506106699060405161063281612f67565b308152848482015261064388613265565b5261064d87613265565b5061012460405196013586526060838701526060860190612e2c565b9084820360408601528080875193848152019601925b82811061068c5785870386f35b835180516001600160a01b031688528201518288015260409096019592810192840161067f565b82906040979597516106c481612f67565b600081526000838201528282880101520195939561061a565b503461030e57606036600319011261030e57602090610724906001600160a01b03610706612e51565b16815260108352604081206024358252835260406044359120615539565b604051908152f35b503461030e578060031936011261030e57600b546040516001600160a01b039091168152602090f35b503461030e57610724602091604061076c36612ef6565b929081526011855220615539565b503461030e57600319906101c03683011261030e576024356001600160a01b03811681036104a6576044356001600160401b0381116104aa576107c19036906004016131bc565b926064356001600160401b03811161059e576107e19036906004016131bc565b91608435916001600160a01b0383168303610e245760a4356001600160401b038111610ea1576108159036906004016131bc565b60c435926001600160a01b038416840361109b5760e4356001600160401b0381116110a4576108489036906004016131bc565b926001600160401b0361010435116110a45760809061010435360301126111c5576040519461087686612f82565b61010435600401356001600160401b0381116110a0573660238261010435010112156110a05760048161010435010135906108b08261302c565b916108be604051938461300b565b80835260208301913660246101c084028361010435010101116111c157602481610104350101925b60246101c08402836101043501010184106110a85750505090875250610104356024810135602088015260448101356040880152606401356001600160a01b03811690036110a4576101043560640135606087015261012435966001600160a01b03881688036110a0576080366101431901126110a0576040519961096a8b612f82565b61014435801515810361109b578b52610164351515610164350361109b576101643560208c0152610184351515610184350361109b576101843560408c01526101a43515156101a4350361109b576101a43560608c01526008546001600160a01b03163014611097576009546001600160a01b0316611097578051906001600160401b038211611083578190610a008c5461432f565b601f8111611036575b50602090601f8311600114610fb0578c92610fa5575b50508160011b916000199060031b1c19161789555b8051906001600160401b038211610f91578190610a5260015461432f565b601f8111610f38575b50602090601f8311600114610eb0578b92610ea5575b50508160011b916000199060031b1c1916176001555b600435600555600680546001600160a01b03199081166001600160a01b0394851617909155600a80548216928416929092179091556009805482168884161790556020860151600c556040860151600d556060860151600b805490921692169190911790558051610e28575b508051610dab575b506001600160a01b038116610d46575b5051928351610bed575b829350805115801590610be0575b8015610bd3575b8015610bc6575b610b40575b826102b733615499565b6001600160a01b0382163b15610bc2576060608484928360405195869485936365c13f1960e11b855280511515600486015260208101511515602486015260408101511515604486015201511515606484015260018060a01b03165af180156103f057610bae575b80610b36565b610bb790612f3e565b61030e578038610ba8565b5050fd5b5060608101511515610b31565b5060408101511515610b2a565b5060208101511515610b23565b60405163229dad5f60e11b815260248101602060048301528551809152602060448301960190855b818110610c6557505050838180829703818360018060a01b0388165af180156105aa57610c43575b50610b15565b610c5e903d8086833e610c56818361300b565b810190613e3b565b5038610c3d565b90919660206101c06001928a5169ffffffffffffffffffff815116825265ffffffffffff84820151168483015264ffffffffff604082015116604083015261ffff806060830151166060840152608082015116608083015260a0858060a01b0381830151169083015260ff60c081818401511690840152858060a01b0360e08301511660e08401526101008083015190840152610120908183015116908301526101408082015115159083015261016080820151151590830152610180808201511515908301526101a0809101511515908201520198019101919091610c15565b6001600160a01b0383163b1561059e5760405163036129cb60e61b81526001600160a01b03918216600482015290849082906024908290849088165af180156105aa57908491610d97575b50610b0b565b610da090612f3e565b6104aa578238610d91565b6001600160a01b0384163b15610e245784610de2916040518093819263d67b78fd60e01b8352602060048401526024830190612e2c565b0381836001600160a01b0389165af18015610e1957908591610e05575b50610afb565b610e0e90612f3e565b61059e578338610dff565b6040513d87823e3d90fd5b8480fd5b6001600160a01b0385163b15610ea15785610e5f91604051809381926331315e5960e11b8352602060048401526024830190612e2c565b0381836001600160a01b038a165af18015610e9657908691610e82575b50610af3565b610e8b90612f3e565b610e24578438610e7c565b6040513d88823e3d90fd5b8580fd5b015190503880610a71565b925060018b527fb10e2d527612073b26eecdfd717e6a320cf44b4afac2b0732d9fcbe2b7fa0cf6908b935b601f1984168510610f1d576001945083601f19811610610f04575b505050811b01600155610a87565b015160001960f88460031b161c19169055388080610ef6565b81810151835560209485019460019093019290910190610edb565b610f819060018d527fb10e2d527612073b26eecdfd717e6a320cf44b4afac2b0732d9fcbe2b7fa0cf6601f850160051c81019160208610610f87575b601f0160051c01906138be565b38610a5b565b9091508190610f74565b634e487b7160e01b8a52604160045260248afd5b015190503880610a1f565b92508b80527f290decd9548b62a8d60345a988386fc84ba6bc95484008f6362f93160ef3e563908c935b601f198416851061101b576001945083601f19811610611002575b505050811b018955610a34565b015160001960f88460031b161c19169055388080610ff5565b81810151835560209485019460019093019290910190610fda565b61107d908d80527f290decd9548b62a8d60345a988386fc84ba6bc95484008f6362f93160ef3e563601f850160051c81019160208610610f8757601f0160051c01906138be565b38610a09565b634e487b7160e01b8b52604160045260248bfd5b8980fd5b600080fd5b8880fd5b8780fd5b6101c0843603126111bd57906101c08060206024946040516110c981612f9d565b6110d2896131da565b81526110df838a016131f1565b838201526110ef60408a01613204565b60408201526060611101818b01613216565b9082015261111160808a01613216565b608082015260a0611123818b01612e7d565b9082015260c0611134818b01613225565b9082015261114460e08a01612e7d565b60e0820152610100808a013590820152610120611162818b01613225565b90820152610140611174818b0161315d565b90820152610160611186818b0161315d565b90820152610180611198818b0161315d565b908201526101a06111aa818b0161315d565b90820152815201950194919250506108e6565b8c80fd5b8b80fd5b8680fd5b503461030e576111d836613114565b906111e1615441565b60095483906001600160a01b0316803b156104a65781604051809263d67b78fd60e01b82528183816112178a8a60048401613f92565b03925af180156103f057611267575b50508160405192839283378101600081520390207fd36dc0c1a06103fdcaf15f3f6fb797d1a97997514c78de073640c8b5005454b86020604051338152a280f35b61127090612f3e565b6104aa578238611226565b503461030e57604036600319011261030e57602090610724906040906001600160a01b036112a7612e51565b1681526010845281812060243582528452206154fa565b503461030e57602036600319011261030e576103c96112de600435613bd9565b604051918291602083526020830190612e2c565b503461030e576020806003193601126104a6576004356001600160401b0381116104aa57366023820112156104aa578060040135906113308261302c565b9161133e604051938461300b565b80835260248484019160061b83010191368311610ea157602401905b8282106113d45750505080519060008360405161137681612f67565b8281520152835b828110611388578480f35b6113928183613288565b5180519091906001600160a01b03908116156113c2578251928601516001936113bc9216336138e9565b0161137d565b6040516314f4c13d60e21b8152600490fd5b604082360312610ea1578460409182516113ed81612f67565b6113f685612e7d565b8152828501358382015281520191019061135a565b503461030e578060031936011261030e576006546040516001600160a01b039091168152602090f35b503461030e57608036600319011261030e5761144e612e51565b611456612e67565b606435916001600160401b03831161059e573660238401121561059e5761148a6102b7933690602481600401359101613185565b91604435916143a1565b503461030e57604036600319011261030e576102b76114b1612e51565b60243590336138e9565b503461030e576102b76114cd36612ef6565b90613fba565b503461030e576114ea6114e536612f0c565b61346c565b906040519283526115076020916060838601526060850190612e2c565b9083820360408501528080845193848152019301945b82811061152a5784840385f35b855180516001600160a01b03168552820151848301529481019460409093019260010161151d565b503461030e57604036600319011261030e5761156c612e51565b6024359081151580920361109b576001600160a01b0316903382146115df5733835260046020526040832082600052602052604060002060ff1981541660ff83161790556040519081527f17307eab39ab6107e8899845ad3d59bd9653f200f220920489ca2b5937696c3160203392a380f35b6040516306f8139d60e11b8152600490fd5b503461030e5761160036613114565b90611609615441565b60095483906001600160a01b0316803b156104a6578160405180926331315e5960e11b825281838161163f8a8a60048401613f92565b03925af180156103f05761168f575b50508160405192839283378101600081520390207f7bc9110d5de090dd59e07912d2b93a5a27ac70a60c8d8e324db4f9ee8b8b5c136020604051338152a280f35b61169890612f3e565b6104aa57823861164e565b503461030e578060031936011261030e57604051906116c182612fd4565b611000809236903760405190601281835b6080821061171257505050906116e781612fd4565b6040519190825b608083106116fb57505050f35b6001908251815260208091019201920191906116ee565b60016020819285548152019301910190916116d2565b503461030e578060031936011261030e576009546040516001600160a01b039091168152602090f35b503461030e578060031936011261030e57604051908060018054916117758361432f565b808652928281169081156117f6575060011461179c575b6103c9856112de8187038261300b565b92508083527fb10e2d527612073b26eecdfd717e6a320cf44b4afac2b0732d9fcbe2b7fa0cf65b8284106117de5750505081016020016112de826103c961178c565b805460208587018101919091529093019281016117c3565b8695506103c9969350602092506112de94915060ff191682840152151560051b820101929361178c565b503461030e57602036600319011261030e576107246040602092600435815260118452206154fa565b503461030e5761185836612f0c565b506020604051633b9aca008152f35b503461030e578060031936011261030e576007546040516001600160a01b039091168152602090f35b503461030e57604036600319011261030e576020906001600160a01b0390604090826118ba612e51565b168152600f845281812060243582528452205416604051908152f35b503461030e576003199060403683011261030e576001600160401b03916004358381116104aa5761190b9036906004016130b6565b926024359081116104aa57906101e0913603011261030e57602061072483613717565b503461030e578060031936011261030e57611947615441565b600780546001600160a01b031981169091556000906001600160a01b03167f8be0079c531659141344cd1fd0a4f28419497f9722a3daafe3b4186f6b6457e08280a380f35b503461030e576020908160031936011261030e576119a8612e51565b600954604051633de222bb60e21b81523060048201526001600160a01b03928316602482015291849183916044918391165afa918215611a1e57916119f1575b50604051908152f35b90508181813d8311611a17575b611a08818361300b565b8101031261109b5751386119e8565b503d6119fe565b604051903d90823e3d90fd5b503461030e57604036600319011261030e57600435906001600160401b03821161030e576103c9611a6f611a613660048601612ec6565b611a69612e67565b9161418b565b6040519182918261307b565b503461030e578060031936011261030e576020600c54604051908152f35b503461030e578060031936011261030e576020604051633b9aca008152f35b503461030e57602036600319011261030e576020611ad76004356142fc565b6040516001600160a01b039091168152f35b503461030e578060031936011261030e57600a546040516001600160a01b039091168152602090f35b503461030e57602036600319011261030e576020611ad7600435613add565b503461030e57604036600319011261030e57600435602435611b51615441565b60095483906001600160a01b0316803b156104a6578180916044604051809481936324de8d6360e11b83528960048401528860248401525af180156103f057611bca575b505060407f677da4fed654db8e604791fa2582f342e2001aa217e27f6985eb3e0f67e5a7fc918151908152336020820152a280f35b611bd390612f3e565b6104aa578238611b95565b503461030e578060031936011261030e576020600d54604051908152f35b503461030e576102b7611c0e36612e91565b9060405192611c1c84612fb9565b8584526143a1565b503461030e578060031936011261030e576020600554604051908152f35b503461030e576020806003193601126104a6576001600160401b0360043581811161059e57611c75903690600401612ec6565b919092611c80615441565b845b838110611c8d578580f35b60059080821b860135603e19873603018112156110a45786018035601e19823603018112156110a0578101928335938685116110975785859101911b360381136110a057600193611a6986611ce294016138d5565b5001611c82565b503461030e576020908160031936011261030e57600435916001600160401b0383116104a657366023840112156104a657826004013590611d298261302c565b93611d37604051958661300b565b8285528185016024809460061b83010191368311610ea1578401905b83838310611f435750505050611d67615441565b60018060a01b039384600a54166005546040519182916321d1336160e11b8352600483015281866101209485935afa918215610e965790600492918792611f16575b50505110611f045760125b60928110611ef8575081839495600954166040519485809263f1bea54f60e01b82523060048301525afa928315610e19578593611ec9575b50919290849280519286955b848710611e205787633b9aca008711611e0e5780f35b604051636ff44e9760e01b8152600490fd5b909192939481611e308886613288565b515111611eb75784611e428886613288565b510151611e4f8886613288565b51516000198101818111611ea45760801115611e915760110155600190611e849086611e7b8a88613288565b51015190613449565b9601959493929190611df8565b634e487b7160e01b8a526032600452848afd5b634e487b7160e01b8b526011600452858bfd5b60405163148e14dd60e21b8152600490fd5b9092508181813d8311611ef1575b611ee1818361300b565b8101031261109b57519138611dec565b503d611ed7565b60008155600101611db4565b6040516303e08a3560e61b8152600490fd5b611f359250803d10611f3c575b611f2d818361300b565b8101906132d4565b3880611da9565b503d611f23565b604091611f503685613043565b815201910190611d53565b50611f6536612f0c565b3415801590612611575b8015612601575b6125ef576101c081016024611f8b8284613233565b90501080156125c0575b6125ae57611fa6611fae9183613233565b81019061329c565b8051600a546005546040516321d1336160e11b8152600481019190915291945086935061012090829060249082906001600160a01b03165afa80156125a3576004918491612582575b5051869594911492505b80861061208757506009548491906001600160a01b0316803b156104aa576040516386bc2be360e01b81529183918391829084908290612044906004830161307b565b03925af180156103f057612073575b505061205d575080f35b60a061206d910135609254613449565b60925580f35b61207c90612f3e565b6104aa578284612053565b6120918683613288565b51808652600260205260408620549096906001600160a01b03908116906120b7876138d5565b1603612570576120c6876142fc565b966001600160a01b0388166123c4575b6120df81614abf565b80875260026020526040872080546001600160a01b031916905580876001600160a01b038a167fddf252ad1be2c89b69c2b068fc378daa952ba7f163c4a11628f55a4df523b3ef8280a460095460405163b67cb04760e01b815230600482015260248101839052600099918a906001600160a01b03166101c083604481845afa9283156103f0578293612391575b50825190803b156104aa576064839260405194859384926330b157e560e21b8452600484015260018060a01b03891660248401528160448401525af18015612386579188999a9b92918c999492612373575b5060a08101908151612272575b505050506121e4575b50600101955093929193612001565b6009546040516342f9914b60e01b81526004810192909252602090829060249082906001600160a01b03165afa908115610e1957859161223a575b508452609360205260408420805460019081019091556121d5565b919450506020813d60201161226a575b816122576020938361300b565b8101031261109b5751869390600161221f565b3d915061224a565b83806123059552600f9182602052604082208151835260205260018060a01b036040832054161561232a575b519251936001600160a01b0381161561230e575b83825260116020526122c78560408420615607565b50506001600160a01b0390811682526020838152604080842086855282528084205484805294825280842086855290915290912054811691166139db565b388080806121cc565b83825260116020526123238560408420615789565b50506122b2565b8180526020838152604080842083518552909152822080546001600160a01b0319166001600160a01b0384161790558180806000805160206159368339815191528180a461229e565b61237f90939193612f3e565b91386121bf565b6040513d8d823e3d90fd5b6123b69193506101c03d6101c0116123bd575b6123ae818361300b565b810190613385565b913861216d565b503d6123a4565b60095460405163b67cb04760e01b8152306004820152602481018390526001600160a01b03909116906101c081604481855afa80156124ac576101a09160009161254f575b5001516124f2575b6040516308ed6c0160e41b815230600482015260248101839052602081604481855afa9081156124ac576000916124b8575b506001600160a01b031615612459575b506120d6565b803b1561109b57604051638cec7d3960e01b8152600481018390526001600160a01b038a166024820152906000908290604490829084905af180156124ac5715612453576124a690612f3e565b38612453565b6040513d6000823e3d90fd5b906020823d6020116124ea575b816124d26020938361300b565b8101031261030e57506124e490613364565b38612443565b3d91506124c5565b60018060a01b03600a54166101206005546024604051809481936321d1336160e11b835260048301525afa80156124ac5761252e575b50612411565b612548906101203d61012011611f3c57611f2d818361300b565b5038612528565b61256a91506101c03d6101c0116123bd576123ae818361300b565b38612409565b60405163075fd2b160e01b8152600490fd5b61259d91506101203d61012011611f3c57611f2d818361300b565b38611ff7565b6040513d85823e3d90fd5b604051632a84050f60e01b8152600490fd5b506125cb8183613233565b60241161059e57602001356001600160e01b03191663b3bcbb7960e01b1415611f95565b604051633efca5c360e11b8152600490fd5b5060055460208201351415611f76565b50600654600554604051636e49181f60e01b8152600481019190915233602482015290602090829060449082906001600160a01b03165afa9081156125a357839161265e575b5015611f6f565b90506020813d821161268f575b816126786020938361300b565b810103126104aa5761268990613378565b38612657565b3d915061266b565b503461030e576020806003193601126104a6576001600160401b039060043582811161059e573660238201121561059e57806004013592831161059e576024600691368286851b83010111610ea157855b8581106126f3578680f35b600190612715612709368684891b870101613043565b87815191015190613fba565b016126e8565b503461030e5760409061272d36612ef6565b60095484516329c5eaf560e11b815230600482015260248101939093526044830191909152909290839060649082906001600160a01b03165afa9182156127d857818093612794575b5050604080516001600160a01b039290921682526020820192909252f35b915091506040823d6040116127d0575b816127b16040938361300b565b8101031261030e575060206127c582613364565b910151903880612776565b3d91506127a4565b50604051903d90823e3d90fd5b503461030e57604036600319011261030e576001600160401b036004358181116104aa57366023820112156104aa5780600401359180831161059e576024906101c090368383870286010111610ea1578235908111610ea15761284c903690600401612ec6565b612854615441565b80612959575b505083612865578480f35b60095460405163229dad5f60e11b81526020600482015283810186905290869082906001600160a01b031660448201878701845b878b8210612935575050508383809203925af1908115610e9657869161291b575b50855b8581106128ca5750508480f35b806128d760019284613288565b517f8aa4a03deb8db10032373886aa0376c918ccf36bcdb59ca4da2a807ac7ff1a046101e060405161290f818a8a88028d0101613e70565b3388820152a2016128bd565b61292f91503d8088833e610c56818361300b565b386128ba565b919450929450808261294960019487613e70565b0193019101918993918593612899565b6009546001600160a01b031690813b156110a4576040516320512ba160e01b8152602060048201819052868201839052928991906001600160fb1b0384116104aa5781839181836044828960051b808d8484013781010301925af180156103f057612a0f575b5050875b8181106129d157505061285a565b806129df6001928487613e60565b357f832d89d991be5351d793c20faf4b7dd44f8aa9ce39e3cb160c6317de6fbba72985604051338152a2016129c3565b612a1890612f3e565b6110a45787386129bf565b503461030e57602036600319011261030e576020906040906001600160a01b03612a4b612e51565b168152600e83522054604051908152f35b503461030e57602036600319011261030e57612a76612e51565b90612a7f615441565b6009546001600160a01b0390811692833b156104aa57829160248392604051948593849263036129cb60e61b845216978860048401525af180156103f057612af1575b50907fe7784d93cfbfa4408e19577e6cc0436f4dbb51214b70e100905dfce9def88c166020604051338152a280f35b612afa90612f3e565b38612ac2565b503461030e57612b0f36612e91565b90612b1a82336143e0565b15612b28576102b792614683565b60405163e5fa0e3560e01b8152600490fd5b503461030e578060031936011261030e576008546040516001600160a01b039091168152602090f35b503461030e57604036600319011261030e57612b7d612e51565b602435906001600160a01b038080612b94856142fc565b16921691808314612c1e57803314159081612bfc575b50612b285782845260036020526040842080546001600160a01b03191683179055612bd4836142fc565b167f8c5be1e5ebec7d5bd14f71427d1e84f3dd0314c0f7b2291e5b200ac8c7c3b9258480a480f35b9050845260046020526040842033855260205260ff6040852054161538612baa565b60405163133f8be960e01b8152600490fd5b503461030e57602036600319011261030e576020611ad7600435614369565b503461030e578060031936011261030e5760405190808054612c708161432f565b808552916001918083169081156117f65750600114612c99576103c9856112de8187038261300b565b80809450527f290decd9548b62a8d60345a988386fc84ba6bc95484008f6362f93160ef3e5635b828410612cdb5750505081016020016112de826103c961178c565b80546020858701810191909152909301928101612cc0565b9050346104a65760203660031901126104a65760043563ffffffff60e01b81168091036104aa57602092506306decc2d60e21b8114908115612d37575b5015158152f35b63b3bcbb7960e01b811491508115612de3575b8115612dd2575b8115612dc1575b8115612db0575b8115612d6d575b5038612d30565b6380ac58cd60e01b811491508115612d9f575b8115612d8e575b5038612d66565b6301ffc9a760e01b14905038612d87565b635b5e139f60e01b81149150612d80565b63152a902d60e11b81149150612d5f565b632b13c58f60e01b81149150612d58565b63da9ee8b760e01b81149150612d51565b6371700c6960e01b81149150612d4a565b35906001600160e01b03198216820361109b57565b60005b838110612e1c5750506000910152565b8181015183820152602001612e0c565b90602091612e4581518092818552858086019101612e09565b601f01601f1916010190565b600435906001600160a01b038216820361109b57565b602435906001600160a01b038216820361109b57565b35906001600160a01b038216820361109b57565b606090600319011261109b576001600160a01b0390600435828116810361109b5791602435908116810361109b579060443590565b9181601f8401121561109b578235916001600160401b03831161109b576020808501948460051b01011161109b57565b604090600319011261109b576004359060243590565b6003199060208183011261109b57600435916001600160401b03831161109b57826101e09203011261109b5760040190565b6001600160401b038111612f5157604052565b634e487b7160e01b600052604160045260246000fd5b604081019081106001600160401b03821117612f5157604052565b608081019081106001600160401b03821117612f5157604052565b6101c081019081106001600160401b03821117612f5157604052565b602081019081106001600160401b03821117612f5157604052565b61100081019081106001600160401b03821117612f5157604052565b606081019081106001600160401b03821117612f5157604052565b90601f801991011681019081106001600160401b03821117612f5157604052565b6001600160401b038111612f515760051b60200190565b919082604091031261109b57604051604081018181106001600160401b03821117612f51576040526020808294803584520135910152565b6020908160408183019282815285518094520193019160005b8281106130a2575050505090565b835185529381019392810192600101613094565b81601f8201121561109b578035916130cd8361302c565b926130db604051948561300b565b808452602092838086019260051b82010192831161109b578301905b828210613105575050505090565b813581529083019083016130f7565b90602060031983011261109b576004356001600160401b039283821161109b578060238301121561109b57816004013593841161109b576024848301011161109b576024019190565b3590811515820361109b57565b6001600160401b038111612f5157601f01601f191660200190565b9291926131918261316a565b9161319f604051938461300b565b82948184528183011161109b578281602093846000960137010152565b9080601f8301121561109b578160206131d793359101613185565b90565b359069ffffffffffffffffffff8216820361109b57565b359065ffffffffffff8216820361109b57565b359064ffffffffff8216820361109b57565b359061ffff8216820361109b57565b359060ff8216820361109b57565b903590601e198136030182121561109b57018035906001600160401b03821161109b5760200191813603831361109b57565b8051156132725760200190565b634e487b7160e01b600052603260045260246000fd5b80518210156132725760209160051b010190565b9160608383031261109b578235926132b660208201612df4565b9260408201356001600160401b03811161109b576131d792016130b6565b8091610120928391031261109b576040519182018281106001600160401b03821117612f5157604052805182526020810151602083015260408101516040830152606081015160608301526080810151608083015260a081015160a083015260c081015160c083015260e081015160018060a01b038116810361109b5760e0830152610100809101519082015290565b51906001600160a01b038216820361109b57565b5190811515820361109b57565b90816101c091031261109b576040519061339e82612f9d565b805182526020810151602083015260408101516040830152606081015160608301526080810151608083015260a081015160a083015260c081015160c08301526133ea60e08201613364565b60e08301526101008082015190830152610120613408818301613364565b9083015261014080820151908301526101608082015190830152610180613430818301613378565b908301526134426101a0809201613378565b9082015290565b9190820180921161345657565b634e487b7160e01b600052601160045260246000fd5b60009060009060808101356136d8576101c080820191602461348e8483613233565b90501080156136a9575b6125ae576040958651926134ab84612f67565b600196878552865b6020808210156134df578a51602092916134cc82612f67565b8a82528a818301528289010152016134b3565b505093929796919590948397613522611fa68251936134fd85612f67565b308552602094868682015261351189613265565b5261351b88613265565b508c613233565b9891505060018060a01b03938b85600a5416845180916321d1336160e11b8252866004940135848301528160246101209485935afa91821561369f57908992918592613682575b505051146135b3575050505050505050506105fd6135a36135af9261359d61359760925460c08a0135613449565b91613717565b90615806565b946101a0810190613233565b9190565b9091929394979b988096979b505195829860095416905b878a106135ed57505050505050505050506105fd816101a06135af930190613233565b9091929394959697989c61362f868f6136069085613288565b51895163b67cb04760e01b81523088820190815260208101929092529283918291604090910190565b0381875afa908115613678578b92918a91889161365b575b500151019d019897969594939291906135ca565b6136729150893d8b116123bd576123ae818361300b565b38613647565b88513d88823e3d90fd5b6136989250803d10611f3c57611f2d818361300b565b3880613569565b86513d86823e3d90fd5b506136b48382613233565b602411610e2457602001356001600160e01b03191663b3bcbb7960e01b1415613498565b6040516309f82f1b60e31b8152600490fd5b9190820391821161345657565b8115613701570490565b634e487b7160e01b600052601260045260246000fd5b906000916000815190809260018060a01b0360095416905b838510613755575050505050811561374357565b604051637691472960e01b8152600490fd5b90919293956137648783613288565b5160408051906342f9914b60e01b82526004928383015260206024818482818b5afa9384156138b4578994613885575b508251633a39e4d160e11b815230868201908152602081018690526101c092919083908290819060400103818d5afa92831561387b578b9361385c575b505060001985019585871161384b5760808097101561383a5750508361382993609361382f9794613816613823956060601160019d9b015498820151910151906136ea565b938d52528a205490613449565b906136f7565b90613449565b96019392919061372f565b634e487b7160e01b8b526032905289fd5b634e487b7160e01b8b526011905289fd5b613873929350803d106123bd576123ae818361300b565b9038806137d1565b85513d8d823e3d90fd5b9093508181813d83116138ad575b61389d818361300b565b810103126110a057519238613794565b503d613893565b83513d8b823e3d90fd5b8181106138c9575050565b600081556001016138be565b356001600160a01b038116810361109b5790565b929160018060a01b0380941691600094838652602093600f855260409485882085895281528060008051602061593683398151915260648a85878b8320541697818352600f86528b83208b845286528b8320818b1690816001600160601b0360a01b825416179055898d51998a97868997a460095416906305c9a1d560e31b835230600484015260248301528960448301525afa9586156139d25750879561399b575b50506139999495506139db565b565b9080929550813d83116139cb575b6139b3818361300b565b81010312610ea157613999949550519285943861398c565b503d6139a9565b513d89823e3d90fd5b91926001600160a01b03918216929091168083148015613ad5575b613acf57808491613a6c575b505081613a0e57505050565b613a527fed0c1e94c302bdbbd8bbd6a4fb7c3ed335c2292407cd816eadd075d019d0ce04918360005260106020526040600020856000526020526040600020615789565b6040805192835260208301919091523390820152606090a3565b8060005260106020526040600020826000526020527fed0c1e94c302bdbbd8bbd6a4fb7c3ed335c2292407cd816eadd075d019d0ce04613ab0846040600020615607565b6040805192835260208301919091523390820152606090a38238613a02565b50505050565b5081156139f6565b6009546040516308ed6c0160e41b8152306004820152602481018390526001600160a01b0392916020908290604490829087165afa9081156124ac57600091613b42575b50828116613b3c575060005260026020526040600020541690565b91505090565b906020823d8211613b73575b81613b5b6020938361300b565b8101031261030e5750613b6d90613364565b38613b21565b3d9150613b4e565b60208183031261109b578051906001600160401b03821161109b570181601f8201121561109b578051613bad8161316a565b92613bbb604051948561300b565b8184526020828401011161109b576131d79160208085019101612e09565b60095460408051630fab094760e01b815230600482015290926020926001600160a01b03908116928481602481875afa908115613dd257600091613d9c575b501680613d4d5750835163f682eeaf60e01b815230600482015290600082602481865afa918215613d4257908491600093613d25575b508551630c8df17160e41b81523060048201526024810191909152919282908180604481015b03915afa908115613d1a57600091613ceb575b5090613cb46131d79392855190609160f51b85830152602282015260228152613caf81612ff0565b6151e4565b93519381613ccb8693518092868087019101612e09565b8201613cdf82518093868085019101612e09565b0103808452018261300b565b908382813d8311613d13575b613d01818361300b565b8101031261030e575051613cb4613c87565b503d613cf7565b84513d6000823e3d90fd5b613d3c90613c74943d8091833e6103e1818361300b565b92613c4e565b85513d6000823e3d90fd5b9250600091506024845180948193636d02a25560e11b835260048301525afa918215613d925750600091613d7f575090565b6131d7913d8091833e6103e1818361300b565b513d6000823e3d90fd5b8581813d8311613dcb575b613db1818361300b565b810103126104a6575190828216820361030e575038613c18565b503d613da7565b86513d6000823e3d90fd5b81601f8201121561109b57805191613df48361302c565b92613e02604051948561300b565b808452602092838086019260051b82010192831161109b578301905b828210613e2c575050505090565b81518152908301908301613e1e565b9060208282031261109b5781516001600160401b03811161109b576131d79201613ddd565b91908110156132725760051b0190565b69ffffffffffffffffffff613e84826131da565b16825265ffffffffffff613e9a602083016131f1565b16602083015264ffffffffff613eb260408301613204565b16604083015261ffff80613ec860608401613216565b166060840152613eda60808301613216565b1660808301526001600160a01b0380613ef560a08401612e7d565b1660a084015260ff613f0960c08401613225565b1660c0840152613f1b60e08301612e7d565b1660e0830152610100808201359083015261012060ff613f3c828401613225565b1690830152610140613f4f81830161315d565b151590830152610160613f6381830161315d565b151590830152610180613f7781830161315d565b151590830152613f8b6101a080920161315d565b1515910152565b90918060409360208452816020850152848401376000828201840152601f01601f1916010190565b600a54600554604080516321d1336160e11b815260048101929092526101209594939290916001600160a01b039187908290602490829086165afa908115614180576101009697600092614163575b5050600180968192015160f51c16146141525790816000809493600954166044845180978193635d53f40760e11b83528860048401528a60248401525af19384156141475760009461412c575b5060095482516304db994760e21b815230600482015260248101859052946020929183908790604490829086165afa958615613d1a576000966140f5575b5060005b8781106140aa57505050505050505050565b806140b68a9284613288565b516140c1818a61444e565b878751913383527f031e1988c95a91ec4d655ff63a8f87a80bc9daf28d95ae10ee08c0022cfb5c8b88888d1694a401614098565b90958382813d8311614125575b61410c818361300b565b8101031261030e575061411e90613364565b9438614094565b503d614102565b61414091943d8091833e610c56818361300b565b9238614056565b82513d6000823e3d90fd5b8151631d2c125760e31b8152600490fd5b6141799250803d10611f3c57611f2d818361300b565b3880614009565b83513d6000823e3d90fd5b90614194615441565b6009546040805163eaa19ab360e01b81526000196004820152606060248201526064810184905294608486019490926001600160a01b0390879082168360005b8881106142a45750509060009181838160019b8c604483015203925af196871561418057600097614280575b5060005b858110614215575050505050505090565b61421f8189613288565b519061422b828761444e565b614236818886613e60565b359161ffff831680930361109b578892865191600083523360208401527f598baf7bf150ca2f42be9e9f8f55e81d45f5715c3ff22bf46d697fabec7f31d688878b1694a401614204565b61429c91973d8091833e614294818361300b565b8101906142cc565b509538614200565b9192509760019061ffff6142b78b613216565b168152602080910199019101908992916141d4565b919060408382031261109b5782516001600160401b03811161109b576020916142f6918501613ddd565b92015190565b6000908152600260205260409020546001600160a01b0316801561431d5790565b60405163b49aa3b560e01b8152600490fd5b90600182811c9216801561435f575b602083101461434957565b634e487b7160e01b600052602260045260246000fd5b91607f169161433e565b6000818152600260205260409020546001600160a01b03161561431d576000908152600360205260409020546001600160a01b031690565b9291906143ae82336143e0565b15612b2857836143c283836143c797614683565b614b13565b156143ce57565b6040516336f57c1b60e11b8152600490fd5b906001600160a01b0380806143f4846142fc565b16931691838314938415614427575b508315614411575b50505090565b61441d91929350614369565b161438808061440b565b909350600052600460205260406000208260005260205260ff604060002054169238614403565b6001600160a01b03919082168015614671576000828152600260205260409020546001600160a01b031661465f576145059060009383855260209360028552604090818720966001600160601b0360a01b9785898254161790558185827fddf252ad1be2c89b69c2b068fc378daa952ba7f163c4a11628f55a4df523b3ef8180a4600954835163b67cb04760e01b815230600482015260248101939093526101c09691928392918616918890829081906044820190565b0381855afa978815614655578398614636575b50508651813b156104aa57829160648392875194859384926330b157e560e21b845260048401528160248401528b60448401525af1801561462c5761461a575b505060a08501948551614570575b5050505050505050565b6145d797858352600f8852838320825184528852848484205416156145e4575b5051945195858252601181526145a887848420615789565b5050818052600f81528282208683528152838383205416948252600f81528282209086835252205416906139db565b3880808080808080614566565b858352600f885283832082518452885285848420918254161790558482816000805160206159368339815191528280a438614590565b614625919250612f3e565b3880614558565b84513d84823e3d90fd5b61464d929850803d106123bd576123ae818361300b565b953880614518565b85513d85823e3d90fd5b604051632eb5f0c360e21b8152600490fd5b604051633904578f60e11b8152600490fd5b92919061468f826142fc565b6001600160a01b038581169290918216839003614aad578116908115614a9b5782159283156148b7575b849596506146ca61474e9495614abf565b600095808752602060028152604092838920986001600160601b0360a01b99878b8254161790558387837fddf252ad1be2c89b69c2b068fc378daa952ba7f163c4a11628f55a4df523b3ef8480a4600954855163b67cb04760e01b815230600482015260248101959095526101c09891948592918816918a90829081906044820190565b0381855afa998a156148ad57839a61488e575b50508851813b156104aa57829160648392895194859384926330b157e560e21b845260048401528860248401528d60448401525af1801561488457614870575b505060a087019687516147bb575b50505050505050505050565b61481199878552600f84528585208251865284528686862054161561483a575b5051965197614820575b8252600f81528282208683528152838383205416948252600f81528282209086835252205416906139db565b388080808080808080806147af565b8683526011825261483388858520615789565b50506147e5565b878552600f845285852082518652845287868620918254161790558684816000805160206159368339815191528280a4386147db565b61487c91929450612f3e565b9138806147a1565b86513d84823e3d90fd5b6148a5929a50803d106123bd576123ae818361300b565b973880614761565b87513d85823e3d90fd5b6009546040805163b67cb04760e01b8152306004820152602481018890529098918416906101c0908181604481865afa908115614a73576101a092600092614a7e575b505001516149f9575b88516308ed6c0160e41b815230600482015260248101889052602081604481855afa80156149ee5785916000916149b3575b501615614944575b50506146b9565b803b1561109b578851638cec7d3960e01b8152600481018890526001600160a01b039290921660248301526000908290604490829084905af180156149a85761474e9596979850614999575b8796959461493d565b6149a290612f3e565b38614990565b88513d6000823e3d90fd5b91506020823d82116149e6575b816149cd6020938361300b565b8101031261030e57506149e08591613364565b38614935565b3d91506149c0565b8a513d6000823e3d90fd5b83600a54166005548a519182916321d1336160e11b835260048301528160246101209485935afa918215614a7357600192839261010092600092614a56575b5050015160f41c16036149035788516318cdaf9760e01b8152600490fd5b614a6c9250803d10611f3c57611f2d818361300b565b3880614a38565b8b513d6000823e3d90fd5b614a949250803d106123bd576123ae818361300b565b38806148fa565b604051632c95542760e01b8152600490fd5b60405163a195bc5360e01b8152600490fd5b600081815260036020526040812080546001600160a01b03191690556001600160a01b03614aec836142fc565b167f8c5be1e5ebec7d5bd14f71427d1e84f3dd0314c0f7b2291e5b200ac8c7c3b9258280a4565b9293600093909291803b15614c2257948491614b6d9660405180948193630a85bd0160e11b9788845233600485015260018060a01b0380921660248501526044840152608060648401528260209b8c976084830190612e2c565b0393165af1849181614be2575b50614bd1575050503d600014614bc9573d614b948161316a565b90614ba2604051928361300b565b81528091833d92013e5b80519182614bc6576040516336f57c1b60e11b8152600490fd5b01fd5b506060614bac565b6001600160e01b0319161492509050565b9091508581813d8311614c1b575b614bfa818361300b565b81010312610e2457516001600160e01b031981168103610e24579038614b7a565b503d614bf0565b505050915050600190565b600060c082013590600c548083146000146150dd5750505060808101355b61018082016001600160a01b0380614c62836138d5565b16600052602091600e83526040938460002054958682600093614c84846138d5565b8780614c8f896138d5565b169116146000146150d45750015b6000916101e08101906044614cb28383613233565b905011806150a7575b614e01575b50909190508115614d8a5715614d79570194600e939291614d219180881115614d2c5787614ced836138d5565b7f2fb2733fb01b76e3290fa8b695d18e026ddd19c0a265ab90e95152e57da3033687878b51933385521694840392a46138d5565b166000525260002055565b878111614d3a575b506138d5565b87614d44836138d5565b7fe0e7c81cf67a96dd0e39bcf11521b1f4c0098cc1dbe8c30750a11d9ebfc3ed4d8783888c519433865216950392a438614d34565b8551631b57826960e21b8152600490fd5b50509485819493929403614da1575b505050505050565b600e93614db187614ded936136ea565b87614dbb836138d5565b917fe0e7c81cf67a96dd0e39bcf11521b1f4c0098cc1dbe8c30750a11d9ebfc3ed4d87878b51953387521694a46138d5565b166000525260002055388080808080614d99565b90614e0b91613233565b8193910160a0848203126104a657614e24898501612df4565b50614e316060850161315d565b936080810135906001600160401b03821161059e57019080601f830112156104aa57813592614e5f8461302c565b92614e6c8c51948561300b565b8484528a8401918b839660051b83010193841161030e57508a809101915b83831061508f57505050508380614fdd575b614fd4575b805115614cc057614eb1866138d5565b87600954168a51809463eaa19ab360e01b8252606482018760048401526060602484015285518091526084830191908d6000905b828210614fb857505050509181600081819582604483015203925af19384156149ee576000938495614f97575b50835193828a1693908c60005b878110614f355750505050505050503880614cc0565b86600192614f438386613288565b51614f4e818a61444e565b7f598baf7bf150ca2f42be9e9f8f55e81d45f5715c3ff22bf46d697fabec7f31d661ffff614f7c868a613288565b5193518a8152336020820152931692604090a4018d90614f1f565b909450614fae91933d8091833e614294818361300b565b9290929338614f12565b835161ffff16855289955093840193909201916001018e614ee5565b60009350614ea1565b506024608088600954168b5192838092634228826f60e11b82523060048301525afa80156149ee5760009061501a575b6060915001511515614e9c565b6080823d8211615087575b816150326080938361300b565b8101031261030e575060609061507e828c519261504e84612f82565b61505781613378565b84526150648d8201613378565b8d8501528d615074818301613378565b9085015201613378565b8282015261500d565b3d9150615025565b819061509a84613216565b8152019101908a90614e8a565b506150b28282613233565b604411610e24578901356001600160e01b03191663b3bcbb7960e01b14614cbb565b93505091614c9d565b600b546001600160a01b031690811561519a57600d5493604d8511615186579060646020926040519485938492635268657960e11b84526004840152602483015260a089013560448301525afa918215611a1e578092615150575b505061514b91600a0a6080840135615892565b614c4b565b9091506020823d821161517e575b8161516b6020938361300b565b8101031261030e57505161514b38615138565b3d915061515e565b634e487b7160e01b84526011600452602484fd5b5050505050565b906151ab8261302c565b6151b8604051918261300b565b82815280926151c9601f199161302c565b0190602036910137565b908151811015613272570160200190565b8051156154285760409081516105e081018181106001600160401b03821117612f51578352602e8152602090818101916105c0368437815115613272576000809352600193805184915b8183106153875750505060ff809416615246816151a1565b92845b82811061536657505050815161525e816151a1565b92845b82811061533e575050508151936152778561316a565b956152848151978861300b565b858752601f196152938761316a565b013684890137845b8681106152ac575050505050505090565b60019082516152ba81612ff0565b603a81527f31323334353637383941424344454647484a4b4c4d4e50515253545556575859868201527f5a6162636465666768696a6b6d6e6f707172737475767778797a000000000000848201526001600160f81b0319906153299086615321858b613288565b5116906151d3565b5116871a615337828b6151d3565b530161529b565b60019087615353600019838651030185613288565b511661535f8288613288565b5201615261565b808761537460019385613288565b51166153808288613288565b5201615249565b93979196909461539788866151d3565b5160f81c9381945b60ff90818a168710156153e757906153cc60019261ff006153c18f8b90613288565b5160081b1690613449565b603a91828206166153dd898f613288565b520495019461539f565b919550508099959298919693995b6154045750600101919061522e565b9660ff6001603a9282848c061661541d8483168b613288565b5201169704806153f5565b5060405161543581612fb9565b60008152600036813790565b6007546001600160a01b0316330361545557565b606460405162461bcd60e51b815260206004820152602060248201527f4f776e61626c653a2063616c6c6572206973206e6f7420746865206f776e65726044820152fd5b600780546001600160a01b039283166001600160a01b0319821681179092559091167f8be0079c531659141344cd1fd0a4f28419497f9722a3daafe3b4186f6b6457e0600080a3565b80548210156132725760005260206000200190600090565b80546000929181615518575050905060005b6001600160e01b031690565b60001982019182116151865761552f9293506154e2565b505460201c61550c565b9190438110156155c3578254906000905b828210615567575050600092811560001461551857506000925050565b909160019061557c818518831c828616613449565b918363ffffffff61558d858a6154e2565b50541611156155a0575050915b9061554a565b90935081018091111561559a57634e487b7160e01b600052601160045260246000fd5b606460405162461bcd60e51b815260206004820152602060248201527f436865636b706f696e74733a20626c6f636b206e6f7420796574206d696e65646044820152fd5b919061561b90615616846154fa565b6136ea565b918054615627826154fa565b9181151580615763575b156156715761563f8561579d565b906000198301928311613456576135af92615659916154e2565b509063ffffffff82549181199060201b169116179055565b9063ffffffff9081431161570f576156888661579d565b906040519361569685612f67565b43841685526001600160e01b03928316602086019081529168010000000000000000811015612f51576156ce916001820181556154e2565b9390936156f9579351905163ffffffff9190941616921660201b63ffffffff19169190911790559190565b634e487b7160e01b600052600060045260246000fd5b60405162461bcd60e51b815260206004820152602660248201527f53616665436173743a2076616c756520646f65736e27742066697420696e203360448201526532206269747360d01b6064820152608490fd5b5060001982018281116134565761577f63ffffffff91836154e2565b5054164314615631565b919061561b90615798846154fa565b613449565b6001600160e01b03908181116157b1571690565b60405162461bcd60e51b815260206004820152602760248201527f53616665436173743a2076616c756520646f65736e27742066697420696e20326044820152663234206269747360c81b6064820152608490fd5b91906000198184098184029182808310920391808303921461588557633b9aca009081831015615867577f88f2cfb83100cb4e69e7c79c58b316e597157d372fb9787e8e47ce423a2e9c6d94950990828211900360f71b910360091c170290565b6044838360405191631dcf306360e21b835260048301526024820152fd5b5050633b9aca0090049150565b90916000198383099280830292838086109503948086039514615928578285101561590a57908291096001821901821680920460028082600302188083028203028083028203028083028203028083028203028083028203028092029003029360018380600003040190848311900302920304170290565b6044858460405191631dcf306360e21b835260048301526024820152fd5b5050906131d792506136f756fe3134e8a2e6d97e929a7e54011ea5485d7d196dd5f0ba4d4ef95803e8e3fc257fa2646970667358221220e89c0be70c0c4d32625cf905cc981142effc5b3166527001c025411f30be34fe64736f6c63430008110033",
    "linkReferences": {}
  },
  "methodIdentifiers": {
    "TOTAL_REDEMPTION_WEIGHT()": "640abacd",
    "adjustTiers((uint80,uint48,uint40,uint16,uint16,address,uint8,address,bytes32,uint8,bool,bool,bool,bool)[],uint256[])": "25eb91ee",
    "approve(address,uint256)": "095ea7b3",
    "balanceOf(address)": "70a08231",
    "codeOrigin()": "1d153ca4",
    "contractURI()": "e8a3d485",
    "creditsOf(address)": "245a45b5",
    "didPay((address,uint256,uint256,(address,uint256,uint256,uint256),(address,uint256,uint256,uint256),uint256,address,bool,string,bytes))": "da9ee8b7",
    "didRedeem((address,uint256,uint256,uint256,(address,uint256,uint256,uint256),(address,uint256,uint256,uint256),address,string,bytes))": "2b13c58f",
    "directory()": "c41c2f24",
    "firstOwnerOf(uint256)": "54c6d1f5",
    "fundingCycleStore()": "557e7155",
    "getApproved(uint256)": "081812fc",
    "getPastTierTotalVotes(uint256,uint256)": "d31cc52c",
    "getPastTierVotes(address,uint256,uint256)": "d40e7146",
    "getTierDelegate(address,uint256)": "82732b6d",
    "getTierTotalVotes(uint256)": "94c5c5ca",
    "getTierVotes(address,uint256)": "ca323efe",
    "initialize(uint256,address,string,string,address,string,address,string,((uint80,uint48,uint40,uint16,uint16,address,uint8,address,bytes32,uint8,bool,bool,bool,bool)[],uint256,uint256,address),address,(bool,bool,bool,bool))": "d1704baf",
    "isApprovedForAll(address,address)": "e985e9c5",
    "mintFor((uint16[],address)[])": "36c1a93b",
    "mintFor(uint16[],address)": "6ac6d941",
    "mintReservesFor((uint256,uint256)[])": "2a596e53",
    "mintReservesFor(uint256,uint256)": "aa4fb15b",
    "name()": "06fdde03",
    "owner()": "8da5cb5b",
    "ownerOf(uint256)": "6352211e",
    "payParams((address,address,(address,uint256,uint256,uint256),uint256,uint256,address,uint256,uint256,string,bytes))": "d46cf171",
    "prices()": "d3419bf3",
    "pricingCurrency()": "64640c1e",
    "pricingDecimals()": "4ecba625",
    "projectId()": "3fafa127",
    "redeemParams((address,address,uint256,uint256,uint256,uint256,uint256,(address,uint256,uint256,uint256),bool,uint256,string,bytes))": "a51cfd18",
    "redemptionWeightOf(uint256[],(address,address,uint256,uint256,uint256,uint256,uint256,(address,uint256,uint256,uint256),bool,uint256,string,bytes))": "7ba62bf9",
    "renounceOwnership()": "715018a6",
    "royaltyInfo(uint256,uint256)": "2a55205a",
    "safeTransferFrom(address,address,uint256)": "42842e0e",
    "safeTransferFrom(address,address,uint256,bytes)": "b88d4fde",
    "setApprovalForAll(address,bool)": "a22cb465",
    "setBaseUri(string)": "a0bcfc7f",
    "setContractUri(string)": "ccb4807b",
    "setDefaultReservedTokenBeneficiary(address)": "df487e26",
    "setEncodedIPFSUriOf(uint256,bytes32)": "525350ba",
    "setTierDelegate(address,uint256)": "ab951e39",
    "setTierDelegates((address,uint256)[])": "c74b13d9",
    "setTierRedemptionWeights((uint256,uint256)[])": "2f441500",
    "setTokenUriResolver(address)": "2407497e",
    "store()": "975057e7",
    "supportsInterface(bytes4)": "01ffc9a7",
    "symbol()": "95d89b41",
    "tierRedemptionWeights()": "9df45468",
    "tokenURI(uint256)": "c87b56dd",
    "totalRedemptionWeight((address,address,uint256,uint256,uint256,uint256,uint256,(address,uint256,uint256,uint256),bool,uint256,string,bytes))": "9494bf72",
    "transferFrom(address,address,uint256)": "23b872dd",
    "transferOwnership(address)": "f2fde38b"
  },
  "id": 0
}