{
  "abi": [
    {
      "inputs": [],
      "stateMutability": "nonpayable",
      "type": "constructor"
    },
    {
      "inputs": [],
      "name": "DISABLED",
      "type": "error"
    },
    {
      "inputs": [],
      "name": "Empty",
      "type": "error"
    },
    {
      "inputs": [],
      "name": "INCORRECT_TIER_ORDER",
      "type": "error"
    },
    {
      "inputs": [
        {
          "internalType": "uint256",
          "name": "prod1",
          "type": "uint256"
        },
        {
          "internalType": "uint256",
          "name": "denominator",
          "type": "uint256"
        }
      ],
      "name": "PRBMath__MulDivOverflow",
      "type": "error"
    },
    {
      "anonymous": false,
      "inputs": [
        {
          "indexed": false,
          "internalType": "uint256",
          "name": "proposalId",
          "type": "uint256"
        }
      ],
      "name": "ProposalCanceled",
      "type": "event"
    },
    {
      "anonymous": false,
      "inputs": [
        {
          "indexed": false,
          "internalType": "uint256",
          "name": "proposalId",
          "type": "uint256"
        },
        {
          "indexed": false,
          "internalType": "address",
          "name": "proposer",
          "type": "address"
        },
        {
          "indexed": false,
          "internalType": "address[]",
          "name": "targets",
          "type": "address[]"
        },
        {
          "indexed": false,
          "internalType": "uint256[]",
          "name": "values",
          "type": "uint256[]"
        },
        {
          "indexed": false,
          "internalType": "string[]",
          "name": "signatures",
          "type": "string[]"
        },
        {
          "indexed": false,
          "internalType": "bytes[]",
          "name": "calldatas",
          "type": "bytes[]"
        },
        {
          "indexed": false,
          "internalType": "uint256",
          "name": "startBlock",
          "type": "uint256"
        },
        {
          "indexed": false,
          "internalType": "uint256",
          "name": "endBlock",
          "type": "uint256"
        },
        {
          "indexed": false,
          "internalType": "string",
          "name": "description",
          "type": "string"
        }
      ],
      "name": "ProposalCreated",
      "type": "event"
    },
    {
      "anonymous": false,
      "inputs": [
        {
          "indexed": false,
          "internalType": "uint256",
          "name": "proposalId",
          "type": "uint256"
        }
      ],
      "name": "ProposalExecuted",
      "type": "event"
    },
    {
      "anonymous": false,
      "inputs": [
        {
          "indexed": true,
          "internalType": "address",
          "name": "voter",
          "type": "address"
        },
        {
          "indexed": false,
          "internalType": "uint256",
          "name": "proposalId",
          "type": "uint256"
        },
        {
          "indexed": false,
          "internalType": "uint8",
          "name": "support",
          "type": "uint8"
        },
        {
          "indexed": false,
          "internalType": "uint256",
          "name": "weight",
          "type": "uint256"
        },
        {
          "indexed": false,
          "internalType": "string",
          "name": "reason",
          "type": "string"
        }
      ],
      "name": "VoteCast",
      "type": "event"
    },
    {
      "anonymous": false,
      "inputs": [
        {
          "indexed": true,
          "internalType": "address",
          "name": "voter",
          "type": "address"
        },
        {
          "indexed": false,
          "internalType": "uint256",
          "name": "proposalId",
          "type": "uint256"
        },
        {
          "indexed": false,
          "internalType": "uint8",
          "name": "support",
          "type": "uint8"
        },
        {
          "indexed": false,
          "internalType": "uint256",
          "name": "weight",
          "type": "uint256"
        },
        {
          "indexed": false,
          "internalType": "string",
          "name": "reason",
          "type": "string"
        },
        {
          "indexed": false,
          "internalType": "bytes",
          "name": "params",
          "type": "bytes"
        }
      ],
      "name": "VoteCastWithParams",
      "type": "event"
    },
    {
      "inputs": [],
      "name": "BALLOT_TYPEHASH",
      "outputs": [
        {
          "internalType": "bytes32",
          "name": "",
          "type": "bytes32"
        }
      ],
      "stateMutability": "view",
      "type": "function"
    },
    {
      "inputs": [],
      "name": "COUNTING_MODE",
      "outputs": [
        {
          "internalType": "string",
          "name": "",
          "type": "string"
        }
      ],
      "stateMutability": "pure",
      "type": "function"
    },
    {
      "inputs": [],
      "name": "EXTENDED_BALLOT_TYPEHASH",
      "outputs": [
        {
          "internalType": "bytes32",
          "name": "",
          "type": "bytes32"
        }
      ],
      "stateMutability": "view",
      "type": "function"
    },
    {
      "inputs": [],
      "name": "MAX_VOTING_POWER_TIER",
      "outputs": [
        {
          "internalType": "uint256",
          "name": "",
          "type": "uint256"
        }
      ],
      "stateMutability": "view",
      "type": "function"
    },
    {
      "inputs": [
        {
          "internalType": "uint256",
          "name": "_scorecardId",
          "type": "uint256"
        }
      ],
      "name": "attestToScorecard",
      "outputs": [],
      "stateMutability": "nonpayable",
      "type": "function"
    },
    {
      "inputs": [
        {
          "internalType": "uint256",
          "name": "_scorecardId",
          "type": "uint256"
        },
        {
          "internalType": "bytes",
          "name": "params",
          "type": "bytes"
        }
      ],
      "name": "attestToScorecardWithReasonAndParams",
      "outputs": [],
      "stateMutability": "nonpayable",
      "type": "function"
    },
    {
      "inputs": [
        {
          "internalType": "uint256",
          "name": "proposalId",
          "type": "uint256"
        },
        {
          "internalType": "uint8",
          "name": "support",
          "type": "uint8"
        }
      ],
      "name": "castVote",
      "outputs": [
        {
          "internalType": "uint256",
          "name": "",
          "type": "uint256"
        }
      ],
      "stateMutability": "nonpayable",
      "type": "function"
    },
    {
      "inputs": [
        {
          "internalType": "uint256",
          "name": "proposalId",
          "type": "uint256"
        },
        {
          "internalType": "uint8",
          "name": "support",
          "type": "uint8"
        },
        {
          "internalType": "uint8",
          "name": "v",
          "type": "uint8"
        },
        {
          "internalType": "bytes32",
          "name": "r",
          "type": "bytes32"
        },
        {
          "internalType": "bytes32",
          "name": "s",
          "type": "bytes32"
        }
      ],
      "name": "castVoteBySig",
      "outputs": [
        {
          "internalType": "uint256",
          "name": "",
          "type": "uint256"
        }
      ],
      "stateMutability": "nonpayable",
      "type": "function"
    },
    {
      "inputs": [
        {
          "internalType": "uint256",
          "name": "proposalId",
          "type": "uint256"
        },
        {
          "internalType": "uint8",
          "name": "support",
          "type": "uint8"
        },
        {
          "internalType": "string",
          "name": "reason",
          "type": "string"
        }
      ],
      "name": "castVoteWithReason",
      "outputs": [
        {
          "internalType": "uint256",
          "name": "",
          "type": "uint256"
        }
      ],
      "stateMutability": "nonpayable",
      "type": "function"
    },
    {
      "inputs": [
        {
          "internalType": "uint256",
          "name": "proposalId",
          "type": "uint256"
        },
        {
          "internalType": "uint8",
          "name": "support",
          "type": "uint8"
        },
        {
          "internalType": "string",
          "name": "reason",
          "type": "string"
        },
        {
          "internalType": "bytes",
          "name": "params",
          "type": "bytes"
        }
      ],
      "name": "castVoteWithReasonAndParams",
      "outputs": [
        {
          "internalType": "uint256",
          "name": "",
          "type": "uint256"
        }
      ],
      "stateMutability": "nonpayable",
      "type": "function"
    },
    {
      "inputs": [
        {
          "internalType": "uint256",
          "name": "proposalId",
          "type": "uint256"
        },
        {
          "internalType": "uint8",
          "name": "support",
          "type": "uint8"
        },
        {
          "internalType": "string",
          "name": "reason",
          "type": "string"
        },
        {
          "internalType": "bytes",
          "name": "params",
          "type": "bytes"
        },
        {
          "internalType": "uint8",
          "name": "v",
          "type": "uint8"
        },
        {
          "internalType": "bytes32",
          "name": "r",
          "type": "bytes32"
        },
        {
          "internalType": "bytes32",
          "name": "s",
          "type": "bytes32"
        }
      ],
      "name": "castVoteWithReasonAndParamsBySig",
      "outputs": [
        {
          "internalType": "uint256",
          "name": "",
          "type": "uint256"
        }
      ],
      "stateMutability": "nonpayable",
      "type": "function"
    },
    {
      "inputs": [],
      "name": "codeOrigin",
      "outputs": [
        {
          "internalType": "address",
          "name": "",
          "type": "address"
        }
      ],
      "stateMutability": "view",
      "type": "function"
    },
    {
      "inputs": [],
      "name": "delegate",
      "outputs": [
        {
          "internalType": "contract IDefifaDelegate",
          "name": "",
          "type": "address"
        }
      ],
      "stateMutability": "view",
      "type": "function"
    },
    {
      "inputs": [
        {
          "internalType": "address[]",
          "name": "targets",
          "type": "address[]"
        },
        {
          "internalType": "uint256[]",
          "name": "values",
          "type": "uint256[]"
        },
        {
          "internalType": "bytes[]",
          "name": "calldatas",
          "type": "bytes[]"
        },
        {
          "internalType": "bytes32",
          "name": "descriptionHash",
          "type": "bytes32"
        }
      ],
      "name": "execute",
      "outputs": [
        {
          "internalType": "uint256",
          "name": "",
          "type": "uint256"
        }
      ],
      "stateMutability": "payable",
      "type": "function"
    },
    {
      "inputs": [
        {
          "internalType": "address",
          "name": "account",
          "type": "address"
        },
        {
          "internalType": "uint256",
          "name": "blockNumber",
          "type": "uint256"
        }
      ],
      "name": "getVotes",
      "outputs": [
        {
          "internalType": "uint256",
          "name": "",
          "type": "uint256"
        }
      ],
      "stateMutability": "view",
      "type": "function"
    },
    {
      "inputs": [
        {
          "internalType": "address",
          "name": "account",
          "type": "address"
        },
        {
          "internalType": "uint256",
          "name": "blockNumber",
          "type": "uint256"
        },
        {
          "internalType": "bytes",
          "name": "params",
          "type": "bytes"
        }
      ],
      "name": "getVotesWithParams",
      "outputs": [
        {
          "internalType": "uint256",
          "name": "",
          "type": "uint256"
        }
      ],
      "stateMutability": "view",
      "type": "function"
    },
    {
      "inputs": [
        {
          "internalType": "uint256",
          "name": "proposalId",
          "type": "uint256"
        },
        {
          "internalType": "address",
          "name": "account",
          "type": "address"
        }
      ],
      "name": "hasVoted",
      "outputs": [
        {
          "internalType": "bool",
          "name": "",
          "type": "bool"
        }
      ],
      "stateMutability": "view",
      "type": "function"
    },
    {
      "inputs": [
        {
          "internalType": "address[]",
          "name": "targets",
          "type": "address[]"
        },
        {
          "internalType": "uint256[]",
          "name": "values",
          "type": "uint256[]"
        },
        {
          "internalType": "bytes[]",
          "name": "calldatas",
          "type": "bytes[]"
        },
        {
          "internalType": "bytes32",
          "name": "descriptionHash",
          "type": "bytes32"
        }
      ],
      "name": "hashProposal",
      "outputs": [
        {
          "internalType": "uint256",
          "name": "",
          "type": "uint256"
        }
      ],
      "stateMutability": "pure",
      "type": "function"
    },
    {
      "inputs": [
        {
          "internalType": "contract IDefifaDelegate",
          "name": "_delegate",
          "type": "address"
        },
        {
          "internalType": "uint256",
          "name": "_votingStartTime",
          "type": "uint256"
        },
        {
          "internalType": "uint256",
          "name": "__votingPeriod",
          "type": "uint256"
        }
      ],
      "name": "initialize",
      "outputs": [],
      "stateMutability": "nonpayable",
      "type": "function"
    },
    {
      "inputs": [],
      "name": "name",
      "outputs": [
        {
          "internalType": "string",
          "name": "",
          "type": "string"
        }
      ],
      "stateMutability": "view",
      "type": "function"
    },
    {
      "inputs": [
        {
          "internalType": "address",
          "name": "",
          "type": "address"
        },
        {
          "internalType": "address",
          "name": "",
          "type": "address"
        },
        {
          "internalType": "uint256[]",
          "name": "",
          "type": "uint256[]"
        },
        {
          "internalType": "uint256[]",
          "name": "",
          "type": "uint256[]"
        },
        {
          "internalType": "bytes",
          "name": "",
          "type": "bytes"
        }
      ],
      "name": "onERC1155BatchReceived",
      "outputs": [
        {
          "internalType": "bytes4",
          "name": "",
          "type": "bytes4"
        }
      ],
      "stateMutability": "nonpayable",
      "type": "function"
    },
    {
      "inputs": [
        {
          "internalType": "address",
          "name": "",
          "type": "address"
        },
        {
          "internalType": "address",
          "name": "",
          "type": "address"
        },
        {
          "internalType": "uint256",
          "name": "",
          "type": "uint256"
        },
        {
          "internalType": "uint256",
          "name": "",
          "type": "uint256"
        },
        {
          "internalType": "bytes",
          "name": "",
          "type": "bytes"
        }
      ],
      "name": "onERC1155Received",
      "outputs": [
        {
          "internalType": "bytes4",
          "name": "",
          "type": "bytes4"
        }
      ],
      "stateMutability": "nonpayable",
      "type": "function"
    },
    {
      "inputs": [
        {
          "internalType": "address",
          "name": "",
          "type": "address"
        },
        {
          "internalType": "address",
          "name": "",
          "type": "address"
        },
        {
          "internalType": "uint256",
          "name": "",
          "type": "uint256"
        },
        {
          "internalType": "bytes",
          "name": "",
          "type": "bytes"
        }
      ],
      "name": "onERC721Received",
      "outputs": [
        {
          "internalType": "bytes4",
          "name": "",
          "type": "bytes4"
        }
      ],
      "stateMutability": "nonpayable",
      "type": "function"
    },
    {
      "inputs": [
        {
          "internalType": "uint256",
          "name": "proposalId",
          "type": "uint256"
        }
      ],
      "name": "proposalDeadline",
      "outputs": [
        {
          "internalType": "uint256",
          "name": "",
          "type": "uint256"
        }
      ],
      "stateMutability": "view",
      "type": "function"
    },
    {
      "inputs": [
        {
          "internalType": "uint256",
          "name": "proposalId",
          "type": "uint256"
        }
      ],
      "name": "proposalSnapshot",
      "outputs": [
        {
          "internalType": "uint256",
          "name": "",
          "type": "uint256"
        }
      ],
      "stateMutability": "view",
      "type": "function"
    },
    {
      "inputs": [],
      "name": "proposalThreshold",
      "outputs": [
        {
          "internalType": "uint256",
          "name": "",
          "type": "uint256"
        }
      ],
      "stateMutability": "pure",
      "type": "function"
    },
    {
      "inputs": [
        {
          "internalType": "uint256",
          "name": "proposalId",
          "type": "uint256"
        }
      ],
      "name": "proposalVotes",
      "outputs": [
        {
          "internalType": "uint256",
          "name": "againstVotes",
          "type": "uint256"
        },
        {
          "internalType": "uint256",
          "name": "forVotes",
          "type": "uint256"
        },
        {
          "internalType": "uint256",
          "name": "abstainVotes",
          "type": "uint256"
        }
      ],
      "stateMutability": "view",
      "type": "function"
    },
    {
      "inputs": [
        {
          "internalType": "address[]",
          "name": "targets",
          "type": "address[]"
        },
        {
          "internalType": "uint256[]",
          "name": "values",
          "type": "uint256[]"
        },
        {
          "internalType": "bytes[]",
          "name": "calldatas",
          "type": "bytes[]"
        },
        {
          "internalType": "string",
          "name": "description",
          "type": "string"
        }
      ],
      "name": "propose",
      "outputs": [
        {
          "internalType": "uint256",
          "name": "",
          "type": "uint256"
        }
      ],
      "stateMutability": "nonpayable",
      "type": "function"
    },
    {
      "inputs": [
        {
          "internalType": "uint256",
          "name": "",
          "type": "uint256"
        }
      ],
      "name": "quorum",
      "outputs": [
        {
          "internalType": "uint256",
          "name": "",
          "type": "uint256"
        }
      ],
      "stateMutability": "view",
      "type": "function"
    },
    {
      "inputs": [
        {
          "components": [
            {
              "internalType": "uint256",
              "name": "id",
              "type": "uint256"
            },
            {
              "internalType": "uint256",
              "name": "redemptionWeight",
              "type": "uint256"
            }
          ],
          "internalType": "struct DefifaTierRedemptionWeight[]",
          "name": "_tierWeights",
          "type": "tuple[]"
        }
      ],
      "name": "ratifyScorecard",
      "outputs": [
        {
          "internalType": "uint256",
          "name": "",
          "type": "uint256"
        }
      ],
      "stateMutability": "nonpayable",
      "type": "function"
    },
    {
      "inputs": [
        {
          "internalType": "address",
          "name": "target",
          "type": "address"
        },
        {
          "internalType": "uint256",
          "name": "value",
          "type": "uint256"
        },
        {
          "internalType": "bytes",
          "name": "data",
          "type": "bytes"
        }
      ],
      "name": "relay",
      "outputs": [],
      "stateMutability": "nonpayable",
      "type": "function"
    },
    {
      "inputs": [
        {
          "internalType": "uint256",
          "name": "proposalId",
          "type": "uint256"
        }
      ],
      "name": "state",
      "outputs": [
        {
          "internalType": "enum IGovernor.ProposalState",
          "name": "",
          "type": "uint8"
        }
      ],
      "stateMutability": "view",
      "type": "function"
    },
    {
      "inputs": [
        {
          "components": [
            {
              "internalType": "uint256",
              "name": "id",
              "type": "uint256"
            },
            {
              "internalType": "uint256",
              "name": "redemptionWeight",
              "type": "uint256"
            }
          ],
          "internalType": "struct DefifaTierRedemptionWeight[]",
          "name": "_tierWeights",
          "type": "tuple[]"
        }
      ],
      "name": "submitScorecards",
      "outputs": [
        {
          "internalType": "uint256",
          "name": "",
          "type": "uint256"
        }
      ],
      "stateMutability": "nonpayable",
      "type": "function"
    },
    {
      "inputs": [
        {
          "internalType": "bytes4",
          "name": "interfaceId",
          "type": "bytes4"
        }
      ],
      "name": "supportsInterface",
      "outputs": [
        {
          "internalType": "bool",
          "name": "",
          "type": "bool"
        }
      ],
      "stateMutability": "view",
      "type": "function"
    },
    {
      "inputs": [],
      "name": "version",
      "outputs": [
        {
          "internalType": "string",
          "name": "",
          "type": "string"
        }
      ],
      "stateMutability": "view",
      "type": "function"
    },
    {
      "inputs": [],
      "name": "votingDelay",
      "outputs": [
        {
          "internalType": "uint256",
          "name": "",
          "type": "uint256"
        }
      ],
      "stateMutability": "view",
      "type": "function"
    },
    {
      "inputs": [],
      "name": "votingPeriod",
      "outputs": [
        {
          "internalType": "uint256",
          "name": "",
          "type": "uint256"
        }
      ],
      "stateMutability": "view",
      "type": "function"
    },
    {
      "inputs": [],
      "name": "votingStartTime",
      "outputs": [
        {
          "internalType": "uint256",
          "name": "",
          "type": "uint256"
        }
      ],
      "stateMutability": "view",
      "type": "function"
    },
    {
      "stateMutability": "payable",
      "type": "receive"
    }
  ],
  "bytecode": {
    "object": "0x61016060409080825234620002855762000019816200028a565b600e8152602091828201916d2232b334b330a3b7bb32b93737b960911b835283825162000046816200028a565b60019181838093520194603160f81b86528351902094208460e052610100958187524660a052845191818301907f8b73c3c69bb8fe3d512ecc4cf759cc79239f7b179b0ffacaa9a75d522b39400f978883528785015260608401524660808401523060a084015260a0835260c083019260018060401b0393818110858211176200026f5787525190206080523060c05261012095865283519182116200026f5760009384548481811c9116801562000264575b838210146200025057601f811162000205575b5081601f84116001146200019d5750928293918392869462000191575b50501b916000199060031b1c19161790555b610140903082525191612c4e9384620002a7853960805184612a16015260a05184612acb015260c051846129e0015260e05184612a6501525183612a8b01525182612a42015251818181610b4901526113390152f35b01519250388062000129565b919083601f1981168780528488209488905b88838310620001ea5750505010620001d0575b505050811b0190556200013b565b015160001960f88460031b161c19169055388080620001c2565b858701518855909601959485019487935090810190620001af565b858052828620601f850160051c81019184861062000245575b601f0160051c019085905b828110620002395750506200010c565b87815501859062000229565b90915081906200021e565b634e487b7160e01b86526022600452602486fd5b90607f1690620000f9565b634e487b7160e01b600052604160045260246000fd5b600080fd5b604081019081106001600160401b038211176200026f5760405256fe6080604081815260049081361015610022575b505050361561002057600080fd5b005b600092833560e01c90816301ffc9a71461161b5750806302a251a3146115fc57806303420181146114f057806306fdde03146113db578063150b7a021461138657806319f82536146113685780631d153ca4146113245780632019a608146113055780632656227d146111975780632d63f693146111675780632fe3e2611461112c5780633932abb11461110f5780633bccf4fd146110575780633e4f49e6146110125780634385963214610fc95780634b501fbd14610faa578063544ffc9c14610f6d57806354fd4d5014610f2c5780635678138814610ef557806359f397bd14610e255780635f398a1414610db257806364d87a6114610b965780637a1ac61e14610b1f5780637b3c71d314610ac05780637c8bd0ed14610a765780637d5e81e2146107275780639a802a6d146106e5578063b58131b0146106ca578063bc197c8114610644578063c01f9e3714610609578063c28bc2fa14610463578063c59057e414610444578063c89e43611461041b578063dd4e2ba5146103ba578063deaaa7cc1461037f578063eb9019d414610346578063f23a6e61146102f15763f8ce560a0361001257346102ed57602092836003193601126102ea57600654825163975057e760e01b81526001600160a01b0391821686828781845afa9182156102e0579087929185926102ae575b506024908651948593849263f1bea54f60e01b84528a840152165afa9081156102a4578291610273575b5060011c92633b9aca009384810294818604149015171561026057505051908152f35b634e487b7160e01b825260119052602490fd5b90508481813d831161029d575b61028a818361177e565b8101031261029957513861023d565b5080fd5b503d610280565b83513d84823e3d90fd5b60249192506102d290843d86116102d9575b6102ca818361177e565b810190611c7d565b9190610213565b503d6102c0565b85513d86823e3d90fd5b80fd5b8280fd5b5082346102ea5760a03660031901126102ea5761030c61184f565b50610315611865565b50608435906001600160401b0382116102ea5750602092610338913691016117f1565b505163f23a6e6160e01b8152f35b83823461029957806003193601126102995760209061037861036661184f565b61036e611cbf565b90602435906121a2565b9051908152f35b838234610299578160031936011261029957602090517f150214d74d59b7d1e90c73fc22ef3d991dd0a76b046543d4d80ab92d2a50328f8152f35b8382346102995781600319360112610299578051610417916103db82611763565b602082527f737570706f72743d627261766f2671756f72756d3d666f722c6162737461696e60208301525191829160208352602083019061180f565b0390f35b83823461029957816003193601126102995760065490516001600160a01b039091168152602090f35b8382346102995760209061037861045a366119de565b92919091611e43565b5090346102ed5760603660031901126102ed5761047e61184f565b6024356044356001600160401b0381116106055761049f90369085016116b4565b3033036105c257906104b29136916117ba565b928451946104bf8661172d565b602986527f416464726573733a206c6f772d6c6576656c2063616c6c20776974682076616c6020870152681d594819985a5b195960ba1b8187015282471061057057833b1561052d5786610529878280898989602083519301915af1610523612172565b90612741565b5080f35b906020606492519162461bcd60e51b8352820152601d60248201527f416464726573733a2063616c6c20746f206e6f6e2d636f6e74726163740000006044820152fd5b906020608492519162461bcd60e51b8352820152602660248201527f416464726573733a20696e73756666696369656e742062616c616e636520666f6044820152651c8818d85b1b60d21b6064820152fd5b855162461bcd60e51b8152602081870152601860248201527f476f7665726e6f723a206f6e6c79476f7665726e616e636500000000000000006044820152606490fd5b8580fd5b5090346102ed5760203660031901126102ed5761063b6001836020956001600160401b039435815282875220016120cb565b51169051908152f35b5082346102ea5760a03660031901126102ea5761065f61184f565b50610668611865565b506001600160401b0390604435828111610299576106899036908601611900565b50606435828111610299576106a19036908601611900565b506084359182116102ea57506020926106bc913691016117f1565b505163bc197c8160e01b8152f35b83823461029957816003193601126102995751908152602090f35b5090346102ed5760603660031901126102ed5761070061184f565b92604435906001600160401b0382116102ea57509261036e610378926020953691016117f1565b5082346102ea5760803660031901126102ea576001600160401b039183358381116102ed576107599036908601611892565b92602435818111610a72576107719036908701611900565b93604435828111610a6e57610789903690880161195e565b956064358381116106055736602382011215610605576107b290369060248185013591016117ba565b91303303610a5f576000194301438111610a4c576107d9906107d2611cbf565b90336121a2565b508251976107ef6020998a860120828a85611e43565b966107fd83518a51146120f2565b61080a83518351146120f2565b825115610a0957878152600190818b528781209487610828876120cb565b51166109bc57509061085261083c43612af1565b61084c610847611e1f565b612af1565b90612148565b87610867610861600554612af1565b83612148565b911697826001600160401b0319978a8982541617815501911680968254161790556108b38b8551956108988761187b565b966108a58c51988961177e565b808852601f1993849161187b565b01855b8181106109ad5750508b9c6108e66108f4928d9e9d80519e8f908152338782015261012080928201520190611a8c565b8c810360608e015290611ac9565b8a810360808c01528651928382528282019183808660051b830101990196935b85851061097f5793505050508b8b7f7d84a6263ae0d98d3329bd7b46bb4e8d6f98cd35a7adb45c274c8b7fd5ebd5e08c806109768e8e8e61095d8f8f87820360a0890152611afd565b9260c086015260e085015283820361010085015261180f565b0390a151908152f35b8061099b8b85858b9c9e9b969798999a9b030188528c5161180f565b9a01940194019295949391908f610914565b606089820185015283016108b6565b885162461bcd60e51b81529081018c9052602160248201527f476f7665726e6f723a2070726f706f73616c20616c72656164792065786973746044820152607360f81b6064820152608490fd5b865162461bcd60e51b81528085018b9052601860248201527f476f7665726e6f723a20656d7074792070726f706f73616c00000000000000006044820152606490fd5b634e487b7160e01b875260118352602487fd5b508351631596f13360e31b8152fd5b8480fd5b8380fd5b50346102ed57806003193601126102ed57602435916001600160401b038311610a7257610aa961052993369083016117f1565b915190610ab582611712565b84825233903561239c565b5082346102ea5760603660031901126102ea57610adb61169f565b90604435906001600160401b0382116102ea57509261037891610b0d610b06602096369085016116b4565b36916117ba565b90610b16611cbf565b923390356125a3565b50503461029957606036600319011261029957356001600160a01b03818116918290036102ed57807f00000000000000000000000000000000000000000000000000000000000000001630146102ed576006549081166102ed576001600160a01b0319161760065560243560075560443560055580f35b50346102ed57610bae610ba836611a40565b90611b90565b9190948351956020968781019060808252610c2b610bcf60a0830187611a8c565b82610bf9610be9601f199384848203018d85015288611ac9565b838382030160608401528a611afd565b7fc5d2460186f7233c927e7db2dcc703c0e500b653ca82273b7bfad8045d85a47060808301520390810183528261177e565b51902095610c3887611ea7565b6008811015610d9f57818114908115610d94575b5015610d4757508582526001938488526002868420018560ff198254161790557f712ae1383f79ac853f8d882153778e0260ef8f03b504e2866e0593e04d2b291f888751898152a1855193610ca08561172d565b602785527f476f7665726e6f723a2063616c6c20726576657274656420776974686f75742089860152666d65737361676560c81b878601528884875b610ce9575b508751898152f35b8251811015610d4257610d34878780610d3a9560018060a01b03610d0d878a611b7c565b5116610d19878c611b7c565b51610d24888c611b7c565b5180519301915af1610523612172565b50612163565b899087610cdc565b610ce1565b855162461bcd60e51b8152908101889052602160248201527f476f7665726e6f723a2070726f706f73616c206e6f74207375636365737366756044820152601b60fa1b6064820152608490fd5b600591501438610c4c565b634e487b7160e01b845260218252602484fd5b5090346102ed5760803660031901126102ed57610dcd61169f565b6001600160401b039360443585811161029957610ded90369085016116b4565b9590916064359182116102ea575091610e1c6103789492610e1460209895369086016117f1565b9436916117ba565b913390356125a3565b5082903461029957608092610e6783610e8a610e7a610e46610ba836611a40565b929188969196519a8b98633eaf40f160e11b8a528901526084880190611a8c565b6003199586888303016024890152611ac9565b9084868303016044870152611afd565b838103928301606485015252602094858092018186305af1928315610eea578093610eb8575b505051908152f35b909192508382813d8311610ee3575b610ed1818361177e565b810103126102ea575051908380610eb0565b503d610ec7565b8251903d90823e3d90fd5b5090346102ed57816003193601126102ed5761037890602093610f1661169f565b845191610f2283611712565b8252610b16611cbf565b838234610299578160031936011261029957805161041791610f4d82611763565b60018252603160f81b60208301525191829160208352602083019061180f565b5090346102ed5760203660031901126102ed5760609281839235825260205220805491600260018301549201549181519384526020840152820152f35b83823461029957816003193601126102995760209051633b9aca008152f35b5090346102ed57816003193601126102ed578160209360ff92610fea611865565b813583529086528282206001600160a01b039091168252600301855220549151911615158152f35b50829034610299576020366003190112610299576110308335611ea7565b905191600882101561104457602083838152f35b634e487b7160e01b815260218452602490fd5b5090346102ed5760a03660031901126102ed573561107361169f565b60443560ff81168103610a6e579361037892916110f36110eb6020978751898101917f150214d74d59b7d1e90c73fc22ef3d991dd0a76b046543d4d80ab92d2a50328f8352878a83015260ff86166060830152606082526110d382611748565b6110e660843593606435935190206129ac565b6128f7565b919091612785565b8551926110ff84611712565b8352611109611cbf565b936125a3565b838234610299578160031936011261029957602090610378611e1f565b838234610299578160031936011261029957602090517fb3b3f3b703cd84ce352197dcff232b1b5d3cfb2025ce47cf04742d0651f1af888152f35b5090346102ed5760203660031901126102ed5761063b826020946001600160401b039335815260018652206120cb565b506111b16111a4366119de565b8183859994969399611e43565b946111bb86611ea7565b60088110156112f2578181149081156112e7575b501561129a57508481526001926020968488526002868420018560ff198254161790557f712ae1383f79ac853f8d882153778e0260ef8f03b504e2866e0593e04d2b291f888751898152a18551936112268561172d565b602785527f476f7665726e6f723a2063616c6c20726576657274656420776974686f75742089860152666d65737361676560c81b878601528884875b61126e57508751898152f35b8251811015610d4257610d348787806112929560018060a01b03610d0d878a611b7c565b899087611262565b608490602086519162461bcd60e51b8352820152602160248201527f476f7665726e6f723a2070726f706f73616c206e6f74207375636365737366756044820152601b60fa1b6064820152fd5b6005915014386111cf565b634e487b7160e01b835260218252602483fd5b8382346102995781600319360112610299576020906007549051908152f35b838234610299578160031936011261029957517f00000000000000000000000000000000000000000000000000000000000000006001600160a01b03168152602090f35b50346102ed5760203660031901126102ed5761052991610aa9611cbf565b5082346102ea5760803660031901126102ea576113a161184f565b506113aa611865565b50606435906001600160401b0382116102ea57506020926113cd913691016117f1565b5051630a85bd0160e11b8152f35b5082346102ea57806003193601126102ea5781519181825492600184811c918186169586156114e6575b60209687851081146114d3578899509688969785829a5291826000146114ac575050600114611451575b505050610417929161144291038561177e565b5192828493845283019061180f565b91908693508280527f290decd9548b62a8d60345a988386fc84ba6bc95484008f6362f93160ef3e5635b828410611494575050508201018161144261041761142f565b8054848a01860152889550879490930192810161147b565b60ff19168782015293151560051b860190930193508492506114429150610417905061142f565b634e487b7160e01b835260228a52602483fd5b92607f1692611405565b5090346102ed5760e03660031901126102ed5780359061150e61169f565b906001600160401b036044358181116115f85761152e90369084016116b4565b9190926064359182116115f457611547913691016117f1565b956084359060ff821682036102ea57506115ee610378959360209895936115e689610b06956115773685876117ba565b8d8151910120908a518e8c01208351928f8c908501957fb3b3f3b703cd84ce352197dcff232b1b5d3cfb2025ce47cf04742d0651f1af88875285015260ff8b166060850152608084015260a083015260a082526115d3826116e1565b6110e660c4359360a435935190206129ac565b949094612785565b926125a3565b8780fd5b8680fd5b8382346102995781600319360112610299576020906005549051908152f35b849084346102ed5760203660031901126102ed573563ffffffff60e01b81168091036102ed576020925063bf26d89760e01b811490811561168e575b811561167d575b811561166c575b5015158152f35b6301ffc9a760e01b14905083611665565b630271189760e51b8114915061165e565b6379dd796f60e01b81149150611657565b6024359060ff821682036116af57565b600080fd5b9181601f840112156116af578235916001600160401b0383116116af57602083818601950101116116af57565b60c081019081106001600160401b038211176116fc57604052565b634e487b7160e01b600052604160045260246000fd5b602081019081106001600160401b038211176116fc57604052565b606081019081106001600160401b038211176116fc57604052565b608081019081106001600160401b038211176116fc57604052565b604081019081106001600160401b038211176116fc57604052565b90601f801991011681019081106001600160401b038211176116fc57604052565b6001600160401b0381116116fc57601f01601f191660200190565b9291926117c68261179f565b916117d4604051938461177e565b8294818452818301116116af578281602093846000960137010152565b9080601f830112156116af5781602061180c933591016117ba565b90565b919082519283825260005b84811061183b575050826000602080949584010152601f8019910116010190565b60208183018101518483018201520161181a565b600435906001600160a01b03821682036116af57565b602435906001600160a01b03821682036116af57565b6001600160401b0381116116fc5760051b60200190565b81601f820112156116af578035916118a98361187b565b926118b7604051948561177e565b808452602092838086019260051b8201019283116116af578301905b8282106118e1575050505090565b81356001600160a01b03811681036116af5781529083019083016118d3565b81601f820112156116af578035916119178361187b565b92611925604051948561177e565b808452602092838086019260051b8201019283116116af578301905b82821061194f575050505090565b81358152908301908301611941565b9080601f830112156116af578135906119768261187b565b92611984604051948561177e565b828452602092838086019160051b830101928084116116af57848301915b8483106119b25750505050505090565b82356001600160401b0381116116af5786916119d3848480948901016117f1565b8152019201916119a2565b60806003198201126116af576001600160401b03916004358381116116af5782611a0a91600401611892565b926024358181116116af5783611a2291600401611900565b926044359182116116af57611a399160040161195e565b9060643590565b9060206003198301126116af576004356001600160401b03928382116116af57806023830112156116af5781600401359384116116af5760248460061b830101116116af576024019190565b90815180825260208080930193019160005b828110611aac575050505090565b83516001600160a01b031685529381019392810192600101611a9e565b90815180825260208080930193019160005b828110611ae9575050505090565b835185529381019392810192600101611adb565b908082519081815260208091019281808460051b8301019501936000915b848310611b2b5750505050505090565b9091929394958480611b49600193601f198682030187528a5161180f565b9801930193019194939290611b1b565b805115611b665760200190565b634e487b7160e01b600052603260045260246000fd5b8051821015611b665760209160051b010190565b9091604091825190611ba182611763565b6001938483526020908136818601376006546001600160a01b0316611bc585611b59565b52805196611bd288611763565b8688528236818a013781518094622f441560e81b8583015282604483018660248501525260648201909260005b8a86838310611c605750505050611c1f925003601f19810185528461177e565b5194611c2a86611763565b855260005b818110611c51575050611c4184611b59565b52611c4b83611b59565b50929190565b60608682018301528101611c2f565b863585528887013589860152958601958995509093019201611bff565b908160209103126116af57516001600160a01b03811681036116af5790565b91908201809211611ca957565b634e487b7160e01b600052601160045260246000fd5b6006546040805163975057e760e01b815290916001600160a01b0391602091600490841683838381845afa928315611e1457908491600094611df5575b50865193849163f1bea54f60e01b835284830152816024978892165afa918215611dea57600092611dbb575b50611d328261187b565b91611d3f8651938461177e565b808352601f199485611d508361187b565b01368686013760005b828110611d8a575050505090611d7e61180c9392855195838794850152830190611ac9565b0390810183528261177e565b6001810190818111611da757611da1829187611b7c565b52611d59565b82601186634e487b7160e01b600052526000fd5b90918382813d8311611de3575b611dd2818361177e565b810103126102ea5750519038611d28565b503d611dc8565b85513d6000823e3d90fd5b611e0d919450823d84116102d9576102ca818361177e565b9238611cfc565b86513d6000823e3d90fd5b600754600042821115611e3e5750428103908111611ca957600c900490565b905090565b9290611e8f92611ea192604051948592611e7f611e6c602086019960808b5260a0870190611a8c565b601f199687878303016040880152611ac9565b9085858303016060860152611afd565b9060808301520390810183528261177e565b51902090565b60009080825260016020928184526040906002828220015460ff81166120c05760081c60ff166120b6576001600160401b0380611ee58484206120cb565b5116801561207257431115612069578482528386524390611f0985858520016120cb565b5116101561206157838152600494858152828220848252611f2b8484206120cb565b50600654845163975057e760e01b8152906001600160a01b039081169084838b81855afa928315612057578592918b918895612033575b50906024918951958694859363f1bea54f60e01b8552840152165afa9081156102e0578491612006575b50851c90633b9aca0091828102928184041490151715611ff35790611fbc826002888b9695015491015490611c9c565b10159586611fdb575b505050505050600014611fd55790565b50600390565b83525220908101549054109050388080848180611fc5565b634e487b7160e01b845260118852602484fd5b90508281813d831161202c575b61201d818361177e565b81010312610a72575138611f8c565b503d612013565b60249291955061204f90853d87116102d9576102ca818361177e565b949091611f62565b87513d88823e3d90fd5b505091505090565b50935050505090565b835162461bcd60e51b815260048101889052601d60248201527f476f7665726e6f723a20756e6b6e6f776e2070726f706f73616c2069640000006044820152606490fd5b5050505050600290565b505050505050600790565b90604051602081016001600160401b0390828110828211176116fc57604052819354169052565b156120f957565b60405162461bcd60e51b815260206004820152602160248201527f476f7665726e6f723a20696e76616c69642070726f706f73616c206c656e67746044820152600d60fb1b6064820152608490fd5b9190916001600160401b0380809416911601918211611ca957565b6000198114611ca95760010190565b3d1561219d573d906121838261179f565b91612191604051938461177e565b82523d6000602084013e565b606090565b90929160009381518201916020818185019403126116af576020810151906001600160401b0382116116af57019180603f840112156116af5760208301516121e98161187b565b936121f7604051958661177e565b8185526040602086019260051b8201019283116116af57939493604001905b82821061238c57505083516006546001600160a01b03169490936000925090825b8581106122475750505050505050565b6122518183611b7c565b519384111561237a57604051636a0738a360e11b81526001600160a01b038416600480830191909152602480830187905260448301889052866020846064818e5afa93841561233a57600094612346575b50836122bb575b505050506122b690612163565b612237565b6040516334c7314b60e21b8152928301528101879052919990916020816044818c5afa90811561233a57600091612306575b506122fb906122b693612b59565b0198903880806122a9565b90506020813d602011612332575b816123216020938361177e565b810103126116af57516122b66122ed565b3d9150612314565b6040513d6000823e3d90fd5b9093506020813d602011612372575b816123626020938361177e565b810103126116af575192386122a2565b3d9150612355565b6040516305ede6cb60e11b8152600490fd5b8151815260209182019101612216565b929190916000938085526001916020928084526040918288206123be85611ea7565b600881101561258f57830361253f57816001600160401b036123e26123ea936120cb565b5116896121a2565b848952600486528389206001600160a01b03909816808a5260038901808852858b2054929a91999260ff166124eb579185828695948c8e999895528a52208260ff198254161790550161243e858254611c9c565b905580516124935750918161248d937fb8e138887d0aa13bab447e82de9d5c1777041ecd21ca36ba824ff1e6c07ddda4979351968796875286015284015260806060840152608083019061180f565b0390a290565b919561248d93876124dd937fe2babfbac5889a709b63bb7f598b324e08bc5a4fb9ec647fb3cbc9ec07eb87129951988998895288015286015260a0606086015260a085019061180f565b90838203608085015261180f565b855162461bcd60e51b815260048101899052602760248201527f476f7665726e6f72566f74696e6753696d706c653a20766f746520616c726561604482015266191e4818d85cdd60ca1b6064820152608490fd5b835162461bcd60e51b815260048101879052602360248201527f476f7665726e6f723a20766f7465206e6f742063757272656e746c792061637460448201526269766560e81b6064820152608490fd5b634e487b7160e01b8a52602160045260248afd5b9390929193600091818352602092600184526040918282206125c485611ea7565b600881101561272d5760010361253f57816001600160401b036123e26125e9936120cb565b978483526004865283832092600384019860018060a01b03169889825280885260ff86832054166124eb578982528752849020805460ff1916600117905588939260ff90911691908261268e5761243e858254611c9c565b80516124935750918161248d937fb8e138887d0aa13bab447e82de9d5c1777041ecd21ca36ba824ff1e6c07ddda4979351968796875286015284015260806060840152608083019061180f565b600183036126ab576001016126a4858254611c9c565b9055612641565b9293509091600283036126cb5790600289949392016126a4858254611c9c565b835162461bcd60e51b815260048101879052603560248201527f476f7665726e6f72566f74696e6753696d706c653a20696e76616c69642076616044820152746c756520666f7220656e756d20566f74655479706560581b6064820152608490fd5b634e487b7160e01b84526021600452602484fd5b9091901561274d575090565b81511561275d5750805190602001fd5b60405162461bcd60e51b81526020600482015290819061278190602483019061180f565b0390fd5b60058110156128e157806127965750565b600181036127e35760405162461bcd60e51b815260206004820152601860248201527f45434453413a20696e76616c6964207369676e617475726500000000000000006044820152606490fd5b600281036128305760405162461bcd60e51b815260206004820152601f60248201527f45434453413a20696e76616c6964207369676e6174757265206c656e677468006044820152606490fd5b600381036128885760405162461bcd60e51b815260206004820152602260248201527f45434453413a20696e76616c6964207369676e6174757265202773272076616c604482015261756560f01b6064820152608490fd5b60041461289157565b60405162461bcd60e51b815260206004820152602260248201527f45434453413a20696e76616c6964207369676e6174757265202776272076616c604482015261756560f01b6064820152608490fd5b634e487b7160e01b600052602160045260246000fd5b9291907f7fffffffffffffffffffffffffffffff5d576e7357a4501ddfe92f46681b20a083116129a05760ff16601b81141580612995575b612989579160809493916020936040519384528484015260408301526060820152600093849182805260015afa1561297c5781516001600160a01b03811615612976579190565b50600190565b50604051903d90823e3d90fd5b50505050600090600490565b50601c81141561292f565b50505050600090600390565b6129b46129dd565b9060405190602082019261190160f01b84526022830152604282015260428152611ea181611748565b307f00000000000000000000000000000000000000000000000000000000000000006001600160a01b03161480612ac8575b15612a38577f000000000000000000000000000000000000000000000000000000000000000090565b60405160208101907f000000000000000000000000000000000000000000000000000000000000000082527f000000000000000000000000000000000000000000000000000000000000000060408201527f000000000000000000000000000000000000000000000000000000000000000060608201524660808201523060a082015260a08152611ea1816116e1565b507f00000000000000000000000000000000000000000000000000000000000000004614612a0f565b6001600160401b0390818111612b05571690565b60405162461bcd60e51b815260206004820152602660248201527f53616665436173743a2076616c756520646f65736e27742066697420696e203660448201526534206269747360d01b6064820152608490fd5b90633b9aca00906000198383099280830292838086109503948086039514612bf45782851015612bd657908291096001821901821680920460028082600302188083028203028083028203028083028203028083028203028083028203028092029003029360018380600003040190848311900302920304170290565b6044858460405191631dcf306360e21b835260048301526024820152fd5b505080925015612c02570490565b634e487b7160e01b600052601260045260246000fdfea264697066735822122089295fee4d3c645f4e573f628f4620ebb2cad3c5232d4f3b66c334ed3e5a386364736f6c63430008110033",
    "linkReferences": {}
  },
  "methodIdentifiers": {
    "BALLOT_TYPEHASH()": "deaaa7cc",
    "COUNTING_MODE()": "dd4e2ba5",
    "EXTENDED_BALLOT_TYPEHASH()": "2fe3e261",
    "MAX_VOTING_POWER_TIER()": "4b501fbd",
    "attestToScorecard(uint256)": "19f82536",
    "attestToScorecardWithReasonAndParams(uint256,bytes)": "7c8bd0ed",
    "castVote(uint256,uint8)": "56781388",
    "castVoteBySig(uint256,uint8,uint8,bytes32,bytes32)": "3bccf4fd",
    "castVoteWithReason(uint256,uint8,string)": "7b3c71d3",
    "castVoteWithReasonAndParams(uint256,uint8,string,bytes)": "5f398a14",
    "castVoteWithReasonAndParamsBySig(uint256,uint8,string,bytes,uint8,bytes32,bytes32)": "03420181",
    "codeOrigin()": "1d153ca4",
    "delegate()": "c89e4361",
    "execute(address[],uint256[],bytes[],bytes32)": "2656227d",
    "getVotes(address,uint256)": "eb9019d4",
    "getVotesWithParams(address,uint256,bytes)": "9a802a6d",
    "hasVoted(uint256,address)": "43859632",
    "hashProposal(address[],uint256[],bytes[],bytes32)": "c59057e4",
    "initialize(address,uint256,uint256)": "7a1ac61e",
    "name()": "06fdde03",
    "onERC1155BatchReceived(address,address,uint256[],uint256[],bytes)": "bc197c81",
    "onERC1155Received(address,address,uint256,uint256,bytes)": "f23a6e61",
    "onERC721Received(address,address,uint256,bytes)": "150b7a02",
    "proposalDeadline(uint256)": "c01f9e37",
    "proposalSnapshot(uint256)": "2d63f693",
    "proposalThreshold()": "b58131b0",
    "proposalVotes(uint256)": "544ffc9c",
    "propose(address[],uint256[],bytes[],string)": "7d5e81e2",
    "quorum(uint256)": "f8ce560a",
    "ratifyScorecard((uint256,uint256)[])": "64d87a61",
    "relay(address,uint256,bytes)": "c28bc2fa",
    "state(uint256)": "3e4f49e6",
    "submitScorecards((uint256,uint256)[])": "59f397bd",
    "supportsInterface(bytes4)": "01ffc9a7",
    "version()": "54fd4d50",
    "votingDelay()": "3932abb1",
    "votingPeriod()": "02a251a3",
    "votingStartTime()": "2019a608"
  },
  "id": 2
}