{
  "abi": [
    {
      "inputs": [],
      "stateMutability": "nonpayable",
      "type": "constructor"
    },
    {
      "inputs": [],
      "name": "DISABLED",
      "type": "error"
    },
    {
      "inputs": [],
      "name": "Empty",
      "type": "error"
    },
    {
      "inputs": [],
      "name": "INCORRECT_TIER_ORDER",
      "type": "error"
    },
    {
      "inputs": [
        {
          "internalType": "uint256",
          "name": "prod1",
          "type": "uint256"
        },
        {
          "internalType": "uint256",
          "name": "denominator",
          "type": "uint256"
        }
      ],
      "name": "PRBMath__MulDivOverflow",
      "type": "error"
    },
    {
      "anonymous": false,
      "inputs": [
        {
          "indexed": false,
          "internalType": "uint256",
          "name": "proposalId",
          "type": "uint256"
        }
      ],
      "name": "ProposalCanceled",
      "type": "event"
    },
    {
      "anonymous": false,
      "inputs": [
        {
          "indexed": false,
          "internalType": "uint256",
          "name": "proposalId",
          "type": "uint256"
        },
        {
          "indexed": false,
          "internalType": "address",
          "name": "proposer",
          "type": "address"
        },
        {
          "indexed": false,
          "internalType": "address[]",
          "name": "targets",
          "type": "address[]"
        },
        {
          "indexed": false,
          "internalType": "uint256[]",
          "name": "values",
          "type": "uint256[]"
        },
        {
          "indexed": false,
          "internalType": "string[]",
          "name": "signatures",
          "type": "string[]"
        },
        {
          "indexed": false,
          "internalType": "bytes[]",
          "name": "calldatas",
          "type": "bytes[]"
        },
        {
          "indexed": false,
          "internalType": "uint256",
          "name": "startBlock",
          "type": "uint256"
        },
        {
          "indexed": false,
          "internalType": "uint256",
          "name": "endBlock",
          "type": "uint256"
        },
        {
          "indexed": false,
          "internalType": "string",
          "name": "description",
          "type": "string"
        }
      ],
      "name": "ProposalCreated",
      "type": "event"
    },
    {
      "anonymous": false,
      "inputs": [
        {
          "indexed": false,
          "internalType": "uint256",
          "name": "proposalId",
          "type": "uint256"
        }
      ],
      "name": "ProposalExecuted",
      "type": "event"
    },
    {
      "anonymous": false,
      "inputs": [
        {
          "indexed": true,
          "internalType": "address",
          "name": "voter",
          "type": "address"
        },
        {
          "indexed": false,
          "internalType": "uint256",
          "name": "proposalId",
          "type": "uint256"
        },
        {
          "indexed": false,
          "internalType": "uint8",
          "name": "support",
          "type": "uint8"
        },
        {
          "indexed": false,
          "internalType": "uint256",
          "name": "weight",
          "type": "uint256"
        },
        {
          "indexed": false,
          "internalType": "string",
          "name": "reason",
          "type": "string"
        }
      ],
      "name": "VoteCast",
      "type": "event"
    },
    {
      "anonymous": false,
      "inputs": [
        {
          "indexed": true,
          "internalType": "address",
          "name": "voter",
          "type": "address"
        },
        {
          "indexed": false,
          "internalType": "uint256",
          "name": "proposalId",
          "type": "uint256"
        },
        {
          "indexed": false,
          "internalType": "uint8",
          "name": "support",
          "type": "uint8"
        },
        {
          "indexed": false,
          "internalType": "uint256",
          "name": "weight",
          "type": "uint256"
        },
        {
          "indexed": false,
          "internalType": "string",
          "name": "reason",
          "type": "string"
        },
        {
          "indexed": false,
          "internalType": "bytes",
          "name": "params",
          "type": "bytes"
        }
      ],
      "name": "VoteCastWithParams",
      "type": "event"
    },
    {
      "inputs": [],
      "name": "BALLOT_TYPEHASH",
      "outputs": [
        {
          "internalType": "bytes32",
          "name": "",
          "type": "bytes32"
        }
      ],
      "stateMutability": "view",
      "type": "function"
    },
    {
      "inputs": [],
      "name": "COUNTING_MODE",
      "outputs": [
        {
          "internalType": "string",
          "name": "",
          "type": "string"
        }
      ],
      "stateMutability": "pure",
      "type": "function"
    },
    {
      "inputs": [],
      "name": "EXTENDED_BALLOT_TYPEHASH",
      "outputs": [
        {
          "internalType": "bytes32",
          "name": "",
          "type": "bytes32"
        }
      ],
      "stateMutability": "view",
      "type": "function"
    },
    {
      "inputs": [],
      "name": "MAX_VOTING_POWER_TIER",
      "outputs": [
        {
          "internalType": "uint256",
          "name": "",
          "type": "uint256"
        }
      ],
      "stateMutability": "view",
      "type": "function"
    },
    {
      "inputs": [
        {
          "internalType": "uint256",
          "name": "_scorecardId",
          "type": "uint256"
        }
      ],
      "name": "attestToScorecard",
      "outputs": [],
      "stateMutability": "nonpayable",
      "type": "function"
    },
    {
      "inputs": [
        {
          "internalType": "uint256",
          "name": "_scorecardId",
          "type": "uint256"
        },
        {
          "internalType": "bytes",
          "name": "params",
          "type": "bytes"
        }
      ],
      "name": "attestToScorecardWithReasonAndParams",
      "outputs": [],
      "stateMutability": "nonpayable",
      "type": "function"
    },
    {
      "inputs": [
        {
          "internalType": "uint256",
          "name": "proposalId",
          "type": "uint256"
        },
        {
          "internalType": "uint8",
          "name": "support",
          "type": "uint8"
        }
      ],
      "name": "castVote",
      "outputs": [
        {
          "internalType": "uint256",
          "name": "",
          "type": "uint256"
        }
      ],
      "stateMutability": "nonpayable",
      "type": "function"
    },
    {
      "inputs": [
        {
          "internalType": "uint256",
          "name": "proposalId",
          "type": "uint256"
        },
        {
          "internalType": "uint8",
          "name": "support",
          "type": "uint8"
        },
        {
          "internalType": "uint8",
          "name": "v",
          "type": "uint8"
        },
        {
          "internalType": "bytes32",
          "name": "r",
          "type": "bytes32"
        },
        {
          "internalType": "bytes32",
          "name": "s",
          "type": "bytes32"
        }
      ],
      "name": "castVoteBySig",
      "outputs": [
        {
          "internalType": "uint256",
          "name": "",
          "type": "uint256"
        }
      ],
      "stateMutability": "nonpayable",
      "type": "function"
    },
    {
      "inputs": [
        {
          "internalType": "uint256",
          "name": "proposalId",
          "type": "uint256"
        },
        {
          "internalType": "uint8",
          "name": "support",
          "type": "uint8"
        },
        {
          "internalType": "string",
          "name": "reason",
          "type": "string"
        }
      ],
      "name": "castVoteWithReason",
      "outputs": [
        {
          "internalType": "uint256",
          "name": "",
          "type": "uint256"
        }
      ],
      "stateMutability": "nonpayable",
      "type": "function"
    },
    {
      "inputs": [
        {
          "internalType": "uint256",
          "name": "proposalId",
          "type": "uint256"
        },
        {
          "internalType": "uint8",
          "name": "support",
          "type": "uint8"
        },
        {
          "internalType": "string",
          "name": "reason",
          "type": "string"
        },
        {
          "internalType": "bytes",
          "name": "params",
          "type": "bytes"
        }
      ],
      "name": "castVoteWithReasonAndParams",
      "outputs": [
        {
          "internalType": "uint256",
          "name": "",
          "type": "uint256"
        }
      ],
      "stateMutability": "nonpayable",
      "type": "function"
    },
    {
      "inputs": [
        {
          "internalType": "uint256",
          "name": "proposalId",
          "type": "uint256"
        },
        {
          "internalType": "uint8",
          "name": "support",
          "type": "uint8"
        },
        {
          "internalType": "string",
          "name": "reason",
          "type": "string"
        },
        {
          "internalType": "bytes",
          "name": "params",
          "type": "bytes"
        },
        {
          "internalType": "uint8",
          "name": "v",
          "type": "uint8"
        },
        {
          "internalType": "bytes32",
          "name": "r",
          "type": "bytes32"
        },
        {
          "internalType": "bytes32",
          "name": "s",
          "type": "bytes32"
        }
      ],
      "name": "castVoteWithReasonAndParamsBySig",
      "outputs": [
        {
          "internalType": "uint256",
          "name": "",
          "type": "uint256"
        }
      ],
      "stateMutability": "nonpayable",
      "type": "function"
    },
    {
      "inputs": [],
      "name": "codeOrigin",
      "outputs": [
        {
          "internalType": "address",
          "name": "",
          "type": "address"
        }
      ],
      "stateMutability": "view",
      "type": "function"
    },
    {
      "inputs": [],
      "name": "defifaDelegate",
      "outputs": [
        {
          "internalType": "contract IDefifaDelegate",
          "name": "",
          "type": "address"
        }
      ],
      "stateMutability": "view",
      "type": "function"
    },
    {
      "inputs": [
        {
          "internalType": "address[]",
          "name": "targets",
          "type": "address[]"
        },
        {
          "internalType": "uint256[]",
          "name": "values",
          "type": "uint256[]"
        },
        {
          "internalType": "bytes[]",
          "name": "calldatas",
          "type": "bytes[]"
        },
        {
          "internalType": "bytes32",
          "name": "descriptionHash",
          "type": "bytes32"
        }
      ],
      "name": "execute",
      "outputs": [
        {
          "internalType": "uint256",
          "name": "",
          "type": "uint256"
        }
      ],
      "stateMutability": "payable",
      "type": "function"
    },
    {
      "inputs": [
        {
          "internalType": "address",
          "name": "account",
          "type": "address"
        },
        {
          "internalType": "uint256",
          "name": "blockNumber",
          "type": "uint256"
        }
      ],
      "name": "getVotes",
      "outputs": [
        {
          "internalType": "uint256",
          "name": "",
          "type": "uint256"
        }
      ],
      "stateMutability": "view",
      "type": "function"
    },
    {
      "inputs": [
        {
          "internalType": "address",
          "name": "account",
          "type": "address"
        },
        {
          "internalType": "uint256",
          "name": "blockNumber",
          "type": "uint256"
        },
        {
          "internalType": "bytes",
          "name": "params",
          "type": "bytes"
        }
      ],
      "name": "getVotesWithParams",
      "outputs": [
        {
          "internalType": "uint256",
          "name": "",
          "type": "uint256"
        }
      ],
      "stateMutability": "view",
      "type": "function"
    },
    {
      "inputs": [
        {
          "internalType": "uint256",
          "name": "proposalId",
          "type": "uint256"
        },
        {
          "internalType": "address",
          "name": "account",
          "type": "address"
        }
      ],
      "name": "hasVoted",
      "outputs": [
        {
          "internalType": "bool",
          "name": "",
          "type": "bool"
        }
      ],
      "stateMutability": "view",
      "type": "function"
    },
    {
      "inputs": [
        {
          "internalType": "address[]",
          "name": "targets",
          "type": "address[]"
        },
        {
          "internalType": "uint256[]",
          "name": "values",
          "type": "uint256[]"
        },
        {
          "internalType": "bytes[]",
          "name": "calldatas",
          "type": "bytes[]"
        },
        {
          "internalType": "bytes32",
          "name": "descriptionHash",
          "type": "bytes32"
        }
      ],
      "name": "hashProposal",
      "outputs": [
        {
          "internalType": "uint256",
          "name": "",
          "type": "uint256"
        }
      ],
      "stateMutability": "pure",
      "type": "function"
    },
    {
      "inputs": [
        {
          "internalType": "contract IDefifaDelegate",
          "name": "_defifaDelegate",
          "type": "address"
        },
        {
          "internalType": "uint256",
          "name": "_votingStartTime",
          "type": "uint256"
        }
      ],
      "name": "initialize",
      "outputs": [],
      "stateMutability": "nonpayable",
      "type": "function"
    },
    {
      "inputs": [],
      "name": "name",
      "outputs": [
        {
          "internalType": "string",
          "name": "",
          "type": "string"
        }
      ],
      "stateMutability": "view",
      "type": "function"
    },
    {
      "inputs": [
        {
          "internalType": "address",
          "name": "",
          "type": "address"
        },
        {
          "internalType": "address",
          "name": "",
          "type": "address"
        },
        {
          "internalType": "uint256[]",
          "name": "",
          "type": "uint256[]"
        },
        {
          "internalType": "uint256[]",
          "name": "",
          "type": "uint256[]"
        },
        {
          "internalType": "bytes",
          "name": "",
          "type": "bytes"
        }
      ],
      "name": "onERC1155BatchReceived",
      "outputs": [
        {
          "internalType": "bytes4",
          "name": "",
          "type": "bytes4"
        }
      ],
      "stateMutability": "nonpayable",
      "type": "function"
    },
    {
      "inputs": [
        {
          "internalType": "address",
          "name": "",
          "type": "address"
        },
        {
          "internalType": "address",
          "name": "",
          "type": "address"
        },
        {
          "internalType": "uint256",
          "name": "",
          "type": "uint256"
        },
        {
          "internalType": "uint256",
          "name": "",
          "type": "uint256"
        },
        {
          "internalType": "bytes",
          "name": "",
          "type": "bytes"
        }
      ],
      "name": "onERC1155Received",
      "outputs": [
        {
          "internalType": "bytes4",
          "name": "",
          "type": "bytes4"
        }
      ],
      "stateMutability": "nonpayable",
      "type": "function"
    },
    {
      "inputs": [
        {
          "internalType": "address",
          "name": "",
          "type": "address"
        },
        {
          "internalType": "address",
          "name": "",
          "type": "address"
        },
        {
          "internalType": "uint256",
          "name": "",
          "type": "uint256"
        },
        {
          "internalType": "bytes",
          "name": "",
          "type": "bytes"
        }
      ],
      "name": "onERC721Received",
      "outputs": [
        {
          "internalType": "bytes4",
          "name": "",
          "type": "bytes4"
        }
      ],
      "stateMutability": "nonpayable",
      "type": "function"
    },
    {
      "inputs": [
        {
          "internalType": "uint256",
          "name": "proposalId",
          "type": "uint256"
        }
      ],
      "name": "proposalDeadline",
      "outputs": [
        {
          "internalType": "uint256",
          "name": "",
          "type": "uint256"
        }
      ],
      "stateMutability": "view",
      "type": "function"
    },
    {
      "inputs": [
        {
          "internalType": "uint256",
          "name": "proposalId",
          "type": "uint256"
        }
      ],
      "name": "proposalSnapshot",
      "outputs": [
        {
          "internalType": "uint256",
          "name": "",
          "type": "uint256"
        }
      ],
      "stateMutability": "view",
      "type": "function"
    },
    {
      "inputs": [],
      "name": "proposalThreshold",
      "outputs": [
        {
          "internalType": "uint256",
          "name": "",
          "type": "uint256"
        }
      ],
      "stateMutability": "pure",
      "type": "function"
    },
    {
      "inputs": [
        {
          "internalType": "uint256",
          "name": "proposalId",
          "type": "uint256"
        }
      ],
      "name": "proposalVotes",
      "outputs": [
        {
          "internalType": "uint256",
          "name": "againstVotes",
          "type": "uint256"
        },
        {
          "internalType": "uint256",
          "name": "forVotes",
          "type": "uint256"
        },
        {
          "internalType": "uint256",
          "name": "abstainVotes",
          "type": "uint256"
        }
      ],
      "stateMutability": "view",
      "type": "function"
    },
    {
      "inputs": [
        {
          "internalType": "address[]",
          "name": "targets",
          "type": "address[]"
        },
        {
          "internalType": "uint256[]",
          "name": "values",
          "type": "uint256[]"
        },
        {
          "internalType": "bytes[]",
          "name": "calldatas",
          "type": "bytes[]"
        },
        {
          "internalType": "string",
          "name": "description",
          "type": "string"
        }
      ],
      "name": "propose",
      "outputs": [
        {
          "internalType": "uint256",
          "name": "",
          "type": "uint256"
        }
      ],
      "stateMutability": "nonpayable",
      "type": "function"
    },
    {
      "inputs": [
        {
          "internalType": "uint256",
          "name": "",
          "type": "uint256"
        }
      ],
      "name": "quorum",
      "outputs": [
        {
          "internalType": "uint256",
          "name": "",
          "type": "uint256"
        }
      ],
      "stateMutability": "view",
      "type": "function"
    },
    {
      "inputs": [
        {
          "components": [
            {
              "internalType": "uint256",
              "name": "id",
              "type": "uint256"
            },
            {
              "internalType": "uint256",
              "name": "redemptionWeight",
              "type": "uint256"
            }
          ],
          "internalType": "struct DefifaTierRedemptionWeight[]",
          "name": "_tierWeights",
          "type": "tuple[]"
        }
      ],
      "name": "ratifyScorecard",
      "outputs": [
        {
          "internalType": "uint256",
          "name": "",
          "type": "uint256"
        }
      ],
      "stateMutability": "nonpayable",
      "type": "function"
    },
    {
      "inputs": [
        {
          "internalType": "address",
          "name": "target",
          "type": "address"
        },
        {
          "internalType": "uint256",
          "name": "value",
          "type": "uint256"
        },
        {
          "internalType": "bytes",
          "name": "data",
          "type": "bytes"
        }
      ],
      "name": "relay",
      "outputs": [],
      "stateMutability": "nonpayable",
      "type": "function"
    },
    {
      "inputs": [
        {
          "internalType": "uint256",
          "name": "proposalId",
          "type": "uint256"
        }
      ],
      "name": "state",
      "outputs": [
        {
          "internalType": "enum IGovernor.ProposalState",
          "name": "",
          "type": "uint8"
        }
      ],
      "stateMutability": "view",
      "type": "function"
    },
    {
      "inputs": [
        {
          "components": [
            {
              "internalType": "uint256",
              "name": "id",
              "type": "uint256"
            },
            {
              "internalType": "uint256",
              "name": "redemptionWeight",
              "type": "uint256"
            }
          ],
          "internalType": "struct DefifaTierRedemptionWeight[]",
          "name": "_tierWeights",
          "type": "tuple[]"
        }
      ],
      "name": "submitScorecards",
      "outputs": [
        {
          "internalType": "uint256",
          "name": "",
          "type": "uint256"
        }
      ],
      "stateMutability": "nonpayable",
      "type": "function"
    },
    {
      "inputs": [
        {
          "internalType": "bytes4",
          "name": "interfaceId",
          "type": "bytes4"
        }
      ],
      "name": "supportsInterface",
      "outputs": [
        {
          "internalType": "bool",
          "name": "",
          "type": "bool"
        }
      ],
      "stateMutability": "view",
      "type": "function"
    },
    {
      "inputs": [],
      "name": "version",
      "outputs": [
        {
          "internalType": "string",
          "name": "",
          "type": "string"
        }
      ],
      "stateMutability": "view",
      "type": "function"
    },
    {
      "inputs": [],
      "name": "votingDelay",
      "outputs": [
        {
          "internalType": "uint256",
          "name": "",
          "type": "uint256"
        }
      ],
      "stateMutability": "view",
      "type": "function"
    },
    {
      "inputs": [],
      "name": "votingPeriod",
      "outputs": [
        {
          "internalType": "uint256",
          "name": "",
          "type": "uint256"
        }
      ],
      "stateMutability": "pure",
      "type": "function"
    },
    {
      "inputs": [],
      "name": "votingStartTime",
      "outputs": [
        {
          "internalType": "uint256",
          "name": "",
          "type": "uint256"
        }
      ],
      "stateMutability": "view",
      "type": "function"
    },
    {
      "stateMutability": "payable",
      "type": "receive"
    }
  ],
  "bytecode": {
    "object": "0x61016060409080825234620002855762000019816200028a565b600e8152602091828201916d2232b334b330a3b7bb32b93737b960911b835283825162000046816200028a565b60019181838093520194603160f81b86528351902094208460e052610100958187524660a052845191818301907f8b73c3c69bb8fe3d512ecc4cf759cc79239f7b179b0ffacaa9a75d522b39400f978883528785015260608401524660808401523060a084015260a0835260c083019260018060401b0393818110858211176200026f5787525190206080523060c05261012095865283519182116200026f5760009384548481811c9116801562000264575b838210146200025057601f811162000205575b5081601f84116001146200019d5750928293918392869462000191575b50501b916000199060031b1c19161790555b610140903082525191612c449384620002a7853960805184612a0c015260a05184612ac1015260c051846129d6015260e05184612a5b01525183612a8101525182612a3801525181818161044201526113560152f35b01519250388062000129565b919083601f1981168780528488209488905b88838310620001ea5750505010620001d0575b505050811b0190556200013b565b015160001960f88460031b161c19169055388080620001c2565b858701518855909601959485019487935090810190620001af565b858052828620601f850160051c81019184861062000245575b601f0160051c019085905b828110620002395750506200010c565b87815501859062000229565b90915081906200021e565b634e487b7160e01b86526022600452602486fd5b90607f1690620000f9565b634e487b7160e01b600052604160045260246000fd5b600080fd5b604081019081106001600160401b038211176200026f5760405256fe6080604081815260049081361015610022575b505050361561002057600080fd5b005b600092833560e01c90816301ffc9a7146116335750806302a251a314611615578063034201811461150d57806306fdde03146113f8578063150b7a02146113a357806319f82536146113855780631d153ca4146113415780632019a608146113225780632656227d146111b45780632d63f693146111845780632fe3e261146111495780633932abb11461112c5780633bccf4fd146110745780633e4f49e61461102f5780634385963214610fe65780634b501fbd14610fc7578063544ffc9c14610f8a57806354fd4d5014610f495780635678138814610f1257806358d5ac0a14610ee957806359f397bd14610e195780635f398a1414610da657806364d87a6114610b8a5780637b3c71d314610b2b5780637c8bd0ed14610add5780637d5e81e21461076c5780639a802a6d1461072a578063b58131b01461070f578063bc197c8114610689578063c01f9e371461064e578063c28bc2fa146104a8578063c59057e414610489578063cd6dc6871461041b578063dd4e2ba5146103ba578063deaaa7cc1461037f578063eb9019d414610346578063f23a6e61146102f15763f8ce560a0361001257346102ed57602092836003193601126102ea57600554825163975057e760e01b81526001600160a01b0391821686828781845afa9182156102e0579087929185926102ae575b506024908651948593849263f1bea54f60e01b84528a840152165afa9081156102a4578291610273575b5060011c92633b9aca009384810294818604149015171561026057505051908152f35b634e487b7160e01b825260119052602490fd5b90508481813d831161029d575b61028a8183611796565b8101031261029957513861023d565b5080fd5b503d610280565b83513d84823e3d90fd5b60249192506102d290843d86116102d9575b6102ca8183611796565b810190611c8e565b9190610213565b503d6102c0565b85513d86823e3d90fd5b80fd5b8280fd5b5082346102ea5760a03660031901126102ea5761030c611867565b5061031561187d565b50608435906001600160401b0382116102ea575060209261033891369101611809565b505163f23a6e6160e01b8152f35b838234610299578060031936011261029957602090610378610366611867565b61036e611cd0565b9060243590612198565b9051908152f35b838234610299578160031936011261029957602090517f150214d74d59b7d1e90c73fc22ef3d991dd0a76b046543d4d80ab92d2a50328f8152f35b8382346102995781600319360112610299578051610417916103db8261177b565b602082527f737570706f72743d627261766f2671756f72756d3d666f722c6162737461696e602083015251918291602083526020830190611827565b0390f35b50346102ed5736600319011261029957356001600160a01b03818116918290036102ed57807f00000000000000000000000000000000000000000000000000000000000000001630146102ed576005549081166102ed576001600160a01b0319161760055560243560065580f35b8382346102995760209061037861049f366119f6565b92919091611e54565b5090346102ed5760603660031901126102ed576104c3611867565b6024356044356001600160401b03811161064a576104e490369085016116cc565b30330361060757906104f79136916117d2565b9284519461050486611745565b602986527f416464726573733a206c6f772d6c6576656c2063616c6c20776974682076616c6020870152681d594819985a5b195960ba1b818701528247106105b557833b15610572578661056e878280898989602083519301915af1610568612168565b90612737565b5080f35b906020606492519162461bcd60e51b8352820152601d60248201527f416464726573733a2063616c6c20746f206e6f6e2d636f6e74726163740000006044820152fd5b906020608492519162461bcd60e51b8352820152602660248201527f416464726573733a20696e73756666696369656e742062616c616e636520666f6044820152651c8818d85b1b60d21b6064820152fd5b855162461bcd60e51b8152602081870152601860248201527f476f7665726e6f723a206f6e6c79476f7665726e616e636500000000000000006044820152606490fd5b8580fd5b5090346102ed5760203660031901126102ed576106806001836020956001600160401b039435815282875220016120dc565b51169051908152f35b5082346102ea5760a03660031901126102ea576106a4611867565b506106ad61187d565b506001600160401b0390604435828111610299576106ce9036908601611918565b50606435828111610299576106e69036908601611918565b506084359182116102ea575060209261070191369101611809565b505163bc197c8160e01b8152f35b83823461029957816003193601126102995751908152602090f35b5090346102ed5760603660031901126102ed57610745611867565b92604435906001600160401b0382116102ea57509261036e61037892602095369101611809565b5082346102ea5760803660031901126102ea576001600160401b039183358381116102ed5761079e90369086016118aa565b6024908135858111610ad9576107b79036908801611918565b9460443581811161064a576107cf9036908901611976565b91606435828111610ad55736602382011215610ad5576107f790369086818c013591016117d2565b92303303610ac5576000194301438111610ab35761081e90610817611cd0565b9033612198565b5083519861083460209a8b870120838b86611e54565b9761084284518b5114612103565b61084f8451845114612103565b835115610a7157888152600191828c52888220958061086d886120dc565b5116610a245761087c43612ae7565b818061088e610889611e30565b612ae7565b16911601818111610a12578116986201881d8a0192828411610a01575050836001600160401b0394939419978a8982541617815501911680968254161790556108f88b8551956108dd87611893565b966108ea8c519889611796565b808852601f19938491611893565b01855b8181106109f25750508b9c61092b610939928d9e9d80519e8f908152338782015261012080928201520190611aa4565b8c810360608e015290611ae1565b8a810360808c01528651928382528282019183808660051b830101990196935b8585106109c45793505050508b8b7f7d84a6263ae0d98d3329bd7b46bb4e8d6f98cd35a7adb45c274c8b7fd5ebd5e08c806109bb8e8e8e6109a28f8f87820360a0890152611b15565b9260c086015260e0850152838203610100850152611827565b0390a151908152f35b806109e08b85858b9c9e9b969798999a9b030188528c51611827565b9a01940194019295949391908f610959565b606089820185015283016108fb565b634e487b7160e01b85526011905283fd5b634e487b7160e01b8452601183528984fd5b50885162461bcd60e51b81529081018c90526021818901527f476f7665726e6f723a2070726f706f73616c20616c72656164792065786973746044820152607360f81b6064820152608490fd5b875162461bcd60e51b81528083018c90526018818901527f476f7665726e6f723a20656d7074792070726f706f73616c00000000000000006044820152606490fd5b634e487b7160e01b885260118a528588fd5b8551631596f13360e31b81528990fd5b8680fd5b8480fd5b50346102ed57806003193601126102ed57602435916001600160401b038311610b2757610b1061056e9336908301611809565b915190610b1c8261172a565b848252339035612392565b8380fd5b5082346102ea5760603660031901126102ea57610b466116b7565b90604435906001600160401b0382116102ea57509261037891610b78610b71602096369085016116cc565b36916117d2565b90610b81611cd0565b92339035612599565b50346102ed57610ba2610b9c36611a58565b90611ba1565b9190948351956020968781019060808252610c1f610bc360a0830187611aa4565b82610bed610bdd601f199384848203018d85015288611ae1565b838382030160608401528a611b15565b7fc5d2460186f7233c927e7db2dcc703c0e500b653ca82273b7bfad8045d85a470608083015203908101835282611796565b51902095610c2c87611eb8565b6008811015610d9357818114908115610d88575b5015610d3b57508582526001938488526002868420018560ff198254161790557f712ae1383f79ac853f8d882153778e0260ef8f03b504e2866e0593e04d2b291f888751898152a1855193610c9485611745565b602785527f476f7665726e6f723a2063616c6c20726576657274656420776974686f75742089860152666d65737361676560c81b878601528884875b610cdd575b508751898152f35b8251811015610d3657610d28878780610d2e9560018060a01b03610d01878a611b8d565b5116610d0d878c611b8d565b51610d18888c611b8d565b5180519301915af1610568612168565b50612159565b899087610cd0565b610cd5565b855162461bcd60e51b8152908101889052602160248201527f476f7665726e6f723a2070726f706f73616c206e6f74207375636365737366756044820152601b60fa1b6064820152608490fd5b600591501438610c40565b634e487b7160e01b845260218252602484fd5b5090346102ed5760803660031901126102ed57610dc16116b7565b6001600160401b039360443585811161029957610de190369085016116cc565b9590916064359182116102ea575091610e106103789492610e086020989536908601611809565b9436916117d2565b91339035612599565b5082903461029957608092610e5b83610e7e610e6e610e3a610b9c36611a58565b929188969196519a8b98633eaf40f160e11b8a528901526084880190611aa4565b6003199586888303016024890152611ae1565b9084868303016044870152611b15565b838103928301606485015252602094858092018186305af1928315610ede578093610eac575b505051908152f35b909192508382813d8311610ed7575b610ec58183611796565b810103126102ea575051908380610ea4565b503d610ebb565b8251903d90823e3d90fd5b83823461029957816003193601126102995760055490516001600160a01b039091168152602090f35b5090346102ed57816003193601126102ed5761037890602093610f336116b7565b845191610f3f8361172a565b8252610b81611cd0565b838234610299578160031936011261029957805161041791610f6a8261177b565b60018252603160f81b602083015251918291602083526020830190611827565b5090346102ed5760203660031901126102ed5760609281839235825260205220805491600260018301549201549181519384526020840152820152f35b83823461029957816003193601126102995760209051633b9aca008152f35b5090346102ed57816003193601126102ed578160209360ff9261100761187d565b813583529086528282206001600160a01b039091168252600301855220549151911615158152f35b508290346102995760203660031901126102995761104d8335611eb8565b905191600882101561106157602083838152f35b634e487b7160e01b815260218452602490fd5b5090346102ed5760a03660031901126102ed57356110906116b7565b60443560ff81168103610ad9579361037892916111106111086020978751898101917f150214d74d59b7d1e90c73fc22ef3d991dd0a76b046543d4d80ab92d2a50328f8352878a83015260ff86166060830152606082526110f082611760565b61110360843593606435935190206129a2565b6128ed565b91909161277b565b85519261111c8461172a565b8352611126611cd0565b93612599565b838234610299578160031936011261029957602090610378611e30565b838234610299578160031936011261029957602090517fb3b3f3b703cd84ce352197dcff232b1b5d3cfb2025ce47cf04742d0651f1af888152f35b5090346102ed5760203660031901126102ed57610680826020946001600160401b039335815260018652206120dc565b506111ce6111c1366119f6565b8183859994969399611e54565b946111d886611eb8565b600881101561130f57818114908115611304575b50156112b757508481526001926020968488526002868420018560ff198254161790557f712ae1383f79ac853f8d882153778e0260ef8f03b504e2866e0593e04d2b291f888751898152a185519361124385611745565b602785527f476f7665726e6f723a2063616c6c20726576657274656420776974686f75742089860152666d65737361676560c81b878601528884875b61128b57508751898152f35b8251811015610d3657610d288787806112af9560018060a01b03610d01878a611b8d565b89908761127f565b608490602086519162461bcd60e51b8352820152602160248201527f476f7665726e6f723a2070726f706f73616c206e6f74207375636365737366756044820152601b60fa1b6064820152fd5b6005915014386111ec565b634e487b7160e01b835260218252602483fd5b8382346102995781600319360112610299576020906006549051908152f35b838234610299578160031936011261029957517f00000000000000000000000000000000000000000000000000000000000000006001600160a01b03168152602090f35b50346102ed5760203660031901126102ed5761056e91610b10611cd0565b5082346102ea5760803660031901126102ea576113be611867565b506113c761187d565b50606435906001600160401b0382116102ea57506020926113ea91369101611809565b5051630a85bd0160e11b8152f35b5082346102ea57806003193601126102ea5781519181825492600184811c91818616958615611503575b60209687851081146114f0578899509688969785829a5291826000146114c957505060011461146e575b505050610417929161145f910385611796565b51928284938452830190611827565b91908693508280527f290decd9548b62a8d60345a988386fc84ba6bc95484008f6362f93160ef3e5635b8284106114b1575050508201018161145f61041761144c565b8054848a018601528895508794909301928101611498565b60ff19168782015293151560051b8601909301935084925061145f9150610417905061144c565b634e487b7160e01b835260228a52602483fd5b92607f1692611422565b5090346102ed5760e03660031901126102ed5780359061152b6116b7565b906001600160401b03604435818111610ad55761154b90369084016116cc565b9190926064359182116116115761156491369101611809565b956084359060ff821682036102ea575061160b6103789593602098959361160389610b71956115943685876117d2565b8d8151910120908a518e8c01208351928f8c908501957fb3b3f3b703cd84ce352197dcff232b1b5d3cfb2025ce47cf04742d0651f1af88875285015260ff8b166060850152608084015260a083015260a082526115f0826116f9565b61110360c4359360a435935190206129a2565b94909461277b565b92612599565b8780fd5b838234610299578160031936011261029957602090516201881d8152f35b849084346102ed5760203660031901126102ed573563ffffffff60e01b81168091036102ed576020925063bf26d89760e01b81149081156116a6575b8115611695575b8115611684575b5015158152f35b6301ffc9a760e01b1490508361167d565b630271189760e51b81149150611676565b6379dd796f60e01b8114915061166f565b6024359060ff821682036116c757565b600080fd5b9181601f840112156116c7578235916001600160401b0383116116c757602083818601950101116116c757565b60c081019081106001600160401b0382111761171457604052565b634e487b7160e01b600052604160045260246000fd5b602081019081106001600160401b0382111761171457604052565b606081019081106001600160401b0382111761171457604052565b608081019081106001600160401b0382111761171457604052565b604081019081106001600160401b0382111761171457604052565b90601f801991011681019081106001600160401b0382111761171457604052565b6001600160401b03811161171457601f01601f191660200190565b9291926117de826117b7565b916117ec6040519384611796565b8294818452818301116116c7578281602093846000960137010152565b9080601f830112156116c757816020611824933591016117d2565b90565b919082519283825260005b848110611853575050826000602080949584010152601f8019910116010190565b602081830181015184830182015201611832565b600435906001600160a01b03821682036116c757565b602435906001600160a01b03821682036116c757565b6001600160401b0381116117145760051b60200190565b81601f820112156116c7578035916118c183611893565b926118cf6040519485611796565b808452602092838086019260051b8201019283116116c7578301905b8282106118f9575050505090565b81356001600160a01b03811681036116c75781529083019083016118eb565b81601f820112156116c75780359161192f83611893565b9261193d6040519485611796565b808452602092838086019260051b8201019283116116c7578301905b828210611967575050505090565b81358152908301908301611959565b9080601f830112156116c75781359061198e82611893565b9261199c6040519485611796565b828452602092838086019160051b830101928084116116c757848301915b8483106119ca5750505050505090565b82356001600160401b0381116116c75786916119eb84848094890101611809565b8152019201916119ba565b60806003198201126116c7576001600160401b03916004358381116116c75782611a22916004016118aa565b926024358181116116c75783611a3a91600401611918565b926044359182116116c757611a5191600401611976565b9060643590565b9060206003198301126116c7576004356001600160401b03928382116116c757806023830112156116c75781600401359384116116c75760248460061b830101116116c7576024019190565b90815180825260208080930193019160005b828110611ac4575050505090565b83516001600160a01b031685529381019392810192600101611ab6565b90815180825260208080930193019160005b828110611b01575050505090565b835185529381019392810192600101611af3565b90815180825260208092019182818360051b85019501936000915b848310611b405750505050505090565b9091929394958480611b5a83856001950387528a51611827565b9801930193019194939290611b30565b805115611b775760200190565b634e487b7160e01b600052603260045260246000fd5b8051821015611b775760209160051b010190565b9091604091825190611bb28261177b565b6001938483526020908136818601376005546001600160a01b0316611bd685611b6a565b52805196611be38861177b565b8688528236818a013781518094622f441560e81b8583015282604483018660248501525260648201909260005b8a86838310611c715750505050611c30925003601f198101855284611796565b5194611c3b8661177b565b855260005b818110611c62575050611c5284611b6a565b52611c5c83611b6a565b50929190565b60608682018301528101611c40565b863585528887013589860152958601958995509093019201611c10565b908160209103126116c757516001600160a01b03811681036116c75790565b91908201809211611cba57565b634e487b7160e01b600052601160045260246000fd5b6005546040805163975057e760e01b815290916001600160a01b0391602091600490841683838381845afa928315611e2557908491600094611e06575b50865193849163f1bea54f60e01b835284830152816024978892165afa918215611dfb57600092611dcc575b50611d4382611893565b91611d5086519384611796565b808352601f199485611d6183611893565b01368686013760005b828110611d9b575050505090611d8f6118249392855195838794850152830190611ae1565b03908101835282611796565b6001810190818111611db857611db2829187611b8d565b52611d6a565b82601186634e487b7160e01b600052526000fd5b90918382813d8311611df4575b611de38183611796565b810103126102ea5750519038611d39565b503d611dd9565b85513d6000823e3d90fd5b611e1e919450823d84116102d9576102ca8183611796565b9238611d0d565b86513d6000823e3d90fd5b600654600042821115611e4f5750428103908111611cba57600c900490565b905090565b9290611ea092611eb292604051948592611e90611e7d602086019960808b5260a0870190611aa4565b601f199687878303016040880152611ae1565b9085858303016060860152611b15565b90608083015203908101835282611796565b51902090565b60009080825260016020928184526040906002828220015460ff81166120d15760081c60ff166120c7576001600160401b0380611ef68484206120dc565b511680156120835743111561207a578482528386524390611f1a85858520016120dc565b5116101561207257838152600494858152828220848252611f3c8484206120dc565b50600554845163975057e760e01b8152906001600160a01b039081169084838b81855afa928315612068578592918b918895612044575b50906024918951958694859363f1bea54f60e01b8552840152165afa9081156102e0578491612017575b50851c90633b9aca00918281029281840414901517156120045790611fcd826002888b9695015491015490611cad565b10159586611fec575b505050505050600014611fe65790565b50600390565b83525220908101549054109050388080848180611fd6565b634e487b7160e01b845260118852602484fd5b90508281813d831161203d575b61202e8183611796565b81010312610b27575138611f9d565b503d612024565b60249291955061206090853d87116102d9576102ca8183611796565b949091611f73565b87513d88823e3d90fd5b505091505090565b50935050505090565b835162461bcd60e51b815260048101889052601d60248201527f476f7665726e6f723a20756e6b6e6f776e2070726f706f73616c2069640000006044820152606490fd5b5050505050600290565b505050505050600790565b90604051602081016001600160401b03908281108282111761171457604052819354169052565b1561210a57565b60405162461bcd60e51b815260206004820152602160248201527f476f7665726e6f723a20696e76616c69642070726f706f73616c206c656e67746044820152600d60fb1b6064820152608490fd5b6000198114611cba5760010190565b3d15612193573d90612179826117b7565b916121876040519384611796565b82523d6000602084013e565b606090565b90929160009381518201916020818185019403126116c7576020810151906001600160401b0382116116c757019180603f840112156116c75760208301516121df81611893565b936121ed6040519586611796565b8185526040602086019260051b8201019283116116c757939493604001905b82821061238257505083516005546001600160a01b03169490936000925090825b85811061223d5750505050505050565b6122478183611b8d565b519384111561237057604051636a0738a360e11b81526001600160a01b038416600480830191909152602480830187905260448301889052866020846064818e5afa9384156123305760009461233c575b50836122b1575b505050506122ac90612159565b61222d565b6040516334c7314b60e21b8152928301528101879052919990916020816044818c5afa908115612330576000916122fc575b506122f1906122ac93612b4f565b01989038808061229f565b90506020813d602011612328575b8161231760209383611796565b810103126116c757516122ac6122e3565b3d915061230a565b6040513d6000823e3d90fd5b9093506020813d602011612368575b8161235860209383611796565b810103126116c757519238612298565b3d915061234b565b6040516305ede6cb60e11b8152600490fd5b815181526020918201910161220c565b929190916000938085526001916020928084526040918288206123b485611eb8565b600881101561258557830361253557816001600160401b036123d86123e0936120dc565b511689612198565b848952600486528389206001600160a01b03909816808a5260038901808852858b2054929a91999260ff166124e1579185828695948c8e999895528a52208260ff1982541617905501612434858254611cad565b9055805161248957509181612483937fb8e138887d0aa13bab447e82de9d5c1777041ecd21ca36ba824ff1e6c07ddda49793519687968752860152840152608060608401526080830190611827565b0390a290565b919561248393876124d3937fe2babfbac5889a709b63bb7f598b324e08bc5a4fb9ec647fb3cbc9ec07eb87129951988998895288015286015260a0606086015260a0850190611827565b908382036080850152611827565b855162461bcd60e51b815260048101899052602760248201527f476f7665726e6f72566f74696e6753696d706c653a20766f746520616c726561604482015266191e4818d85cdd60ca1b6064820152608490fd5b835162461bcd60e51b815260048101879052602360248201527f476f7665726e6f723a20766f7465206e6f742063757272656e746c792061637460448201526269766560e81b6064820152608490fd5b634e487b7160e01b8a52602160045260248afd5b9390929193600091818352602092600184526040918282206125ba85611eb8565b60088110156127235760010361253557816001600160401b036123d86125df936120dc565b978483526004865283832092600384019860018060a01b03169889825280885260ff86832054166124e1578982528752849020805460ff1916600117905588939260ff90911691908261268457612434858254611cad565b805161248957509181612483937fb8e138887d0aa13bab447e82de9d5c1777041ecd21ca36ba824ff1e6c07ddda49793519687968752860152840152608060608401526080830190611827565b600183036126a15760010161269a858254611cad565b9055612637565b9293509091600283036126c157906002899493920161269a858254611cad565b835162461bcd60e51b815260048101879052603560248201527f476f7665726e6f72566f74696e6753696d706c653a20696e76616c69642076616044820152746c756520666f7220656e756d20566f74655479706560581b6064820152608490fd5b634e487b7160e01b84526021600452602484fd5b90919015612743575090565b8151156127535750805190602001fd5b60405162461bcd60e51b815260206004820152908190612777906024830190611827565b0390fd5b60058110156128d7578061278c5750565b600181036127d95760405162461bcd60e51b815260206004820152601860248201527f45434453413a20696e76616c6964207369676e617475726500000000000000006044820152606490fd5b600281036128265760405162461bcd60e51b815260206004820152601f60248201527f45434453413a20696e76616c6964207369676e6174757265206c656e677468006044820152606490fd5b6003810361287e5760405162461bcd60e51b815260206004820152602260248201527f45434453413a20696e76616c6964207369676e6174757265202773272076616c604482015261756560f01b6064820152608490fd5b60041461288757565b60405162461bcd60e51b815260206004820152602260248201527f45434453413a20696e76616c6964207369676e6174757265202776272076616c604482015261756560f01b6064820152608490fd5b634e487b7160e01b600052602160045260246000fd5b9291907f7fffffffffffffffffffffffffffffff5d576e7357a4501ddfe92f46681b20a083116129965760ff16601b8114158061298b575b61297f579160809493916020936040519384528484015260408301526060820152600093849182805260015afa156129725781516001600160a01b0381161561296c579190565b50600190565b50604051903d90823e3d90fd5b50505050600090600490565b50601c811415612925565b50505050600090600390565b6129aa6129d3565b9060405190602082019261190160f01b84526022830152604282015260428152611eb281611760565b307f00000000000000000000000000000000000000000000000000000000000000006001600160a01b03161480612abe575b15612a2e577f000000000000000000000000000000000000000000000000000000000000000090565b60405160208101907f000000000000000000000000000000000000000000000000000000000000000082527f000000000000000000000000000000000000000000000000000000000000000060408201527f000000000000000000000000000000000000000000000000000000000000000060608201524660808201523060a082015260a08152611eb2816116f9565b507f00000000000000000000000000000000000000000000000000000000000000004614612a05565b6001600160401b0390818111612afb571690565b60405162461bcd60e51b815260206004820152602660248201527f53616665436173743a2076616c756520646f65736e27742066697420696e203660448201526534206269747360d01b6064820152608490fd5b90633b9aca00906000198383099280830292838086109503948086039514612bea5782851015612bcc57908291096001821901821680920460028082600302188083028203028083028203028083028203028083028203028083028203028092029003029360018380600003040190848311900302920304170290565b6044858460405191631dcf306360e21b835260048301526024820152fd5b505080925015612bf8570490565b634e487b7160e01b600052601260045260246000fdfea264697066735822122031965aaf8837f56b5d1a6ee4e54dbe887df41fd05d09f80d94dabed0c6724a7664736f6c63430008110033",
    "linkReferences": {}
  },
  "methodIdentifiers": {
    "BALLOT_TYPEHASH()": "deaaa7cc",
    "COUNTING_MODE()": "dd4e2ba5",
    "EXTENDED_BALLOT_TYPEHASH()": "2fe3e261",
    "MAX_VOTING_POWER_TIER()": "4b501fbd",
    "attestToScorecard(uint256)": "19f82536",
    "attestToScorecardWithReasonAndParams(uint256,bytes)": "7c8bd0ed",
    "castVote(uint256,uint8)": "56781388",
    "castVoteBySig(uint256,uint8,uint8,bytes32,bytes32)": "3bccf4fd",
    "castVoteWithReason(uint256,uint8,string)": "7b3c71d3",
    "castVoteWithReasonAndParams(uint256,uint8,string,bytes)": "5f398a14",
    "castVoteWithReasonAndParamsBySig(uint256,uint8,string,bytes,uint8,bytes32,bytes32)": "03420181",
    "codeOrigin()": "1d153ca4",
    "defifaDelegate()": "58d5ac0a",
    "execute(address[],uint256[],bytes[],bytes32)": "2656227d",
    "getVotes(address,uint256)": "eb9019d4",
    "getVotesWithParams(address,uint256,bytes)": "9a802a6d",
    "hasVoted(uint256,address)": "43859632",
    "hashProposal(address[],uint256[],bytes[],bytes32)": "c59057e4",
    "initialize(address,uint256)": "cd6dc687",
    "name()": "06fdde03",
    "onERC1155BatchReceived(address,address,uint256[],uint256[],bytes)": "bc197c81",
    "onERC1155Received(address,address,uint256,uint256,bytes)": "f23a6e61",
    "onERC721Received(address,address,uint256,bytes)": "150b7a02",
    "proposalDeadline(uint256)": "c01f9e37",
    "proposalSnapshot(uint256)": "2d63f693",
    "proposalThreshold()": "b58131b0",
    "proposalVotes(uint256)": "544ffc9c",
    "propose(address[],uint256[],bytes[],string)": "7d5e81e2",
    "quorum(uint256)": "f8ce560a",
    "ratifyScorecard((uint256,uint256)[])": "64d87a61",
    "relay(address,uint256,bytes)": "c28bc2fa",
    "state(uint256)": "3e4f49e6",
    "submitScorecards((uint256,uint256)[])": "59f397bd",
    "supportsInterface(bytes4)": "01ffc9a7",
    "version()": "54fd4d50",
    "votingDelay()": "3932abb1",
    "votingPeriod()": "02a251a3",
    "votingStartTime()": "2019a608"
  },
  "id": 2
}