{
  "abi": [
    {
      "inputs": [],
      "stateMutability": "nonpayable",
      "type": "constructor"
    },
    {
      "inputs": [],
      "name": "codeOrigin",
      "outputs": [
        {
          "internalType": "address",
          "name": "",
          "type": "address"
        }
      ],
      "stateMutability": "view",
      "type": "function"
    },
    {
      "inputs": [],
      "name": "delegate",
      "outputs": [
        {
          "internalType": "contract IDefifaDelegate",
          "name": "",
          "type": "address"
        }
      ],
      "stateMutability": "view",
      "type": "function"
    },
    {
      "inputs": [
        {
          "internalType": "uint256",
          "name": "_tokenId",
          "type": "uint256"
        }
      ],
      "name": "getUri",
      "outputs": [
        {
          "internalType": "string",
          "name": "",
          "type": "string"
        }
      ],
      "stateMutability": "view",
      "type": "function"
    },
    {
      "inputs": [
        {
          "internalType": "contract IDefifaDelegate",
          "name": "_delegate",
          "type": "address"
        },
        {
          "internalType": "string[]",
          "name": "_tierNames",
          "type": "string[]"
        }
      ],
      "name": "initialize",
      "outputs": [],
      "stateMutability": "nonpayable",
      "type": "function"
    },
    {
      "inputs": [
        {
          "internalType": "uint256",
          "name": "_tierId",
          "type": "uint256"
        }
      ],
      "name": "tierNameOf",
      "outputs": [
        {
          "internalType": "string",
          "name": "",
          "type": "string"
        }
      ],
      "stateMutability": "view",
      "type": "function"
    }
  ],
  "bytecode": {
    "object": "0x60a0806040523461002a5730608052612172908161003082396080518181816101f001526106aa0152f35b600080fdfe60806040526004361015610013575b600080fd5b6000803560e01c9081631baabc3e1461007a575080631d153ca41461007157806394e6f56f14610068578063c89e43611461005f5763da0544aa1461005757600080fd5b61000e61046e565b5061000e610444565b5061000e610358565b5061000e6101d9565b346101365761008836610139565b815260209080825260408120818154906100a18261049c565b9283608052600192838116908160001461011357506001146100dc575b6100cb607f198601610247565b604051806100d881610193565b0390f35b9080959450528284205b828510610101575050505060a06100cb9101828080806100be565b805460a08601529383019381016100e6565b93505050506100cb935060a0925060ff19168252151560051b01828080806100be565b80fd5b602090600319011261000e5760043590565b60005b83811061015e5750506000910152565b818101518382015260200161014e565b906020916101878151809281855285808601910161014b565b601f01601f1916010190565b90602091828152608051808483015260005b8181106101c6575060409293506000838284010152601f8019910116010190565b60a08101518382016040015284016101a5565b503461000e57600036600319011261000e576040517f00000000000000000000000000000000000000000000000000000000000000006001600160a01b03168152602090f35b6001600160a01b0381160361000e57565b50634e487b7160e01b600052604160045260246000fd5b601f8019910116608001608081106001600160401b0382111761026957604052565b610271610230565b604052565b604081019081106001600160401b0382111761026957604052565b602081019081106001600160401b0382111761026957604052565b606081019081106001600160401b0382111761026957604052565b90601f801991011681019081106001600160401b0382111761026957604052565b604051906101c082018281106001600160401b0382111761026957604052565b6020906001600160401b038111610321575b60051b0190565b610329610230565b61031a565b6020906001600160401b03811161034b575b601f01601f19160190565b610353610230565b610340565b503461000e5760408060031936011261000e57600435906103788261021f565b60249182356001600160401b039384821161000e573660238301121561000e5781600401356103a681610308565b946103b3815196876102c7565b818652602096838888019360051b8601019436861161000e57848101935b8685106103e4576103e2898961069e565b005b843583811161000e578201903660438301121561000e5786820135906104098261032e565b610415875191826102c7565b8281526044933685858301011161000e578d8481969582966000940183860137830101528152019401936103d1565b503461000e57600036600319011261000e576001546040516001600160a01b039091168152602090f35b503461000e576100d861048861048336610139565b611307565b60405191829160208352602083019061016e565b90600182811c921680156104cc575b60208310146104b657565b634e487b7160e01b600052602260045260246000fd5b91607f16916104ab565b90604051918260008254926104ea8461049c565b9081845260019485811690816000146105595750600114610516575b5050610514925003836102c7565b565b9093915060005260209081600020936000915b81831061054157505061051493508201013880610506565b85548884018501529485019487945091830191610529565b91505061051494506020925060ff191682840152151560051b8201013880610506565b50634e487b7160e01b600052603260045260246000fd5b6020908051156105a1570190565b6105a961057c565b0190565b6040908051600110156105a1570190565b6060908051600210156105a1570190565b6080908051600310156105a1570190565b60209181518110156105f5575b60051b010190565b6105fd61057c565b6105ed565b50634e487b7160e01b600052601160045260246000fd5b906002820180921161062757565b610514610602565b906020820180921161062757565b9190820180921161062757565b90601f811161065857505050565b600091825260208220906020601f850160051c83019410610694575b601f0160051c01915b82811061068957505050565b81815560010161067d565b9092508290610674565b6001600160a01b0390307f000000000000000000000000000000000000000000000000000000000000000083161461000e5760019182549181831661000e5716906bffffffffffffffffffffffff60a01b1617815581519160005b8381106107065750505050565b61071081836105e0565b51838201809211610806575b8160005260206000815260406000209180519182916001600160401b0383116107f9575b6107548361074e875461049c565b8761064a565b81601f841160011461078c5750600092610781575b5050600019600383901b1c191690851b1790556106f9565b015190503880610769565b9190889450601f1984166107a587600052602060002090565b936000905b8282106107e057505084116107c7575b505050811b0190556106f9565b015160001960f88460031b161c191690553880806107ba565b8484015186558b979095019493840193908101906107aa565b610801610230565b610740565b61080e610602565b61071c565b9081602091031261000e57516108288161021f565b90565b506040513d6000823e3d90fd5b51906105148261021f565b5190811515820361000e57565b90816101c091031261000e576108646102e8565b90805182526020810151602083015260408101516040830152606081015160608301526080810151608083015260a081015160a083015260c081015160c08301526108b160e08201610838565b60e083015261010080820151908301526101206108cf818301610838565b90830152610140808201519083015261016080820151908301526101806108f7818301610843565b908301526109096101a0809201610843565b9082015290565b60208183031261000e578051906001600160401b03821161000e570181601f8201121561000e5780516109428161032e565b9261095060405194856102c7565b8184526020828401011161000e57610828916020808501910161014b565b9081602091031261000e575190565b6040519060a082018281106001600160401b038211176109c0575b604052600482528160005b608081106109af575050565b8060606020809385010152016109a3565b6109c8610230565b610998565b604051906109da82610291565b60008252565b604051906109ed82610276565b601d82527f646174613a6170706c69636174696f6e2f6a736f6e3b6261736536342c0000006020830152565b906105a96020928281519485920161014b565b90606b939291683d913730b6b2911d1160b91b8152610a5582518093602060098501910161014b565b017f222c226465736372697074696f6e223a225465616d3a200000000000000000006009820152610a8f825180936020808501910161014b565b0190650161024a21d160d51b6020830152602682015261088b60f21b60468201527f22696d616765223a22646174613a696d6167652f7376672b786d6c3b626173656048820152620d8d0b60ea1b60688201520190565b60405190610af382610276565b6002825261032360f41b6020830152565b60405190610b1182610276565b60028252610c8d60f21b6020830152565b60405190610b2f82610276565b6002825261189b60f11b6020830152565b60405190610b4d82610276565b6002825261033360f41b6020830152565b60405190610b6b82610276565b6002825261034360f41b6020830152565b60405190610b8982610276565b6002825261036360f41b6020830152565b60405190610ba782610276565b6002825261038360f41b6020830152565b60405190610bc582610276565b6002825261039360f41b6020830152565b60405190610be382610276565b600382526203134360ec1b6020830152565b60405190610c0282610276565b600382526203230360ec1b6020830152565b60405190610c2182610276565b600382526203234360ec1b6020830152565b9190820391821161062757565b97610fdb61112a6111106108289d9a610d966110826112969f9a610f3a9f9d610fdb610d969f6112219f60209c90610d969f6111ba9f8f97610f3a90610d96610ef7610fdb95610d96610ec0610e7b8f9b610d9c610f4d9a610ff39f610dbe610d9c610e2c95610d966059610d96957f3c7376672077696474683d2235303022206865696768743d2235303022207669815260207f6577426f783d22302030203130302520313030252220786d6c6e733d22687474908201527f703a2f2f7777772e77332e6f72672f323030302f737667223e00000000000000604082015201605d907f3c7374796c653e40666f6e742d666163657b666f6e742d66616d696c793a224381527f617073756c65732d333030223b7372633a75726c28646174613a666f6e742f7460208201527f727565747970653b636861727365743d7574662d383b6261736536342c00000060408201520190565b90610a19565b75293b666f726d617428226f70656e7479706522293b7d60501b815260160190565b7f40666f6e742d666163657b666f6e742d66616d696c793a2243617073756c657381527f2d373030223b7372633a75726c28646174613a666f6e742f74727565747970656020820152750ed8da185c9cd95d0f5d5d198b4e0ed8985cd94d8d0b60521b604082015260560190565b7f746578747b66696c6c3a236330623366313b77686974652d73706163653a707281527f652d777261703b2077696474683a313030253b207d3c2f7374796c653e0000006020820152603d0190565b7f3c726563742077696474683d22313030767722206865696768743d22313030768152723411103334b6361e9111989c189a191a11179f60691b602082015260330190565b7f3c7465787420783d2231302220793d22343022207374796c653d22666f6e742d81526439b4bd329d60d91b602082015260250190565b7f70783b20666f6e742d66616d696c793a2043617073756c65732d3330303b206681527037b73a16bbb2b4b3b43a1d1998181d911f60791b602082015260310190565b661e17ba32bc3a1f60c91b815260070190565b7f3c7465787420783d2231302220793d22363022207374796c653d22666f6e742d81527f73697a653a313670783b20666f6e742d66616d696c793a2043617073756c657360208201527f2d3330303b20666f6e742d7765696768743a3330303b2066696c6c3a2023333960408201526f019981a9c9d911f23a0a6a29024a21d160851b606082015260700190565b90815201600790661e17ba32bc3a1f60c91b81520190565b7f3c7465787420783d2231302220793d2234343022207374796c653d22666f6e7481527f2d73697a653a313670783b20666f6e742d66616d696c793a2043617073756c6560208201527f732d3330303b20666f6e742d7765696768743a3330303b2066696c6c3a2023336040820152701c99981a9c9d911f2a27a5a2a71024a21d60791b606082015260710190565b7f3c7465787420783d2231302220793d2234363022207374796c653d22666f6e7481527f2d73697a653a313670783b20666f6e742d66616d696c793a2043617073756c6560208201527f732d3330303b20666f6e742d7765696768743a3330303b2066696c6c3a20233360408201526f1c99981a9c9d911f2b20a62aa29d103f60811b606082015260700190565b6d1037b3103837ba1e17ba32bc3a1f60911b8152600e0190565b7f3c7465787420783d2231302220793d2234383022207374796c653d22666f6e7481527f2d73697a653a313670783b20666f6e742d66616d696c793a2043617073756c6560208201527f732d3330303b20666f6e742d7765696768743a3330303b2066696c6c3a20233360408201527139333035393b223e5241524954593a20312f60701b606082015260720190565b7f3c7465787420746578744c656e6774683d2235303022206c656e67746841646a81527f7573743d2273706163696e672220783d223530252220793d223530252220737460208201526e3cb6329e913337b73a16b9b4bd329d60891b6040820152604f0190565b7f70783b20666f6e742d66616d696c793a2043617073756c65732d3730303b206681527f6f6e742d7765696768743a3730303b20746578742d616e63686f723a6d69646460208201527f6c653b20646f6d696e616e742d626173656c696e653a6d6964646c653b20223e604082015260600190565b651e17b9bb339f60d11b815260060190565b604051906112b582610276565b6002825261227d60f01b6020830152565b60206105149193929360405194816112e7879351809286808701910161014b565b82016112fb8251809386808501910161014b565b010380855201836102c7565b6001546001600160a01b03166040805163975057e760e01b808252919260049260209081848681865afa938415611956575b600094611937575b50855163b67cb04760e01b81526001600160a01b03848116878301908152602081018a90526101c096919291879183919082900360400190829086165afa95861561192a575b6000966118fb575b505061014085015161176e5750509084916113a861097d565b936113b16109e0565b6113ba86610593565b526113c485610593565b5083516306fdde0360e01b8152956000878281875afa968715611761575b60009761173e575b508151611401906000526000602052604060002090565b61140a906104d6565b98838351958b8a89519889928584019261142393610a2c565b0396601f1997888101825261143890826102c7565b6114418a6105ad565b5261144b896105ad565b5089516023116000149b6115e29a61156199611566976108289f9661155595611561986117305761147a610b04565b945b865160038110156116945750611490610c14565b955b61149a6119a6565b9b8a6114a4611a2f565b91885195633fafa12760e01b8752878a84898581865afa988915611687575b600099611650575b5092848093611549966114f894611538975180968192634f228e1160e01b83528783019190602083019252565b0381845afa938415611643575b600094611624575b508d5163640abacd60e01b815292839182905afa928315611617575b6000936115e8575b5050611aa5565b966060608082015191015190610c33565b96519c8d9b8c01610c40565b038581018352826102c7565b611c42565b61156f856105be565b52611579846105be565b506115826112a8565b61158b856105cf565b52611595846105cf565b506115d66115a285610593565b5196610d966115b0876105ad565b5196610d966115c86115c1836105be565b51926105cf565b519351988996870190610a19565b039081018352826102c7565b906112c6565b611608929350803d10611610575b61160081836102c7565b81019061096e565b90388f611531565b503d6115f6565b61161f61082b565b611529565b61163c919450823d84116116105761160081836102c7565b923861150d565b61164b61082b565b611505565b61153894919950948093816114f89461167861154999833d85116116105761160081836102c7565b9c9497509450509395506114cb565b61168f61082b565b6114c3565b60058110156116ac57506116a6610bf5565b95611492565b60088110156116be57506116a6610bd6565b600a8110156116d057506116a6610bb8565b600c8110156116e257506116a6610b9a565b60108110156116f457506116a6610b7c565b601781101561170657506116a6610b5e565b601e81101561171857506116a6610b40565b60231115611728576116a6610ae6565b6116a6610b22565b611738610ae6565b9461147c565b61175a91973d8091833e61175281836102c7565b810190610910565b95386113ea565b61176961082b565b6113e2565b869450948296956108289893949296519587875285878481875afa9687156118ee575b6000976118cf575b50805163f682eeaf60e01b815230848201908152909760009189919082900360200190829086165afa9687156118c2575b6000976118a3575b508561181f97988483518097819382525afa938415611896575b600094611867575b5051630c8df17160e41b81523092810192835260208301949094529294859384929091839160400190565b0392165afa92831561185a575b60009361183b575b5050611d2b565b611852929350803d106116105761160081836102c7565b903880611834565b61186261082b565b61182c565b611888919450863d881161188f575b61188081836102c7565b810190610813565b92386117f4565b503d611876565b61189e61082b565b6117ec565b6118bb879161181f993d8091833e61175281836102c7565b97506117d2565b6118ca61082b565b6117ca565b6118e7919750863d881161188f5761188081836102c7565b9538611799565b6118f661082b565b611791565b61191b929650803d10611923575b61191381836102c7565b810190610850565b93388061138f565b503d611909565b61193261082b565b611387565b61194f919450823d841161188f5761188081836102c7565b9238611341565b61195e61082b565b611339565b6040519061197082610276565b60068252651b9bdc9b585b60d21b6020830152565b6060602061082893818452805182850152015191604080820152019061016e565b6119e360006040516119b781610276565b61012c81526119c4611963565b60208201526040518093819263bf6519ad60e01b835260048301611985565b038173a77b7d93e79f1e6b4f77fab29d9ef85733a3d44a5afa908115611a22575b600091611a0f575090565b610828913d8091833e61175281836102c7565b611a2a61082b565b611a04565b6119e36000604051611a4081610276565b6102bc81526119c4611963565b600281901b91906001600160fe1b0381160361062757565b908160011b918083046002149015171561062757565b8181029291811591840414171561062757565b50634e487b7160e01b600052601260045260246000fd5b611ab282611ab792611a7b565b611a65565b8115611b74575b04611ad7612710611ad0818404612082565b9206612082565b80515b60088110611b2c5750611b0491611b1e611b1161082893610d966040519687956020870190610a19565b601760f91b815260010190565b602560f81b815260010190565b03601f1981018352826102c7565b90611b6f90611b696040519182602091600360fc1b83830152611b5981518092602195868601910161014b565b81010360018101845201826102c7565b91611b81565b611ada565b611b7c611a8e565b611abe565b6001906000198114611b91570190565b6105a9610602565b60405190611ba6826102ac565b604082527f6768696a6b6c6d6e6f707172737475767778797a303132333435363738392b2f6040837f4142434445464748494a4b4c4d4e4f505152535455565758595a61626364656660208201520152565b604051611c0481610291565b60008152906000368137565b90611c1a8261032e565b611c2760405191826102c7565b8281528092611c38601f199161032e565b0190602036910137565b805115611d2257611c51611b99565b611c6d611c68611c618451610619565b6003900490565b611a4d565b91611c7f611c7a8461062f565b611c10565b92835280815182019060208501935b828210611cd057505050600390510680600114611cbf57600214611cb0575090565b603d60f81b6000199091015290565b50613d3d60f01b6001199091015290565b9091936004906003809401938451600190603f9082828260121c16880101518553828282600c1c16880101518386015382828260061c1688010151600286015316850101519082015301939190611c8e565b506108286109cd565b9061082890611d59604051602092609160f51b84830152602282015260228152611d54816102ac565b611e14565b926040519381611d72869351809286808701910161014b565b8201611d868251809386808501910161014b565b010380845201826102c7565b604051906105e082018281106001600160401b03821117611dc0575b604052602e82526105c0366020840137565b611dc8610230565b611dae565b90611dd782610308565b611de460405191826102c7565b8281528092611c38601f1991610308565b906020918051821015611e0757010190565b611e0f61057c565b010190565b90815115611f3957611e24611d92565b9160009081611e3285610593565b5260019181519181925b808410611e625750505050611e58611e5d916108289394611f43565b611f86565b611fcd565b90919294611e93611e8d611e87611e798987611df5565b516001600160f81b03191690565b60f81c90565b60ff1690565b9184925b60ff9089828916861015611ef85760019291611ecc611ec6611e8d611ebf8a611ed2966105e0565b5160ff1690565b60081b90565b9061063d565b611eef8b611ee788603a9586860616926105e0565b9060ff169052565b04930192611e97565b50919594935050809691965b611f12575060010192611e3c565b9460ff6001603a92611f2f83858b0616611ee78d868516906105e0565b0116950480611f04565b9050610828611bf8565b9060ff80911690611f5382611dcd565b9260005b838110611f65575050505090565b8083611f73600193856105e0565b5116611f7f82886105e0565b5201611f57565b908151611f9281611dcd565b9060005b818110611fa4575090925050565b60019060ff611fba6000198389510301886105e0565b5116611fc682866105e0565b5201611f96565b8051611fd881611c10565b91600090815b838110611fec575050505090565b60019060407f5a6162636465666768696a6b6d6e6f707172737475767778797a00000000000081519161201e836102ac565b603a83527f31323334353637383941424344454647484a4b4c4d4e5051525354555657585960208401528201526001600160f81b03199061206d9060ff61206585886105e0565b511690611df5565b5116841a61207b8288611df5565b5301611fde565b801561211e576000818181805b612106575061209d81611c10565b935b6120a95750505090565b60001981019081116120f9575b8091600a916120e3603084840681018091116120ec575b60f81b6001600160f81b031916861a9187611df5565b5304908161209f565b6120f4610602565b6120cd565b612101610602565b6120b6565b9150612113600a91611b81565b91048084929161208f565b5060405161212b81610276565b60018152600360fc1b60208201529056fea2646970667358221220551af4cdc5d4a1617418492cbc6a4be74344e3c15a8b94cf976f9a4e25cf73bb64736f6c63430008110033",
    "linkReferences": {}
  },
  "methodIdentifiers": {
    "codeOrigin()": "1d153ca4",
    "delegate()": "c89e4361",
    "getUri(uint256)": "da0544aa",
    "initialize(address,string[])": "94e6f56f",
    "tierNameOf(uint256)": "1baabc3e"
  },
  "id": 3
}