{
  "abi": [
    {
      "inputs": [],
      "stateMutability": "nonpayable",
      "type": "constructor"
    },
    {
      "inputs": [],
      "name": "codeOrigin",
      "outputs": [
        {
          "internalType": "address",
          "name": "",
          "type": "address"
        }
      ],
      "stateMutability": "view",
      "type": "function"
    },
    {
      "inputs": [],
      "name": "delegate",
      "outputs": [
        {
          "internalType": "contract IDefifaDelegate",
          "name": "",
          "type": "address"
        }
      ],
      "stateMutability": "view",
      "type": "function"
    },
    {
      "inputs": [
        {
          "internalType": "uint256",
          "name": "_tokenId",
          "type": "uint256"
        }
      ],
      "name": "getUri",
      "outputs": [
        {
          "internalType": "string",
          "name": "",
          "type": "string"
        }
      ],
      "stateMutability": "view",
      "type": "function"
    },
    {
      "inputs": [
        {
          "internalType": "contract IDefifaDelegate",
          "name": "_delegate",
          "type": "address"
        }
      ],
      "name": "initialize",
      "outputs": [],
      "stateMutability": "nonpayable",
      "type": "function"
    }
  ],
  "bytecode": {
    "object": "0x60a080604052346100285730608052611d54908161002e82396080518181816085015260eb0152f35b600080fdfe60806040526004361015610013575b600080fd5b6000803560e01c9081631d153ca4146100d9578163c4d66de81461005d57508063c89e4361146100545763da0544aa1461004c57600080fd5b61000e6101a0565b5061000e61012e565b346100d65760203660031901126100d65760043561007a8161011d565b6001600160a01b03307f00000000000000000000000000000000000000000000000000000000000000008216146100d2578254918183166100ce5716906bffffffffffffffffffffffff60a01b1617815580f35b8380fd5b8280fd5b80fd5b346100d657806003193601126100d6577f00000000000000000000000000000000000000000000000000000000000000006001600160a01b03166080908152602090f35b6001600160a01b0381160361000e57565b503461000e57600036600319011261000e576000546040516001600160a01b039091168152602090f35b60005b83811061016b5750506000910152565b818101518382015260200161015b565b9060209161019481518092818552858086019101610158565b601f01601f1916010190565b503461000e57602036600319011261000e576101d46101c0600435610e82565b60405191829160208352602083019061017b565b0390f35b50634e487b7160e01b600052604160045260246000fd5b6040810190811067ffffffffffffffff82111761020b57604052565b6102136101d8565b604052565b6020810190811067ffffffffffffffff82111761020b57604052565b6060810190811067ffffffffffffffff82111761020b57604052565b90601f8019910116810190811067ffffffffffffffff82111761020b57604052565b9081602091031261000e57516102878161011d565b90565b506040513d6000823e3d90fd5b604051906101c0820182811067ffffffffffffffff82111761020b57604052565b51906102c38261011d565b565b5190811515820361000e57565b90816101c091031261000e576102e6610297565b90805182526020810151602083015260408101516040830152606081015160608301526080810151608083015260a081015160a083015260c081015160c083015261033360e082016102b8565b60e083015261010080820151908301526101206103518183016102b8565b90830152610140808201519083015261016080820151908301526101806103798183016102c5565b9083015261038b6101a08092016102c5565b9082015290565b60209067ffffffffffffffff81116103b0575b601f01601f19160190565b6103b86101d8565b6103a5565b60208183031261000e5780519067ffffffffffffffff821161000e570181601f8201121561000e5780516103f081610392565b926103fe6040519485610250565b8184526020828401011161000e576102879160208085019101610158565b9081602091031261000e575190565b60209067ffffffffffffffff8111610445575b60051b0190565b61044d6101d8565b61043e565b6040519060a0820182811067ffffffffffffffff821117610496575b604052600482528160005b60808110610485575050565b806060602080938501015201610479565b61049e6101d8565b61046e565b604051906104b082610218565b60008252565b604051906104c3826101ef565b601d82527f646174613a6170706c69636174696f6e2f6a736f6e3b6261736536342c0000006020830152565b50634e487b7160e01b600052603260045260246000fd5b602090805115610514570190565b61051c6104ef565b0190565b604090805160011015610514570190565b606090805160021015610514570190565b608090805160031015610514570190565b6020918151811015610568575b60051b010190565b6105706104ef565b610560565b9061051c60209282815194859201610158565b90606b939291683d913730b6b2911d1160b91b81526105b1825180936020600985019101610158565b017f222c226465736372697074696f6e223a225465616d3a2000000000000000000060098201526105eb8251809360208085019101610158565b0190650161024a21d160d51b6020830152602682015261088b60f21b60468201527f22696d616765223a22646174613a696d6167652f7376672b786d6c3b626173656048820152620d8d0b60ea1b60688201520190565b6040519061064f826101ef565b6002825261032360f41b6020830152565b6040519061066d826101ef565b60028252610c8d60f21b6020830152565b6040519061068b826101ef565b6002825261189b60f11b6020830152565b604051906106a9826101ef565b6002825261033360f41b6020830152565b604051906106c7826101ef565b6002825261034360f41b6020830152565b604051906106e5826101ef565b6002825261036360f41b6020830152565b60405190610703826101ef565b6002825261038360f41b6020830152565b60405190610721826101ef565b6002825261039360f41b6020830152565b6040519061073f826101ef565b600382526203134360ec1b6020830152565b6040519061075e826101ef565b600382526203230360ec1b6020830152565b6040519061077d826101ef565b600382526203234360ec1b6020830152565b50634e487b7160e01b600052601160045260246000fd5b919082039182116107b357565b6102c361078f565b97610b56610ca5610c8b6102879d9a610911610bfd610e119f9a610ab59f9d610b566109119f610d9c9f60209c906109119f610d359f8f97610ab590610911610a72610b5695610911610a3b6109f68f9b610917610ac89a610b6e9f6109396109176109a7956109116059610911957f3c7376672077696474683d2235303022206865696768743d2235303022207669815260207f6577426f783d22302030203130302520313030252220786d6c6e733d22687474908201527f703a2f2f7777772e77332e6f72672f323030302f737667223e00000000000000604082015201605d907f3c7374796c653e40666f6e742d666163657b666f6e742d66616d696c793a224381527f617073756c65732d333030223b7372633a75726c28646174613a666f6e742f7460208201527f727565747970653b636861727365743d7574662d383b6261736536342c00000060408201520190565b90610575565b75293b666f726d617428226f70656e7479706522293b7d60501b815260160190565b7f40666f6e742d666163657b666f6e742d66616d696c793a2243617073756c657381527f2d373030223b7372633a75726c28646174613a666f6e742f74727565747970656020820152750ed8da185c9cd95d0f5d5d198b4e0ed8985cd94d8d0b60521b604082015260560190565b7f746578747b66696c6c3a236330623366313b77686974652d73706163653a707281527f652d777261703b2077696474683a313030253b207d3c2f7374796c653e0000006020820152603d0190565b7f3c726563742077696474683d22313030767722206865696768743d22313030768152723411103334b6361e9111989c189a191a11179f60691b602082015260330190565b7f3c7465787420783d2231302220793d22343022207374796c653d22666f6e742d81526439b4bd329d60d91b602082015260250190565b7f70783b20666f6e742d66616d696c793a2043617073756c65732d3330303b206681527037b73a16bbb2b4b3b43a1d1998181d911f60791b602082015260310190565b661e17ba32bc3a1f60c91b815260070190565b7f3c7465787420783d2231302220793d22363022207374796c653d22666f6e742d81527f73697a653a313670783b20666f6e742d66616d696c793a2043617073756c657360208201527f2d3330303b20666f6e742d7765696768743a3330303b2066696c6c3a2023333960408201526f019981a9c9d911f23a0a6a29024a21d160851b606082015260700190565b90815201600790661e17ba32bc3a1f60c91b81520190565b7f3c7465787420783d2231302220793d2234343022207374796c653d22666f6e7481527f2d73697a653a313670783b20666f6e742d66616d696c793a2043617073756c6560208201527f732d3330303b20666f6e742d7765696768743a3330303b2066696c6c3a2023336040820152701c99981a9c9d911f2a27a5a2a71024a21d60791b606082015260710190565b7f3c7465787420783d2231302220793d2234363022207374796c653d22666f6e7481527f2d73697a653a313670783b20666f6e742d66616d696c793a2043617073756c6560208201527f732d3330303b20666f6e742d7765696768743a3330303b2066696c6c3a20233360408201526f1c99981a9c9d911f2b20a62aa29d103f60811b606082015260700190565b6d1037b3103837ba1e17ba32bc3a1f60911b8152600e0190565b7f3c7465787420783d2231302220793d2234383022207374796c653d22666f6e7481527f2d73697a653a313670783b20666f6e742d66616d696c793a2043617073756c6560208201527f732d3330303b20666f6e742d7765696768743a3330303b2066696c6c3a20233360408201527139333035393b223e5241524954593a20312f60701b606082015260720190565b7f3c7465787420746578744c656e6774683d2235303022206c656e67746841646a81527f7573743d2273706163696e672220783d223530252220793d223530252220737460208201526e3cb6329e913337b73a16b9b4bd329d60891b6040820152604f0190565b7f70783b20666f6e742d66616d696c793a2043617073756c65732d3730303b206681527f6f6e742d7765696768743a3730303b20746578742d616e63686f723a6d69646460208201527f6c653b20646f6d696e616e742d626173656c696e653a6d6964646c653b20223e604082015260600190565b651e17b9bb339f60d11b815260060190565b60405190610e30826101ef565b6002825261227d60f01b6020830152565b60206102c3919392936040519481610e628793518092868087019101610158565b8201610e7682518093868085019101610158565b01038085520183610250565b600080546001600160a01b03166040805163975057e760e01b80825294600494929391829160209182818981875afa90811561150e575b86916114f1575b50865163b67cb04760e01b81526001600160a01b03958616898201908152602081018490526101c09692879183919082900360400190829086165afa9586156114e4575b87966114b5575b505061014085015161131c575085969750610f24610452565b94610f2d6104b6565b610f3687610506565b52610f4086610506565b5086516306fdde0360e01b81529381858b81845afa94851561130f575b82956112f3575b5085518851630dd55e1f60e11b8152808c0191825285918791908590829081906020010381875afa9081156112e6575b85916112c4575b5088518b519889918386840192610fb193610588565b0397601f19988981018252610fc69082610250565b610fcf8b610520565b52610fd98a610520565b5081516023116000149c61116b9b6110ea9a6102879f986110ea976110de966110ef9b6112b757611008610660565b8751600381101561121b575061101c610770565b965b61102661155e565b9c61102f6115e7565b918c895196633fafa12760e01b885281888481845afa97881561120e575b84986111dd575b506110c19282611082928d6110d297958d825180978192634f228e1160e01b83528883019190602083019252565b0381855afa9485156111d0575b86956111ad575b505163640abacd60e01b815292829184919082905afa9384156111a0575b93611171575b505061165d565b9660606080820151910151906107a6565b96519c8d9b8c016107bb565b03858101835282610250565b611823565b6110f885610531565b5261110284610531565b5061110b610e23565b61111485610542565b5261111e84610542565b5061115f61112b85610506565b519661091161113987610520565b519661091161115161114a83610531565b5192610542565b519351988996870190610575565b03908101835282610250565b90610e41565b611191929350803d10611199575b6111898183610250565b81019061041c565b90388f6110ba565b503d61117f565b6111a861028a565b6110b4565b83929195506111c890833d8511611199576111898183610250565b949091611096565b6111d861028a565b61108f565b61108291985092826112026110c1956110d297953d8411611199576111898183610250565b99925092945092611054565b61121661028a565b61104d565b6005811015611233575061122d610751565b9661101e565b6008811015611245575061122d610732565b600a811015611257575061122d610714565b600c811015611269575061122d6106f6565b601081101561127b575061122d6106d8565b601781101561128d575061122d6106ba565b601e81101561129f575061122d61069c565b602311156112af5761122d610642565b61122d61067e565b6112bf610642565b611008565b6112e091503d8087833e6112d88183610250565b8101906103bd565b38610f9b565b6112ee61028a565b610f94565b6113089195503d8084833e6112d88183610250565b9338610f64565b61131761028a565b610f5d565b86610287999796989294939550519587875285878481875afa9687156114a8575b8997611489575b50805163f682eeaf60e01b81523084820190815290978a9189919082900360200190829086165afa96871561147c575b899761144f575b509081866113cd9899858298979695518097819382525afa938415611442575b8a94611413575b5051630c8df17160e41b81523092810192835260208301949094529295869384929091839160400190565b0392165afa938415611406575b936113e7575b505061190c565b6113fe929350803d10611199576111898183610250565b9038806113e0565b61140e61028a565b6113da565b611434919450863d881161143b575b61142c8183610250565b810190610272565b92386113a2565b503d611422565b61144a61028a565b61139b565b6113cd9750908661146f8197969594938c3d8091833e6112d88183610250565b985050909192939461137b565b61148461028a565b611374565b6114a1919750863d881161143b5761142c8183610250565b9538611344565b6114b061028a565b61133d565b6114d5929650803d106114dd575b6114cd8183610250565b8101906102d2565b933880610f0b565b503d6114c3565b6114ec61028a565b610f04565b6115089150833d851161143b5761142c8183610250565b38610ec0565b61151661028a565b610eb9565b60405190611528826101ef565b60068252651b9bdc9b585b60d21b6020830152565b6060602061028793818452805182850152015191604080820152019061017b565b61159b600060405161156f816101ef565b61012c815261157c61151b565b60208201526040518093819263bf6519ad60e01b83526004830161153d565b038173a77b7d93e79f1e6b4f77fab29d9ef85733a3d44a5afa9081156115da575b6000916115c7575090565b610287913d8091833e6112d88183610250565b6115e261028a565b6115bc565b61159b60006040516115f8816101ef565b6102bc815261157c61151b565b600281901b91906001600160fe1b038116036107b357565b908160011b91808304600214901517156107b357565b818102929181159184041417156107b357565b50634e487b7160e01b600052601260045260246000fd5b61166a8261166f92611633565b61161d565b811561172c575b0461168f612710611688818404611c64565b9206611c64565b80515b600881106116e457506116bc916116d66116c9610287936109116040519687956020870190610575565b601760f91b815260010190565b602560f81b815260010190565b03601f198101835282610250565b90611727906117216040519182602091600360fc1b83830152611711815180926021958686019101610158565b8101036001810184520182610250565b91611739565b611692565b611734611646565b611676565b6001906000198114611749570190565b61051c61078f565b6040519061175e82610234565b604082527f6768696a6b6c6d6e6f707172737475767778797a303132333435363738392b2f6040837f4142434445464748494a4b4c4d4e4f505152535455565758595a61626364656660208201520152565b90600282018092116107b357565b90602082018092116107b357565b919082018092116107b357565b6040516117e581610218565b60008152906000368137565b906117fb82610392565b6118086040519182610250565b8281528092611819601f1991610392565b0190602036910137565b80511561190357611832611751565b61184e61184961184284516117b0565b6003900490565b611605565b9161186061185b846117be565b6117f1565b92835280815182019060208501935b8282106118b1575050506003905106806001146118a057600214611891575090565b603d60f81b6000199091015290565b50613d3d60f01b6001199091015290565b9091936004906003809401938451600190603f9082828260121c16880101518553828282600c1c16880101518386015382828260061c168801015160028601531685010151908201530193919061186f565b506102876104a3565b906102879061193a604051602092609160f51b8483015260228201526022815261193581610234565b6119f6565b9260405193816119538693518092868087019101610158565b820161196782518093868085019101610158565b01038084520182610250565b604051906105e0820182811067ffffffffffffffff8211176119a2575b604052602e82526105c0366020840137565b6119aa6101d8565b611990565b906119b98261042b565b6119c66040519182610250565b8281528092611819601f199161042b565b9060209180518210156119e957010190565b6119f16104ef565b010190565b90815115611b1b57611a06611973565b9160009081611a1485610506565b5260019181519181925b808410611a445750505050611a3a611a3f916102879394611b25565b611b68565b611baf565b90919294611a75611a6f611a69611a5b89876119d7565b516001600160f81b03191690565b60f81c90565b60ff1690565b9184925b60ff9089828916861015611ada5760019291611aae611aa8611a6f611aa18a611ab496610553565b5160ff1690565b60081b90565b906117cc565b611ad18b611ac988603a958686061692610553565b9060ff169052565b04930192611a79565b50919594935050809691965b611af4575060010192611a1e565b9460ff6001603a92611b1183858b0616611ac98d86851690610553565b0116950480611ae6565b90506102876117d9565b9060ff80911690611b35826119af565b9260005b838110611b47575050505090565b8083611b5560019385610553565b5116611b618288610553565b5201611b39565b908151611b74816119af565b9060005b818110611b86575090925050565b60019060ff611b9c600019838951030188610553565b5116611ba88286610553565b5201611b78565b8051611bba816117f1565b91600090815b838110611bce575050505090565b60019060407f5a6162636465666768696a6b6d6e6f707172737475767778797a000000000000815191611c0083610234565b603a83527f31323334353637383941424344454647484a4b4c4d4e5051525354555657585960208401528201526001600160f81b031990611c4f9060ff611c478588610553565b5116906119d7565b5116841a611c5d82886119d7565b5301611bc0565b8015611d00576000818181805b611ce85750611c7f816117f1565b935b611c8b5750505090565b6000198101908111611cdb575b8091600a91611cc560308484068101809111611cce575b60f81b6001600160f81b031916861a91876119d7565b53049081611c81565b611cd661078f565b611caf565b611ce361078f565b611c98565b9150611cf5600a91611739565b910480849291611c71565b50604051611d0d816101ef565b60018152600360fc1b60208201529056fea264697066735822122004bc41d0fa620a9ac777f8f3a3d33310906a75466a380280101f1126af2c637f64736f6c63430008110033",
    "linkReferences": {}
  },
  "methodIdentifiers": {
    "codeOrigin()": "1d153ca4",
    "delegate()": "c89e4361",
    "getUri(uint256)": "da0544aa",
    "initialize(address)": "c4d66de8"
  },
  "id": 3
}