{
  "abi": [
    {
      "inputs": [
        {
          "internalType": "address",
          "name": "_delegateCodeOrigin",
          "type": "address"
        },
        {
          "internalType": "address",
          "name": "_governorCodeOrigin",
          "type": "address"
        },
        {
          "internalType": "contract IJBController3_1",
          "name": "_controller",
          "type": "address"
        },
        {
          "internalType": "address",
          "name": "_protocolFeeProjectTokenAccount",
          "type": "address"
        }
      ],
      "stateMutability": "nonpayable",
      "type": "constructor"
    },
    {
      "inputs": [],
      "name": "GAME_OVER",
      "type": "error"
    },
    {
      "inputs": [],
      "name": "INVALID_GAME_CONFIGURATION",
      "type": "error"
    },
    {
      "inputs": [],
      "name": "PHASE_ALREADY_QUEUED",
      "type": "error"
    },
    {
      "inputs": [],
      "name": "UNEXPECTED_TERMINAL_CURRENCY",
      "type": "error"
    },
    {
      "inputs": [],
      "name": "BALLKIDZ_PROJECT_ID",
      "outputs": [
        {
          "internalType": "uint256",
          "name": "",
          "type": "uint256"
        }
      ],
      "stateMutability": "view",
      "type": "function"
    },
    {
      "inputs": [],
      "name": "SPLIT_DOMAIN",
      "outputs": [
        {
          "internalType": "uint256",
          "name": "",
          "type": "uint256"
        }
      ],
      "stateMutability": "view",
      "type": "function"
    },
    {
      "inputs": [],
      "name": "claimProtocolProjectToken",
      "outputs": [],
      "stateMutability": "nonpayable",
      "type": "function"
    },
    {
      "inputs": [],
      "name": "controller",
      "outputs": [
        {
          "internalType": "contract IJBController3_1",
          "name": "",
          "type": "address"
        }
      ],
      "stateMutability": "view",
      "type": "function"
    },
    {
      "inputs": [
        {
          "internalType": "uint256",
          "name": "_gameId",
          "type": "uint256"
        }
      ],
      "name": "currentGamePhaseOf",
      "outputs": [
        {
          "internalType": "uint256",
          "name": "",
          "type": "uint256"
        }
      ],
      "stateMutability": "view",
      "type": "function"
    },
    {
      "inputs": [],
      "name": "delegateCodeOrigin",
      "outputs": [
        {
          "internalType": "address",
          "name": "",
          "type": "address"
        }
      ],
      "stateMutability": "view",
      "type": "function"
    },
    {
      "inputs": [
        {
          "internalType": "uint256",
          "name": "_gameId",
          "type": "uint256"
        }
      ],
      "name": "distributionLimit",
      "outputs": [
        {
          "internalType": "uint256",
          "name": "",
          "type": "uint256"
        }
      ],
      "stateMutability": "view",
      "type": "function"
    },
    {
      "inputs": [
        {
          "internalType": "uint256",
          "name": "_gameId",
          "type": "uint256"
        }
      ],
      "name": "endOf",
      "outputs": [
        {
          "internalType": "uint256",
          "name": "",
          "type": "uint256"
        }
      ],
      "stateMutability": "view",
      "type": "function"
    },
    {
      "inputs": [],
      "name": "governorCodeOrigin",
      "outputs": [
        {
          "internalType": "address",
          "name": "",
          "type": "address"
        }
      ],
      "stateMutability": "view",
      "type": "function"
    },
    {
      "inputs": [
        {
          "internalType": "uint256",
          "name": "_gameId",
          "type": "uint256"
        }
      ],
      "name": "holdFeesDuring",
      "outputs": [
        {
          "internalType": "bool",
          "name": "",
          "type": "bool"
        }
      ],
      "stateMutability": "view",
      "type": "function"
    },
    {
      "inputs": [
        {
          "components": [
            {
              "internalType": "string",
              "name": "name",
              "type": "string"
            },
            {
              "internalType": "string",
              "name": "symbol",
              "type": "string"
            },
            {
              "internalType": "string",
              "name": "baseUri",
              "type": "string"
            },
            {
              "internalType": "string",
              "name": "contractUri",
              "type": "string"
            },
            {
              "components": [
                {
                  "internalType": "uint80",
                  "name": "contributionFloor",
                  "type": "uint80"
                },
                {
                  "internalType": "uint48",
                  "name": "lockedUntil",
                  "type": "uint48"
                },
                {
                  "internalType": "uint40",
                  "name": "initialQuantity",
                  "type": "uint40"
                },
                {
                  "internalType": "uint16",
                  "name": "votingUnits",
                  "type": "uint16"
                },
                {
                  "internalType": "uint16",
                  "name": "reservedRate",
                  "type": "uint16"
                },
                {
                  "internalType": "address",
                  "name": "reservedTokenBeneficiary",
                  "type": "address"
                },
                {
                  "internalType": "uint8",
                  "name": "royaltyRate",
                  "type": "uint8"
                },
                {
                  "internalType": "address",
                  "name": "royaltyBeneficiary",
                  "type": "address"
                },
                {
                  "internalType": "bytes32",
                  "name": "encodedIPFSUri",
                  "type": "bytes32"
                },
                {
                  "internalType": "uint8",
                  "name": "category",
                  "type": "uint8"
                },
                {
                  "internalType": "bool",
                  "name": "allowManualMint",
                  "type": "bool"
                },
                {
                  "internalType": "bool",
                  "name": "shouldUseReservedTokenBeneficiaryAsDefault",
                  "type": "bool"
                },
                {
                  "internalType": "bool",
                  "name": "shouldUseRoyaltyBeneficiaryAsDefault",
                  "type": "bool"
                },
                {
                  "internalType": "bool",
                  "name": "transfersPausable",
                  "type": "bool"
                }
              ],
              "internalType": "struct JB721TierParams[]",
              "name": "tiers",
              "type": "tuple[]"
            },
            {
              "internalType": "string[]",
              "name": "tierNames",
              "type": "string[]"
            },
            {
              "internalType": "contract IJBTiered721DelegateStore",
              "name": "store",
              "type": "address"
            }
          ],
          "internalType": "struct DefifaDelegateData",
          "name": "_delegateData",
          "type": "tuple"
        },
        {
          "components": [
            {
              "components": [
                {
                  "internalType": "string",
                  "name": "content",
                  "type": "string"
                },
                {
                  "internalType": "uint256",
                  "name": "domain",
                  "type": "uint256"
                }
              ],
              "internalType": "struct JBProjectMetadata",
              "name": "projectMetadata",
              "type": "tuple"
            },
            {
              "internalType": "address",
              "name": "token",
              "type": "address"
            },
            {
              "internalType": "uint48",
              "name": "mintDuration",
              "type": "uint48"
            },
            {
              "internalType": "uint48",
              "name": "refundPeriodDuration",
              "type": "uint48"
            },
            {
              "internalType": "uint48",
              "name": "start",
              "type": "uint48"
            },
            {
              "internalType": "uint48",
              "name": "end",
              "type": "uint48"
            },
            {
              "internalType": "bool",
              "name": "holdFees",
              "type": "bool"
            },
            {
              "components": [
                {
                  "internalType": "bool",
                  "name": "preferClaimed",
                  "type": "bool"
                },
                {
                  "internalType": "bool",
                  "name": "preferAddToBalance",
                  "type": "bool"
                },
                {
                  "internalType": "uint256",
                  "name": "percent",
                  "type": "uint256"
                },
                {
                  "internalType": "uint256",
                  "name": "projectId",
                  "type": "uint256"
                },
                {
                  "internalType": "address payable",
                  "name": "beneficiary",
                  "type": "address"
                },
                {
                  "internalType": "uint256",
                  "name": "lockedUntil",
                  "type": "uint256"
                },
                {
                  "internalType": "contract IJBSplitAllocator",
                  "name": "allocator",
                  "type": "address"
                }
              ],
              "internalType": "struct JBSplit[]",
              "name": "splits",
              "type": "tuple[]"
            },
            {
              "internalType": "uint88",
              "name": "distributionLimit",
              "type": "uint88"
            },
            {
              "internalType": "address payable",
              "name": "ballkidzFeeProjectTokenAccount",
              "type": "address"
            },
            {
              "internalType": "contract IJBPaymentTerminal",
              "name": "terminal",
              "type": "address"
            }
          ],
          "internalType": "struct DefifaLaunchProjectData",
          "name": "_launchProjectData",
          "type": "tuple"
        }
      ],
      "name": "launchGameWith",
      "outputs": [
        {
          "internalType": "uint256",
          "name": "gameId",
          "type": "uint256"
        },
        {
          "internalType": "contract IDefifaGovernor",
          "name": "governor",
          "type": "address"
        }
      ],
      "stateMutability": "nonpayable",
      "type": "function"
    },
    {
      "inputs": [
        {
          "internalType": "uint256",
          "name": "_gameId",
          "type": "uint256"
        }
      ],
      "name": "mintDurationOf",
      "outputs": [
        {
          "internalType": "uint256",
          "name": "",
          "type": "uint256"
        }
      ],
      "stateMutability": "view",
      "type": "function"
    },
    {
      "inputs": [
        {
          "internalType": "uint256",
          "name": "_gameId",
          "type": "uint256"
        }
      ],
      "name": "nextPhaseNeedsQueueing",
      "outputs": [
        {
          "internalType": "bool",
          "name": "",
          "type": "bool"
        }
      ],
      "stateMutability": "view",
      "type": "function"
    },
    {
      "inputs": [
        {
          "internalType": "address",
          "name": "",
          "type": "address"
        },
        {
          "internalType": "address",
          "name": "",
          "type": "address"
        },
        {
          "internalType": "uint256",
          "name": "",
          "type": "uint256"
        },
        {
          "internalType": "bytes",
          "name": "",
          "type": "bytes"
        }
      ],
      "name": "onERC721Received",
      "outputs": [
        {
          "internalType": "bytes4",
          "name": "",
          "type": "bytes4"
        }
      ],
      "stateMutability": "pure",
      "type": "function"
    },
    {
      "inputs": [],
      "name": "protocolFeeProjectTokenAccount",
      "outputs": [
        {
          "internalType": "address",
          "name": "",
          "type": "address"
        }
      ],
      "stateMutability": "view",
      "type": "function"
    },
    {
      "inputs": [
        {
          "internalType": "uint256",
          "name": "_gameId",
          "type": "uint256"
        }
      ],
      "name": "queueNextPhaseOf",
      "outputs": [
        {
          "internalType": "uint256",
          "name": "configuration",
          "type": "uint256"
        }
      ],
      "stateMutability": "nonpayable",
      "type": "function"
    },
    {
      "inputs": [
        {
          "internalType": "uint256",
          "name": "_gameId",
          "type": "uint256"
        }
      ],
      "name": "refundPeriodDurationOf",
      "outputs": [
        {
          "internalType": "uint256",
          "name": "",
          "type": "uint256"
        }
      ],
      "stateMutability": "view",
      "type": "function"
    },
    {
      "inputs": [
        {
          "internalType": "uint256",
          "name": "_gameId",
          "type": "uint256"
        }
      ],
      "name": "startOf",
      "outputs": [
        {
          "internalType": "uint256",
          "name": "",
          "type": "uint256"
        }
      ],
      "stateMutability": "view",
      "type": "function"
    },
    {
      "inputs": [
        {
          "internalType": "uint256",
          "name": "_gameId",
          "type": "uint256"
        }
      ],
      "name": "terminalOf",
      "outputs": [
        {
          "internalType": "contract IJBPaymentTerminal",
          "name": "",
          "type": "address"
        }
      ],
      "stateMutability": "view",
      "type": "function"
    },
    {
      "inputs": [
        {
          "internalType": "uint256",
          "name": "_gameId",
          "type": "uint256"
        }
      ],
      "name": "timesFor",
      "outputs": [
        {
          "components": [
            {
              "internalType": "uint48",
              "name": "mintDuration",
              "type": "uint48"
            },
            {
              "internalType": "uint48",
              "name": "refundPeriodDuration",
              "type": "uint48"
            },
            {
              "internalType": "uint48",
              "name": "start",
              "type": "uint48"
            },
            {
              "internalType": "uint48",
              "name": "end",
              "type": "uint48"
            }
          ],
          "internalType": "struct DefifaTimeData",
          "name": "",
          "type": "tuple"
        }
      ],
      "stateMutability": "view",
      "type": "function"
    }
  ],
  "bytecode": {
    "object": "0x610100346200013357601f6200339838819003918201601f19168301916001600160401b03831184841017620001385780849260809460405283398101031262000133576200004e816200014e565b906200005d602082016200014e565b6040820151916001600160a01b0383168303620001335760606200008291016200014e565b9260805260a05260c05260e05260405161323490816200016482396080518181816109050152611e25015260a0518181816101120152610e80015260c0518181816101760152818161065a015281816109430152818161099d01528181610e3c015281816112e4015281816116f2015281816119b001528181611d46015281816124b70152818161251a015281816127830152818161292a0152612c08015260e0518181816117b00152611bdd0152f35b600080fd5b634e487b7160e01b600052604160045260246000fd5b51906001600160a01b0382168203620001335756fe608080604052600436101561001357600080fd5b600090813560e01c9081630589d29214611e545750806306b552b514611e0f5780630715610a14611d155780631109fff214611ce1578063150b7a0214611c6b5780631c069dbb14611c4457806327655cfd14611c0c5780633f3090d914611bc75780634fe0eced14611b945780637863263314611b6357806381312a1414611983578063af9fbd1914611966578063b07925d3146118c8578063b41e7f4714611894578063b965933e14611860578063ca449a25146116c2578063d03495c2146101a5578063f77c479114610160578063ff16a2f2146101445763ff2a43cc146100fd57600080fd5b346101415780600319360112610141576040517f00000000000000000000000000000000000000000000000000000000000000006001600160a01b03168152602090f35b80fd5b5034610141578060031936011261014157602090604051908152f35b50346101415780600319360112610141576040517f00000000000000000000000000000000000000000000000000000000000000006001600160a01b03168152602090f35b5034610141576040366003190112610141576001600160401b03600435116101415760e060043536036003190112610141576040516101e381611ec4565b600435600401356001600160401b038111610f3857610209906004369181350101611f88565b8152602460043501356001600160401b038111610f3857610231906004369181350101611f88565b6020820152604460043501356001600160401b038111610f385761025c906004369181350101611f88565b6040820152606460043501356001600160401b038111610f3857610287906004369181350101611f88565b6060820152608460043501356001600160401b038111610f38573660238260043501011215610f38576102c06004828135010135611fde565b906102ce6040519283611f67565b60048035820190810135808452602084019291366101c09092020160240111611004576024816004350101915b600480358301908101356101c00201602401831061157a57505050608082015260a460043501356001600160401b038111610f38573660238260043501011215610f385760048181350101359061035182611fde565b9161035f6040519384611f67565b80835260208301913660248360051b8360043501010111611576576024816004350101925b60248360051b836004350101018410611541575050505060a082015260043560c401356001600160a01b0381168103610f385760c08201526001600160401b0360243511610f475761016060243536036003190112610f4757604051806101608101106001600160401b036101608301111761152b5761016081016040526001600160401b036024356004013511610f3857604060031960243560048101350136030112610f38576104396101608201611edf565b6001600160401b03600460243581013560243501013511610f385761046d3660046024358181013501808201350101611f88565b610160820152602480356004013581350101356101808201526101608101815261049a6024803501611e82565b60208201526104ad604460243501611ff5565b60408201526104c0606460243501611ff5565b60608201526104d3608460243501611ff5565b60808201526104e660a460243501611ff5565b60a08201526104f960c460243501612025565b60c082015260e460243501356001600160401b03811161102f57366023826024350101121561102f576004816024350101359061053582611fde565b916105436040519384611f67565b808352602083019136602460e08402838235010101116111a9579160248381350101925b602460e08402828235010101841061148c575050505060e082015260243561010401356001600160581b0381169003610f385761010460243501356101008201526105b761012460243501611e82565b61012082015260243561014401356001600160a01b0381169003610f3857610144602435013561014082015265ffffffffffff60808201511615611479575b61062f61061c65ffffffffffff60808401511665ffffffffffff606085015116906120e2565b65ffffffffffff604084015116906120e2565b65ffffffffffff429116108015611458575b611446576040516322de550f60e21b81526020816004817f00000000000000000000000000000000000000000000000000000000000000006001600160a01b03165afa908115610f3c578491611401575b506040516306661abd60e01b81529290602090849060049082906001600160a01b03165afa928315610f3c5784936113cd575b506001830183116113b95765ffffffffffff60408301511665ffffffffffff60608401511665ffffffffffff60808501511665ffffffffffff60a086015116906040519361071285611e96565b84526020840192835260408401908152606084019182526001870188528760205265ffffffffffff604089209451166bffffffffffff0000000000008554945160301b169165ffffffffffff60601b905160601b169265ffffffffffff60901b905160901b16936001600160401b0360c01b1617171717905560018060a01b036101408301511660016001600160581b0361010085015116818060a01b0360208601511660c0860151151590604051946107cb86611e96565b85526020850190815260408501928352606085019182528388018952836020526040892094848060a01b039051166bffffffffffffffffffffffff60a01b865416178555838060a01b03905116916001600160581b0360a01b905160a01b169060ff60f81b9051151560f81b1691171791015560e082015151611231575b6080810151610140830151602080850151604051631982d67960e01b81526001600160a01b0391821660048201529394939283916024918391165afa9081156112265786916111f4575b5061014084015160208086015160405163b7bad1b160e01b81526001600160a01b039182166004820152939284916024918391165afa9182156111b55787926111c0575b50604051936108e585611e96565b845260208401526040830152606082018590526001600160a01b036109297f0000000000000000000000000000000000000000000000000000000000000000613168565b6040516331070bc960e21b815291169290916020836004817f00000000000000000000000000000000000000000000000000000000000000006001600160a01b03165afa9283156111b557879361116d575b50805160208083015160405163557e715560e01b8152929390929091816004817f00000000000000000000000000000000000000000000000000000000000000006001600160a01b03165afa908115611162578a91611133575b5060408201519060608301519260c060018060a01b039101511693604051956109fd87611e96565b8c87528c60208801528c604088015260016060880152893b1561112f5760405163d1704baf60e01b815260018d0160048201526001600160a01b0390991660248a01526101c060448a01528c989796959493929190610a61906101c48a0190612288565b8881036003190160648a0152610a7691612288565b6001600160a01b0390911660848801528681036003190160a4880152610a9b91612288565b8660c48701526003198682030160e4870152610ab691612288565b600319858203016101048601528351936080825260808201855180915260a083019560200190885b81811061103e57505050859384938896936060846020829601516020840152604081015160408401528160018060a01b0391015116910152610124850152805115156101448501526020810151151561016485015260408101511515610184850152015115156101a4830152038183875af180156110335761101b575b505061014082015160208084015160405163df21a7dd60e01b81526001600160a01b0391821660048201526001870160248201529283916044918391165afa908115611010578591610fd2575b5015610fc05783906024604051610bbe81611edf565b60018152602036818301376101408501516001600160a01b0316610be182612160565b52610dd58551610dc265ffffffffffff6040890151169160405192610c0584611e96565b8352876020840152876040840152876060840152604051610c2581611efa565b88815288602082015288604082015260c08a01511515610c59604051610c4a81611edf565b8b815260016020820152613143565b9060405192610c6784611f15565b83528a602084015261271080604085015260608401528a60808401528a60a08401528a60c08401528a60e08401528a6101008401528a6101208401528a61014084015261016083015289610180830152896101a083015260016101c083015260016101e08301528861020083015261022082015265ffffffffffff610d0a8b826060610d008260808501511683604086015116906120e2565b92015116906120e2565b610da960405193610d1a85611f4c565b60008552610d9f60405198610d2e8a611f4c565b60008a526103e06040519d8e63b3c5267360e01b815230600482015201528c6104046020610d6a8b5160406103e4860152610424850190612288565b9a0151910152805160448e0152602081015160648e0152604081015160848e0152606001516001600160a01b031660a48d0152565b60c48b0190612fcd565b1661034488015286820360031901610364880152612197565b84810360031901610384860152906130cf565b600319838203016103a484015260208083519283815201920190855b818110610f9e5750505081810360031981016103c484015260148252732232b334b3309033b0b6b290383430b9b290189760611b602092830152829060400181866001600160a01b037f0000000000000000000000000000000000000000000000000000000000000000165af18015610f5f57610f6a575b5065ffffffffffff60a06001600160a01b03610ea47f0000000000000000000000000000000000000000000000000000000000000000613168565b1694015116833b15610f38576040519063cd6dc68760e01b82528260048301526024820152828160448183885af1908115610f5f578391610f4b575b5050803b15610f4757819060246040518094819363f2fde38b60e01b83528760048401525af18015610f3c57610f24575b6040838360018351920182526020820152f35b610f2e8491611eb1565b610f385782610f11565b8280fd5b6040513d86823e3d90fd5b5080fd5b610f5490611eb1565b610f47578138610ee0565b6040513d85823e3d90fd5b6020809293503d8311610f97575b610f828183611f67565b81010312610f9257839038610e69565b600080fd5b503d610f78565b82516001600160a01b0316845289965060209384019390920191600101610df1565b604051631b93d9cb60e11b8152600490fd5b90506020813d602011611008575b81610fed60209383611f67565b8101031261100457610ffe906122c8565b38610ba8565b8480fd5b3d9150610fe0565b6040513d87823e3d90fd5b61102490611eb1565b61102f578338610b5b565b8380fd5b6040513d84823e3d90fd5b91979850919293949560206101c06001928a5169ffffffffffffffffffff815116825265ffffffffffff84820151168483015264ffffffffff604082015116604083015261ffff8060608301511660608401526080820151166080830152848060a01b0360a08201511660a083015260ff8060c08301511660c0840152858060a01b0360e08301511660e0840152610100820151610100840152610120820151166101208301526101408101511515610140830152610160810151151561016083015261018081015115156101808301526101a0809101511515908201520198019101918c98979695949392610ade565b8c80fd5b611155915060203d60201161115b575b61114d8183611f67565b810190612032565b386109d5565b503d611143565b6040513d8c823e3d90fd5b9092506020813d6020116111ad575b8161118960209383611f67565b810103126111a957516001600160a01b03811681036111a957913861097b565b8680fd5b3d915061117c565b6040513d89823e3d90fd5b9091506020813d6020116111ec575b816111dc60209383611f67565b81010312610f92575190386108d7565b3d91506111cf565b90506020813d60201161121e575b8161120f60209383611f67565b81010312610f92575138610893565b3d9150611202565b6040513d88823e3d90fd5b8361123a612110565b61012084015160405161129d916001600160a01b031661125982611ec4565b8482528460208301526302faf0806040830152610171606083015260808201528360a08201528360c082015260e08601518051916112978383612183565b52612183565b5060e0840151604051906112b082611edf565b60018701825260208201526112c482612160565b526112ce81612160565b50604051630af7f80160e21b81526020816004817f00000000000000000000000000000000000000000000000000000000000000006001600160a01b03165afa908115610f5f57839161139a575b506001600160a01b0381163b15610f3857611367839291839260405194858094819363796d225b60e11b83526101716004840152836024840152606060448401526064830190612197565b03926001600160a01b03165af1801561103357611386575b5050610849565b61138f90611eb1565b61102f57833861137f565b6113b3915060203d60201161115b5761114d8183611f67565b3861131c565b634e487b7160e01b84526011600452602484fd5b9092506020813d6020116113f9575b816113e960209383611f67565b81010312610f92575191386106c5565b3d91506113dc565b90506020813d60201161143e575b8161141c60209383611f67565b8101031261102f5751916001600160a01b038316830361102f57916020610692565b3d915061140f565b604051633a7c40a160e11b8152600490fd5b5065ffffffffffff60a08201511665ffffffffffff60808301511611610641565b65ffffffffffff421660808201526105f6565b60e084360312611527576040516114a281611ec4565b6114ab85612025565b81526114b960208601612025565b602082015260408501356040820152606085013560608201526114de60808601611e82565b608082015260a0858101359082015260c08501356001600160a01b03811690036115235760e06020602494829360c089013560c0820152815201950194925050610567565b8880fd5b8780fd5b634e487b7160e01b600052604160045260246000fd5b6001600160401b038435116111a9576020806024926115693685893588600435010101611f88565b8152019401939050610384565b8580fd5b6101c0833603126115765760405190816101c08101106001600160401b036101c08401111761152b576101c0820160405269ffffffffffffffffffff8435168435036111a957833582526115d060208501611ff5565b6020830152604084013564ffffffffff811690036111a95760206101c0916024936040870135604082015261160760608801612008565b60608201526080611619818901612008565b9082015260a061162a818901611e82565b9082015260c061163b818901612017565b9082015261164b60e08801611e82565b60e08201526101008088013590820152610120611669818901612017565b9082015261014061167b818901612025565b9082015261016061168d818901612025565b9082015261018061169f818901612025565b908201526101a06116b1818901612025565b9082015281520193019290506102fb565b5034610141578060031936011261014157604051630619306360e41b8082529082906020906001600160a01b03907f00000000000000000000000000000000000000000000000000000000000000008216908381600481855afa90811561101057849184918791611843575b50169560046040518094819382525afa908115610f3c57829184918691611826575b50604460405180948193635287af3760e01b835230600484015260016024840152165afa928315610f3c5784936117f6575b5050833b15610f385760849083604051958694859363ac689bcd60e01b8552306004860152600160248601527f000000000000000000000000000000000000000000000000000000000000000016604485015260648401525af18015611033576117ea575080f35b6117f390611eb1565b80f35b9080929350813d831161181f575b61180e8183611f67565b81010312610f385751903880611782565b503d611804565b61183d9150823d841161115b5761114d8183611f67565b38611750565b61185a9150833d851161115b5761114d8183611f67565b3861172e565b50346101415760203660031901126101415765ffffffffffff60406020926004358152808452205460901c16604051908152f35b50346101415760203660031901126101415765ffffffffffff60406020926004358152808452205460601c16604051908152f35b503461014157602036600319011261014157604081608092606083516118ed81611e96565b82815282602082015282858201520152600435815280602052206040519061191482611e96565b5465ffffffffffff9081808216938481528160208201818560301c16815281606060408501948288831c168652019560901c168552604051968752511660208601525116604084015251166060820152f35b503461014157806003193601126101415760206040516101718152f35b503461014157602090816003193601126101415760405163557e715560e01b808252916001600160a01b037f0000000000000000000000000000000000000000000000000000000000000000811660048035908790869081855afa948515610f3c578495611b42575b5082939495604051966321d1336160e11b885282600489015287602481610120988994165afa968715611226579088918798611b06575b5060046040518095819382525afa91821561101057908492918692611ae4575b506024906040519485938492630b8aa00f60e31b84526004840152165afa928315611ad8578093611a9c575b505050826004835114159283611a8b575b506040518315158152f35b810151910151149050388281611a80565b90918093503d8411611ad1575b611ab38184611f67565b82019282840312610141575090611ac991612051565b388080611a6f565b503d611aa9565b604051903d90823e3d90fd5b6024919250611aff90893d8b1161115b5761114d8183611f67565b9190611a43565b91509650843d8611611b3b575b611b1d8183611f67565b81019085818303126111a9578891611b3491612051565b9638611a23565b503d611b13565b83949550611b5c90883d8a1161115b5761114d8183611f67565b94936119ec565b50346101415760203660031901126101415760016040602092600435815282845220015460f81c6040519015158152f35b503461014157602036600319011261014157602090600435815260018252604060018060a01b0391205416604051908152f35b50346101415780600319360112610141576040517f00000000000000000000000000000000000000000000000000000000000000006001600160a01b03168152602090f35b5034610141576020366003190112610141576001600160581b0360016040602093600435815282855220015460a01c16604051908152f35b5034610141576020366003190112610141576020611c6360043561249a565b604051908152f35b5034610141576080366003190112610141576001600160a01b0360043581811603610f475760243590811603610141576064356001600160401b03808211610f385736602383011215610f38578160040135908111610f38573691016024011161014157604051630a85bd0160e11b8152602090f35b50346101415760203660031901126101415765ffffffffffff60406020926004358152808452205460301c16604051908152f35b50346101415760203660031901126101415760405163557e715560e01b81526001600160a01b0391906020816004817f000000000000000000000000000000000000000000000000000000000000000087165afa908115611033578291611df1575b50604051906321d1336160e11b8252600435600483015281602481610120968794165afa918215611ad8578092611db5575b60208351604051908152f35b909150823d8411611dea575b611dcb8184611f67565b820192828403126101415750602091611de391612051565b3880611da9565b503d611dc1565b611e09915060203d811161115b5761114d8183611f67565b38611d77565b50346101415780600319360112610141576040517f00000000000000000000000000000000000000000000000000000000000000006001600160a01b03168152602090f35b905034610f47576020366003190112610f475765ffffffffffff604060209360043581528085522054168152f35b35906001600160a01b0382168203610f9257565b608081019081106001600160401b0382111761152b57604052565b6001600160401b03811161152b57604052565b60e081019081106001600160401b0382111761152b57604052565b604081019081106001600160401b0382111761152b57604052565b606081019081106001600160401b0382111761152b57604052565b61024081019081106001600160401b0382111761152b57604052565b60c081019081106001600160401b0382111761152b57604052565b602081019081106001600160401b0382111761152b57604052565b90601f801991011681019081106001600160401b0382111761152b57604052565b81601f82011215610f92578035906001600160401b03821161152b5760405192611fbc601f8401601f191660200185611f67565b82845260208383010111610f9257816000926020809301838601378301015290565b6001600160401b03811161152b5760051b60200190565b359065ffffffffffff82168203610f9257565b359061ffff82168203610f9257565b359060ff82168203610f9257565b35908115158203610f9257565b90816020910312610f9257516001600160a01b0381168103610f925790565b8092916101209182910312610f92576040519081018181106001600160401b0382111761152b576040528092805182526020810151602083015260408101516040830152606081015160608301526080810151608083015260a081015160a083015260c081015160c083015260e081015160018060a01b0381168103610f925760e083015261010080910151910152565b65ffffffffffff91821690821603919082116120fa57565b634e487b7160e01b600052601160045260246000fd5b60409081519161211f83611edf565b600183528291600091825b6020808210156121575782516020929161214382611edf565b86825260608183015282890101520161212a565b50505091925050565b80511561216d5760200190565b634e487b7160e01b600052603260045260246000fd5b805182101561216d5760209160051b010190565b908082519081815260208091019281808460051b830101950193600080925b8584106121c7575050505050505090565b9091929380959697601f1983820301855288519060408381830193805184520151928185840152835180915284606080940194019287925b82841061222157505050505090806001929901940194019295949391906121b6565b845180511515875287810151151588880152818101518288015282810151838801526080808201516001600160a01b039081169189019190915260a0808301519089015260c09182015116908701528b9660e09096019590940193600193909301926121ff565b919082519283825260005b8481106122b4575050826000602080949584010152601f8019910116010190565b602081830181015184830182015201612293565b51908115158203610f9257565b80820392916103a08412610f92576122ed9082612051565b926102809061011f1901818112610f92576040519261024092838501926001600160401b03908685108286111761152b57606013610f92576102a0908682019081118582101761152b57604052610120906123498483016122c8565b85526101406123598582016122c8565b9561026096878a015261016090818701612372906122c8565b868b01528952610180918287015160208b01526101a0938488015160408c01526101c0958689015160608d01526101e0978c898b016123b0906122c8565b90608001528c6102009b8c8c016123c6906122c8565b60a08301526102209d8e8d016123db906122c8565b60c08401528c016123eb906122c8565b60e08301528b016123fb906122c8565b906101000152890161240c906122c8565b908c0152870161241b906122c8565b908a015261242c6102c087016122c8565b9089015261243d6102e086016122c8565b9088015261244e61030085016122c8565b9087015261245f61032084016122c8565b9086015261247061034083016122c8565b908501526103608101516001600160a01b0381168103610f92576103809285015201519082015290565b604051638776c49960e01b8152600481018290526103a0816024817f00000000000000000000000000000000000000000000000000000000000000006001600160a01b03165afa9081156127ee576000908192612fa9575b50600481511015612f97576040516304acdec560e21b8152600481018490526103a0816024817f00000000000000000000000000000000000000000000000000000000000000006001600160a01b03165afa9081156127ee57600091612f65575b5060208083015191015103612f535751600181036127fa5750906020906040610200938460018060a01b03910151168260005260008452816000209482519561259b87611e96565b5495606065ffffffffffff8089168352808960301c169889898501528181841c168785015260901c169101528251956125d387611e96565b8652600085870152600083870152600060608701528251916125f483611efa565b60008352600086840152600084840152612621845161261281611edf565b60008152600188820152613143565b9184519361262e85611f15565b84526000878501526127108086860152606085015260016080850152600060a0850152600060c0850152600060e08501526000610100850152600061012085015260006101408501526000610160850152600061018085015260006101a085015260016101c085015260016101e0850152830152610220820152732232b334b3309033b0b6b290383430b9b290191760611b8461276b61275785516126d281611f4c565b6000815261273b8751966126e588611f4c565b60008852885163175b7be560e31b8152600481019a909a528b5160248b015260208c015160448b015260408c015160648b01526060909b01516001600160a01b031660848a015297998a989060a48a0190612fcd565b60006103248901526103a06103448901526103a4880190612197565b6003199485888303016103648901526130cf565b858103938401610384870152601481520152018160007f00000000000000000000000000000000000000000000000000000000000000006001600160a01b03165af19081156127ee576000916127bf575090565b906020823d6020116127e6575b816127d960209383611f67565b8101031261014157505190565b3d91506127cc565b6040513d6000823e3d90fd5b600203612e2e5761020001516000828152600160208190526040918290209151926001600160a01b03169161282e84611e96565b818060a01b038154168452015460018060a01b03811660208401526001600160581b038160a01c16604084015260f81c151560608301526040519161287283611edf565b6001835260005b60208110612ded575060018060a01b0381511660018060a01b036020830151166001600160581b0360408401511660405191631982d67960e01b8352806004840152602083602481875afa9283156127ee57600093612db9575b50604051936128e185611f31565b845260208401526040830152606082015260006080820152600060a082015261290984612160565b5261291383612160565b50604051630af7f80160e21b8152916020836004817f00000000000000000000000000000000000000000000000000000000000000006001600160a01b03165afa9283156127ee576064936000918291612d9a575b506040516369e11cc560e01b81526101716004820152602481018390526044810188905294859182906001600160a01b03165afa9283156127ee57600093612c68575b50825160009015612c5157506129bf612110565b92604051906129cd82611edf565b6001825260208201526129df84612160565b526129e983612160565b505b84600052600060205260406000209060405191612a0783611e96565b549165ffffffffffff928381168252838160301c16602083015283808260601c169182604085015260901c16606081930152612a42916120e2565b9160405192612a5084611e96565b16825260208201600090526040820160009052606082016000905260405192612a7884611efa565b600084526020840160009052604084016000905260600151151590604051612a9f81611edf565b60008082526020820152612ab290613143565b9160405194612ac086611f15565b8552602085016000905260408501600090526060850160009052608085016001905260a085016000905260c085016001905260e08501600090526101008501600090526101208501600090526101408501600090526101608501526101808401600090526101a08401600090526101c08401600190526101e08401600190526102008401526102208301526040519463175b7be560e31b8652600486015260248501612b92916060908051835260208101516020840152604081015160408401528160018060a01b0391015116910152565b60a48401612b9f91612fcd565b60006103248401526103a0610344840152612bbf906103a4840190612197565b90600319918284820301610364850152612bd8916130cf565b82810391820161038484015260148152732232b334b3309033b0b6b290383430b9b290199760611b6020909101527f00000000000000000000000000000000000000000000000000000000000000006001600160a01b0316908290604001815a602094600091f19081156127ee576000916127bf575090565b604051919350612c6082611f4c565b8152916129eb565b90923d8082843e612c798184611f67565b6020838281010312610f47578251916001600160401b03831161014157818401601f848601011215610141578284015191612cb383611fde565b94612cc16040519687611f67565b8386526020860194828201602060e0870283850101011161102f57602081830101955b602060e0870283850101018710612d03575050505050505091386129ab565b60e087858501031261100457604051612d1b81611ec4565b612d24886122c8565b8152612d32602089016122c8565b6020820152604088810151908201526060808901519082015260808801516001600160a01b03811681036111a957608082015260a0888101519082015260c08801516001600160a01b03811681036111a95760c0820152815260e09690960195602001612ce4565b612db3915060203d60201161115b5761114d8183611f67565b38612968565b90926020823d602011612de5575b81612dd460209383611f67565b8101031261014157505191386128d3565b3d9150612dc7565b602090604051612dfc81611f31565b60008152600083820152600060408201526000606082015260006080820152600060a082015282828701015201612879565b61020090810151604080519360209390926001600160a01b031690612e5286611e96565b6000865260008587015260008387015260006060870152825191612e7583611efa565b60008352600086840152600084840152612ea28451612e9381611edf565b60008152600088820152613143565b91845193612eaf85611f15565b84526000878501526127108086860152606085015260016080850152600060a0850152600060c0850152600060e08501526000610100850152600061012085015260006101408501526000610160850152600061018085015260006101a085015260016101c085015260016101e0850152830152610220820152732232b334b3309033b0b6b290383430b9b2901a1760611b8461276b61275785516126d281611f4c565b6040516311f4338560e01b8152600490fd5b612f8991506103a03d6103a011612f90575b612f818183611f67565b8101906122d5565b5038612553565b503d612f77565b60405163dc7a251560e01b8152600490fd5b9050612fc691506103a03d6103a011612f9057612f818183611f67565b90386124f2565b61026090604081518051151585526020810151151560208601520151151560408401526020810151606084015260408101516080840152606081015160a08401526080810151151560c084015260a0810151151560e084015260c0810151151590610100918285015260e081015115159161012092838601528101511515916101409283860152810151151591610160928386015281015115159161018092838601528101511515916101a092838601528101511515916101c092838601528101511515916101e092838601528101511515916102009283860152810151151591610220928386015260018060a01b0390820151166102408501520151910152565b90815180825260208080930193019160005b8281106130ef575050505090565b835180516001600160a01b03908116875281840151168684015260408082015190870152606080820151908701526080808201519087015260a0908101519086015260c090940193928101926001016130e1565b90600091805161315f575b6020015161315857565b9060021790565b6001925061314e565b604051733d602d80600a3d3981f3363d3d373d3d3d363d7360601b815260609190911b60148201526e5af43d82803e903d91602b57fd5bf360881b60288201526037906000f0906001600160a01b038216156131c057565b60405162461bcd60e51b8152602060048201526016602482015275115490cc4c4d8dce8818dc99585d194819985a5b195960521b6044820152606490fdfea2646970667358221220949cda3b1f05b4e5cd014e7201985bfb0146582088dab2e1ddff9a94fb877b2c64736f6c63430008110033",
    "linkReferences": {}
  },
  "methodIdentifiers": {
    "BALLKIDZ_PROJECT_ID()": "af9fbd19",
    "SPLIT_DOMAIN()": "ff16a2f2",
    "claimProtocolProjectToken()": "ca449a25",
    "controller()": "f77c4791",
    "currentGamePhaseOf(uint256)": "0715610a",
    "delegateCodeOrigin()": "06b552b5",
    "distributionLimit(uint256)": "27655cfd",
    "endOf(uint256)": "b965933e",
    "governorCodeOrigin()": "ff2a43cc",
    "holdFeesDuring(uint256)": "78632633",
    "launchGameWith((string,string,string,string,(uint80,uint48,uint40,uint16,uint16,address,uint8,address,bytes32,uint8,bool,bool,bool,bool)[],string[],address),((string,uint256),address,uint48,uint48,uint48,uint48,bool,(bool,bool,uint256,uint256,address,uint256,address)[],uint88,address,address))": "d03495c2",
    "mintDurationOf(uint256)": "0589d292",
    "nextPhaseNeedsQueueing(uint256)": "81312a14",
    "onERC721Received(address,address,uint256,bytes)": "150b7a02",
    "protocolFeeProjectTokenAccount()": "3f3090d9",
    "queueNextPhaseOf(uint256)": "1c069dbb",
    "refundPeriodDurationOf(uint256)": "1109fff2",
    "startOf(uint256)": "b41e7f47",
    "terminalOf(uint256)": "4fe0eced",
    "timesFor(uint256)": "b07925d3"
  },
  "id": 1
}