{
  "abi": [
    {
      "inputs": [
        {
          "internalType": "address",
          "name": "_delegateCodeOrigin",
          "type": "address"
        },
        {
          "internalType": "address",
          "name": "_governorCodeOrigin",
          "type": "address"
        },
        {
          "internalType": "address",
          "name": "_tokenUriResolverCodeOrigin",
          "type": "address"
        },
        {
          "internalType": "contract IJBController3_1",
          "name": "_controller",
          "type": "address"
        },
        {
          "internalType": "address",
          "name": "_protocolFeeProjectTokenAccount",
          "type": "address"
        }
      ],
      "stateMutability": "nonpayable",
      "type": "constructor"
    },
    {
      "inputs": [],
      "name": "GAME_OVER",
      "type": "error"
    },
    {
      "inputs": [],
      "name": "INVALID_GAME_CONFIGURATION",
      "type": "error"
    },
    {
      "inputs": [],
      "name": "PHASE_ALREADY_QUEUED",
      "type": "error"
    },
    {
      "inputs": [],
      "name": "UNEXPECTED_TERMINAL_CURRENCY",
      "type": "error"
    },
    {
      "inputs": [],
      "name": "BALLKIDZ_PROJECT_ID",
      "outputs": [
        {
          "internalType": "uint256",
          "name": "",
          "type": "uint256"
        }
      ],
      "stateMutability": "view",
      "type": "function"
    },
    {
      "inputs": [],
      "name": "SPLIT_DOMAIN",
      "outputs": [
        {
          "internalType": "uint256",
          "name": "",
          "type": "uint256"
        }
      ],
      "stateMutability": "view",
      "type": "function"
    },
    {
      "inputs": [],
      "name": "claimProtocolProjectToken",
      "outputs": [],
      "stateMutability": "nonpayable",
      "type": "function"
    },
    {
      "inputs": [],
      "name": "controller",
      "outputs": [
        {
          "internalType": "contract IJBController3_1",
          "name": "",
          "type": "address"
        }
      ],
      "stateMutability": "view",
      "type": "function"
    },
    {
      "inputs": [
        {
          "internalType": "uint256",
          "name": "_gameId",
          "type": "uint256"
        }
      ],
      "name": "currentGamePhaseOf",
      "outputs": [
        {
          "internalType": "uint256",
          "name": "",
          "type": "uint256"
        }
      ],
      "stateMutability": "view",
      "type": "function"
    },
    {
      "inputs": [],
      "name": "delegateCodeOrigin",
      "outputs": [
        {
          "internalType": "address",
          "name": "",
          "type": "address"
        }
      ],
      "stateMutability": "view",
      "type": "function"
    },
    {
      "inputs": [
        {
          "internalType": "uint256",
          "name": "_gameId",
          "type": "uint256"
        }
      ],
      "name": "distributionLimit",
      "outputs": [
        {
          "internalType": "uint256",
          "name": "",
          "type": "uint256"
        }
      ],
      "stateMutability": "view",
      "type": "function"
    },
    {
      "inputs": [
        {
          "internalType": "uint256",
          "name": "_gameId",
          "type": "uint256"
        }
      ],
      "name": "endOf",
      "outputs": [
        {
          "internalType": "uint256",
          "name": "",
          "type": "uint256"
        }
      ],
      "stateMutability": "view",
      "type": "function"
    },
    {
      "inputs": [],
      "name": "governorCodeOrigin",
      "outputs": [
        {
          "internalType": "address",
          "name": "",
          "type": "address"
        }
      ],
      "stateMutability": "view",
      "type": "function"
    },
    {
      "inputs": [
        {
          "components": [
            {
              "internalType": "string",
              "name": "name",
              "type": "string"
            },
            {
              "components": [
                {
                  "internalType": "string",
                  "name": "content",
                  "type": "string"
                },
                {
                  "internalType": "uint256",
                  "name": "domain",
                  "type": "uint256"
                }
              ],
              "internalType": "struct JBProjectMetadata",
              "name": "projectMetadata",
              "type": "tuple"
            },
            {
              "internalType": "string",
              "name": "contractUri",
              "type": "string"
            },
            {
              "internalType": "string",
              "name": "baseUri",
              "type": "string"
            },
            {
              "components": [
                {
                  "internalType": "uint80",
                  "name": "price",
                  "type": "uint80"
                },
                {
                  "internalType": "uint16",
                  "name": "reservedRate",
                  "type": "uint16"
                },
                {
                  "internalType": "address",
                  "name": "reservedTokenBeneficiary",
                  "type": "address"
                },
                {
                  "internalType": "uint8",
                  "name": "royaltyRate",
                  "type": "uint8"
                },
                {
                  "internalType": "address",
                  "name": "royaltyBeneficiary",
                  "type": "address"
                },
                {
                  "internalType": "bytes32",
                  "name": "encodedIPFSUri",
                  "type": "bytes32"
                },
                {
                  "internalType": "bool",
                  "name": "shouldUseReservedTokenBeneficiaryAsDefault",
                  "type": "bool"
                },
                {
                  "internalType": "string",
                  "name": "name",
                  "type": "string"
                }
              ],
              "internalType": "struct DefifaTierParams[]",
              "name": "tiers",
              "type": "tuple[]"
            },
            {
              "internalType": "address",
              "name": "token",
              "type": "address"
            },
            {
              "internalType": "uint48",
              "name": "mintDuration",
              "type": "uint48"
            },
            {
              "internalType": "uint48",
              "name": "refundPeriodDuration",
              "type": "uint48"
            },
            {
              "internalType": "uint48",
              "name": "start",
              "type": "uint48"
            },
            {
              "internalType": "uint48",
              "name": "end",
              "type": "uint48"
            },
            {
              "components": [
                {
                  "internalType": "bool",
                  "name": "preferClaimed",
                  "type": "bool"
                },
                {
                  "internalType": "bool",
                  "name": "preferAddToBalance",
                  "type": "bool"
                },
                {
                  "internalType": "uint256",
                  "name": "percent",
                  "type": "uint256"
                },
                {
                  "internalType": "uint256",
                  "name": "projectId",
                  "type": "uint256"
                },
                {
                  "internalType": "address payable",
                  "name": "beneficiary",
                  "type": "address"
                },
                {
                  "internalType": "uint256",
                  "name": "lockedUntil",
                  "type": "uint256"
                },
                {
                  "internalType": "contract IJBSplitAllocator",
                  "name": "allocator",
                  "type": "address"
                }
              ],
              "internalType": "struct JBSplit[]",
              "name": "splits",
              "type": "tuple[]"
            },
            {
              "internalType": "uint88",
              "name": "distributionLimit",
              "type": "uint88"
            },
            {
              "internalType": "address payable",
              "name": "ballkidzFeeProjectTokenAccount",
              "type": "address"
            },
            {
              "internalType": "uint256",
              "name": "votingPeriod",
              "type": "uint256"
            },
            {
              "internalType": "contract IJBPaymentTerminal",
              "name": "terminal",
              "type": "address"
            },
            {
              "internalType": "contract IJBTiered721DelegateStore",
              "name": "store",
              "type": "address"
            }
          ],
          "internalType": "struct DefifaLaunchProjectData",
          "name": "_launchProjectData",
          "type": "tuple"
        }
      ],
      "name": "launchGameWith",
      "outputs": [
        {
          "internalType": "uint256",
          "name": "gameId",
          "type": "uint256"
        },
        {
          "internalType": "contract IDefifaGovernor",
          "name": "governor",
          "type": "address"
        }
      ],
      "stateMutability": "nonpayable",
      "type": "function"
    },
    {
      "inputs": [
        {
          "internalType": "uint256",
          "name": "_gameId",
          "type": "uint256"
        }
      ],
      "name": "mintDurationOf",
      "outputs": [
        {
          "internalType": "uint256",
          "name": "",
          "type": "uint256"
        }
      ],
      "stateMutability": "view",
      "type": "function"
    },
    {
      "inputs": [
        {
          "internalType": "uint256",
          "name": "_gameId",
          "type": "uint256"
        }
      ],
      "name": "nextPhaseNeedsQueueing",
      "outputs": [
        {
          "internalType": "bool",
          "name": "",
          "type": "bool"
        }
      ],
      "stateMutability": "view",
      "type": "function"
    },
    {
      "inputs": [
        {
          "internalType": "address",
          "name": "",
          "type": "address"
        },
        {
          "internalType": "address",
          "name": "",
          "type": "address"
        },
        {
          "internalType": "uint256",
          "name": "",
          "type": "uint256"
        },
        {
          "internalType": "bytes",
          "name": "",
          "type": "bytes"
        }
      ],
      "name": "onERC721Received",
      "outputs": [
        {
          "internalType": "bytes4",
          "name": "",
          "type": "bytes4"
        }
      ],
      "stateMutability": "pure",
      "type": "function"
    },
    {
      "inputs": [],
      "name": "protocolFeeProjectTokenAccount",
      "outputs": [
        {
          "internalType": "address",
          "name": "",
          "type": "address"
        }
      ],
      "stateMutability": "view",
      "type": "function"
    },
    {
      "inputs": [
        {
          "internalType": "uint256",
          "name": "_gameId",
          "type": "uint256"
        }
      ],
      "name": "queueNextPhaseOf",
      "outputs": [
        {
          "internalType": "uint256",
          "name": "configuration",
          "type": "uint256"
        }
      ],
      "stateMutability": "nonpayable",
      "type": "function"
    },
    {
      "inputs": [
        {
          "internalType": "uint256",
          "name": "_gameId",
          "type": "uint256"
        }
      ],
      "name": "refundPeriodDurationOf",
      "outputs": [
        {
          "internalType": "uint256",
          "name": "",
          "type": "uint256"
        }
      ],
      "stateMutability": "view",
      "type": "function"
    },
    {
      "inputs": [
        {
          "internalType": "uint256",
          "name": "_gameId",
          "type": "uint256"
        }
      ],
      "name": "startOf",
      "outputs": [
        {
          "internalType": "uint256",
          "name": "",
          "type": "uint256"
        }
      ],
      "stateMutability": "view",
      "type": "function"
    },
    {
      "inputs": [
        {
          "internalType": "uint256",
          "name": "_gameId",
          "type": "uint256"
        }
      ],
      "name": "terminalOf",
      "outputs": [
        {
          "internalType": "contract IJBPaymentTerminal",
          "name": "",
          "type": "address"
        }
      ],
      "stateMutability": "view",
      "type": "function"
    },
    {
      "inputs": [
        {
          "internalType": "uint256",
          "name": "_gameId",
          "type": "uint256"
        }
      ],
      "name": "timesFor",
      "outputs": [
        {
          "components": [
            {
              "internalType": "uint48",
              "name": "mintDuration",
              "type": "uint48"
            },
            {
              "internalType": "uint48",
              "name": "refundPeriodDuration",
              "type": "uint48"
            },
            {
              "internalType": "uint48",
              "name": "start",
              "type": "uint48"
            },
            {
              "internalType": "uint48",
              "name": "end",
              "type": "uint48"
            }
          ],
          "internalType": "struct DefifaTimeData",
          "name": "",
          "type": "tuple"
        }
      ],
      "stateMutability": "view",
      "type": "function"
    },
    {
      "inputs": [],
      "name": "tokenUriResolverCodeOrigin",
      "outputs": [
        {
          "internalType": "address",
          "name": "",
          "type": "address"
        }
      ],
      "stateMutability": "view",
      "type": "function"
    }
  ],
  "bytecode": {
    "object": "0x610120346200015157601f620036ca38819003918201601f19168301916001600160401b03831184841017620001565780849260a09460405283398101031262000151576200004e816200016c565b906200005d602082016200016c565b6200006b604083016200016c565b6060830151929091906001600160a01b0384168403620001515760806200009391016200016c565b9360805260a05260c05260e0526101009081526040516135489182620001828339608051828181610ab301526120e4015260a051828181610112015261113a015260c051828181610ae60152611e24015260e051828181610176015281816101d40152818161074e01528181610b2201528181610bfa015281816110ff0152818161175301528181611c570152818161200501528181612789015281816127ec01528181612a560152612bf10152518181816102930152611e9c0152f35b600080fd5b634e487b7160e01b600052604160045260246000fd5b51906001600160a01b0382168203620001515756fe608080604052600436101561001357600080fd5b600090813560e01c9081630589d292146121135750806306b552b5146120ce5780630715610a14611fd45780631109fff214611fa0578063150b7a0214611f2a5780631c069dbb14611f0357806327655cfd14611ecb5780633f3090d914611e865780634fe0eced14611e5357806380f0795414611e0e57806381312a1414611c2a578063af9fbd1914611c0d578063b07925d314611b6f578063b41e7f4714611b3b578063b965933e14611b07578063c47c437c14610382578063ca449a25146101a5578063f77c479114610160578063ff16a2f2146101445763ff2a43cc146100fd57600080fd5b346101415780600319360112610141576040517f00000000000000000000000000000000000000000000000000000000000000006001600160a01b03168152602090f35b80fd5b5034610141578060031936011261014157602090604051908152f35b50346101415780600319360112610141576040517f00000000000000000000000000000000000000000000000000000000000000006001600160a01b03168152602090f35b5034610141578060031936011261014157604051630619306360e41b80825282916001600160a01b03906020907f00000000000000000000000000000000000000000000000000000000000000008316908281600481855afa9081156103775783918591889161035a575b50169460046040518094819382525afa9081156103225783918391879161032d575b50604460405180948193635287af3760e01b835230600484015260016024840152165afa9182156103225785926102ec575b5050823b156102e7576084849283604051958694859363ac689bcd60e01b8552306004860152600160248601527f000000000000000000000000000000000000000000000000000000000000000016604485015260648401525af180156102dc576102cc5750f35b6102d5906121c1565b6101415780f35b6040513d84823e3d90fd5b505050fd5b8195508092503d831161031b575b6103048183612242565b81010312610316578392513880610264565b600080fd5b503d6102fa565b6040513d87823e3d90fd5b61034d9150823d8411610353575b6103458183612242565b8101906122fc565b38610232565b503d61033b565b6103719150833d8511610353576103458183612242565b38610210565b6040513d88823e3d90fd5b5034610141576020366003190112610141576001600160401b036004351161014157610200600435360360031901126101415760405161020081018181106001600160401b03821117611af357604052600435600401356001600160401b038111611208576103f890600436918135010161227e565b8152602460043501356001600160401b038111611208576004350160406003198236030112611208576040519061042e82612170565b6004810135906001600160401b0382116112d3576104546024926004369184010161227e565b8352013560208201526020820152604460043501356001600160401b0381116112085761048890600436918135010161227e565b6040820152606460043501356001600160401b038111611208576104b390600436918135010161227e565b6060820152608460043501356001600160401b038111611208573660238260043501011215611208576004818135010135906104ee826122c5565b916104fc6040519384612242565b80835260208301913660248360051b8360043501010111611326576024816004350101925b60248360051b83600435010101841061198d5750505050608082015261054b60a460043501612141565b60a082015261055e60c4600435016122e9565b60c082015261057160e4600435016122e9565b60e0820152610585610104600435016122e9565b61010082015261059a610124600435016122e9565b6101208201526001600160401b036101446004350135116112175736600435610144810135016023011215611217576105de600480356101448101350101356122c5565b6105eb6040519182612242565b60048035610144810135019081013580835260208301913660e0909202016024011161123a5760043561014481013501602401905b60048035610144810135019081013560e0020160240182106118fc57505061014082015260043561016401356001600160581b038116900361121757610164600435013561016082015261067961018460043501612141565b6101808201526004356101a48101356101a08301526101c401356001600160a01b0381169003611217576004356101c48101356101c08301526101e401356001600160a01b0381169003611217576101e460043501356101e082015265ffffffffffff61010082015116156118e8575b61072361071065ffffffffffff6101008401511665ffffffffffff60e085015116906123ac565b65ffffffffffff60c084015116906123ac565b65ffffffffffff4291161080156118c5575b6118b3576040516322de550f60e21b81526020816004817f00000000000000000000000000000000000000000000000000000000000000006001600160a01b03165afa90811561122f57839161186e575b506040516306661abd60e01b81529190602090839060049082906001600160a01b03165afa91821561122f57839261183a575b506001820182116118265765ffffffffffff60c08201511665ffffffffffff60e08301511665ffffffffffff6101008401511665ffffffffffff61012085015116906040519361080885612155565b84526020840192835260408401908152606084019182526001860187528660205265ffffffffffff604088209451166bffffffffffff0000000000008554945160301b169165ffffffffffff60601b905160601b169265ffffffffffff60901b905160901b16936001600160401b0360c01b1617171717905560018060a01b036101c0820151166001600160581b03610160830151166001808060a01b0360a08501511692604051906108ba826121a6565b815260208101938452604081019283528186018752816020526040872090828060a01b039051166bffffffffffffffffffffffff60a01b825416178155019160018060a01b039051168254916001600160581b0360a01b905160a01b169160ff60f81b16171790556101408101515161169d575b60808101515161093d816122c5565b9061094b6040519283612242565b808252601f1961095a826122c5565b01855b81811061162c5750506080830151519061098f610979836122c5565b926109876040519485612242565b8084526122c5565b865b601f198201811061161b575050604051806101008101106001600160401b03610100830111176116055760e0816101006060930160405288815288602082015288604082015288838201528860808201528860a08201528860c08201520152855b8181106115165750506101c083015160a0840151604051631982d67960e01b81526001600160a01b0391821660048201529160209183916024918391165afa9081156103775786916114e4575b506101c084015160a085015160405163b7bad1b160e01b81526001600160a01b039182166004820152929160209184916024918391165afa9182156114d95787926114a5575b5060405193610a9385612155565b845260208401526040830152606082018590526001600160a01b03610ad77f00000000000000000000000000000000000000000000000000000000000000006133b2565b16916001600160a01b03610b0a7f00000000000000000000000000000000000000000000000000000000000000006133b2565b6040516331070bc960e21b81529116916020826004817f00000000000000000000000000000000000000000000000000000000000000006001600160a01b03165afa91821561149a578892611452575b50878651610b9c602860405180936702222a324a3209d160c51b6020830152610b8c8151809260208686019101612552565b8101036008810184520182612242565b610ba860018a01613448565b610be5602760405180936602222a324a320960cd1b6020830152610bd58151809260208686019101612552565b8101036007810184520182612242565b60405163557e715560e01b81526020816004817f00000000000000000000000000000000000000000000000000000000000000006001600160a01b03165afa90811561120c578491611433575b5060608a01519060408b01519260018060a01b036101e08d0151169460405196610c5b88612155565b8088528060208901526040880152600160608801528b3b1561142f5760405163d1704baf60e01b815260018f0160048201526001600160a01b0390991660248a01526101c060448a01528e989796959493929190610cbe906101c48a0190612575565b8881036003190160648a0152610cd391612575565b6001600160a01b0390911660848801528681036003190160a4880152610cf891612575565b8760c48701526003198682030160e4870152610d1391612575565b600319858203016101048601528351936080825260808201855180915260a083019560200190885b81811061133e57505050859384938896936060846020829601516020840152604081015160408401528160018060a01b0391015116910152610124850152805115156101448501526020810151151561016485015260408101511515610184850152015115156101a4830152038183895af180156102dc5761132a575b5050803b1561132657908591604051916394e6f56f60e01b8352604483018560048501526040602485015281518091526064840190602060648260051b87010193019186905b8282106112f357505050508391838381809403925af180156102dc576112df575b50506101c082015160a083015160405163df21a7dd60e01b81526001600160a01b0391821660048201526001860160248201529160209183916044918391165afa9081156103225785916112a1575b501561128f5783906024604051610e8481612170565b60018152602036818301376101c08501516001600160a01b0316610ea78261242a565b52611098602086015161108565ffffffffffff60c0890151169160405192610ece84612155565b8352876020840152876040840152876060840152604051610eee816121a6565b888152886020820152886040820152610f1b604051610f0c81612170565b8a81526001602082015261338d565b60405191610f28836121f0565b825289602083015261271080604084015260608301528960808301528960a08301528960c08301528960e08301528961010083015289610120830152896101408301528961016083015289610180830152896101a083015260016101c083015260016101e08301528861020083015261022082015265ffffffffffff610fcd8b8260e0610fc382610100850151168360c086015116906123ac565b92015116906123ac565b61106c60405193610fdd85612227565b6000855261106260405198610ff18a612227565b60008a526103e06040519d8e63b3c5267360e01b815230600482015201528c610404602061102d8b5160406103e4860152610424850190612575565b9a0151910152805160448e0152602081015160648e0152604081015160848e0152606001516001600160a01b031660a48d0152565b60c48b0190613217565b1661034488015286820360031901610364880152612461565b8481036003190161038486015290613319565b600319838203016103a484015260208083519283815201920190855b81811061126d5750505081810360031981016103c484015260148252732232b334b3309033b0b6b290383430b9b290189760611b602092830152829060400181866001600160a01b037f0000000000000000000000000000000000000000000000000000000000000000165af1801561122f5761123e575b506001600160a01b0361115e7f00000000000000000000000000000000000000000000000000000000000000006133b2565b16926101a065ffffffffffff61012083015116910151843b1561123a5760405191633d0d630f60e11b835283600484015260248301526044820152828160648183885af190811561122f57839161121b575b5050803b1561121757819060246040518094819363f2fde38b60e01b83528760048401525af1801561120c576111f4575b6040838360018351920182526020820152f35b6111fe84916121c1565b61120857826111e1565b8280fd5b6040513d86823e3d90fd5b5080fd5b611224906121c1565b6112175781386111b0565b6040513d85823e3d90fd5b8380fd5b6020809293503d8311611266575b6112568183612242565b810103126103165783903861112c565b503d61124c565b82516001600160a01b03168452899650602093840193909201916001016110b4565b604051631b93d9cb60e11b8152600490fd5b90506020813d6020116112d7575b816112bc60209383612242565b810103126112d3576112cd9061259a565b38610e6e565b8480fd5b3d91506112af565b6112e8906121c1565b61123a578338610e1f565b91936001919395969750602061131481926063198b82030186528851612575565b9601920192018a969594939192610dfe565b8580fd5b611333906121c1565b611326578538610db8565b91979850919293949560206101c06001926101a08b5169ffffffffffffffffffff815116835265ffffffffffff85820151168584015264ffffffffff604082015116604084015261ffff8060608301511660608501526080820151166080840152858060a01b0360a08201511660a084015260ff8060c08301511660c0850152868060a01b0360e08301511660e085015261010082015161010085015261012082015116610120840152610140810151151561014084015261016081015115156101608401526101808101511515610180840152015115156101a08201520198019101918e98979695949392610d3b565b8e80fd5b61144c915060203d602011610353576103458183612242565b38610c32565b9091506020813d602011611492575b8161146e60209383612242565b8101031261148e57516001600160a01b038116810361148e579038610b5a565b8780fd5b3d9150611461565b6040513d8a823e3d90fd5b9091506020813d6020116114d1575b816114c160209383612242565b8101031261031657519038610a85565b3d91506114b4565b6040513d89823e3d90fd5b90506020813d60201161150e575b816114ff60209383612242565b81010312610316575138610a3f565b3d91506114f2565b8060e0611529600193608089015161244d565b5169ffffffffffffffffffff8151168a61ffff602084015116868060a01b0360408501511660ff606086015116888060a01b036080870151169160a08701519360c08801511515956040519761157e896121d4565b8852602088015264ffffffffff60408801528a6060880152608087015260a086015260c0850152858401526101008301528b6101208301528b6101408301526101608201528a6101808201528a6101a08201526115db848961244d565b526115e6838861244d565b5001516115f3828661244d565b526115fe818561244d565b50016109f2565b634e487b7160e01b600052604160045260246000fd5b806060602080938701015201610991565b60209060405161163b816121d4565b88815288838201528860408201528860608201528860808201528860a08201528860c08201528860e08201528861010082015288610120820152886101408201528861016082015288610180820152886101a08201528282870101520161095d565b826116a66123da565b61018083015160405161170a916001600160a01b03166116c58261218b565b8482528460208301526302faf0806040830152610171606083015260808201528360a08201528360c0820152610140850151805191611704838361244d565b5261244d565b506101408301516040519061171e82612170565b60018601825260208201526117328261242a565b5261173c8161242a565b50604051630af7f80160e21b8152906020826004817f00000000000000000000000000000000000000000000000000000000000000006001600160a01b03165afa91821561122f578392611805575b506001600160a01b0382163b156112085782916117d49160405194858094819363796d225b60e11b83526101716004840152836024840152606060448401526064830190612461565b03926001600160a01b03165af1801561120c576117f2575b5061092e565b6117fe909391936121c1565b91386117ec565b61181f91925060203d602011610353576103458183612242565b903861178b565b634e487b7160e01b83526011600452602483fd5b9091506020813d602011611866575b8161185660209383612242565b81010312611208575190386107b9565b3d9150611849565b90506020813d6020116118ab575b8161188960209383612242565b810103126112085751906001600160a01b038216820361120857906020610786565b3d915061187c565b604051633a7c40a160e11b8152600490fd5b5065ffffffffffff6101208201511665ffffffffffff6101008301511611610735565b65ffffffffffff42166101008201526106e9565b60e0823603126112d3576040516119128161218b565b61191b836122dc565b8152611929602084016122dc565b6020820152604083013560408201526060830135606082015261194e60808401612141565b608082015260a0838101359082015260c08301356001600160a01b03811690036113265760e09160209160c085013560c0820152815201910190610620565b83356001600160401b03811161148e57610100600435840182013603602319011261148e5760405190816101008101106001600160401b0361010084011117611adf576101008201604052600435840181016024013569ffffffffffffffffffff81169003611adb5760043584018101602481013583526044013561ffff81169003611adb576004358401810160448101356020840152611a3090606401612141565b6040830152600435840181016084013560ff81169003611adb576004358401810160848101356060840152611a679060a401612141565b60808301526004358401810160c481013560a0840152611a899060e4016122dc565b60c08301526001600160401b0361010482866004350101013511611adb576024926020928392611ac990369060043589010161010481013501870161227e565b60e08201528152019401939050610521565b8880fd5b634e487b7160e01b89526041600452602489fd5b634e487b7160e01b83526041600452602483fd5b50346101415760203660031901126101415765ffffffffffff60406020926004358152808452205460901c16604051908152f35b50346101415760203660031901126101415765ffffffffffff60406020926004358152808452205460601c16604051908152f35b50346101415760203660031901126101415760408160809260608351611b9481612155565b828152826020820152828582015201526004358152806020522060405190611bbb82612155565b5465ffffffffffff9081808216938481528160208201818560301c16815281606060408501948288831c168652019560901c168552604051968752511660208601525116604084015251166060820152f35b503461014157806003193601126101415760206040516101718152f35b503461014157602090816003193601126101415760405163557e715560e01b808252916001600160a01b037f0000000000000000000000000000000000000000000000000000000000000000811660048035908790869081855afa94851561120c578495611ded575b5082939495604051966321d1336160e11b885282600489015287602481610120988994165afa968715610377579088918798611dad575b5060046040518095819382525afa91821561032257908492918692611d8b575b506024906040519485938492630b8aa00f60e31b84526004840152165afa928315611d7f578093611d43575b505050826004835114159283611d32575b506040518315158152f35b810151910151149050388281611d27565b90918093503d8411611d78575b611d5a8184612242565b82019282840312610141575090611d709161231b565b388080611d16565b503d611d50565b604051903d90823e3d90fd5b6024919250611da690893d8b11610353576103458183612242565b9190611cea565b91509650843d8611611de6575b611dc48183612242565b8101908581830312611de2578891611ddb9161231b565b9638611cca565b8680fd5b503d611dba565b83949550611e0790883d8a11610353576103458183612242565b9493611c93565b50346101415780600319360112610141576040517f00000000000000000000000000000000000000000000000000000000000000006001600160a01b03168152602090f35b503461014157602036600319011261014157602090600435815260018252604060018060a01b0391205416604051908152f35b50346101415780600319360112610141576040517f00000000000000000000000000000000000000000000000000000000000000006001600160a01b03168152602090f35b5034610141576020366003190112610141576001600160581b0360016040602093600435815282855220015460a01c16604051908152f35b5034610141576020366003190112610141576020611f2260043561276c565b604051908152f35b5034610141576080366003190112610141576001600160a01b03600435818116036112175760243590811603610141576064356001600160401b038082116112085736602383011215611208578160040135908111611208573691016024011161014157604051630a85bd0160e11b8152602090f35b50346101415760203660031901126101415765ffffffffffff60406020926004358152808452205460301c16604051908152f35b50346101415760203660031901126101415760405163557e715560e01b81526001600160a01b0391906020816004817f000000000000000000000000000000000000000000000000000000000000000087165afa9081156102dc5782916120b0575b50604051906321d1336160e11b8252600435600483015281602481610120968794165afa918215611d7f578092612074575b60208351604051908152f35b909150823d84116120a9575b61208a8184612242565b8201928284031261014157506020916120a29161231b565b3880612068565b503d612080565b6120c8915060203d8111610353576103458183612242565b38612036565b50346101415780600319360112610141576040517f00000000000000000000000000000000000000000000000000000000000000006001600160a01b03168152602090f35b9050346112175760203660031901126112175765ffffffffffff604060209360043581528085522054168152f35b35906001600160a01b038216820361031657565b608081019081106001600160401b0382111761160557604052565b604081019081106001600160401b0382111761160557604052565b60e081019081106001600160401b0382111761160557604052565b606081019081106001600160401b0382111761160557604052565b6001600160401b03811161160557604052565b6101c081019081106001600160401b0382111761160557604052565b61024081019081106001600160401b0382111761160557604052565b60c081019081106001600160401b0382111761160557604052565b602081019081106001600160401b0382111761160557604052565b90601f801991011681019081106001600160401b0382111761160557604052565b6001600160401b03811161160557601f01601f191660200190565b81601f820112156103165780359061229582612263565b926122a36040519485612242565b8284526020838301011161031657816000926020809301838601378301015290565b6001600160401b0381116116055760051b60200190565b3590811515820361031657565b359065ffffffffffff8216820361031657565b9081602091031261031657516001600160a01b03811681036103165790565b8092916101209182910312610316576040519081018181106001600160401b03821117611605576040528092805182526020810151602083015260408101516040830152606081015160608301526080810151608083015260a081015160a083015260c081015160c083015260e081015160018060a01b03811681036103165760e083015261010080910151910152565b65ffffffffffff91821690821603919082116123c457565b634e487b7160e01b600052601160045260246000fd5b6040908151916123e983612170565b600183528291600091825b6020808210156124215782516020929161240d82612170565b8682526060818301528289010152016123f4565b50505091925050565b8051156124375760200190565b634e487b7160e01b600052603260045260246000fd5b80518210156124375760209160051b010190565b908082519081815260208091019281808460051b830101950193600080925b858410612491575050505050505090565b9091929380959697601f1983820301855288519060408381830193805184520151928185840152835180915284606080940194019287925b8284106124eb5750505050509080600192990194019401929594939190612480565b845180511515875287810151151588880152818101518288015282810151838801526080808201516001600160a01b039081169189019190915260a0808301519089015260c09182015116908701528b9660e09096019590940193600193909301926124c9565b60005b8381106125655750506000910152565b8181015183820152602001612555565b9060209161258e81518092818552858086019101612552565b601f01601f1916010190565b5190811515820361031657565b80820392916103a08412610316576125bf908261231b565b926102809061011f1901818112610316576040519261024092838501926001600160401b03908685108286111761160557606013610316576102a09086820190811185821017611605576040526101209061261b84830161259a565b855261014061262b85820161259a565b9561026096878a0152610160908187016126449061259a565b868b01528952610180918287015160208b01526101a0938488015160408c01526101c0958689015160608d01526101e0978c898b016126829061259a565b90608001528c6102009b8c8c016126989061259a565b60a08301526102209d8e8d016126ad9061259a565b60c08401528c016126bd9061259a565b60e08301528b016126cd9061259a565b90610100015289016126de9061259a565b908c015287016126ed9061259a565b908a01526126fe6102c0870161259a565b9089015261270f6102e0860161259a565b90880152612720610300850161259a565b90870152612731610320840161259a565b90860152612742610340830161259a565b908501526103608101516001600160a01b0381168103610316576103809285015201519082015290565b604051638776c49960e01b8152600481018290526103a0816024817f00000000000000000000000000000000000000000000000000000000000000006001600160a01b03165afa908115612ac15760009081926131f3575b506004815110156131e1576040516304acdec560e21b8152600481018490526103a0816024817f00000000000000000000000000000000000000000000000000000000000000006001600160a01b03165afa908115612ac1576000916131af575b506020808301519101510361319d575160018103612acd5750906020906040610200938460018060a01b03910151168260005260008452816000209482519561286d87612155565b5495606065ffffffffffff8089168352808960301c169889898501528181841c168785015260901c169101528251956128a587612155565b8652600085870152600083870152600060608701528251916128c6836121a6565b600083526000868401526000848401526128f384516128e481612170565b6000815260018882015261338d565b91845193612900856121f0565b84526000878501526127108086860152606085015260016080850152600060a0850152600060c0850152600060e08501526000610100850152600061012085015260006101408501526000610160850152600061018085015260006101a085015260016101c085015260016101e0850152830152610220820152732232b334b3309033b0b6b290383430b9b290191760611b84612a3e612a2a85516129a481612227565b60008152612a0e8751966129b788612227565b60008852885163175b7be560e31b8152600481019a909a528b5160248b015260208c015160448b015260408c015160648b01526060909b01516001600160a01b031660848a015297998a98905b60a48a0190613217565b60006103248901526103a06103448901526103a4880190612461565b600319948588830301610364890152613319565b858103938401610384870152601481520152018160007f00000000000000000000000000000000000000000000000000000000000000006001600160a01b03165af1908115612ac157600091612a92575090565b906020823d602011612ab9575b81612aac60209383612242565b8101031261014157505190565b3d9150612a9f565b6040513d6000823e3d90fd5b6002036130785761020060018060a01b03910151168160005260016020526040600020906001600160581b03600160405193612b08856121a6565b818060a01b038154168552015460018060a01b038116602085015260a01c16604083015260405191612b3983612170565b6001835260005b60208110613037575060018060a01b0381511660018060a01b036020830151166001600160581b0360408401511660405191631982d67960e01b8352806004840152602083602481875afa928315612ac157600093613003575b5060405193612ba88561220c565b845260208401526040830152606082015260006080820152600060a0820152612bd08461242a565b52612bda8361242a565b50604051630af7f80160e21b8152916020836004817f00000000000000000000000000000000000000000000000000000000000000006001600160a01b03165afa928315612ac1576064936000918291612fe4575b506040516369e11cc560e01b81526101716004820152602481018390526044810188905294859182906001600160a01b03165afa928315612ac157600093612e97575b5092732232b334b3309033b0b6b290383430b9b290199760611b6020612a3e612a2a612d559896604096849960009280511515600014612e7c57612a0e929350612cba6123da565b938701516001600160a01b031661eeee8103612e7657506001905b8a5191612ce183612170565b825287820152612cf08461242a565b52612cfa8361242a565b505b896000526000865288600020612d4c8a5191612d1783612155565b54606065ffffffffffff938483168152848360301c168b820152848084841c16938f859084015260901c1691829101526123ac565b8a519d8e612155565b168c526000868d01526000898d0152600060608d0152885190612d77826121a6565b6000825260008783015260008a830152612da48a51612d9581612170565b6000815260008982015261338d565b908a5192612db1846121f0565b835260008884015260008b8401526000606084015260016080840152600060a0840152600160c0840152600060e08401526000610100840152600061012084015260006101408401526000610160840152600061018084015260006101a084015260016101c084015260016101e0840152610200830152610220820152612a0489519c8d9b63175b7be560e31b8d5260048d015260248c01906060908051835260208101516020840152604081015160408401528160018060a01b0391015116910152565b90612cd5565b5091612a0e9150885190612e8f82612227565b815291612cfc565b90923d8082843e612ea88184612242565b6020838281010312611217578251916001600160401b03831161014157818401601f848601011215610141578284015191612ee2836122c5565b94612ef06040519687612242565b8386526020860194828201602060e0870283850101011161123a57602081830101955b602060e0870283850101018710612f4d575095979550732232b334b3309033b0b6b290383430b9b290199760611b9450612c729350505050565b60e08785850103126112d357604051612f658161218b565b612f6e8861259a565b8152612f7c6020890161259a565b6020820152604088810151908201526060808901519082015260808801516001600160a01b0381168103611de257608082015260a0888101519082015260c08801516001600160a01b0381168103611de25760c0820152815260e09690960195602001612f13565b612ffd915060203d602011610353576103458183612242565b38612c2f565b90926020823d60201161302f575b8161301e60209383612242565b810103126101415750519138612b9a565b3d9150613011565b6020906040516130468161220c565b60008152600083820152600060408201526000606082015260006080820152600060a082015282828701015201612b40565b61020090810151604080519360209390926001600160a01b03169061309c86612155565b60008652600085870152600083870152600060608701528251916130bf836121a6565b600083526000868401526000848401526130ec84516130dd81612170565b6000815260008882015261338d565b918451936130f9856121f0565b84526000878501526127108086860152606085015260016080850152600060a0850152600060c0850152600060e08501526000610100850152600061012085015260006101408501526000610160850152600061018085015260006101a085015260016101c085015260016101e0850152830152610220820152732232b334b3309033b0b6b290383430b9b2901a1760611b84612a3e612a2a85516129a481612227565b6040516311f4338560e01b8152600490fd5b6131d391506103a03d6103a0116131da575b6131cb8183612242565b8101906125a7565b5038612825565b503d6131c1565b60405163dc7a251560e01b8152600490fd5b905061321091506103a03d6103a0116131da576131cb8183612242565b90386127c4565b61026090604081518051151585526020810151151560208601520151151560408401526020810151606084015260408101516080840152606081015160a08401526080810151151560c084015260a0810151151560e084015260c0810151151590610100918285015260e081015115159161012092838601528101511515916101409283860152810151151591610160928386015281015115159161018092838601528101511515916101a092838601528101511515916101c092838601528101511515916101e092838601528101511515916102009283860152810151151591610220928386015260018060a01b0390820151166102408501520151910152565b90815180825260208080930193019160005b828110613339575050505090565b835180516001600160a01b03908116875281840151168684015260408082015190870152606080820151908701526080808201519087015260a0908101519086015260c0909401939281019260010161332b565b9060009180516133a9575b602001516133a257565b9060021790565b60019250613398565b604051733d602d80600a3d3981f3363d3d373d3d3d363d7360601b815260609190911b60148201526e5af43d82803e903d91602b57fd5bf360881b60288201526037906000f0906001600160a01b0382161561340a57565b60405162461bcd60e51b8152602060048201526016602482015275115490cc4c4d8dce8818dc99585d194819985a5b195960521b6044820152606490fd5b80156134f45780816000925b6134da575061346282612263565b916134706040519384612242565b80835281601f1961348083612263565b013660208601375b61349157505090565b906000198201908282116123c4578192600a9260309084840682018092116123c457865111156124375760f81b6001600160f81b03191660001a908501601f0153049081613488565b909160001981146123c4576001019190600a900480613454565b5060405161350181612170565b60018152600360fc1b60208201529056fea26469706673582212200869feef58fd1163c6562321692717e124e90f04418f99cbe76683f85fb3994d64736f6c63430008110033",
    "linkReferences": {}
  },
  "methodIdentifiers": {
    "BALLKIDZ_PROJECT_ID()": "af9fbd19",
    "SPLIT_DOMAIN()": "ff16a2f2",
    "claimProtocolProjectToken()": "ca449a25",
    "controller()": "f77c4791",
    "currentGamePhaseOf(uint256)": "0715610a",
    "delegateCodeOrigin()": "06b552b5",
    "distributionLimit(uint256)": "27655cfd",
    "endOf(uint256)": "b965933e",
    "governorCodeOrigin()": "ff2a43cc",
    "launchGameWith((string,(string,uint256),string,string,(uint80,uint16,address,uint8,address,bytes32,bool,string)[],address,uint48,uint48,uint48,uint48,(bool,bool,uint256,uint256,address,uint256,address)[],uint88,address,uint256,address,address))": "c47c437c",
    "mintDurationOf(uint256)": "0589d292",
    "nextPhaseNeedsQueueing(uint256)": "81312a14",
    "onERC721Received(address,address,uint256,bytes)": "150b7a02",
    "protocolFeeProjectTokenAccount()": "3f3090d9",
    "queueNextPhaseOf(uint256)": "1c069dbb",
    "refundPeriodDurationOf(uint256)": "1109fff2",
    "startOf(uint256)": "b41e7f47",
    "terminalOf(uint256)": "4fe0eced",
    "timesFor(uint256)": "b07925d3",
    "tokenUriResolverCodeOrigin()": "80f07954"
  },
  "id": 1
}