{
  "abi": [
    {
      "inputs": [
        {
          "internalType": "address",
          "name": "_delegateCodeOrigin",
          "type": "address"
        },
        {
          "internalType": "address",
          "name": "_governorCodeOrigin",
          "type": "address"
        },
        {
          "internalType": "address",
          "name": "_tokenUriResolverCodeOrigin",
          "type": "address"
        },
        {
          "internalType": "contract IJBController3_1",
          "name": "_controller",
          "type": "address"
        },
        {
          "internalType": "address",
          "name": "_protocolFeeProjectTokenAccount",
          "type": "address"
        }
      ],
      "stateMutability": "nonpayable",
      "type": "constructor"
    },
    {
      "inputs": [],
      "name": "GAME_OVER",
      "type": "error"
    },
    {
      "inputs": [],
      "name": "INVALID_GAME_CONFIGURATION",
      "type": "error"
    },
    {
      "inputs": [],
      "name": "PHASE_ALREADY_QUEUED",
      "type": "error"
    },
    {
      "inputs": [],
      "name": "UNEXPECTED_TERMINAL_CURRENCY",
      "type": "error"
    },
    {
      "inputs": [],
      "name": "BALLKIDZ_PROJECT_ID",
      "outputs": [
        {
          "internalType": "uint256",
          "name": "",
          "type": "uint256"
        }
      ],
      "stateMutability": "view",
      "type": "function"
    },
    {
      "inputs": [],
      "name": "SPLIT_DOMAIN",
      "outputs": [
        {
          "internalType": "uint256",
          "name": "",
          "type": "uint256"
        }
      ],
      "stateMutability": "view",
      "type": "function"
    },
    {
      "inputs": [],
      "name": "claimProtocolProjectToken",
      "outputs": [],
      "stateMutability": "nonpayable",
      "type": "function"
    },
    {
      "inputs": [],
      "name": "controller",
      "outputs": [
        {
          "internalType": "contract IJBController3_1",
          "name": "",
          "type": "address"
        }
      ],
      "stateMutability": "view",
      "type": "function"
    },
    {
      "inputs": [
        {
          "internalType": "uint256",
          "name": "_gameId",
          "type": "uint256"
        }
      ],
      "name": "currentGamePhaseOf",
      "outputs": [
        {
          "internalType": "uint256",
          "name": "",
          "type": "uint256"
        }
      ],
      "stateMutability": "view",
      "type": "function"
    },
    {
      "inputs": [],
      "name": "delegateCodeOrigin",
      "outputs": [
        {
          "internalType": "address",
          "name": "",
          "type": "address"
        }
      ],
      "stateMutability": "view",
      "type": "function"
    },
    {
      "inputs": [
        {
          "internalType": "uint256",
          "name": "_gameId",
          "type": "uint256"
        }
      ],
      "name": "distributionLimit",
      "outputs": [
        {
          "internalType": "uint256",
          "name": "",
          "type": "uint256"
        }
      ],
      "stateMutability": "view",
      "type": "function"
    },
    {
      "inputs": [
        {
          "internalType": "uint256",
          "name": "_gameId",
          "type": "uint256"
        }
      ],
      "name": "endOf",
      "outputs": [
        {
          "internalType": "uint256",
          "name": "",
          "type": "uint256"
        }
      ],
      "stateMutability": "view",
      "type": "function"
    },
    {
      "inputs": [],
      "name": "governorCodeOrigin",
      "outputs": [
        {
          "internalType": "address",
          "name": "",
          "type": "address"
        }
      ],
      "stateMutability": "view",
      "type": "function"
    },
    {
      "inputs": [
        {
          "internalType": "uint256",
          "name": "_gameId",
          "type": "uint256"
        }
      ],
      "name": "holdFeesDuring",
      "outputs": [
        {
          "internalType": "bool",
          "name": "",
          "type": "bool"
        }
      ],
      "stateMutability": "view",
      "type": "function"
    },
    {
      "inputs": [
        {
          "components": [
            {
              "internalType": "string",
              "name": "name",
              "type": "string"
            },
            {
              "internalType": "string",
              "name": "symbol",
              "type": "string"
            },
            {
              "internalType": "string",
              "name": "baseUri",
              "type": "string"
            },
            {
              "internalType": "string",
              "name": "contractUri",
              "type": "string"
            },
            {
              "components": [
                {
                  "internalType": "uint80",
                  "name": "contributionFloor",
                  "type": "uint80"
                },
                {
                  "internalType": "uint48",
                  "name": "lockedUntil",
                  "type": "uint48"
                },
                {
                  "internalType": "uint40",
                  "name": "initialQuantity",
                  "type": "uint40"
                },
                {
                  "internalType": "uint16",
                  "name": "votingUnits",
                  "type": "uint16"
                },
                {
                  "internalType": "uint16",
                  "name": "reservedRate",
                  "type": "uint16"
                },
                {
                  "internalType": "address",
                  "name": "reservedTokenBeneficiary",
                  "type": "address"
                },
                {
                  "internalType": "uint8",
                  "name": "royaltyRate",
                  "type": "uint8"
                },
                {
                  "internalType": "address",
                  "name": "royaltyBeneficiary",
                  "type": "address"
                },
                {
                  "internalType": "bytes32",
                  "name": "encodedIPFSUri",
                  "type": "bytes32"
                },
                {
                  "internalType": "uint8",
                  "name": "category",
                  "type": "uint8"
                },
                {
                  "internalType": "bool",
                  "name": "allowManualMint",
                  "type": "bool"
                },
                {
                  "internalType": "bool",
                  "name": "shouldUseReservedTokenBeneficiaryAsDefault",
                  "type": "bool"
                },
                {
                  "internalType": "bool",
                  "name": "shouldUseRoyaltyBeneficiaryAsDefault",
                  "type": "bool"
                },
                {
                  "internalType": "bool",
                  "name": "transfersPausable",
                  "type": "bool"
                }
              ],
              "internalType": "struct JB721TierParams[]",
              "name": "tiers",
              "type": "tuple[]"
            },
            {
              "internalType": "string[]",
              "name": "tierNames",
              "type": "string[]"
            },
            {
              "internalType": "contract IJBTiered721DelegateStore",
              "name": "store",
              "type": "address"
            }
          ],
          "internalType": "struct DefifaDelegateData",
          "name": "_delegateData",
          "type": "tuple"
        },
        {
          "components": [
            {
              "components": [
                {
                  "internalType": "string",
                  "name": "content",
                  "type": "string"
                },
                {
                  "internalType": "uint256",
                  "name": "domain",
                  "type": "uint256"
                }
              ],
              "internalType": "struct JBProjectMetadata",
              "name": "projectMetadata",
              "type": "tuple"
            },
            {
              "internalType": "address",
              "name": "token",
              "type": "address"
            },
            {
              "internalType": "uint48",
              "name": "mintDuration",
              "type": "uint48"
            },
            {
              "internalType": "uint48",
              "name": "refundPeriodDuration",
              "type": "uint48"
            },
            {
              "internalType": "uint48",
              "name": "start",
              "type": "uint48"
            },
            {
              "internalType": "uint48",
              "name": "end",
              "type": "uint48"
            },
            {
              "internalType": "bool",
              "name": "holdFees",
              "type": "bool"
            },
            {
              "components": [
                {
                  "internalType": "bool",
                  "name": "preferClaimed",
                  "type": "bool"
                },
                {
                  "internalType": "bool",
                  "name": "preferAddToBalance",
                  "type": "bool"
                },
                {
                  "internalType": "uint256",
                  "name": "percent",
                  "type": "uint256"
                },
                {
                  "internalType": "uint256",
                  "name": "projectId",
                  "type": "uint256"
                },
                {
                  "internalType": "address payable",
                  "name": "beneficiary",
                  "type": "address"
                },
                {
                  "internalType": "uint256",
                  "name": "lockedUntil",
                  "type": "uint256"
                },
                {
                  "internalType": "contract IJBSplitAllocator",
                  "name": "allocator",
                  "type": "address"
                }
              ],
              "internalType": "struct JBSplit[]",
              "name": "splits",
              "type": "tuple[]"
            },
            {
              "internalType": "uint88",
              "name": "distributionLimit",
              "type": "uint88"
            },
            {
              "internalType": "address payable",
              "name": "ballkidzFeeProjectTokenAccount",
              "type": "address"
            },
            {
              "internalType": "contract IJBPaymentTerminal",
              "name": "terminal",
              "type": "address"
            }
          ],
          "internalType": "struct DefifaLaunchProjectData",
          "name": "_launchProjectData",
          "type": "tuple"
        }
      ],
      "name": "launchGameWith",
      "outputs": [
        {
          "internalType": "uint256",
          "name": "gameId",
          "type": "uint256"
        },
        {
          "internalType": "contract IDefifaGovernor",
          "name": "governor",
          "type": "address"
        }
      ],
      "stateMutability": "nonpayable",
      "type": "function"
    },
    {
      "inputs": [
        {
          "internalType": "uint256",
          "name": "_gameId",
          "type": "uint256"
        }
      ],
      "name": "mintDurationOf",
      "outputs": [
        {
          "internalType": "uint256",
          "name": "",
          "type": "uint256"
        }
      ],
      "stateMutability": "view",
      "type": "function"
    },
    {
      "inputs": [
        {
          "internalType": "uint256",
          "name": "_gameId",
          "type": "uint256"
        }
      ],
      "name": "nextPhaseNeedsQueueing",
      "outputs": [
        {
          "internalType": "bool",
          "name": "",
          "type": "bool"
        }
      ],
      "stateMutability": "view",
      "type": "function"
    },
    {
      "inputs": [
        {
          "internalType": "address",
          "name": "",
          "type": "address"
        },
        {
          "internalType": "address",
          "name": "",
          "type": "address"
        },
        {
          "internalType": "uint256",
          "name": "",
          "type": "uint256"
        },
        {
          "internalType": "bytes",
          "name": "",
          "type": "bytes"
        }
      ],
      "name": "onERC721Received",
      "outputs": [
        {
          "internalType": "bytes4",
          "name": "",
          "type": "bytes4"
        }
      ],
      "stateMutability": "pure",
      "type": "function"
    },
    {
      "inputs": [],
      "name": "protocolFeeProjectTokenAccount",
      "outputs": [
        {
          "internalType": "address",
          "name": "",
          "type": "address"
        }
      ],
      "stateMutability": "view",
      "type": "function"
    },
    {
      "inputs": [
        {
          "internalType": "uint256",
          "name": "_gameId",
          "type": "uint256"
        }
      ],
      "name": "queueNextPhaseOf",
      "outputs": [
        {
          "internalType": "uint256",
          "name": "configuration",
          "type": "uint256"
        }
      ],
      "stateMutability": "nonpayable",
      "type": "function"
    },
    {
      "inputs": [
        {
          "internalType": "uint256",
          "name": "_gameId",
          "type": "uint256"
        }
      ],
      "name": "refundPeriodDurationOf",
      "outputs": [
        {
          "internalType": "uint256",
          "name": "",
          "type": "uint256"
        }
      ],
      "stateMutability": "view",
      "type": "function"
    },
    {
      "inputs": [
        {
          "internalType": "uint256",
          "name": "_gameId",
          "type": "uint256"
        }
      ],
      "name": "startOf",
      "outputs": [
        {
          "internalType": "uint256",
          "name": "",
          "type": "uint256"
        }
      ],
      "stateMutability": "view",
      "type": "function"
    },
    {
      "inputs": [
        {
          "internalType": "uint256",
          "name": "_gameId",
          "type": "uint256"
        }
      ],
      "name": "terminalOf",
      "outputs": [
        {
          "internalType": "contract IJBPaymentTerminal",
          "name": "",
          "type": "address"
        }
      ],
      "stateMutability": "view",
      "type": "function"
    },
    {
      "inputs": [
        {
          "internalType": "uint256",
          "name": "_gameId",
          "type": "uint256"
        }
      ],
      "name": "timesFor",
      "outputs": [
        {
          "components": [
            {
              "internalType": "uint48",
              "name": "mintDuration",
              "type": "uint48"
            },
            {
              "internalType": "uint48",
              "name": "refundPeriodDuration",
              "type": "uint48"
            },
            {
              "internalType": "uint48",
              "name": "start",
              "type": "uint48"
            },
            {
              "internalType": "uint48",
              "name": "end",
              "type": "uint48"
            }
          ],
          "internalType": "struct DefifaTimeData",
          "name": "",
          "type": "tuple"
        }
      ],
      "stateMutability": "view",
      "type": "function"
    },
    {
      "inputs": [],
      "name": "tokenUriResolverCodeOrigin",
      "outputs": [
        {
          "internalType": "address",
          "name": "",
          "type": "address"
        }
      ],
      "stateMutability": "view",
      "type": "function"
    }
  ],
  "bytecode": {
    "object": "0x610120346200015857601f6200352338819003918201601f19168301916001600160401b038311848410176200015d5780849260a09460405283398101031262000158576200004e8162000173565b906200005d6020820162000173565b6200006b6040830162000173565b6060830151929091906001600160a01b03841684036200015857608062000093910162000173565b9360805260a05260c05260e05261010090815260405161339a91826200018983396080518281816109170152611f69015260a05182818161011d0152610f32015260c05182818161094a0152611c78015260e0518281816101810152818161066c01528181610988015281816109e201528181610eee015281816113e3015281816117f101528181611aaf01528181611e8a015281816125fb0152818161265e015281816128c701528181612a6e0152612d680152518181816118af0152611d210152f35b600080fd5b634e487b7160e01b600052604160045260246000fd5b51906001600160a01b0382168203620001585756fe608080604052600436101561001357600080fd5b600090813560e01c9081630589d29214611f985750806306b552b514611f535780630715610a14611e595780631109fff214611e25578063150b7a0214611daf5780631c069dbb14611d8857806327655cfd14611d505780633f3090d914611d0b5780634fe0eced14611cd85780637863263314611ca757806380f0795414611c6257806381312a1414611a82578063af9fbd1914611a65578063b07925d3146119c7578063b41e7f4714611993578063b965933e1461195f578063ca449a25146117c1578063d03495c2146101b0578063f77c47911461016b578063ff16a2f21461014f5763ff2a43cc1461010857600080fd5b3461014c578060031936011261014c576040517f00000000000000000000000000000000000000000000000000000000000000006001600160a01b03168152602090f35b80fd5b503461014c578060031936011261014c57602090604051908152f35b503461014c578060031936011261014c576040517f00000000000000000000000000000000000000000000000000000000000000006001600160a01b03168152602090f35b503461014c57604036600319011261014c576001600160401b036004351161014c5760e06004353603600319011261014c576040516101ee81612008565b600435600401356001600160401b038111610fea576102149060043691813501016120cc565b8152602460043501356001600160401b038111610fea5761023c9060043691813501016120cc565b6020820152604460043501356001600160401b038111610fea576102679060043691813501016120cc565b6040820152606460043501356001600160401b038111610fea576102929060043691813501016120cc565b6060820152608460043501356001600160401b038111610fea573660238260043501011215610fea576102cb6004828135010135612122565b906102d960405192836120ab565b60048035820190810135808452602084019291366101c090920201602401116110b6576024816004350101915b600480358301908101356101c00201602401831061167957505050608082015260a460043501356001600160401b038111610fea573660238260043501011215610fea5760048181350101359061035c82612122565b9161036a60405193846120ab565b80835260208301913660248360051b8360043501010111611675576024816004350101925b60248360051b836004350101018410611640575050505060a082015260043560c401356001600160a01b0381169003610ff95760c4600435013560c08201526001600160401b0360243511610ff95761016060243536036003190112610ff957604051806101608101106001600160401b036101608301111761162a5761016081016040526001600160401b036024356004013511610fea57604060031960243560048101350136030112610fea5761044b6101608201612023565b6001600160401b03600460243581013560243501013511610fea5761047f36600460243581810135018082013501016120cc565b61016082015260248035600401358135010135610180820152610160810181526104ac6024803501611fc6565b60208201526104bf604460243501612139565b60408201526104d2606460243501612139565b60608201526104e5608460243501612139565b60808201526104f860a460243501612139565b60a082015261050b60c460243501612169565b60c082015260e460243501356001600160401b0381116110e15736602382602435010112156110e1576004816024350101359061054782612122565b9161055560405193846120ab565b808352602083019136602460e0840283823501010111611626579160248381350101925b602460e08402828235010101841061158b575050505060e082015260243561010401356001600160581b0381169003610fea5761010460243501356101008201526105c961012460243501611fc6565b61012082015260243561014401356001600160a01b0381169003610fea57610144602435013561014082015265ffffffffffff60808201511615611578575b61064161062e65ffffffffffff60808401511665ffffffffffff60608501511690612226565b65ffffffffffff60408401511690612226565b65ffffffffffff429116108015611557575b611545576040516322de550f60e21b81526020816004817f00000000000000000000000000000000000000000000000000000000000000006001600160a01b03165afa908115610fee578491611500575b506040516306661abd60e01b81529290602090849060049082906001600160a01b03165afa928315610fee5784936114cc575b506001830183116114b85765ffffffffffff60408301511665ffffffffffff60608401511665ffffffffffff60808501511665ffffffffffff60a086015116906040519361072485611fda565b84526020840192835260408401908152606084019182526001870188528760205265ffffffffffff604089209451166bffffffffffff0000000000008554945160301b169165ffffffffffff60601b905160601b169265ffffffffffff60901b905160901b16936001600160401b0360c01b1617171717905560018060a01b036101408301511660016001600160581b0361010085015116818060a01b0360208601511660c0860151151590604051946107dd86611fda565b85526020850190815260408501928352606085019182528388018952836020526040892094848060a01b039051166bffffffffffffffffffffffff60a01b865416178555838060a01b03905116916001600160581b0360a01b905160a01b169060ff60f81b9051151560f81b1691171791015560e082015151611330575b6080810151610140830151602080850151604051631982d67960e01b81526001600160a01b0391821660048201529394939283916024918391165afa9081156113255786916112f3575b5061014084015160208086015160405163b7bad1b160e01b81526001600160a01b039182166004820152939284916024918391165afa9182156112e85787926112b4575b50604051936108f785611fda565b845260208401526040830152606082018590526001600160a01b0361093b7f00000000000000000000000000000000000000000000000000000000000000006132ce565b16916001600160a01b0361096e7f00000000000000000000000000000000000000000000000000000000000000006132ce565b6040516331070bc960e21b815291169290916020836004817f00000000000000000000000000000000000000000000000000000000000000006001600160a01b03165afa9283156112a9578893611261575b50815160208084015160405163557e715560e01b815292948b939092816004817f00000000000000000000000000000000000000000000000000000000000000006001600160a01b03165afa908115610fee578491611232575b5060408301519060608401519260a0600180821b0360c0870151169560405197610a4389611fda565b8089528060208a01526040890152600160608901520151978b3b1561122e57604051635574191360e11b815260018f0160048201526001600160a01b03909a1660248b01526101e060448b01528e9a99989796959493929190610aab906101e48b01906123cc565b8981036003190160648b0152610ac0916123cc565b6001600160a01b0390911660848901528781036003190160a4890152610ae5916123cc565b8760c48801526003198782030160e4880152610b00916123cc565b600319868203016101048701528351936080825260808201855180915260a0830195602001908a5b818110611139575050509060608260208296959401516020840152604081015160408401528160018060a01b0391015116910152610124860152805115156101448601526020810151151561016486015260408101511515610184860152015115156101a4840152600319838203016101c4840152815180825260208201916020808360051b83010194019287915b83831061110457505050505081808592038183885af19081156110115783916110f0575b5050803b15610ff95781809160246040518094819363189acdbd60e31b83528860048401525af180156110e5576110cd575b505061014082015160208084015160405163df21a7dd60e01b81526001600160a01b0391821660048201526001870160248201529283916044918391165afa9081156110c2578591611084575b50156110725783906024604051610c7081612023565b60018152602036818301376101408501516001600160a01b0316610c93826122a4565b52610e878551610e7465ffffffffffff6040890151169160405192610cb784611fda565b8352876020840152876040840152876060840152604051610cd78161203e565b88815288602082015288604082015260c08a01511515610d0b604051610cfc81612023565b8b8152600160208201526132a9565b9060405192610d1984612059565b83528a602084015261271080604085015260608401528a60808401528a60a08401528a60c08401528a60e08401528a6101008401528a6101208401528a61014084015261016083015289610180830152896101a083015260016101c083015260016101e08301528861020083015261022082015265ffffffffffff610dbc8b826060610db2826080850151168360408601511690612226565b9201511690612226565b610e5b60405193610dcc85612090565b60008552610e5160405198610de08a612090565b60008a526103e06040519d8e63b3c5267360e01b815230600482015201528c6104046020610e1c8b5160406103e48601526104248501906123cc565b9a0151910152805160448e0152602081015160648e0152604081015160848e0152606001516001600160a01b031660a48d0152565b60c48b0190613133565b16610344880152868203600319016103648801526122db565b8481036003190161038486015290613235565b600319838203016103a484015260208083519283815201920190855b8181106110505750505081810360031981016103c484015260148252732232b334b3309033b0b6b290383430b9b290189760611b602092830152829060400181866001600160a01b037f0000000000000000000000000000000000000000000000000000000000000000165af180156110115761101c575b5065ffffffffffff60a06001600160a01b03610f567f00000000000000000000000000000000000000000000000000000000000000006132ce565b1694015116833b15610fea576040519063cd6dc68760e01b82528260048301526024820152828160448183885af1908115611011578391610ffd575b5050803b15610ff957819060246040518094819363f2fde38b60e01b83528760048401525af18015610fee57610fd6575b6040838360018351920182526020820152f35b610fe08491611ff5565b610fea5782610fc3565b8280fd5b6040513d86823e3d90fd5b5080fd5b61100690611ff5565b610ff9578138610f92565b6040513d85823e3d90fd5b6020809293503d8311611049575b61103481836120ab565b8101031261104457839038610f1b565b600080fd5b503d61102a565b82516001600160a01b0316845289965060209384019390920191600101610ea3565b604051631b93d9cb60e11b8152600490fd5b90506020813d6020116110ba575b8161109f602093836120ab565b810103126110b6576110b09061240c565b38610c5a565b8480fd5b3d9150611092565b6040513d87823e3d90fd5b6110d690611ff5565b6110e1578338610c0d565b8380fd5b6040513d84823e3d90fd5b6110f990611ff5565b610ff9578138610bdb565b9193959697509193602080611125600193601f1986820301875289516123cc565b97019301930190928b979695949293610bb7565b919798999a50919293949560206101c06001928a5169ffffffffffffffffffff815116825265ffffffffffff84820151168483015264ffffffffff604082015116604083015261ffff8060608301511660608401526080820151166080830152848060a01b0360a08201511660a083015260ff8060c08301511660c0840152858060a01b0360e08301511660e0840152610100820151610100840152610120820151166101208301526101408101511515610140830152610160810151151561016083015261018081015115156101808301526101a0809101511515908201520198019101918e9a9998979695949392610b28565b8e80fd5b611254915060203d60201161125a575b61124c81836120ab565b810190612176565b38610a1a565b503d611242565b9092506020813d6020116112a1575b8161127d602093836120ab565b8101031261129d57516001600160a01b038116810361129d5791386109c0565b8780fd5b3d9150611270565b6040513d8a823e3d90fd5b9091506020813d6020116112e0575b816112d0602093836120ab565b81010312611044575190386108e9565b3d91506112c3565b6040513d89823e3d90fd5b90506020813d60201161131d575b8161130e602093836120ab565b810103126110445751386108a5565b3d9150611301565b6040513d88823e3d90fd5b83611339612254565b61012084015160405161139c916001600160a01b031661135882612008565b8482528460208301526302faf0806040830152610171606083015260808201528360a08201528360c082015260e086015180519161139683836122c7565b526122c7565b5060e0840151604051906113af82612023565b60018701825260208201526113c3826122a4565b526113cd816122a4565b50604051630af7f80160e21b81526020816004817f00000000000000000000000000000000000000000000000000000000000000006001600160a01b03165afa908115611011578391611499575b506001600160a01b0381163b15610fea57611466839291839260405194858094819363796d225b60e11b835261017160048401528360248401526060604484015260648301906122db565b03926001600160a01b03165af180156110e557611485575b505061085b565b61148e90611ff5565b6110e157833861147e565b6114b2915060203d60201161125a5761124c81836120ab565b3861141b565b634e487b7160e01b84526011600452602484fd5b9092506020813d6020116114f8575b816114e8602093836120ab565b81010312611044575191386106d7565b3d91506114db565b90506020813d60201161153d575b8161151b602093836120ab565b810103126110e15751916001600160a01b03831683036110e1579160206106a4565b3d915061150e565b604051633a7c40a160e11b8152600490fd5b5065ffffffffffff60a08201511665ffffffffffff60808301511611610653565b65ffffffffffff42166080820152610608565b60e08436031261129d576040516115a181612008565b6115aa85612169565b81526115b860208601612169565b602082015260408501356040820152606085013560608201526115dd60808601611fc6565b608082015260a0858101359082015260c08501356001600160a01b03811690036116225760e06020602494829360c089013560c0820152815201950194925050610579565b8880fd5b8680fd5b634e487b7160e01b600052604160045260246000fd5b6001600160401b038435116116265760208060249261166836858935886004350101016120cc565b815201940193905061038f565b8580fd5b6101c0833603126116755760405190816101c08101106001600160401b036101c08401111761162a576101c0820160405269ffffffffffffffffffff84351684350361162657833582526116cf60208501612139565b6020830152604084013564ffffffffff811690036116265760206101c091602493604087013560408201526117066060880161214c565b6060820152608061171881890161214c565b9082015260a0611729818901611fc6565b9082015260c061173a81890161215b565b9082015261174a60e08801611fc6565b60e0820152610100808801359082015261012061176881890161215b565b9082015261014061177a818901612169565b9082015261016061178c818901612169565b9082015261018061179e818901612169565b908201526101a06117b0818901612169565b908201528152019301929050610306565b503461014c578060031936011261014c57604051630619306360e41b8082529082906020906001600160a01b03907f00000000000000000000000000000000000000000000000000000000000000008216908381600481855afa9081156110c257849184918791611942575b50169560046040518094819382525afa908115610fee57829184918691611925575b50604460405180948193635287af3760e01b835230600484015260016024840152165afa928315610fee5784936118f5575b5050833b15610fea5760849083604051958694859363ac689bcd60e01b8552306004860152600160248601527f000000000000000000000000000000000000000000000000000000000000000016604485015260648401525af180156110e5576118e9575080f35b6118f290611ff5565b80f35b9080929350813d831161191e575b61190d81836120ab565b81010312610fea5751903880611881565b503d611903565b61193c9150823d841161125a5761124c81836120ab565b3861184f565b6119599150833d851161125a5761124c81836120ab565b3861182d565b503461014c57602036600319011261014c5765ffffffffffff60406020926004358152808452205460901c16604051908152f35b503461014c57602036600319011261014c5765ffffffffffff60406020926004358152808452205460601c16604051908152f35b503461014c57602036600319011261014c57604081608092606083516119ec81611fda565b828152826020820152828582015201526004358152806020522060405190611a1382611fda565b5465ffffffffffff9081808216938481528160208201818560301c16815281606060408501948288831c168652019560901c168552604051968752511660208601525116604084015251166060820152f35b503461014c578060031936011261014c5760206040516101718152f35b503461014c576020908160031936011261014c5760405163557e715560e01b808252916001600160a01b037f0000000000000000000000000000000000000000000000000000000000000000811660048035908790869081855afa948515610fee578495611c41575b5082939495604051966321d1336160e11b885282600489015287602481610120988994165afa968715611325579088918798611c05575b5060046040518095819382525afa9182156110c257908492918692611be3575b506024906040519485938492630b8aa00f60e31b84526004840152165afa928315611bd7578093611b9b575b505050826004835114159283611b8a575b506040518315158152f35b810151910151149050388281611b7f565b90918093503d8411611bd0575b611bb281846120ab565b8201928284031261014c575090611bc891612195565b388080611b6e565b503d611ba8565b604051903d90823e3d90fd5b6024919250611bfe90893d8b1161125a5761124c81836120ab565b9190611b42565b91509650843d8611611c3a575b611c1c81836120ab565b8101908581830312611626578891611c3391612195565b9638611b22565b503d611c12565b83949550611c5b90883d8a1161125a5761124c81836120ab565b9493611aeb565b503461014c578060031936011261014c576040517f00000000000000000000000000000000000000000000000000000000000000006001600160a01b03168152602090f35b503461014c57602036600319011261014c5760016040602092600435815282845220015460f81c6040519015158152f35b503461014c57602036600319011261014c57602090600435815260018252604060018060a01b0391205416604051908152f35b503461014c578060031936011261014c576040517f00000000000000000000000000000000000000000000000000000000000000006001600160a01b03168152602090f35b503461014c57602036600319011261014c576001600160581b0360016040602093600435815282855220015460a01c16604051908152f35b503461014c57602036600319011261014c576020611da76004356125de565b604051908152f35b503461014c57608036600319011261014c576001600160a01b0360043581811603610ff9576024359081160361014c576064356001600160401b03808211610fea5736602383011215610fea578160040135908111610fea573691016024011161014c57604051630a85bd0160e11b8152602090f35b503461014c57602036600319011261014c5765ffffffffffff60406020926004358152808452205460301c16604051908152f35b503461014c57602036600319011261014c5760405163557e715560e01b81526001600160a01b0391906020816004817f000000000000000000000000000000000000000000000000000000000000000087165afa9081156110e5578291611f35575b50604051906321d1336160e11b8252600435600483015281602481610120968794165afa918215611bd7578092611ef9575b60208351604051908152f35b909150823d8411611f2e575b611f0f81846120ab565b8201928284031261014c5750602091611f2791612195565b3880611eed565b503d611f05565b611f4d915060203d811161125a5761124c81836120ab565b38611ebb565b503461014c578060031936011261014c576040517f00000000000000000000000000000000000000000000000000000000000000006001600160a01b03168152602090f35b905034610ff9576020366003190112610ff95765ffffffffffff604060209360043581528085522054168152f35b35906001600160a01b038216820361104457565b608081019081106001600160401b0382111761162a57604052565b6001600160401b03811161162a57604052565b60e081019081106001600160401b0382111761162a57604052565b604081019081106001600160401b0382111761162a57604052565b606081019081106001600160401b0382111761162a57604052565b61024081019081106001600160401b0382111761162a57604052565b60c081019081106001600160401b0382111761162a57604052565b602081019081106001600160401b0382111761162a57604052565b90601f801991011681019081106001600160401b0382111761162a57604052565b81601f82011215611044578035906001600160401b03821161162a5760405192612100601f8401601f1916602001856120ab565b8284526020838301011161104457816000926020809301838601378301015290565b6001600160401b03811161162a5760051b60200190565b359065ffffffffffff8216820361104457565b359061ffff8216820361104457565b359060ff8216820361104457565b3590811515820361104457565b9081602091031261104457516001600160a01b03811681036110445790565b8092916101209182910312611044576040519081018181106001600160401b0382111761162a576040528092805182526020810151602083015260408101516040830152606081015160608301526080810151608083015260a081015160a083015260c081015160c083015260e081015160018060a01b03811681036110445760e083015261010080910151910152565b65ffffffffffff918216908216039190821161223e57565b634e487b7160e01b600052601160045260246000fd5b60409081519161226383612023565b600183528291600091825b60208082101561229b5782516020929161228782612023565b86825260608183015282890101520161226e565b50505091925050565b8051156122b15760200190565b634e487b7160e01b600052603260045260246000fd5b80518210156122b15760209160051b010190565b908082519081815260208091019281808460051b830101950193600080925b85841061230b575050505050505090565b9091929380959697601f1983820301855288519060408381830193805184520151928185840152835180915284606080940194019287925b82841061236557505050505090806001929901940194019295949391906122fa565b845180511515875287810151151588880152818101518288015282810151838801526080808201516001600160a01b039081169189019190915260a0808301519089015260c09182015116908701528b9660e0909601959094019360019390930192612343565b919082519283825260005b8481106123f8575050826000602080949584010152601f8019910116010190565b6020818301810151848301820152016123d7565b5190811515820361104457565b80820392916103a08412611044576124319082612195565b926102809061011f1901818112611044576040519261024092838501926001600160401b03908685108286111761162a57606013611044576102a0908682019081118582101761162a576040526101209061248d84830161240c565b855261014061249d85820161240c565b9561026096878a0152610160908187016124b69061240c565b868b01528952610180918287015160208b01526101a0938488015160408c01526101c0958689015160608d01526101e0978c898b016124f49061240c565b90608001528c6102009b8c8c0161250a9061240c565b60a08301526102209d8e8d0161251f9061240c565b60c08401528c0161252f9061240c565b60e08301528b0161253f9061240c565b90610100015289016125509061240c565b908c0152870161255f9061240c565b908a01526125706102c0870161240c565b908901526125816102e0860161240c565b90880152612592610300850161240c565b908701526125a3610320840161240c565b908601526125b4610340830161240c565b908501526103608101516001600160a01b0381168103611044576103809285015201519082015290565b604051638776c49960e01b8152600481018290526103a0816024817f00000000000000000000000000000000000000000000000000000000000000006001600160a01b03165afa90811561293257600090819261310f575b506004815110156130fd576040516304acdec560e21b8152600481018490526103a0816024817f00000000000000000000000000000000000000000000000000000000000000006001600160a01b03165afa908115612932576000916130cb575b50602080830151910151036130b957516001810361293e5750906020906040610200938460018060a01b0391015116826000526000845281600020948251956126df87611fda565b5495606065ffffffffffff8089168352808960301c169889898501528181841c168785015260901c1691015282519561271787611fda565b8652600085870152600083870152600060608701528251916127388361203e565b60008352600086840152600084840152612765845161275681612023565b600081526001888201526132a9565b9184519361277285612059565b84526000878501526127108086860152606085015260016080850152600060a0850152600060c0850152600060e08501526000610100850152600061012085015260006101408501526000610160850152600061018085015260006101a085015260016101c085015260016101e0850152830152610220820152732232b334b3309033b0b6b290383430b9b290191760611b846128af61289b855161281681612090565b6000815261287f87519661282988612090565b60008852885163175b7be560e31b8152600481019a909a528b5160248b015260208c015160448b015260408c015160648b01526060909b01516001600160a01b031660848a015297998a989060a48a0190613133565b60006103248901526103a06103448901526103a48801906122db565b600319948588830301610364890152613235565b858103938401610384870152601481520152018160007f00000000000000000000000000000000000000000000000000000000000000006001600160a01b03165af190811561293257600091612903575090565b906020823d60201161292a575b8161291d602093836120ab565b8101031261014c57505190565b3d9150612910565b6040513d6000823e3d90fd5b600203612f945761020001516000828152600160208190526040918290209151926001600160a01b03169161297284611fda565b818060a01b038154168452015460018060a01b03811660208401526001600160581b038160a01c16604084015260f81c15156060830152604051916129b683612023565b6001835260005b60208110612f53575060018060a01b0381511660018060a01b036020830151166001600160581b0360408401511660405191631982d67960e01b8352806004840152602083602481875afa92831561293257600093612f1f575b5060405193612a2585612075565b845260208401526040830152606082015260006080820152600060a0820152612a4d846122a4565b52612a57836122a4565b50604051630af7f80160e21b8152916020836004817f00000000000000000000000000000000000000000000000000000000000000006001600160a01b03165afa928315612932576064936000918291612f00575b506040516369e11cc560e01b81526101716004820152602481018390526044810188905294859182906001600160a01b03165afa92831561293257600093612dce575b50825160009015612db75750612b03612254565b60208301519093906001600160a01b031661eeee8103612db157506001905b60405191612b2f83612023565b82526020820152612b3f846122a4565b52612b49836122a4565b505b84600052600060205260406000209060405191612b6783611fda565b549165ffffffffffff928381168252838160301c16602083015283808260601c169182604085015260901c16606081930152612ba291612226565b9160405192612bb084611fda565b16825260208201600090526040820160009052606082016000905260405192612bd88461203e565b600084526020840160009052604084016000905260600151151590604051612bff81612023565b60008082526020820152612c12906132a9565b9160405194612c2086612059565b8552602085016000905260408501600090526060850160009052608085016001905260a085016000905260c085016001905260e08501600090526101008501600090526101208501600090526101408501600090526101608501526101808401600090526101a08401600090526101c08401600190526101e08401600190526102008401526102208301526040519463175b7be560e31b8652600486015260248501612cf2916060908051835260208101516020840152604081015160408401528160018060a01b0391015116910152565b60a48401612cff91613133565b60006103248401526103a0610344840152612d1f906103a48401906122db565b90600319918284820301610364850152612d3891613235565b82810391820161038484015260148152732232b334b3309033b0b6b290383430b9b290199760611b6020909101527f00000000000000000000000000000000000000000000000000000000000000006001600160a01b0316908290604001815a602094600091f190811561293257600091612903575090565b90612b22565b604051919350612dc682612090565b815291612b4b565b90923d8082843e612ddf81846120ab565b6020838281010312610ff9578251916001600160401b03831161014c57818401601f84860101121561014c578284015191612e1983612122565b94612e2760405196876120ab565b8386526020860194828201602060e087028385010101116110e157602081830101955b602060e0870283850101018710612e6957505050505050509138612aef565b60e08785850103126110b657604051612e8181612008565b612e8a8861240c565b8152612e986020890161240c565b6020820152604088810151908201526060808901519082015260808801516001600160a01b038116810361162657608082015260a0888101519082015260c08801516001600160a01b03811681036116265760c0820152815260e09690960195602001612e4a565b612f19915060203d60201161125a5761124c81836120ab565b38612aac565b90926020823d602011612f4b575b81612f3a602093836120ab565b8101031261014c5750519138612a17565b3d9150612f2d565b602090604051612f6281612075565b60008152600083820152600060408201526000606082015260006080820152600060a0820152828287010152016129bd565b61020090810151604080519360209390926001600160a01b031690612fb886611fda565b6000865260008587015260008387015260006060870152825191612fdb8361203e565b600083526000868401526000848401526130088451612ff981612023565b600081526000888201526132a9565b9184519361301585612059565b84526000878501526127108086860152606085015260016080850152600060a0850152600060c0850152600060e08501526000610100850152600061012085015260006101408501526000610160850152600061018085015260006101a085015260016101c085015260016101e0850152830152610220820152732232b334b3309033b0b6b290383430b9b2901a1760611b846128af61289b855161281681612090565b6040516311f4338560e01b8152600490fd5b6130ef91506103a03d6103a0116130f6575b6130e781836120ab565b810190612419565b5038612697565b503d6130dd565b60405163dc7a251560e01b8152600490fd5b905061312c91506103a03d6103a0116130f6576130e781836120ab565b9038612636565b61026090604081518051151585526020810151151560208601520151151560408401526020810151606084015260408101516080840152606081015160a08401526080810151151560c084015260a0810151151560e084015260c0810151151590610100918285015260e081015115159161012092838601528101511515916101409283860152810151151591610160928386015281015115159161018092838601528101511515916101a092838601528101511515916101c092838601528101511515916101e092838601528101511515916102009283860152810151151591610220928386015260018060a01b0390820151166102408501520151910152565b90815180825260208080930193019160005b828110613255575050505090565b835180516001600160a01b03908116875281840151168684015260408082015190870152606080820151908701526080808201519087015260a0908101519086015260c09094019392810192600101613247565b9060009180516132c5575b602001516132be57565b9060021790565b600192506132b4565b604051733d602d80600a3d3981f3363d3d373d3d3d363d7360601b815260609190911b60148201526e5af43d82803e903d91602b57fd5bf360881b60288201526037906000f0906001600160a01b0382161561332657565b60405162461bcd60e51b8152602060048201526016602482015275115490cc4c4d8dce8818dc99585d194819985a5b195960521b6044820152606490fdfea2646970667358221220a48922c4835f661007eb60855226db6da1f004fb1fdfc4afd7960e6f1670fde264736f6c63430008110033",
    "linkReferences": {}
  },
  "methodIdentifiers": {
    "BALLKIDZ_PROJECT_ID()": "af9fbd19",
    "SPLIT_DOMAIN()": "ff16a2f2",
    "claimProtocolProjectToken()": "ca449a25",
    "controller()": "f77c4791",
    "currentGamePhaseOf(uint256)": "0715610a",
    "delegateCodeOrigin()": "06b552b5",
    "distributionLimit(uint256)": "27655cfd",
    "endOf(uint256)": "b965933e",
    "governorCodeOrigin()": "ff2a43cc",
    "holdFeesDuring(uint256)": "78632633",
    "launchGameWith((string,string,string,string,(uint80,uint48,uint40,uint16,uint16,address,uint8,address,bytes32,uint8,bool,bool,bool,bool)[],string[],address),((string,uint256),address,uint48,uint48,uint48,uint48,bool,(bool,bool,uint256,uint256,address,uint256,address)[],uint88,address,address))": "d03495c2",
    "mintDurationOf(uint256)": "0589d292",
    "nextPhaseNeedsQueueing(uint256)": "81312a14",
    "onERC721Received(address,address,uint256,bytes)": "150b7a02",
    "protocolFeeProjectTokenAccount()": "3f3090d9",
    "queueNextPhaseOf(uint256)": "1c069dbb",
    "refundPeriodDurationOf(uint256)": "1109fff2",
    "startOf(uint256)": "b41e7f47",
    "terminalOf(uint256)": "4fe0eced",
    "timesFor(uint256)": "b07925d3",
    "tokenUriResolverCodeOrigin()": "80f07954"
  },
  "id": 1
}